{
	"contracts/proposal.sol": {
		"ProposalContract": {
			"abi": [
				{
					"inputs": [],
					"stateMutability": "nonpayable",
					"type": "constructor"
				},
				{
					"inputs": [
						{
							"internalType": "string",
							"name": "_title",
							"type": "string"
						},
						{
							"internalType": "string",
							"name": "_description",
							"type": "string"
						},
						{
							"internalType": "uint256",
							"name": "_total_vote_to_end",
							"type": "uint256"
						}
					],
					"name": "create",
					"outputs": [],
					"stateMutability": "nonpayable",
					"type": "function"
				},
				{
					"inputs": [],
					"name": "getCurrentProposal",
					"outputs": [
						{
							"components": [
								{
									"internalType": "string",
									"name": "title",
									"type": "string"
								},
								{
									"internalType": "string",
									"name": "description",
									"type": "string"
								},
								{
									"internalType": "uint256",
									"name": "approve",
									"type": "uint256"
								},
								{
									"internalType": "uint256",
									"name": "reject",
									"type": "uint256"
								},
								{
									"internalType": "uint256",
									"name": "pass",
									"type": "uint256"
								},
								{
									"internalType": "uint256",
									"name": "total_vote_to_end",
									"type": "uint256"
								},
								{
									"internalType": "bool",
									"name": "current_state",
									"type": "bool"
								},
								{
									"internalType": "bool",
									"name": "is_active",
									"type": "bool"
								}
							],
							"internalType": "struct ProposalContract.Proposal",
							"name": "",
							"type": "tuple"
						}
					],
					"stateMutability": "view",
					"type": "function"
				},
				{
					"inputs": [
						{
							"internalType": "uint256",
							"name": "number",
							"type": "uint256"
						}
					],
					"name": "getProposal",
					"outputs": [
						{
							"components": [
								{
									"internalType": "string",
									"name": "title",
									"type": "string"
								},
								{
									"internalType": "string",
									"name": "description",
									"type": "string"
								},
								{
									"internalType": "uint256",
									"name": "approve",
									"type": "uint256"
								},
								{
									"internalType": "uint256",
									"name": "reject",
									"type": "uint256"
								},
								{
									"internalType": "uint256",
									"name": "pass",
									"type": "uint256"
								},
								{
									"internalType": "uint256",
									"name": "total_vote_to_end",
									"type": "uint256"
								},
								{
									"internalType": "bool",
									"name": "current_state",
									"type": "bool"
								},
								{
									"internalType": "bool",
									"name": "is_active",
									"type": "bool"
								}
							],
							"internalType": "struct ProposalContract.Proposal",
							"name": "",
							"type": "tuple"
						}
					],
					"stateMutability": "view",
					"type": "function"
				},
				{
					"inputs": [
						{
							"internalType": "address",
							"name": "new_owner",
							"type": "address"
						}
					],
					"name": "setOwner",
					"outputs": [],
					"stateMutability": "nonpayable",
					"type": "function"
				},
				{
					"inputs": [],
					"name": "teminateProposal",
					"outputs": [],
					"stateMutability": "nonpayable",
					"type": "function"
				},
				{
					"inputs": [
						{
							"internalType": "uint8",
							"name": "choice",
							"type": "uint8"
						}
					],
					"name": "vote",
					"outputs": [],
					"stateMutability": "nonpayable",
					"type": "function"
				}
			],
			"devdoc": {
				"kind": "dev",
				"methods": {},
				"version": 1
			},
			"evm": {
				"assembly": "    /* \"contracts/proposal.sol\":59:5024  contract ProposalContract { ... */\n  mstore(0x40, 0x80)\n    /* \"contracts/proposal.sol\":1084:1248  constructor() {... */\n  callvalue\n  dup1\n  iszero\n  tag_1\n  jumpi\n  0x00\n  dup1\n  revert\ntag_1:\n  pop\n    /* \"contracts/proposal.sol\":1126:1136  msg.sender */\n  caller\n    /* \"contracts/proposal.sol\":1118:1123  owner */\n  0x00\n  dup1\n    /* \"contracts/proposal.sol\":1118:1136  owner = msg.sender */\n  0x0100\n  exp\n  dup2\n  sload\n  dup2\n  0xffffffffffffffffffffffffffffffffffffffff\n  mul\n  not\n  and\n  swap1\n  dup4\n  0xffffffffffffffffffffffffffffffffffffffff\n  and\n  mul\n  or\n  swap1\n  sstore\n  pop\n    /* \"contracts/proposal.sol\":59:5024  contract ProposalContract { ... */\n  dataSize(sub_0)\n  dup1\n  dataOffset(sub_0)\n  0x00\n  codecopy\n  0x00\n  return\nstop\n\nsub_0: assembly {\n        /* \"contracts/proposal.sol\":59:5024  contract ProposalContract { ... */\n      mstore(0x40, 0x80)\n      callvalue\n      dup1\n      iszero\n      tag_1\n      jumpi\n      0x00\n      dup1\n      revert\n    tag_1:\n      pop\n      jumpi(tag_2, lt(calldatasize, 0x04))\n      shr(0xe0, calldataload(0x00))\n      dup1\n      0x13af4035\n      eq\n      tag_3\n      jumpi\n      dup1\n      0x3ca6d100\n      eq\n      tag_4\n      jumpi\n      dup1\n      0x41ec6870\n      eq\n      tag_5\n      jumpi\n      dup1\n      0x89190393\n      eq\n      tag_6\n      jumpi\n      dup1\n      0xb3f98adc\n      eq\n      tag_7\n      jumpi\n      dup1\n      0xc7f758a8\n      eq\n      tag_8\n      jumpi\n    tag_2:\n      0x00\n      dup1\n      revert\n        /* \"contracts/proposal.sol\":1801:1909  function setOwner(address new_owner) external onlyOwner {... */\n    tag_3:\n      tag_9\n      0x04\n      dup1\n      calldatasize\n      sub\n      dup2\n      add\n      swap1\n      tag_10\n      swap2\n      swap1\n      tag_11\n      jump\t// in\n    tag_10:\n      tag_12\n      jump\t// in\n    tag_9:\n      stop\n        /* \"contracts/proposal.sol\":1925:2336  function create(string calldata _title,string calldata _description, uint256 _total_vote_to_end) external onlyOwner {... */\n    tag_4:\n      tag_13\n      0x04\n      dup1\n      calldatasize\n      sub\n      dup2\n      add\n      swap1\n      tag_14\n      swap2\n      swap1\n      tag_15\n      jump\t// in\n    tag_14:\n      tag_16\n      jump\t// in\n    tag_13:\n      stop\n        /* \"contracts/proposal.sol\":4630:4766  function getCurrentProposal() external view returns(Proposal memory) {... */\n    tag_5:\n      tag_17\n      tag_18\n      jump\t// in\n    tag_17:\n      mload(0x40)\n      tag_19\n      swap2\n      swap1\n      tag_20\n      jump\t// in\n    tag_19:\n      mload(0x40)\n      dup1\n      swap2\n      sub\n      swap1\n      return\n        /* \"contracts/proposal.sol\":4482:4614  function teminateProposal() external onlyOwner active {... */\n    tag_6:\n      tag_21\n      tag_22\n      jump\t// in\n    tag_21:\n      stop\n        /* \"contracts/proposal.sol\":3208:4466  function vote(uint8 choice) external active newVoter(msg.sender) {... */\n    tag_7:\n      tag_23\n      0x04\n      dup1\n      calldatasize\n      sub\n      dup2\n      add\n      swap1\n      tag_24\n      swap2\n      swap1\n      tag_25\n      jump\t// in\n    tag_24:\n      tag_26\n      jump\t// in\n    tag_23:\n      stop\n        /* \"contracts/proposal.sol\":4782:5015  function getProposal(uint256 number) external view returns(Proposal memory) {... */\n    tag_8:\n      tag_27\n      0x04\n      dup1\n      calldatasize\n      sub\n      dup2\n      add\n      swap1\n      tag_28\n      swap2\n      swap1\n      tag_29\n      jump\t// in\n    tag_28:\n      tag_30\n      jump\t// in\n    tag_27:\n      mload(0x40)\n      tag_31\n      swap2\n      swap1\n      tag_20\n      jump\t// in\n    tag_31:\n      mload(0x40)\n      dup1\n      swap2\n      sub\n      swap1\n      return\n        /* \"contracts/proposal.sol\":1801:1909  function setOwner(address new_owner) external onlyOwner {... */\n    tag_12:\n        /* \"contracts/proposal.sol\":1362:1367  owner */\n      0x00\n      dup1\n      sload\n      swap1\n      0x0100\n      exp\n      swap1\n      div\n      0xffffffffffffffffffffffffffffffffffffffff\n      and\n        /* \"contracts/proposal.sol\":1348:1367  msg.sender == owner */\n      0xffffffffffffffffffffffffffffffffffffffff\n      and\n        /* \"contracts/proposal.sol\":1348:1358  msg.sender */\n      caller\n        /* \"contracts/proposal.sol\":1348:1367  msg.sender == owner */\n      0xffffffffffffffffffffffffffffffffffffffff\n      and\n      eq\n        /* \"contracts/proposal.sol\":1340:1368  require(msg.sender == owner) */\n      tag_33\n      jumpi\n      0x00\n      dup1\n      revert\n    tag_33:\n        /* \"contracts/proposal.sol\":1884:1893  new_owner */\n      dup1\n        /* \"contracts/proposal.sol\":1876:1881  owner */\n      0x00\n      dup1\n        /* \"contracts/proposal.sol\":1876:1893  owner = new_owner */\n      0x0100\n      exp\n      dup2\n      sload\n      dup2\n      0xffffffffffffffffffffffffffffffffffffffff\n      mul\n      not\n      and\n      swap1\n      dup4\n      0xffffffffffffffffffffffffffffffffffffffff\n      and\n      mul\n      or\n      swap1\n      sstore\n      pop\n        /* \"contracts/proposal.sol\":1801:1909  function setOwner(address new_owner) external onlyOwner {... */\n      pop\n      jump\t// out\n        /* \"contracts/proposal.sol\":1925:2336  function create(string calldata _title,string calldata _description, uint256 _total_vote_to_end) external onlyOwner {... */\n    tag_16:\n        /* \"contracts/proposal.sol\":1362:1367  owner */\n      0x00\n      dup1\n      sload\n      swap1\n      0x0100\n      exp\n      swap1\n      div\n      0xffffffffffffffffffffffffffffffffffffffff\n      and\n        /* \"contracts/proposal.sol\":1348:1367  msg.sender == owner */\n      0xffffffffffffffffffffffffffffffffffffffff\n      and\n        /* \"contracts/proposal.sol\":1348:1358  msg.sender */\n      caller\n        /* \"contracts/proposal.sol\":1348:1367  msg.sender == owner */\n      0xffffffffffffffffffffffffffffffffffffffff\n      and\n      eq\n        /* \"contracts/proposal.sol\":1340:1368  require(msg.sender == owner) */\n      tag_36\n      jumpi\n      0x00\n      dup1\n      revert\n    tag_36:\n        /* \"contracts/proposal.sol\":2069:2085  proposal_history */\n      0x02\n        /* \"contracts/proposal.sol\":2069:2094  proposal_history[counter] */\n      0x00\n        /* \"contracts/proposal.sol\":2086:2093  counter */\n      sload(0x01)\n        /* \"contracts/proposal.sol\":2069:2094  proposal_history[counter] */\n      dup2\n      mstore\n      0x20\n      add\n      swap1\n      dup2\n      mstore\n      0x20\n      add\n      0x00\n      keccak256\n        /* \"contracts/proposal.sol\":2069:2104  proposal_history[counter].is_active */\n      0x06\n      add\n      0x01\n      swap1\n      sload\n      swap1\n      0x0100\n      exp\n      swap1\n      div\n      0xff\n      and\n        /* \"contracts/proposal.sol\":2068:2104  !proposal_history[counter].is_active */\n      iszero\n        /* \"contracts/proposal.sol\":2060:2140  require(!proposal_history[counter].is_active, \"Existing proposal still active.\") */\n      tag_38\n      jumpi\n      mload(0x40)\n      0x08c379a000000000000000000000000000000000000000000000000000000000\n      dup2\n      mstore\n      0x04\n      add\n      tag_39\n      swap1\n      tag_40\n      jump\t// in\n    tag_39:\n      mload(0x40)\n      dup1\n      swap2\n      sub\n      swap1\n      revert\n    tag_38:\n        /* \"contracts/proposal.sol\":2201:2202  1 */\n      0x01\n        /* \"contracts/proposal.sol\":2190:2197  counter */\n      dup1\n      0x00\n        /* \"contracts/proposal.sol\":2190:2202  counter += 1 */\n      dup3\n      dup3\n      sload\n      tag_41\n      swap2\n      swap1\n      tag_42\n      jump\t// in\n    tag_41:\n      swap3\n      pop\n      pop\n      dup2\n      swap1\n      sstore\n      pop\n        /* \"contracts/proposal.sol\":2249:2320  Proposal(_title,_description, 0, 0, 0, _total_vote_to_end, false, true) */\n      mload(0x40)\n      dup1\n      0x0100\n      add\n      0x40\n      mstore\n      dup1\n        /* \"contracts/proposal.sol\":2258:2264  _title */\n      dup7\n      dup7\n        /* \"contracts/proposal.sol\":2249:2320  Proposal(_title,_description, 0, 0, 0, _total_vote_to_end, false, true) */\n      dup1\n      dup1\n      0x1f\n      add\n      0x20\n      dup1\n      swap2\n      div\n      mul\n      0x20\n      add\n      mload(0x40)\n      swap1\n      dup2\n      add\n      0x40\n      mstore\n      dup1\n      swap4\n      swap3\n      swap2\n      swap1\n      dup2\n      dup2\n      mstore\n      0x20\n      add\n      dup4\n      dup4\n      dup1\n      dup3\n      dup5\n      calldatacopy\n      0x00\n      dup2\n      dup5\n      add\n      mstore\n      not(0x1f)\n      0x1f\n      dup3\n      add\n      and\n      swap1\n      pop\n      dup1\n      dup4\n      add\n      swap3\n      pop\n      pop\n      pop\n      pop\n      pop\n      pop\n      pop\n      dup2\n      mstore\n      0x20\n      add\n        /* \"contracts/proposal.sol\":2265:2277  _description */\n      dup5\n      dup5\n        /* \"contracts/proposal.sol\":2249:2320  Proposal(_title,_description, 0, 0, 0, _total_vote_to_end, false, true) */\n      dup1\n      dup1\n      0x1f\n      add\n      0x20\n      dup1\n      swap2\n      div\n      mul\n      0x20\n      add\n      mload(0x40)\n      swap1\n      dup2\n      add\n      0x40\n      mstore\n      dup1\n      swap4\n      swap3\n      swap2\n      swap1\n      dup2\n      dup2\n      mstore\n      0x20\n      add\n      dup4\n      dup4\n      dup1\n      dup3\n      dup5\n      calldatacopy\n      0x00\n      dup2\n      dup5\n      add\n      mstore\n      not(0x1f)\n      0x1f\n      dup3\n      add\n      and\n      swap1\n      pop\n      dup1\n      dup4\n      add\n      swap3\n      pop\n      pop\n      pop\n      pop\n      pop\n      pop\n      pop\n      dup2\n      mstore\n      0x20\n      add\n        /* \"contracts/proposal.sol\":2279:2280  0 */\n      0x00\n        /* \"contracts/proposal.sol\":2249:2320  Proposal(_title,_description, 0, 0, 0, _total_vote_to_end, false, true) */\n      dup2\n      mstore\n      0x20\n      add\n        /* \"contracts/proposal.sol\":2282:2283  0 */\n      0x00\n        /* \"contracts/proposal.sol\":2249:2320  Proposal(_title,_description, 0, 0, 0, _total_vote_to_end, false, true) */\n      dup2\n      mstore\n      0x20\n      add\n        /* \"contracts/proposal.sol\":2285:2286  0 */\n      0x00\n        /* \"contracts/proposal.sol\":2249:2320  Proposal(_title,_description, 0, 0, 0, _total_vote_to_end, false, true) */\n      dup2\n      mstore\n      0x20\n      add\n        /* \"contracts/proposal.sol\":2288:2306  _total_vote_to_end */\n      dup3\n        /* \"contracts/proposal.sol\":2249:2320  Proposal(_title,_description, 0, 0, 0, _total_vote_to_end, false, true) */\n      dup2\n      mstore\n      0x20\n      add\n        /* \"contracts/proposal.sol\":2308:2313  false */\n      0x00\n        /* \"contracts/proposal.sol\":2249:2320  Proposal(_title,_description, 0, 0, 0, _total_vote_to_end, false, true) */\n      iszero\n      iszero\n      dup2\n      mstore\n      0x20\n      add\n        /* \"contracts/proposal.sol\":2315:2319  true */\n      0x01\n        /* \"contracts/proposal.sol\":2249:2320  Proposal(_title,_description, 0, 0, 0, _total_vote_to_end, false, true) */\n      iszero\n      iszero\n      dup2\n      mstore\n      pop\n        /* \"contracts/proposal.sol\":2221:2237  proposal_history */\n      0x02\n        /* \"contracts/proposal.sol\":2221:2246  proposal_history[counter] */\n      0x00\n        /* \"contracts/proposal.sol\":2238:2245  counter */\n      sload(0x01)\n        /* \"contracts/proposal.sol\":2221:2246  proposal_history[counter] */\n      dup2\n      mstore\n      0x20\n      add\n      swap1\n      dup2\n      mstore\n      0x20\n      add\n      0x00\n      keccak256\n        /* \"contracts/proposal.sol\":2221:2320  proposal_history[counter] = Proposal(_title,_description, 0, 0, 0, _total_vote_to_end, false, true) */\n      0x00\n      dup3\n      add\n      mload\n      dup2\n      0x00\n      add\n      swap1\n      dup2\n      tag_43\n      swap2\n      swap1\n      tag_44\n      jump\t// in\n    tag_43:\n      pop\n      0x20\n      dup3\n      add\n      mload\n      dup2\n      0x01\n      add\n      swap1\n      dup2\n      tag_45\n      swap2\n      swap1\n      tag_44\n      jump\t// in\n    tag_45:\n      pop\n      0x40\n      dup3\n      add\n      mload\n      dup2\n      0x02\n      add\n      sstore\n      0x60\n      dup3\n      add\n      mload\n      dup2\n      0x03\n      add\n      sstore\n      0x80\n      dup3\n      add\n      mload\n      dup2\n      0x04\n      add\n      sstore\n      0xa0\n      dup3\n      add\n      mload\n      dup2\n      0x05\n      add\n      sstore\n      0xc0\n      dup3\n      add\n      mload\n      dup2\n      0x06\n      add\n      exp(0x0100, 0x00)\n      dup2\n      sload\n      dup2\n      0xff\n      mul\n      not\n      and\n      swap1\n      dup4\n      iszero\n      iszero\n      mul\n      or\n      swap1\n      sstore\n      pop\n      0xe0\n      dup3\n      add\n      mload\n      dup2\n      0x06\n      add\n      exp(0x0100, 0x01)\n      dup2\n      sload\n      dup2\n      0xff\n      mul\n      not\n      and\n      swap1\n      dup4\n      iszero\n      iszero\n      mul\n      or\n      swap1\n      sstore\n      pop\n      swap1\n      pop\n      pop\n        /* \"contracts/proposal.sol\":1925:2336  function create(string calldata _title,string calldata _description, uint256 _total_vote_to_end) external onlyOwner {... */\n      pop\n      pop\n      pop\n      pop\n      pop\n      jump\t// out\n        /* \"contracts/proposal.sol\":4630:4766  function getCurrentProposal() external view returns(Proposal memory) {... */\n    tag_18:\n        /* \"contracts/proposal.sol\":4682:4697  Proposal memory */\n      tag_46\n      tag_47\n      jump\t// in\n    tag_46:\n        /* \"contracts/proposal.sol\":4725:4741  proposal_history */\n      0x02\n        /* \"contracts/proposal.sol\":4725:4750  proposal_history[counter] */\n      0x00\n        /* \"contracts/proposal.sol\":4742:4749  counter */\n      sload(0x01)\n        /* \"contracts/proposal.sol\":4725:4750  proposal_history[counter] */\n      dup2\n      mstore\n      0x20\n      add\n      swap1\n      dup2\n      mstore\n      0x20\n      add\n      0x00\n      keccak256\n        /* \"contracts/proposal.sol\":4718:4750  return proposal_history[counter] */\n      mload(0x40)\n      dup1\n      0x0100\n      add\n      0x40\n      mstore\n      swap1\n      dup2\n      0x00\n      dup3\n      add\n      dup1\n      sload\n      tag_49\n      swap1\n      tag_50\n      jump\t// in\n    tag_49:\n      dup1\n      0x1f\n      add\n      0x20\n      dup1\n      swap2\n      div\n      mul\n      0x20\n      add\n      mload(0x40)\n      swap1\n      dup2\n      add\n      0x40\n      mstore\n      dup1\n      swap3\n      swap2\n      swap1\n      dup2\n      dup2\n      mstore\n      0x20\n      add\n      dup3\n      dup1\n      sload\n      tag_51\n      swap1\n      tag_50\n      jump\t// in\n    tag_51:\n      dup1\n      iszero\n      tag_52\n      jumpi\n      dup1\n      0x1f\n      lt\n      tag_53\n      jumpi\n      0x0100\n      dup1\n      dup4\n      sload\n      div\n      mul\n      dup4\n      mstore\n      swap2\n      0x20\n      add\n      swap2\n      jump(tag_52)\n    tag_53:\n      dup3\n      add\n      swap2\n      swap1\n      0x00\n      mstore\n      keccak256(0x00, 0x20)\n      swap1\n    tag_54:\n      dup2\n      sload\n      dup2\n      mstore\n      swap1\n      0x01\n      add\n      swap1\n      0x20\n      add\n      dup1\n      dup4\n      gt\n      tag_54\n      jumpi\n      dup3\n      swap1\n      sub\n      0x1f\n      and\n      dup3\n      add\n      swap2\n    tag_52:\n      pop\n      pop\n      pop\n      pop\n      pop\n      dup2\n      mstore\n      0x20\n      add\n      0x01\n      dup3\n      add\n      dup1\n      sload\n      tag_55\n      swap1\n      tag_50\n      jump\t// in\n    tag_55:\n      dup1\n      0x1f\n      add\n      0x20\n      dup1\n      swap2\n      div\n      mul\n      0x20\n      add\n      mload(0x40)\n      swap1\n      dup2\n      add\n      0x40\n      mstore\n      dup1\n      swap3\n      swap2\n      swap1\n      dup2\n      dup2\n      mstore\n      0x20\n      add\n      dup3\n      dup1\n      sload\n      tag_56\n      swap1\n      tag_50\n      jump\t// in\n    tag_56:\n      dup1\n      iszero\n      tag_57\n      jumpi\n      dup1\n      0x1f\n      lt\n      tag_58\n      jumpi\n      0x0100\n      dup1\n      dup4\n      sload\n      div\n      mul\n      dup4\n      mstore\n      swap2\n      0x20\n      add\n      swap2\n      jump(tag_57)\n    tag_58:\n      dup3\n      add\n      swap2\n      swap1\n      0x00\n      mstore\n      keccak256(0x00, 0x20)\n      swap1\n    tag_59:\n      dup2\n      sload\n      dup2\n      mstore\n      swap1\n      0x01\n      add\n      swap1\n      0x20\n      add\n      dup1\n      dup4\n      gt\n      tag_59\n      jumpi\n      dup3\n      swap1\n      sub\n      0x1f\n      and\n      dup3\n      add\n      swap2\n    tag_57:\n      pop\n      pop\n      pop\n      pop\n      pop\n      dup2\n      mstore\n      0x20\n      add\n      0x02\n      dup3\n      add\n      sload\n      dup2\n      mstore\n      0x20\n      add\n      0x03\n      dup3\n      add\n      sload\n      dup2\n      mstore\n      0x20\n      add\n      0x04\n      dup3\n      add\n      sload\n      dup2\n      mstore\n      0x20\n      add\n      0x05\n      dup3\n      add\n      sload\n      dup2\n      mstore\n      0x20\n      add\n      0x06\n      dup3\n      add\n      0x00\n      swap1\n      sload\n      swap1\n      0x0100\n      exp\n      swap1\n      div\n      0xff\n      and\n      iszero\n      iszero\n      iszero\n      iszero\n      dup2\n      mstore\n      0x20\n      add\n      0x06\n      dup3\n      add\n      0x01\n      swap1\n      sload\n      swap1\n      0x0100\n      exp\n      swap1\n      div\n      0xff\n      and\n      iszero\n      iszero\n      iszero\n      iszero\n      dup2\n      mstore\n      pop\n      pop\n      swap1\n      pop\n        /* \"contracts/proposal.sol\":4630:4766  function getCurrentProposal() external view returns(Proposal memory) {... */\n      swap1\n      jump\t// out\n        /* \"contracts/proposal.sol\":4482:4614  function teminateProposal() external onlyOwner active {... */\n    tag_22:\n        /* \"contracts/proposal.sol\":1362:1367  owner */\n      0x00\n      dup1\n      sload\n      swap1\n      0x0100\n      exp\n      swap1\n      div\n      0xffffffffffffffffffffffffffffffffffffffff\n      and\n        /* \"contracts/proposal.sol\":1348:1367  msg.sender == owner */\n      0xffffffffffffffffffffffffffffffffffffffff\n      and\n        /* \"contracts/proposal.sol\":1348:1358  msg.sender */\n      caller\n        /* \"contracts/proposal.sol\":1348:1367  msg.sender == owner */\n      0xffffffffffffffffffffffffffffffffffffffff\n      and\n      eq\n        /* \"contracts/proposal.sol\":1340:1368  require(msg.sender == owner) */\n      tag_61\n      jumpi\n      0x00\n      dup1\n      revert\n    tag_61:\n        /* \"contracts/proposal.sol\":1506:1510  true */\n      0x01\n        /* \"contracts/proposal.sol\":1467:1510  proposal_history[counter].is_active == true */\n      iszero\n      iszero\n        /* \"contracts/proposal.sol\":1467:1483  proposal_history */\n      0x02\n        /* \"contracts/proposal.sol\":1467:1492  proposal_history[counter] */\n      0x00\n        /* \"contracts/proposal.sol\":1484:1491  counter */\n      sload(0x01)\n        /* \"contracts/proposal.sol\":1467:1492  proposal_history[counter] */\n      dup2\n      mstore\n      0x20\n      add\n      swap1\n      dup2\n      mstore\n      0x20\n      add\n      0x00\n      keccak256\n        /* \"contracts/proposal.sol\":1467:1502  proposal_history[counter].is_active */\n      0x06\n      add\n      0x01\n      swap1\n      sload\n      swap1\n      0x0100\n      exp\n      swap1\n      div\n      0xff\n      and\n        /* \"contracts/proposal.sol\":1467:1510  proposal_history[counter].is_active == true */\n      iszero\n      iszero\n      eq\n        /* \"contracts/proposal.sol\":1459:1541  require(proposal_history[counter].is_active == true, \"The proposal is not active\") */\n      tag_63\n      jumpi\n      mload(0x40)\n      0x08c379a000000000000000000000000000000000000000000000000000000000\n      dup2\n      mstore\n      0x04\n      add\n      tag_64\n      swap1\n      tag_65\n      jump\t// in\n    tag_64:\n      mload(0x40)\n      dup1\n      swap2\n      sub\n      swap1\n      revert\n    tag_63:\n        /* \"contracts/proposal.sol\":4593:4598  false */\n      0x00\n        /* \"contracts/proposal.sol\":4555:4571  proposal_history */\n      0x02\n        /* \"contracts/proposal.sol\":4555:4580  proposal_history[counter] */\n      0x00\n        /* \"contracts/proposal.sol\":4572:4579  counter */\n      sload(0x01)\n        /* \"contracts/proposal.sol\":4555:4580  proposal_history[counter] */\n      dup2\n      mstore\n      0x20\n      add\n      swap1\n      dup2\n      mstore\n      0x20\n      add\n      0x00\n      keccak256\n        /* \"contracts/proposal.sol\":4555:4590  proposal_history[counter].is_active */\n      0x06\n      add\n      0x01\n        /* \"contracts/proposal.sol\":4555:4598  proposal_history[counter].is_active = false */\n      0x0100\n      exp\n      dup2\n      sload\n      dup2\n      0xff\n      mul\n      not\n      and\n      swap1\n      dup4\n      iszero\n      iszero\n      mul\n      or\n      swap1\n      sstore\n      pop\n        /* \"contracts/proposal.sol\":4482:4614  function teminateProposal() external onlyOwner active {... */\n      jump\t// out\n        /* \"contracts/proposal.sol\":3208:4466  function vote(uint8 choice) external active newVoter(msg.sender) {... */\n    tag_26:\n        /* \"contracts/proposal.sol\":1506:1510  true */\n      0x01\n        /* \"contracts/proposal.sol\":1467:1510  proposal_history[counter].is_active == true */\n      iszero\n      iszero\n        /* \"contracts/proposal.sol\":1467:1483  proposal_history */\n      0x02\n        /* \"contracts/proposal.sol\":1467:1492  proposal_history[counter] */\n      0x00\n        /* \"contracts/proposal.sol\":1484:1491  counter */\n      sload(0x01)\n        /* \"contracts/proposal.sol\":1467:1492  proposal_history[counter] */\n      dup2\n      mstore\n      0x20\n      add\n      swap1\n      dup2\n      mstore\n      0x20\n      add\n      0x00\n      keccak256\n        /* \"contracts/proposal.sol\":1467:1502  proposal_history[counter].is_active */\n      0x06\n      add\n      0x01\n      swap1\n      sload\n      swap1\n      0x0100\n      exp\n      swap1\n      div\n      0xff\n      and\n        /* \"contracts/proposal.sol\":1467:1510  proposal_history[counter].is_active == true */\n      iszero\n      iszero\n      eq\n        /* \"contracts/proposal.sol\":1459:1541  require(proposal_history[counter].is_active == true, \"The proposal is not active\") */\n      tag_68\n      jumpi\n      mload(0x40)\n      0x08c379a000000000000000000000000000000000000000000000000000000000\n      dup2\n      mstore\n      0x04\n      add\n      tag_69\n      swap1\n      tag_65\n      jump\t// in\n    tag_69:\n      mload(0x40)\n      dup1\n      swap2\n      sub\n      swap1\n      revert\n    tag_68:\n        /* \"contracts/proposal.sol\":3261:3271  msg.sender */\n      caller\n        /* \"contracts/proposal.sol\":1657:1672  voted_addresses */\n      0x03\n        /* \"contracts/proposal.sol\":1657:1682  voted_addresses[_address] */\n      0x00\n        /* \"contracts/proposal.sol\":1673:1681  _address */\n      dup3\n        /* \"contracts/proposal.sol\":1657:1682  voted_addresses[_address] */\n      0xffffffffffffffffffffffffffffffffffffffff\n      and\n      0xffffffffffffffffffffffffffffffffffffffff\n      and\n      dup2\n      mstore\n      0x20\n      add\n      swap1\n      dup2\n      mstore\n      0x20\n      add\n      0x00\n      keccak256\n      0x00\n      swap1\n      sload\n      swap1\n      0x0100\n      exp\n      swap1\n      div\n      0xff\n      and\n        /* \"contracts/proposal.sol\":1656:1682  !voted_addresses[_address] */\n      iszero\n        /* \"contracts/proposal.sol\":1648:1712  require(!voted_addresses[_address], \"Address has already voted\") */\n      tag_71\n      jumpi\n      mload(0x40)\n      0x08c379a000000000000000000000000000000000000000000000000000000000\n      dup2\n      mstore\n      0x04\n      add\n      tag_72\n      swap1\n      tag_73\n      jump\t// in\n    tag_72:\n      mload(0x40)\n      dup1\n      swap2\n      sub\n      swap1\n      revert\n    tag_71:\n        /* \"contracts/proposal.sol\":3375:3376  0 */\n      0x00\n        /* \"contracts/proposal.sol\":3367:3373  choice */\n      dup3\n        /* \"contracts/proposal.sol\":3367:3376  choice==0 */\n      0xff\n      and\n      eq\n        /* \"contracts/proposal.sol\":3367:3387  choice==0||choice==1 */\n      dup1\n      tag_75\n      jumpi\n      pop\n        /* \"contracts/proposal.sol\":3386:3387  1 */\n      0x01\n        /* \"contracts/proposal.sol\":3378:3384  choice */\n      dup3\n        /* \"contracts/proposal.sol\":3378:3387  choice==1 */\n      0xff\n      and\n      eq\n        /* \"contracts/proposal.sol\":3367:3387  choice==0||choice==1 */\n    tag_75:\n        /* \"contracts/proposal.sol\":3367:3398  choice==0||choice==1||choice==2 */\n      dup1\n      tag_76\n      jumpi\n      pop\n        /* \"contracts/proposal.sol\":3397:3398  2 */\n      0x02\n        /* \"contracts/proposal.sol\":3389:3395  choice */\n      dup3\n        /* \"contracts/proposal.sol\":3389:3398  choice==2 */\n      0xff\n      and\n      eq\n        /* \"contracts/proposal.sol\":3367:3398  choice==0||choice==1||choice==2 */\n    tag_76:\n        /* \"contracts/proposal.sol\":3359:3435  require(choice==0||choice==1||choice==2,\"Choice should be either 0, 1 0r 2\") */\n      tag_77\n      jumpi\n      mload(0x40)\n      0x08c379a000000000000000000000000000000000000000000000000000000000\n      dup2\n      mstore\n      0x04\n      add\n      tag_78\n      swap1\n      tag_79\n      jump\t// in\n    tag_78:\n      mload(0x40)\n      dup1\n      swap2\n      sub\n      swap1\n      revert\n    tag_77:\n        /* \"contracts/proposal.sol\":3454:3479  Proposal storage proposal */\n      0x00\n        /* \"contracts/proposal.sol\":3482:3498  proposal_history */\n      0x02\n        /* \"contracts/proposal.sol\":3482:3507  proposal_history[counter] */\n      0x00\n        /* \"contracts/proposal.sol\":3499:3506  counter */\n      sload(0x01)\n        /* \"contracts/proposal.sol\":3482:3507  proposal_history[counter] */\n      dup2\n      mstore\n      0x20\n      add\n      swap1\n      dup2\n      mstore\n      0x20\n      add\n      0x00\n      keccak256\n        /* \"contracts/proposal.sol\":3454:3507  Proposal storage proposal = proposal_history[counter] */\n      swap1\n      pop\n        /* \"contracts/proposal.sol\":3526:3544  uint256 total_vote */\n      0x00\n        /* \"contracts/proposal.sol\":3584:3592  proposal */\n      dup2\n        /* \"contracts/proposal.sol\":3584:3597  proposal.pass */\n      0x04\n      add\n      sload\n        /* \"contracts/proposal.sol\":3566:3574  proposal */\n      dup3\n        /* \"contracts/proposal.sol\":3566:3581  proposal.reject */\n      0x03\n      add\n      sload\n        /* \"contracts/proposal.sol\":3547:3555  proposal */\n      dup4\n        /* \"contracts/proposal.sol\":3547:3563  proposal.approve */\n      0x02\n      add\n      sload\n        /* \"contracts/proposal.sol\":3547:3581  proposal.approve + proposal.reject */\n      tag_80\n      swap2\n      swap1\n      tag_42\n      jump\t// in\n    tag_80:\n        /* \"contracts/proposal.sol\":3547:3597  proposal.approve + proposal.reject + proposal.pass */\n      tag_81\n      swap2\n      swap1\n      tag_42\n      jump\t// in\n    tag_81:\n        /* \"contracts/proposal.sol\":3526:3597  uint256 total_vote = proposal.approve + proposal.reject + proposal.pass */\n      swap1\n      pop\n        /* \"contracts/proposal.sol\":3644:3648  true */\n      0x01\n        /* \"contracts/proposal.sol\":3616:3631  voted_addresses */\n      0x03\n        /* \"contracts/proposal.sol\":3616:3643  voted_addresses[msg.sender] */\n      0x00\n        /* \"contracts/proposal.sol\":3632:3642  msg.sender */\n      caller\n        /* \"contracts/proposal.sol\":3616:3643  voted_addresses[msg.sender] */\n      0xffffffffffffffffffffffffffffffffffffffff\n      and\n      0xffffffffffffffffffffffffffffffffffffffff\n      and\n      dup2\n      mstore\n      0x20\n      add\n      swap1\n      dup2\n      mstore\n      0x20\n      add\n      0x00\n      keccak256\n      0x00\n        /* \"contracts/proposal.sol\":3616:3648  voted_addresses[msg.sender]=true */\n      0x0100\n      exp\n      dup2\n      sload\n      dup2\n      0xff\n      mul\n      not\n      and\n      swap1\n      dup4\n      iszero\n      iszero\n      mul\n      or\n      swap1\n      sstore\n      pop\n        /* \"contracts/proposal.sol\":3757:3758  1 */\n      0x01\n        /* \"contracts/proposal.sol\":3747:3753  choice */\n      dup5\n        /* \"contracts/proposal.sol\":3747:3758  choice == 1 */\n      0xff\n      and\n      sub\n        /* \"contracts/proposal.sol\":3743:3994  if (choice == 1) {... */\n      tag_82\n      jumpi\n        /* \"contracts/proposal.sol\":3803:3804  1 */\n      0x01\n        /* \"contracts/proposal.sol\":3783:3791  proposal */\n      dup3\n        /* \"contracts/proposal.sol\":3783:3799  proposal.approve */\n      0x02\n      add\n      0x00\n        /* \"contracts/proposal.sol\":3783:3804  proposal.approve += 1 */\n      dup3\n      dup3\n      sload\n      tag_83\n      swap2\n      swap1\n      tag_42\n      jump\t// in\n    tag_83:\n      swap3\n      pop\n      pop\n      dup2\n      swap1\n      sstore\n      pop\n        /* \"contracts/proposal.sol\":3743:3994  if (choice == 1) {... */\n      jump(tag_84)\n    tag_82:\n        /* \"contracts/proposal.sol\":3844:3845  2 */\n      0x02\n        /* \"contracts/proposal.sol\":3834:3840  choice */\n      dup5\n        /* \"contracts/proposal.sol\":3834:3845  choice == 2 */\n      0xff\n      and\n      sub\n        /* \"contracts/proposal.sol\":3830:3994  if (choice == 2) {... */\n      tag_85\n      jumpi\n        /* \"contracts/proposal.sol\":3889:3890  1 */\n      0x01\n        /* \"contracts/proposal.sol\":3870:3878  proposal */\n      dup3\n        /* \"contracts/proposal.sol\":3870:3885  proposal.reject */\n      0x03\n      add\n      0x00\n        /* \"contracts/proposal.sol\":3870:3890  proposal.reject += 1 */\n      dup3\n      dup3\n      sload\n      tag_86\n      swap2\n      swap1\n      tag_42\n      jump\t// in\n    tag_86:\n      swap3\n      pop\n      pop\n      dup2\n      swap1\n      sstore\n      pop\n        /* \"contracts/proposal.sol\":3830:3994  if (choice == 2) {... */\n      jump(tag_87)\n    tag_85:\n        /* \"contracts/proposal.sol\":3930:3931  0 */\n      0x00\n        /* \"contracts/proposal.sol\":3920:3926  choice */\n      dup5\n        /* \"contracts/proposal.sol\":3920:3931  choice == 0 */\n      0xff\n      and\n      sub\n        /* \"contracts/proposal.sol\":3916:3994  if (choice == 0) {... */\n      tag_88\n      jumpi\n        /* \"contracts/proposal.sol\":3973:3974  1 */\n      0x01\n        /* \"contracts/proposal.sol\":3956:3964  proposal */\n      dup3\n        /* \"contracts/proposal.sol\":3956:3969  proposal.pass */\n      0x04\n      add\n      0x00\n        /* \"contracts/proposal.sol\":3956:3974  proposal.pass += 1 */\n      dup3\n      dup3\n      sload\n      tag_89\n      swap2\n      swap1\n      tag_42\n      jump\t// in\n    tag_89:\n      swap3\n      pop\n      pop\n      dup2\n      swap1\n      sstore\n      pop\n        /* \"contracts/proposal.sol\":3916:3994  if (choice == 0) {... */\n    tag_88:\n        /* \"contracts/proposal.sol\":3830:3994  if (choice == 2) {... */\n    tag_87:\n        /* \"contracts/proposal.sol\":3743:3994  if (choice == 1) {... */\n    tag_84:\n        /* \"contracts/proposal.sol\":4198:4221  calculateCurrentState() */\n      tag_90\n        /* \"contracts/proposal.sol\":4198:4219  calculateCurrentState */\n      tag_91\n        /* \"contracts/proposal.sol\":4198:4221  calculateCurrentState() */\n      jump\t// in\n    tag_90:\n        /* \"contracts/proposal.sol\":4156:4172  proposal_history */\n      0x02\n        /* \"contracts/proposal.sol\":4156:4181  proposal_history[counter] */\n      0x00\n        /* \"contracts/proposal.sol\":4173:4180  counter */\n      sload(0x01)\n        /* \"contracts/proposal.sol\":4156:4181  proposal_history[counter] */\n      dup2\n      mstore\n      0x20\n      add\n      swap1\n      dup2\n      mstore\n      0x20\n      add\n      0x00\n      keccak256\n        /* \"contracts/proposal.sol\":4156:4195  proposal_history[counter].current_state */\n      0x06\n      add\n      0x00\n        /* \"contracts/proposal.sol\":4156:4221  proposal_history[counter].current_state = calculateCurrentState() */\n      0x0100\n      exp\n      dup2\n      sload\n      dup2\n      0xff\n      mul\n      not\n      and\n      swap1\n      dup4\n      iszero\n      iszero\n      mul\n      or\n      swap1\n      sstore\n      pop\n        /* \"contracts/proposal.sol\":4378:4379  1 */\n      0x01\n        /* \"contracts/proposal.sol\":4364:4374  total_vote */\n      dup2\n        /* \"contracts/proposal.sol\":4335:4343  proposal */\n      dup4\n        /* \"contracts/proposal.sol\":4335:4361  proposal.total_vote_to_end */\n      0x05\n      add\n      sload\n        /* \"contracts/proposal.sol\":4335:4374  proposal.total_vote_to_end - total_vote */\n      tag_92\n      swap2\n      swap1\n      tag_93\n      jump\t// in\n    tag_92:\n        /* \"contracts/proposal.sol\":4335:4379  proposal.total_vote_to_end - total_vote == 1 */\n      sub\n        /* \"contracts/proposal.sol\":4331:4451  if (proposal.total_vote_to_end - total_vote == 1) {... */\n      tag_94\n      jumpi\n        /* \"contracts/proposal.sol\":4425:4430  false */\n      0x00\n        /* \"contracts/proposal.sol\":4404:4412  proposal */\n      dup3\n        /* \"contracts/proposal.sol\":4404:4422  proposal.is_active */\n      0x06\n      add\n      0x01\n        /* \"contracts/proposal.sol\":4404:4430  proposal.is_active = false */\n      0x0100\n      exp\n      dup2\n      sload\n      dup2\n      0xff\n      mul\n      not\n      and\n      swap1\n      dup4\n      iszero\n      iszero\n      mul\n      or\n      swap1\n      sstore\n      pop\n        /* \"contracts/proposal.sol\":4331:4451  if (proposal.total_vote_to_end - total_vote == 1) {... */\n    tag_94:\n        /* \"contracts/proposal.sol\":3273:4466  {... */\n      pop\n      pop\n        /* \"contracts/proposal.sol\":1560:1561  _ */\n      pop\n        /* \"contracts/proposal.sol\":3208:4466  function vote(uint8 choice) external active newVoter(msg.sender) {... */\n      pop\n      jump\t// out\n        /* \"contracts/proposal.sol\":4782:5015  function getProposal(uint256 number) external view returns(Proposal memory) {... */\n    tag_30:\n        /* \"contracts/proposal.sol\":4841:4856  Proposal memory */\n      tag_95\n      tag_47\n      jump\t// in\n    tag_95:\n        /* \"contracts/proposal.sol\":4893:4894  1 */\n      0x01\n        /* \"contracts/proposal.sol\":4885:4891  number */\n      dup3\n        /* \"contracts/proposal.sol\":4885:4894  number>=1 */\n      lt\n      iszero\n        /* \"contracts/proposal.sol\":4885:4913  number>=1 && number<=counter */\n      dup1\n      iszero\n      tag_97\n      jumpi\n      pop\n        /* \"contracts/proposal.sol\":4906:4913  counter */\n      sload(0x01)\n        /* \"contracts/proposal.sol\":4898:4904  number */\n      dup3\n        /* \"contracts/proposal.sol\":4898:4913  number<=counter */\n      gt\n      iszero\n        /* \"contracts/proposal.sol\":4885:4913  number>=1 && number<=counter */\n    tag_97:\n        /* \"contracts/proposal.sol\":4877:4949  require(number>=1 && number<=counter,\"Please enter a valid proposal id\") */\n      tag_98\n      jumpi\n      mload(0x40)\n      0x08c379a000000000000000000000000000000000000000000000000000000000\n      dup2\n      mstore\n      0x04\n      add\n      tag_99\n      swap1\n      tag_100\n      jump\t// in\n    tag_99:\n      mload(0x40)\n      dup1\n      swap2\n      sub\n      swap1\n      revert\n    tag_98:\n        /* \"contracts/proposal.sol\":4975:4991  proposal_history */\n      0x02\n        /* \"contracts/proposal.sol\":4975:4999  proposal_history[number] */\n      0x00\n        /* \"contracts/proposal.sol\":4992:4998  number */\n      dup4\n        /* \"contracts/proposal.sol\":4975:4999  proposal_history[number] */\n      dup2\n      mstore\n      0x20\n      add\n      swap1\n      dup2\n      mstore\n      0x20\n      add\n      0x00\n      keccak256\n        /* \"contracts/proposal.sol\":4968:4999  return proposal_history[number] */\n      mload(0x40)\n      dup1\n      0x0100\n      add\n      0x40\n      mstore\n      swap1\n      dup2\n      0x00\n      dup3\n      add\n      dup1\n      sload\n      tag_101\n      swap1\n      tag_50\n      jump\t// in\n    tag_101:\n      dup1\n      0x1f\n      add\n      0x20\n      dup1\n      swap2\n      div\n      mul\n      0x20\n      add\n      mload(0x40)\n      swap1\n      dup2\n      add\n      0x40\n      mstore\n      dup1\n      swap3\n      swap2\n      swap1\n      dup2\n      dup2\n      mstore\n      0x20\n      add\n      dup3\n      dup1\n      sload\n      tag_102\n      swap1\n      tag_50\n      jump\t// in\n    tag_102:\n      dup1\n      iszero\n      tag_103\n      jumpi\n      dup1\n      0x1f\n      lt\n      tag_104\n      jumpi\n      0x0100\n      dup1\n      dup4\n      sload\n      div\n      mul\n      dup4\n      mstore\n      swap2\n      0x20\n      add\n      swap2\n      jump(tag_103)\n    tag_104:\n      dup3\n      add\n      swap2\n      swap1\n      0x00\n      mstore\n      keccak256(0x00, 0x20)\n      swap1\n    tag_105:\n      dup2\n      sload\n      dup2\n      mstore\n      swap1\n      0x01\n      add\n      swap1\n      0x20\n      add\n      dup1\n      dup4\n      gt\n      tag_105\n      jumpi\n      dup3\n      swap1\n      sub\n      0x1f\n      and\n      dup3\n      add\n      swap2\n    tag_103:\n      pop\n      pop\n      pop\n      pop\n      pop\n      dup2\n      mstore\n      0x20\n      add\n      0x01\n      dup3\n      add\n      dup1\n      sload\n      tag_106\n      swap1\n      tag_50\n      jump\t// in\n    tag_106:\n      dup1\n      0x1f\n      add\n      0x20\n      dup1\n      swap2\n      div\n      mul\n      0x20\n      add\n      mload(0x40)\n      swap1\n      dup2\n      add\n      0x40\n      mstore\n      dup1\n      swap3\n      swap2\n      swap1\n      dup2\n      dup2\n      mstore\n      0x20\n      add\n      dup3\n      dup1\n      sload\n      tag_107\n      swap1\n      tag_50\n      jump\t// in\n    tag_107:\n      dup1\n      iszero\n      tag_108\n      jumpi\n      dup1\n      0x1f\n      lt\n      tag_109\n      jumpi\n      0x0100\n      dup1\n      dup4\n      sload\n      div\n      mul\n      dup4\n      mstore\n      swap2\n      0x20\n      add\n      swap2\n      jump(tag_108)\n    tag_109:\n      dup3\n      add\n      swap2\n      swap1\n      0x00\n      mstore\n      keccak256(0x00, 0x20)\n      swap1\n    tag_110:\n      dup2\n      sload\n      dup2\n      mstore\n      swap1\n      0x01\n      add\n      swap1\n      0x20\n      add\n      dup1\n      dup4\n      gt\n      tag_110\n      jumpi\n      dup3\n      swap1\n      sub\n      0x1f\n      and\n      dup3\n      add\n      swap2\n    tag_108:\n      pop\n      pop\n      pop\n      pop\n      pop\n      dup2\n      mstore\n      0x20\n      add\n      0x02\n      dup3\n      add\n      sload\n      dup2\n      mstore\n      0x20\n      add\n      0x03\n      dup3\n      add\n      sload\n      dup2\n      mstore\n      0x20\n      add\n      0x04\n      dup3\n      add\n      sload\n      dup2\n      mstore\n      0x20\n      add\n      0x05\n      dup3\n      add\n      sload\n      dup2\n      mstore\n      0x20\n      add\n      0x06\n      dup3\n      add\n      0x00\n      swap1\n      sload\n      swap1\n      0x0100\n      exp\n      swap1\n      div\n      0xff\n      and\n      iszero\n      iszero\n      iszero\n      iszero\n      dup2\n      mstore\n      0x20\n      add\n      0x06\n      dup3\n      add\n      0x01\n      swap1\n      sload\n      swap1\n      0x0100\n      exp\n      swap1\n      div\n      0xff\n      and\n      iszero\n      iszero\n      iszero\n      iszero\n      dup2\n      mstore\n      pop\n      pop\n      swap1\n      pop\n        /* \"contracts/proposal.sol\":4782:5015  function getProposal(uint256 number) external view returns(Proposal memory) {... */\n      swap2\n      swap1\n      pop\n      jump\t// out\n        /* \"contracts/proposal.sol\":2352:3192  function calculateCurrentState() private view returns(bool) {... */\n    tag_91:\n        /* \"contracts/proposal.sol\":2406:2410  bool */\n      0x00\n        /* \"contracts/proposal.sol\":2435:2460  Proposal storage proposal */\n      dup1\n        /* \"contracts/proposal.sol\":2463:2479  proposal_history */\n      0x02\n        /* \"contracts/proposal.sol\":2463:2488  proposal_history[counter] */\n      0x00\n        /* \"contracts/proposal.sol\":2480:2487  counter */\n      sload(0x01)\n        /* \"contracts/proposal.sol\":2463:2488  proposal_history[counter] */\n      dup2\n      mstore\n      0x20\n      add\n      swap1\n      dup2\n      mstore\n      0x20\n      add\n      0x00\n      keccak256\n        /* \"contracts/proposal.sol\":2435:2488  Proposal storage proposal = proposal_history[counter] */\n      swap1\n      pop\n        /* \"contracts/proposal.sol\":2511:2526  uint256 approve */\n      0x00\n        /* \"contracts/proposal.sol\":2529:2537  proposal */\n      dup2\n        /* \"contracts/proposal.sol\":2529:2545  proposal.approve */\n      0x02\n      add\n      sload\n        /* \"contracts/proposal.sol\":2511:2545  uint256 approve = proposal.approve */\n      swap1\n      pop\n        /* \"contracts/proposal.sol\":2568:2582  uint256 reject */\n      0x00\n        /* \"contracts/proposal.sol\":2585:2593  proposal */\n      dup3\n        /* \"contracts/proposal.sol\":2585:2600  proposal.reject */\n      0x03\n      add\n      sload\n        /* \"contracts/proposal.sol\":2568:2600  uint256 reject = proposal.reject */\n      swap1\n      pop\n        /* \"contracts/proposal.sol\":2623:2635  uint256 pass */\n      0x00\n        /* \"contracts/proposal.sol\":2638:2646  proposal */\n      dup4\n        /* \"contracts/proposal.sol\":2638:2651  proposal.pass */\n      0x04\n      add\n      sload\n        /* \"contracts/proposal.sol\":2623:2651  uint256 pass = proposal.pass */\n      swap1\n      pop\n        /* \"contracts/proposal.sol\":2689:2690  0 */\n      0x00\n        /* \"contracts/proposal.sol\":2686:2687  2 */\n      0x02\n        /* \"contracts/proposal.sol\":2681:2685  pass */\n      dup3\n        /* \"contracts/proposal.sol\":2681:2687  pass%2 */\n      tag_112\n      swap2\n      swap1\n      tag_113\n      jump\t// in\n    tag_112:\n        /* \"contracts/proposal.sol\":2681:2690  pass%2==0 */\n      eq\n        /* \"contracts/proposal.sol\":2681:2708  pass%2==0?pass/2:(pass+1)/2 */\n      tag_114\n      jumpi\n        /* \"contracts/proposal.sol\":2707:2708  2 */\n      0x02\n        /* \"contracts/proposal.sol\":2704:2705  1 */\n      0x01\n        /* \"contracts/proposal.sol\":2699:2703  pass */\n      dup3\n        /* \"contracts/proposal.sol\":2699:2705  pass+1 */\n      tag_115\n      swap2\n      swap1\n      tag_42\n      jump\t// in\n    tag_115:\n        /* \"contracts/proposal.sol\":2698:2708  (pass+1)/2 */\n      tag_116\n      swap2\n      swap1\n      tag_117\n      jump\t// in\n    tag_116:\n        /* \"contracts/proposal.sol\":2681:2708  pass%2==0?pass/2:(pass+1)/2 */\n      jump(tag_118)\n    tag_114:\n        /* \"contracts/proposal.sol\":2696:2697  2 */\n      0x02\n        /* \"contracts/proposal.sol\":2691:2695  pass */\n      dup2\n        /* \"contracts/proposal.sol\":2691:2697  pass/2 */\n      tag_119\n      swap2\n      swap1\n      tag_117\n      jump\t// in\n    tag_119:\n        /* \"contracts/proposal.sol\":2681:2708  pass%2==0?pass/2:(pass+1)/2 */\n    tag_118:\n        /* \"contracts/proposal.sol\":2674:2708  pass = pass%2==0?pass/2:(pass+1)/2 */\n      swap1\n      pop\n        /* \"contracts/proposal.sol\":3015:3021  reject */\n      dup2\n        /* \"contracts/proposal.sol\":3007:3014  approve */\n      dup4\n        /* \"contracts/proposal.sol\":3007:3021  approve>reject */\n      gt\n        /* \"contracts/proposal.sol\":3007:3044  approve>reject || approve+pass>reject */\n      dup1\n      tag_120\n      jumpi\n      pop\n        /* \"contracts/proposal.sol\":3038:3044  reject */\n      dup2\n        /* \"contracts/proposal.sol\":3033:3037  pass */\n      dup2\n        /* \"contracts/proposal.sol\":3025:3032  approve */\n      dup5\n        /* \"contracts/proposal.sol\":3025:3037  approve+pass */\n      tag_121\n      swap2\n      swap1\n      tag_42\n      jump\t// in\n    tag_121:\n        /* \"contracts/proposal.sol\":3025:3044  approve+pass>reject */\n      gt\n        /* \"contracts/proposal.sol\":3007:3044  approve>reject || approve+pass>reject */\n    tag_120:\n        /* \"contracts/proposal.sol\":3003:3177  if (approve>reject || approve+pass>reject) {... */\n      iszero\n      tag_122\n      jumpi\n        /* \"contracts/proposal.sol\":3080:3084  true */\n      0x01\n        /* \"contracts/proposal.sol\":3073:3084  return true */\n      swap5\n      pop\n      pop\n      pop\n      pop\n      pop\n      jump(tag_111)\n        /* \"contracts/proposal.sol\":3003:3177  if (approve>reject || approve+pass>reject) {... */\n    tag_122:\n        /* \"contracts/proposal.sol\":3148:3153  false */\n      0x00\n        /* \"contracts/proposal.sol\":3141:3153  return false */\n      swap5\n      pop\n      pop\n      pop\n      pop\n      pop\n        /* \"contracts/proposal.sol\":2352:3192  function calculateCurrentState() private view returns(bool) {... */\n    tag_111:\n      swap1\n      jump\t// out\n    tag_47:\n      mload(0x40)\n      dup1\n      0x0100\n      add\n      0x40\n      mstore\n      dup1\n      0x60\n      dup2\n      mstore\n      0x20\n      add\n      0x60\n      dup2\n      mstore\n      0x20\n      add\n      0x00\n      dup2\n      mstore\n      0x20\n      add\n      0x00\n      dup2\n      mstore\n      0x20\n      add\n      0x00\n      dup2\n      mstore\n      0x20\n      add\n      0x00\n      dup2\n      mstore\n      0x20\n      add\n      iszero(iszero(0x00))\n      dup2\n      mstore\n      0x20\n      add\n      iszero(iszero(0x00))\n      dup2\n      mstore\n      pop\n      swap1\n      jump\t// out\n        /* \"#utility.yul\":88:205   */\n    tag_125:\n        /* \"#utility.yul\":197:198   */\n      0x00\n        /* \"#utility.yul\":194:195   */\n      dup1\n        /* \"#utility.yul\":187:199   */\n      revert\n        /* \"#utility.yul\":211:328   */\n    tag_126:\n        /* \"#utility.yul\":320:321   */\n      0x00\n        /* \"#utility.yul\":317:318   */\n      dup1\n        /* \"#utility.yul\":310:322   */\n      revert\n        /* \"#utility.yul\":334:460   */\n    tag_127:\n        /* \"#utility.yul\":371:378   */\n      0x00\n        /* \"#utility.yul\":411:453   */\n      0xffffffffffffffffffffffffffffffffffffffff\n        /* \"#utility.yul\":404:409   */\n      dup3\n        /* \"#utility.yul\":400:454   */\n      and\n        /* \"#utility.yul\":389:454   */\n      swap1\n      pop\n        /* \"#utility.yul\":334:460   */\n      swap2\n      swap1\n      pop\n      jump\t// out\n        /* \"#utility.yul\":466:562   */\n    tag_128:\n        /* \"#utility.yul\":503:510   */\n      0x00\n        /* \"#utility.yul\":532:556   */\n      tag_186\n        /* \"#utility.yul\":550:555   */\n      dup3\n        /* \"#utility.yul\":532:556   */\n      tag_127\n      jump\t// in\n    tag_186:\n        /* \"#utility.yul\":521:556   */\n      swap1\n      pop\n        /* \"#utility.yul\":466:562   */\n      swap2\n      swap1\n      pop\n      jump\t// out\n        /* \"#utility.yul\":568:690   */\n    tag_129:\n        /* \"#utility.yul\":641:665   */\n      tag_188\n        /* \"#utility.yul\":659:664   */\n      dup2\n        /* \"#utility.yul\":641:665   */\n      tag_128\n      jump\t// in\n    tag_188:\n        /* \"#utility.yul\":634:639   */\n      dup2\n        /* \"#utility.yul\":631:666   */\n      eq\n        /* \"#utility.yul\":621:684   */\n      tag_189\n      jumpi\n        /* \"#utility.yul\":680:681   */\n      0x00\n        /* \"#utility.yul\":677:678   */\n      dup1\n        /* \"#utility.yul\":670:682   */\n      revert\n        /* \"#utility.yul\":621:684   */\n    tag_189:\n        /* \"#utility.yul\":568:690   */\n      pop\n      jump\t// out\n        /* \"#utility.yul\":696:835   */\n    tag_130:\n        /* \"#utility.yul\":742:747   */\n      0x00\n        /* \"#utility.yul\":780:786   */\n      dup2\n        /* \"#utility.yul\":767:787   */\n      calldataload\n        /* \"#utility.yul\":758:787   */\n      swap1\n      pop\n        /* \"#utility.yul\":796:829   */\n      tag_191\n        /* \"#utility.yul\":823:828   */\n      dup2\n        /* \"#utility.yul\":796:829   */\n      tag_129\n      jump\t// in\n    tag_191:\n        /* \"#utility.yul\":696:835   */\n      swap3\n      swap2\n      pop\n      pop\n      jump\t// out\n        /* \"#utility.yul\":841:1170   */\n    tag_11:\n        /* \"#utility.yul\":900:906   */\n      0x00\n        /* \"#utility.yul\":949:951   */\n      0x20\n        /* \"#utility.yul\":937:946   */\n      dup3\n        /* \"#utility.yul\":928:935   */\n      dup5\n        /* \"#utility.yul\":924:947   */\n      sub\n        /* \"#utility.yul\":920:952   */\n      slt\n        /* \"#utility.yul\":917:1036   */\n      iszero\n      tag_193\n      jumpi\n        /* \"#utility.yul\":955:1034   */\n      tag_194\n      tag_125\n      jump\t// in\n    tag_194:\n        /* \"#utility.yul\":917:1036   */\n    tag_193:\n        /* \"#utility.yul\":1075:1076   */\n      0x00\n        /* \"#utility.yul\":1100:1153   */\n      tag_195\n        /* \"#utility.yul\":1145:1152   */\n      dup5\n        /* \"#utility.yul\":1136:1142   */\n      dup3\n        /* \"#utility.yul\":1125:1134   */\n      dup6\n        /* \"#utility.yul\":1121:1143   */\n      add\n        /* \"#utility.yul\":1100:1153   */\n      tag_130\n      jump\t// in\n    tag_195:\n        /* \"#utility.yul\":1090:1153   */\n      swap2\n      pop\n        /* \"#utility.yul\":1046:1163   */\n      pop\n        /* \"#utility.yul\":841:1170   */\n      swap3\n      swap2\n      pop\n      pop\n      jump\t// out\n        /* \"#utility.yul\":1176:1293   */\n    tag_131:\n        /* \"#utility.yul\":1285:1286   */\n      0x00\n        /* \"#utility.yul\":1282:1283   */\n      dup1\n        /* \"#utility.yul\":1275:1287   */\n      revert\n        /* \"#utility.yul\":1299:1416   */\n    tag_132:\n        /* \"#utility.yul\":1408:1409   */\n      0x00\n        /* \"#utility.yul\":1405:1406   */\n      dup1\n        /* \"#utility.yul\":1398:1410   */\n      revert\n        /* \"#utility.yul\":1422:1539   */\n    tag_133:\n        /* \"#utility.yul\":1531:1532   */\n      0x00\n        /* \"#utility.yul\":1528:1529   */\n      dup1\n        /* \"#utility.yul\":1521:1533   */\n      revert\n        /* \"#utility.yul\":1559:2112   */\n    tag_134:\n        /* \"#utility.yul\":1617:1625   */\n      0x00\n        /* \"#utility.yul\":1627:1633   */\n      dup1\n        /* \"#utility.yul\":1677:1680   */\n      dup4\n        /* \"#utility.yul\":1670:1674   */\n      0x1f\n        /* \"#utility.yul\":1662:1668   */\n      dup5\n        /* \"#utility.yul\":1658:1675   */\n      add\n        /* \"#utility.yul\":1654:1681   */\n      slt\n        /* \"#utility.yul\":1644:1766   */\n      tag_200\n      jumpi\n        /* \"#utility.yul\":1685:1764   */\n      tag_201\n      tag_131\n      jump\t// in\n    tag_201:\n        /* \"#utility.yul\":1644:1766   */\n    tag_200:\n        /* \"#utility.yul\":1798:1804   */\n      dup3\n        /* \"#utility.yul\":1785:1805   */\n      calldataload\n        /* \"#utility.yul\":1775:1805   */\n      swap1\n      pop\n        /* \"#utility.yul\":1828:1846   */\n      0xffffffffffffffff\n        /* \"#utility.yul\":1820:1826   */\n      dup2\n        /* \"#utility.yul\":1817:1847   */\n      gt\n        /* \"#utility.yul\":1814:1931   */\n      iszero\n      tag_202\n      jumpi\n        /* \"#utility.yul\":1850:1929   */\n      tag_203\n      tag_132\n      jump\t// in\n    tag_203:\n        /* \"#utility.yul\":1814:1931   */\n    tag_202:\n        /* \"#utility.yul\":1964:1968   */\n      0x20\n        /* \"#utility.yul\":1956:1962   */\n      dup4\n        /* \"#utility.yul\":1952:1969   */\n      add\n        /* \"#utility.yul\":1940:1969   */\n      swap2\n      pop\n        /* \"#utility.yul\":2018:2021   */\n      dup4\n        /* \"#utility.yul\":2010:2014   */\n      0x01\n        /* \"#utility.yul\":2002:2008   */\n      dup3\n        /* \"#utility.yul\":1998:2015   */\n      mul\n        /* \"#utility.yul\":1988:1996   */\n      dup4\n        /* \"#utility.yul\":1984:2016   */\n      add\n        /* \"#utility.yul\":1981:2022   */\n      gt\n        /* \"#utility.yul\":1978:2106   */\n      iszero\n      tag_204\n      jumpi\n        /* \"#utility.yul\":2025:2104   */\n      tag_205\n      tag_133\n      jump\t// in\n    tag_205:\n        /* \"#utility.yul\":1978:2106   */\n    tag_204:\n        /* \"#utility.yul\":1559:2112   */\n      swap3\n      pop\n      swap3\n      swap1\n      pop\n      jump\t// out\n        /* \"#utility.yul\":2118:2195   */\n    tag_135:\n        /* \"#utility.yul\":2155:2162   */\n      0x00\n        /* \"#utility.yul\":2184:2189   */\n      dup2\n        /* \"#utility.yul\":2173:2189   */\n      swap1\n      pop\n        /* \"#utility.yul\":2118:2195   */\n      swap2\n      swap1\n      pop\n      jump\t// out\n        /* \"#utility.yul\":2201:2323   */\n    tag_136:\n        /* \"#utility.yul\":2274:2298   */\n      tag_208\n        /* \"#utility.yul\":2292:2297   */\n      dup2\n        /* \"#utility.yul\":2274:2298   */\n      tag_135\n      jump\t// in\n    tag_208:\n        /* \"#utility.yul\":2267:2272   */\n      dup2\n        /* \"#utility.yul\":2264:2299   */\n      eq\n        /* \"#utility.yul\":2254:2317   */\n      tag_209\n      jumpi\n        /* \"#utility.yul\":2313:2314   */\n      0x00\n        /* \"#utility.yul\":2310:2311   */\n      dup1\n        /* \"#utility.yul\":2303:2315   */\n      revert\n        /* \"#utility.yul\":2254:2317   */\n    tag_209:\n        /* \"#utility.yul\":2201:2323   */\n      pop\n      jump\t// out\n        /* \"#utility.yul\":2329:2468   */\n    tag_137:\n        /* \"#utility.yul\":2375:2380   */\n      0x00\n        /* \"#utility.yul\":2413:2419   */\n      dup2\n        /* \"#utility.yul\":2400:2420   */\n      calldataload\n        /* \"#utility.yul\":2391:2420   */\n      swap1\n      pop\n        /* \"#utility.yul\":2429:2462   */\n      tag_211\n        /* \"#utility.yul\":2456:2461   */\n      dup2\n        /* \"#utility.yul\":2429:2462   */\n      tag_136\n      jump\t// in\n    tag_211:\n        /* \"#utility.yul\":2329:2468   */\n      swap3\n      swap2\n      pop\n      pop\n      jump\t// out\n        /* \"#utility.yul\":2474:3493   */\n    tag_15:\n        /* \"#utility.yul\":2575:2581   */\n      0x00\n        /* \"#utility.yul\":2583:2589   */\n      dup1\n        /* \"#utility.yul\":2591:2597   */\n      0x00\n        /* \"#utility.yul\":2599:2605   */\n      dup1\n        /* \"#utility.yul\":2607:2613   */\n      0x00\n        /* \"#utility.yul\":2656:2658   */\n      0x60\n        /* \"#utility.yul\":2644:2653   */\n      dup7\n        /* \"#utility.yul\":2635:2642   */\n      dup9\n        /* \"#utility.yul\":2631:2654   */\n      sub\n        /* \"#utility.yul\":2627:2659   */\n      slt\n        /* \"#utility.yul\":2624:2743   */\n      iszero\n      tag_213\n      jumpi\n        /* \"#utility.yul\":2662:2741   */\n      tag_214\n      tag_125\n      jump\t// in\n    tag_214:\n        /* \"#utility.yul\":2624:2743   */\n    tag_213:\n        /* \"#utility.yul\":2810:2811   */\n      0x00\n        /* \"#utility.yul\":2799:2808   */\n      dup7\n        /* \"#utility.yul\":2795:2812   */\n      add\n        /* \"#utility.yul\":2782:2813   */\n      calldataload\n        /* \"#utility.yul\":2840:2858   */\n      0xffffffffffffffff\n        /* \"#utility.yul\":2832:2838   */\n      dup2\n        /* \"#utility.yul\":2829:2859   */\n      gt\n        /* \"#utility.yul\":2826:2943   */\n      iszero\n      tag_215\n      jumpi\n        /* \"#utility.yul\":2862:2941   */\n      tag_216\n      tag_126\n      jump\t// in\n    tag_216:\n        /* \"#utility.yul\":2826:2943   */\n    tag_215:\n        /* \"#utility.yul\":2975:3040   */\n      tag_217\n        /* \"#utility.yul\":3032:3039   */\n      dup9\n        /* \"#utility.yul\":3023:3029   */\n      dup3\n        /* \"#utility.yul\":3012:3021   */\n      dup10\n        /* \"#utility.yul\":3008:3030   */\n      add\n        /* \"#utility.yul\":2975:3040   */\n      tag_134\n      jump\t// in\n    tag_217:\n        /* \"#utility.yul\":2957:3040   */\n      swap6\n      pop\n      swap6\n      pop\n        /* \"#utility.yul\":2753:3050   */\n      pop\n        /* \"#utility.yul\":3117:3119   */\n      0x20\n        /* \"#utility.yul\":3106:3115   */\n      dup7\n        /* \"#utility.yul\":3102:3120   */\n      add\n        /* \"#utility.yul\":3089:3121   */\n      calldataload\n        /* \"#utility.yul\":3148:3166   */\n      0xffffffffffffffff\n        /* \"#utility.yul\":3140:3146   */\n      dup2\n        /* \"#utility.yul\":3137:3167   */\n      gt\n        /* \"#utility.yul\":3134:3251   */\n      iszero\n      tag_218\n      jumpi\n        /* \"#utility.yul\":3170:3249   */\n      tag_219\n      tag_126\n      jump\t// in\n    tag_219:\n        /* \"#utility.yul\":3134:3251   */\n    tag_218:\n        /* \"#utility.yul\":3283:3348   */\n      tag_220\n        /* \"#utility.yul\":3340:3347   */\n      dup9\n        /* \"#utility.yul\":3331:3337   */\n      dup3\n        /* \"#utility.yul\":3320:3329   */\n      dup10\n        /* \"#utility.yul\":3316:3338   */\n      add\n        /* \"#utility.yul\":3283:3348   */\n      tag_134\n      jump\t// in\n    tag_220:\n        /* \"#utility.yul\":3265:3348   */\n      swap4\n      pop\n      swap4\n      pop\n        /* \"#utility.yul\":3060:3358   */\n      pop\n        /* \"#utility.yul\":3397:3399   */\n      0x40\n        /* \"#utility.yul\":3423:3476   */\n      tag_221\n        /* \"#utility.yul\":3468:3475   */\n      dup9\n        /* \"#utility.yul\":3459:3465   */\n      dup3\n        /* \"#utility.yul\":3448:3457   */\n      dup10\n        /* \"#utility.yul\":3444:3466   */\n      add\n        /* \"#utility.yul\":3423:3476   */\n      tag_137\n      jump\t// in\n    tag_221:\n        /* \"#utility.yul\":3413:3476   */\n      swap2\n      pop\n        /* \"#utility.yul\":3368:3486   */\n      pop\n        /* \"#utility.yul\":2474:3493   */\n      swap3\n      swap6\n      pop\n      swap3\n      swap6\n      swap1\n      swap4\n      pop\n      jump\t// out\n        /* \"#utility.yul\":3499:3598   */\n    tag_138:\n        /* \"#utility.yul\":3551:3557   */\n      0x00\n        /* \"#utility.yul\":3585:3590   */\n      dup2\n        /* \"#utility.yul\":3579:3591   */\n      mload\n        /* \"#utility.yul\":3569:3591   */\n      swap1\n      pop\n        /* \"#utility.yul\":3499:3598   */\n      swap2\n      swap1\n      pop\n      jump\t// out\n        /* \"#utility.yul\":3604:3763   */\n    tag_139:\n        /* \"#utility.yul\":3678:3689   */\n      0x00\n        /* \"#utility.yul\":3712:3718   */\n      dup3\n        /* \"#utility.yul\":3707:3710   */\n      dup3\n        /* \"#utility.yul\":3700:3719   */\n      mstore\n        /* \"#utility.yul\":3752:3756   */\n      0x20\n        /* \"#utility.yul\":3747:3750   */\n      dup3\n        /* \"#utility.yul\":3743:3757   */\n      add\n        /* \"#utility.yul\":3728:3757   */\n      swap1\n      pop\n        /* \"#utility.yul\":3604:3763   */\n      swap3\n      swap2\n      pop\n      pop\n      jump\t// out\n        /* \"#utility.yul\":3769:4015   */\n    tag_140:\n        /* \"#utility.yul\":3850:3851   */\n      0x00\n        /* \"#utility.yul\":3860:3973   */\n    tag_225:\n        /* \"#utility.yul\":3874:3880   */\n      dup4\n        /* \"#utility.yul\":3871:3872   */\n      dup2\n        /* \"#utility.yul\":3868:3881   */\n      lt\n        /* \"#utility.yul\":3860:3973   */\n      iszero\n      tag_227\n      jumpi\n        /* \"#utility.yul\":3959:3960   */\n      dup1\n        /* \"#utility.yul\":3954:3957   */\n      dup3\n        /* \"#utility.yul\":3950:3961   */\n      add\n        /* \"#utility.yul\":3944:3962   */\n      mload\n        /* \"#utility.yul\":3940:3941   */\n      dup2\n        /* \"#utility.yul\":3935:3938   */\n      dup5\n        /* \"#utility.yul\":3931:3942   */\n      add\n        /* \"#utility.yul\":3924:3963   */\n      mstore\n        /* \"#utility.yul\":3896:3898   */\n      0x20\n        /* \"#utility.yul\":3893:3894   */\n      dup2\n        /* \"#utility.yul\":3889:3899   */\n      add\n        /* \"#utility.yul\":3884:3899   */\n      swap1\n      pop\n        /* \"#utility.yul\":3860:3973   */\n      jump(tag_225)\n    tag_227:\n        /* \"#utility.yul\":4007:4008   */\n      0x00\n        /* \"#utility.yul\":3998:4004   */\n      dup5\n        /* \"#utility.yul\":3993:3996   */\n      dup5\n        /* \"#utility.yul\":3989:4005   */\n      add\n        /* \"#utility.yul\":3982:4009   */\n      mstore\n        /* \"#utility.yul\":3831:4015   */\n      pop\n        /* \"#utility.yul\":3769:4015   */\n      pop\n      pop\n      pop\n      jump\t// out\n        /* \"#utility.yul\":4021:4123   */\n    tag_141:\n        /* \"#utility.yul\":4062:4068   */\n      0x00\n        /* \"#utility.yul\":4113:4115   */\n      0x1f\n        /* \"#utility.yul\":4109:4116   */\n      not\n        /* \"#utility.yul\":4104:4106   */\n      0x1f\n        /* \"#utility.yul\":4097:4102   */\n      dup4\n        /* \"#utility.yul\":4093:4107   */\n      add\n        /* \"#utility.yul\":4089:4117   */\n      and\n        /* \"#utility.yul\":4079:4117   */\n      swap1\n      pop\n        /* \"#utility.yul\":4021:4123   */\n      swap2\n      swap1\n      pop\n      jump\t// out\n        /* \"#utility.yul\":4129:4486   */\n    tag_142:\n        /* \"#utility.yul\":4207:4210   */\n      0x00\n        /* \"#utility.yul\":4235:4274   */\n      tag_230\n        /* \"#utility.yul\":4268:4273   */\n      dup3\n        /* \"#utility.yul\":4235:4274   */\n      tag_138\n      jump\t// in\n    tag_230:\n        /* \"#utility.yul\":4290:4351   */\n      tag_231\n        /* \"#utility.yul\":4344:4350   */\n      dup2\n        /* \"#utility.yul\":4339:4342   */\n      dup6\n        /* \"#utility.yul\":4290:4351   */\n      tag_139\n      jump\t// in\n    tag_231:\n        /* \"#utility.yul\":4283:4351   */\n      swap4\n      pop\n        /* \"#utility.yul\":4360:4425   */\n      tag_232\n        /* \"#utility.yul\":4418:4424   */\n      dup2\n        /* \"#utility.yul\":4413:4416   */\n      dup6\n        /* \"#utility.yul\":4406:4410   */\n      0x20\n        /* \"#utility.yul\":4399:4404   */\n      dup7\n        /* \"#utility.yul\":4395:4411   */\n      add\n        /* \"#utility.yul\":4360:4425   */\n      tag_140\n      jump\t// in\n    tag_232:\n        /* \"#utility.yul\":4450:4479   */\n      tag_233\n        /* \"#utility.yul\":4472:4478   */\n      dup2\n        /* \"#utility.yul\":4450:4479   */\n      tag_141\n      jump\t// in\n    tag_233:\n        /* \"#utility.yul\":4445:4448   */\n      dup5\n        /* \"#utility.yul\":4441:4480   */\n      add\n        /* \"#utility.yul\":4434:4480   */\n      swap2\n      pop\n        /* \"#utility.yul\":4211:4486   */\n      pop\n        /* \"#utility.yul\":4129:4486   */\n      swap3\n      swap2\n      pop\n      pop\n      jump\t// out\n        /* \"#utility.yul\":4492:4600   */\n    tag_143:\n        /* \"#utility.yul\":4569:4593   */\n      tag_235\n        /* \"#utility.yul\":4587:4592   */\n      dup2\n        /* \"#utility.yul\":4569:4593   */\n      tag_135\n      jump\t// in\n    tag_235:\n        /* \"#utility.yul\":4564:4567   */\n      dup3\n        /* \"#utility.yul\":4557:4594   */\n      mstore\n        /* \"#utility.yul\":4492:4600   */\n      pop\n      pop\n      jump\t// out\n        /* \"#utility.yul\":4606:4696   */\n    tag_144:\n        /* \"#utility.yul\":4640:4647   */\n      0x00\n        /* \"#utility.yul\":4683:4688   */\n      dup2\n        /* \"#utility.yul\":4676:4689   */\n      iszero\n        /* \"#utility.yul\":4669:4690   */\n      iszero\n        /* \"#utility.yul\":4658:4690   */\n      swap1\n      pop\n        /* \"#utility.yul\":4606:4696   */\n      swap2\n      swap1\n      pop\n      jump\t// out\n        /* \"#utility.yul\":4702:4801   */\n    tag_145:\n        /* \"#utility.yul\":4773:4794   */\n      tag_238\n        /* \"#utility.yul\":4788:4793   */\n      dup2\n        /* \"#utility.yul\":4773:4794   */\n      tag_144\n      jump\t// in\n    tag_238:\n        /* \"#utility.yul\":4768:4771   */\n      dup3\n        /* \"#utility.yul\":4761:4795   */\n      mstore\n        /* \"#utility.yul\":4702:4801   */\n      pop\n      pop\n      jump\t// out\n        /* \"#utility.yul\":4883:6632   */\n    tag_146:\n        /* \"#utility.yul\":5000:5003   */\n      0x00\n        /* \"#utility.yul\":5036:5042   */\n      0x0100\n        /* \"#utility.yul\":5031:5034   */\n      dup4\n        /* \"#utility.yul\":5027:5043   */\n      add\n        /* \"#utility.yul\":5126:5130   */\n      0x00\n        /* \"#utility.yul\":5119:5124   */\n      dup4\n        /* \"#utility.yul\":5115:5131   */\n      add\n        /* \"#utility.yul\":5109:5132   */\n      mload\n        /* \"#utility.yul\":5179:5182   */\n      dup5\n        /* \"#utility.yul\":5173:5177   */\n      dup3\n        /* \"#utility.yul\":5169:5183   */\n      sub\n        /* \"#utility.yul\":5162:5166   */\n      0x00\n        /* \"#utility.yul\":5157:5160   */\n      dup7\n        /* \"#utility.yul\":5153:5167   */\n      add\n        /* \"#utility.yul\":5146:5184   */\n      mstore\n        /* \"#utility.yul\":5205:5278   */\n      tag_240\n        /* \"#utility.yul\":5273:5277   */\n      dup3\n        /* \"#utility.yul\":5259:5271   */\n      dup3\n        /* \"#utility.yul\":5205:5278   */\n      tag_142\n      jump\t// in\n    tag_240:\n        /* \"#utility.yul\":5197:5278   */\n      swap2\n      pop\n        /* \"#utility.yul\":5053:5289   */\n      pop\n        /* \"#utility.yul\":5378:5382   */\n      0x20\n        /* \"#utility.yul\":5371:5376   */\n      dup4\n        /* \"#utility.yul\":5367:5383   */\n      add\n        /* \"#utility.yul\":5361:5384   */\n      mload\n        /* \"#utility.yul\":5431:5434   */\n      dup5\n        /* \"#utility.yul\":5425:5429   */\n      dup3\n        /* \"#utility.yul\":5421:5435   */\n      sub\n        /* \"#utility.yul\":5414:5418   */\n      0x20\n        /* \"#utility.yul\":5409:5412   */\n      dup7\n        /* \"#utility.yul\":5405:5419   */\n      add\n        /* \"#utility.yul\":5398:5436   */\n      mstore\n        /* \"#utility.yul\":5457:5530   */\n      tag_241\n        /* \"#utility.yul\":5525:5529   */\n      dup3\n        /* \"#utility.yul\":5511:5523   */\n      dup3\n        /* \"#utility.yul\":5457:5530   */\n      tag_142\n      jump\t// in\n    tag_241:\n        /* \"#utility.yul\":5449:5530   */\n      swap2\n      pop\n        /* \"#utility.yul\":5299:5541   */\n      pop\n        /* \"#utility.yul\":5626:5630   */\n      0x40\n        /* \"#utility.yul\":5619:5624   */\n      dup4\n        /* \"#utility.yul\":5615:5631   */\n      add\n        /* \"#utility.yul\":5609:5632   */\n      mload\n        /* \"#utility.yul\":5645:5708   */\n      tag_242\n        /* \"#utility.yul\":5702:5706   */\n      0x40\n        /* \"#utility.yul\":5697:5700   */\n      dup7\n        /* \"#utility.yul\":5693:5707   */\n      add\n        /* \"#utility.yul\":5679:5691   */\n      dup3\n        /* \"#utility.yul\":5645:5708   */\n      tag_143\n      jump\t// in\n    tag_242:\n        /* \"#utility.yul\":5551:5718   */\n      pop\n        /* \"#utility.yul\":5802:5806   */\n      0x60\n        /* \"#utility.yul\":5795:5800   */\n      dup4\n        /* \"#utility.yul\":5791:5807   */\n      add\n        /* \"#utility.yul\":5785:5808   */\n      mload\n        /* \"#utility.yul\":5821:5884   */\n      tag_243\n        /* \"#utility.yul\":5878:5882   */\n      0x60\n        /* \"#utility.yul\":5873:5876   */\n      dup7\n        /* \"#utility.yul\":5869:5883   */\n      add\n        /* \"#utility.yul\":5855:5867   */\n      dup3\n        /* \"#utility.yul\":5821:5884   */\n      tag_143\n      jump\t// in\n    tag_243:\n        /* \"#utility.yul\":5728:5894   */\n      pop\n        /* \"#utility.yul\":5976:5980   */\n      0x80\n        /* \"#utility.yul\":5969:5974   */\n      dup4\n        /* \"#utility.yul\":5965:5981   */\n      add\n        /* \"#utility.yul\":5959:5982   */\n      mload\n        /* \"#utility.yul\":5995:6058   */\n      tag_244\n        /* \"#utility.yul\":6052:6056   */\n      0x80\n        /* \"#utility.yul\":6047:6050   */\n      dup7\n        /* \"#utility.yul\":6043:6057   */\n      add\n        /* \"#utility.yul\":6029:6041   */\n      dup3\n        /* \"#utility.yul\":5995:6058   */\n      tag_143\n      jump\t// in\n    tag_244:\n        /* \"#utility.yul\":5904:6068   */\n      pop\n        /* \"#utility.yul\":6163:6167   */\n      0xa0\n        /* \"#utility.yul\":6156:6161   */\n      dup4\n        /* \"#utility.yul\":6152:6168   */\n      add\n        /* \"#utility.yul\":6146:6169   */\n      mload\n        /* \"#utility.yul\":6182:6245   */\n      tag_245\n        /* \"#utility.yul\":6239:6243   */\n      0xa0\n        /* \"#utility.yul\":6234:6237   */\n      dup7\n        /* \"#utility.yul\":6230:6244   */\n      add\n        /* \"#utility.yul\":6216:6228   */\n      dup3\n        /* \"#utility.yul\":6182:6245   */\n      tag_143\n      jump\t// in\n    tag_245:\n        /* \"#utility.yul\":6078:6255   */\n      pop\n        /* \"#utility.yul\":6346:6350   */\n      0xc0\n        /* \"#utility.yul\":6339:6344   */\n      dup4\n        /* \"#utility.yul\":6335:6351   */\n      add\n        /* \"#utility.yul\":6329:6352   */\n      mload\n        /* \"#utility.yul\":6365:6422   */\n      tag_246\n        /* \"#utility.yul\":6416:6420   */\n      0xc0\n        /* \"#utility.yul\":6411:6414   */\n      dup7\n        /* \"#utility.yul\":6407:6421   */\n      add\n        /* \"#utility.yul\":6393:6405   */\n      dup3\n        /* \"#utility.yul\":6365:6422   */\n      tag_145\n      jump\t// in\n    tag_246:\n        /* \"#utility.yul\":6265:6432   */\n      pop\n        /* \"#utility.yul\":6519:6523   */\n      0xe0\n        /* \"#utility.yul\":6512:6517   */\n      dup4\n        /* \"#utility.yul\":6508:6524   */\n      add\n        /* \"#utility.yul\":6502:6525   */\n      mload\n        /* \"#utility.yul\":6538:6595   */\n      tag_247\n        /* \"#utility.yul\":6589:6593   */\n      0xe0\n        /* \"#utility.yul\":6584:6587   */\n      dup7\n        /* \"#utility.yul\":6580:6594   */\n      add\n        /* \"#utility.yul\":6566:6578   */\n      dup3\n        /* \"#utility.yul\":6538:6595   */\n      tag_145\n      jump\t// in\n    tag_247:\n        /* \"#utility.yul\":6442:6605   */\n      pop\n        /* \"#utility.yul\":6622:6626   */\n      dup1\n        /* \"#utility.yul\":6615:6626   */\n      swap2\n      pop\n        /* \"#utility.yul\":5005:6632   */\n      pop\n        /* \"#utility.yul\":4883:6632   */\n      swap3\n      swap2\n      pop\n      pop\n      jump\t// out\n        /* \"#utility.yul\":6638:7007   */\n    tag_20:\n        /* \"#utility.yul\":6779:6783   */\n      0x00\n        /* \"#utility.yul\":6817:6819   */\n      0x20\n        /* \"#utility.yul\":6806:6815   */\n      dup3\n        /* \"#utility.yul\":6802:6820   */\n      add\n        /* \"#utility.yul\":6794:6820   */\n      swap1\n      pop\n        /* \"#utility.yul\":6866:6875   */\n      dup2\n        /* \"#utility.yul\":6860:6864   */\n      dup2\n        /* \"#utility.yul\":6856:6876   */\n      sub\n        /* \"#utility.yul\":6852:6853   */\n      0x00\n        /* \"#utility.yul\":6841:6850   */\n      dup4\n        /* \"#utility.yul\":6837:6854   */\n      add\n        /* \"#utility.yul\":6830:6877   */\n      mstore\n        /* \"#utility.yul\":6894:7000   */\n      tag_249\n        /* \"#utility.yul\":6995:6999   */\n      dup2\n        /* \"#utility.yul\":6986:6992   */\n      dup5\n        /* \"#utility.yul\":6894:7000   */\n      tag_146\n      jump\t// in\n    tag_249:\n        /* \"#utility.yul\":6886:7000   */\n      swap1\n      pop\n        /* \"#utility.yul\":6638:7007   */\n      swap3\n      swap2\n      pop\n      pop\n      jump\t// out\n        /* \"#utility.yul\":7013:7099   */\n    tag_147:\n        /* \"#utility.yul\":7048:7055   */\n      0x00\n        /* \"#utility.yul\":7088:7092   */\n      0xff\n        /* \"#utility.yul\":7081:7086   */\n      dup3\n        /* \"#utility.yul\":7077:7093   */\n      and\n        /* \"#utility.yul\":7066:7093   */\n      swap1\n      pop\n        /* \"#utility.yul\":7013:7099   */\n      swap2\n      swap1\n      pop\n      jump\t// out\n        /* \"#utility.yul\":7105:7223   */\n    tag_148:\n        /* \"#utility.yul\":7176:7198   */\n      tag_252\n        /* \"#utility.yul\":7192:7197   */\n      dup2\n        /* \"#utility.yul\":7176:7198   */\n      tag_147\n      jump\t// in\n    tag_252:\n        /* \"#utility.yul\":7169:7174   */\n      dup2\n        /* \"#utility.yul\":7166:7199   */\n      eq\n        /* \"#utility.yul\":7156:7217   */\n      tag_253\n      jumpi\n        /* \"#utility.yul\":7213:7214   */\n      0x00\n        /* \"#utility.yul\":7210:7211   */\n      dup1\n        /* \"#utility.yul\":7203:7215   */\n      revert\n        /* \"#utility.yul\":7156:7217   */\n    tag_253:\n        /* \"#utility.yul\":7105:7223   */\n      pop\n      jump\t// out\n        /* \"#utility.yul\":7229:7364   */\n    tag_149:\n        /* \"#utility.yul\":7273:7278   */\n      0x00\n        /* \"#utility.yul\":7311:7317   */\n      dup2\n        /* \"#utility.yul\":7298:7318   */\n      calldataload\n        /* \"#utility.yul\":7289:7318   */\n      swap1\n      pop\n        /* \"#utility.yul\":7327:7358   */\n      tag_255\n        /* \"#utility.yul\":7352:7357   */\n      dup2\n        /* \"#utility.yul\":7327:7358   */\n      tag_148\n      jump\t// in\n    tag_255:\n        /* \"#utility.yul\":7229:7364   */\n      swap3\n      swap2\n      pop\n      pop\n      jump\t// out\n        /* \"#utility.yul\":7370:7695   */\n    tag_25:\n        /* \"#utility.yul\":7427:7433   */\n      0x00\n        /* \"#utility.yul\":7476:7478   */\n      0x20\n        /* \"#utility.yul\":7464:7473   */\n      dup3\n        /* \"#utility.yul\":7455:7462   */\n      dup5\n        /* \"#utility.yul\":7451:7474   */\n      sub\n        /* \"#utility.yul\":7447:7479   */\n      slt\n        /* \"#utility.yul\":7444:7563   */\n      iszero\n      tag_257\n      jumpi\n        /* \"#utility.yul\":7482:7561   */\n      tag_258\n      tag_125\n      jump\t// in\n    tag_258:\n        /* \"#utility.yul\":7444:7563   */\n    tag_257:\n        /* \"#utility.yul\":7602:7603   */\n      0x00\n        /* \"#utility.yul\":7627:7678   */\n      tag_259\n        /* \"#utility.yul\":7670:7677   */\n      dup5\n        /* \"#utility.yul\":7661:7667   */\n      dup3\n        /* \"#utility.yul\":7650:7659   */\n      dup6\n        /* \"#utility.yul\":7646:7668   */\n      add\n        /* \"#utility.yul\":7627:7678   */\n      tag_149\n      jump\t// in\n    tag_259:\n        /* \"#utility.yul\":7617:7678   */\n      swap2\n      pop\n        /* \"#utility.yul\":7573:7688   */\n      pop\n        /* \"#utility.yul\":7370:7695   */\n      swap3\n      swap2\n      pop\n      pop\n      jump\t// out\n        /* \"#utility.yul\":7701:8030   */\n    tag_29:\n        /* \"#utility.yul\":7760:7766   */\n      0x00\n        /* \"#utility.yul\":7809:7811   */\n      0x20\n        /* \"#utility.yul\":7797:7806   */\n      dup3\n        /* \"#utility.yul\":7788:7795   */\n      dup5\n        /* \"#utility.yul\":7784:7807   */\n      sub\n        /* \"#utility.yul\":7780:7812   */\n      slt\n        /* \"#utility.yul\":7777:7896   */\n      iszero\n      tag_261\n      jumpi\n        /* \"#utility.yul\":7815:7894   */\n      tag_262\n      tag_125\n      jump\t// in\n    tag_262:\n        /* \"#utility.yul\":7777:7896   */\n    tag_261:\n        /* \"#utility.yul\":7935:7936   */\n      0x00\n        /* \"#utility.yul\":7960:8013   */\n      tag_263\n        /* \"#utility.yul\":8005:8012   */\n      dup5\n        /* \"#utility.yul\":7996:8002   */\n      dup3\n        /* \"#utility.yul\":7985:7994   */\n      dup6\n        /* \"#utility.yul\":7981:8003   */\n      add\n        /* \"#utility.yul\":7960:8013   */\n      tag_137\n      jump\t// in\n    tag_263:\n        /* \"#utility.yul\":7950:8013   */\n      swap2\n      pop\n        /* \"#utility.yul\":7906:8023   */\n      pop\n        /* \"#utility.yul\":7701:8030   */\n      swap3\n      swap2\n      pop\n      pop\n      jump\t// out\n        /* \"#utility.yul\":8036:8205   */\n    tag_150:\n        /* \"#utility.yul\":8120:8131   */\n      0x00\n        /* \"#utility.yul\":8154:8160   */\n      dup3\n        /* \"#utility.yul\":8149:8152   */\n      dup3\n        /* \"#utility.yul\":8142:8161   */\n      mstore\n        /* \"#utility.yul\":8194:8198   */\n      0x20\n        /* \"#utility.yul\":8189:8192   */\n      dup3\n        /* \"#utility.yul\":8185:8199   */\n      add\n        /* \"#utility.yul\":8170:8199   */\n      swap1\n      pop\n        /* \"#utility.yul\":8036:8205   */\n      swap3\n      swap2\n      pop\n      pop\n      jump\t// out\n        /* \"#utility.yul\":8211:8392   */\n    tag_151:\n        /* \"#utility.yul\":8351:8384   */\n      0x4578697374696e672070726f706f73616c207374696c6c206163746976652e00\n        /* \"#utility.yul\":8347:8348   */\n      0x00\n        /* \"#utility.yul\":8339:8345   */\n      dup3\n        /* \"#utility.yul\":8335:8349   */\n      add\n        /* \"#utility.yul\":8328:8385   */\n      mstore\n        /* \"#utility.yul\":8211:8392   */\n      pop\n      jump\t// out\n        /* \"#utility.yul\":8398:8764   */\n    tag_152:\n        /* \"#utility.yul\":8540:8543   */\n      0x00\n        /* \"#utility.yul\":8561:8628   */\n      tag_267\n        /* \"#utility.yul\":8625:8627   */\n      0x1f\n        /* \"#utility.yul\":8620:8623   */\n      dup4\n        /* \"#utility.yul\":8561:8628   */\n      tag_150\n      jump\t// in\n    tag_267:\n        /* \"#utility.yul\":8554:8628   */\n      swap2\n      pop\n        /* \"#utility.yul\":8637:8730   */\n      tag_268\n        /* \"#utility.yul\":8726:8729   */\n      dup3\n        /* \"#utility.yul\":8637:8730   */\n      tag_151\n      jump\t// in\n    tag_268:\n        /* \"#utility.yul\":8755:8757   */\n      0x20\n        /* \"#utility.yul\":8750:8753   */\n      dup3\n        /* \"#utility.yul\":8746:8758   */\n      add\n        /* \"#utility.yul\":8739:8758   */\n      swap1\n      pop\n        /* \"#utility.yul\":8398:8764   */\n      swap2\n      swap1\n      pop\n      jump\t// out\n        /* \"#utility.yul\":8770:9189   */\n    tag_40:\n        /* \"#utility.yul\":8936:8940   */\n      0x00\n        /* \"#utility.yul\":8974:8976   */\n      0x20\n        /* \"#utility.yul\":8963:8972   */\n      dup3\n        /* \"#utility.yul\":8959:8977   */\n      add\n        /* \"#utility.yul\":8951:8977   */\n      swap1\n      pop\n        /* \"#utility.yul\":9023:9032   */\n      dup2\n        /* \"#utility.yul\":9017:9021   */\n      dup2\n        /* \"#utility.yul\":9013:9033   */\n      sub\n        /* \"#utility.yul\":9009:9010   */\n      0x00\n        /* \"#utility.yul\":8998:9007   */\n      dup4\n        /* \"#utility.yul\":8994:9011   */\n      add\n        /* \"#utility.yul\":8987:9034   */\n      mstore\n        /* \"#utility.yul\":9051:9182   */\n      tag_270\n        /* \"#utility.yul\":9177:9181   */\n      dup2\n        /* \"#utility.yul\":9051:9182   */\n      tag_152\n      jump\t// in\n    tag_270:\n        /* \"#utility.yul\":9043:9182   */\n      swap1\n      pop\n        /* \"#utility.yul\":8770:9189   */\n      swap2\n      swap1\n      pop\n      jump\t// out\n        /* \"#utility.yul\":9195:9375   */\n    tag_153:\n        /* \"#utility.yul\":9243:9320   */\n      0x4e487b7100000000000000000000000000000000000000000000000000000000\n        /* \"#utility.yul\":9240:9241   */\n      0x00\n        /* \"#utility.yul\":9233:9321   */\n      mstore\n        /* \"#utility.yul\":9340:9344   */\n      0x11\n        /* \"#utility.yul\":9337:9338   */\n      0x04\n        /* \"#utility.yul\":9330:9345   */\n      mstore\n        /* \"#utility.yul\":9364:9368   */\n      0x24\n        /* \"#utility.yul\":9361:9362   */\n      0x00\n        /* \"#utility.yul\":9354:9369   */\n      revert\n        /* \"#utility.yul\":9381:9572   */\n    tag_42:\n        /* \"#utility.yul\":9421:9424   */\n      0x00\n        /* \"#utility.yul\":9440:9460   */\n      tag_273\n        /* \"#utility.yul\":9458:9459   */\n      dup3\n        /* \"#utility.yul\":9440:9460   */\n      tag_135\n      jump\t// in\n    tag_273:\n        /* \"#utility.yul\":9435:9460   */\n      swap2\n      pop\n        /* \"#utility.yul\":9474:9494   */\n      tag_274\n        /* \"#utility.yul\":9492:9493   */\n      dup4\n        /* \"#utility.yul\":9474:9494   */\n      tag_135\n      jump\t// in\n    tag_274:\n        /* \"#utility.yul\":9469:9494   */\n      swap3\n      pop\n        /* \"#utility.yul\":9517:9518   */\n      dup3\n        /* \"#utility.yul\":9514:9515   */\n      dup3\n        /* \"#utility.yul\":9510:9519   */\n      add\n        /* \"#utility.yul\":9503:9519   */\n      swap1\n      pop\n        /* \"#utility.yul\":9538:9541   */\n      dup1\n        /* \"#utility.yul\":9535:9536   */\n      dup3\n        /* \"#utility.yul\":9532:9542   */\n      gt\n        /* \"#utility.yul\":9529:9565   */\n      iszero\n      tag_275\n      jumpi\n        /* \"#utility.yul\":9545:9563   */\n      tag_276\n      tag_153\n      jump\t// in\n    tag_276:\n        /* \"#utility.yul\":9529:9565   */\n    tag_275:\n        /* \"#utility.yul\":9381:9572   */\n      swap3\n      swap2\n      pop\n      pop\n      jump\t// out\n        /* \"#utility.yul\":9578:9758   */\n    tag_154:\n        /* \"#utility.yul\":9626:9703   */\n      0x4e487b7100000000000000000000000000000000000000000000000000000000\n        /* \"#utility.yul\":9623:9624   */\n      0x00\n        /* \"#utility.yul\":9616:9704   */\n      mstore\n        /* \"#utility.yul\":9723:9727   */\n      0x41\n        /* \"#utility.yul\":9720:9721   */\n      0x04\n        /* \"#utility.yul\":9713:9728   */\n      mstore\n        /* \"#utility.yul\":9747:9751   */\n      0x24\n        /* \"#utility.yul\":9744:9745   */\n      0x00\n        /* \"#utility.yul\":9737:9752   */\n      revert\n        /* \"#utility.yul\":9764:9944   */\n    tag_155:\n        /* \"#utility.yul\":9812:9889   */\n      0x4e487b7100000000000000000000000000000000000000000000000000000000\n        /* \"#utility.yul\":9809:9810   */\n      0x00\n        /* \"#utility.yul\":9802:9890   */\n      mstore\n        /* \"#utility.yul\":9909:9913   */\n      0x22\n        /* \"#utility.yul\":9906:9907   */\n      0x04\n        /* \"#utility.yul\":9899:9914   */\n      mstore\n        /* \"#utility.yul\":9933:9937   */\n      0x24\n        /* \"#utility.yul\":9930:9931   */\n      0x00\n        /* \"#utility.yul\":9923:9938   */\n      revert\n        /* \"#utility.yul\":9950:10270   */\n    tag_50:\n        /* \"#utility.yul\":9994:10000   */\n      0x00\n        /* \"#utility.yul\":10031:10032   */\n      0x02\n        /* \"#utility.yul\":10025:10029   */\n      dup3\n        /* \"#utility.yul\":10021:10033   */\n      div\n        /* \"#utility.yul\":10011:10033   */\n      swap1\n      pop\n        /* \"#utility.yul\":10078:10079   */\n      0x01\n        /* \"#utility.yul\":10072:10076   */\n      dup3\n        /* \"#utility.yul\":10068:10080   */\n      and\n        /* \"#utility.yul\":10099:10117   */\n      dup1\n        /* \"#utility.yul\":10089:10170   */\n      tag_280\n      jumpi\n        /* \"#utility.yul\":10155:10159   */\n      0x7f\n        /* \"#utility.yul\":10147:10153   */\n      dup3\n        /* \"#utility.yul\":10143:10160   */\n      and\n        /* \"#utility.yul\":10133:10160   */\n      swap2\n      pop\n        /* \"#utility.yul\":10089:10170   */\n    tag_280:\n        /* \"#utility.yul\":10217:10219   */\n      0x20\n        /* \"#utility.yul\":10209:10215   */\n      dup3\n        /* \"#utility.yul\":10206:10220   */\n      lt\n        /* \"#utility.yul\":10186:10204   */\n      dup2\n        /* \"#utility.yul\":10183:10221   */\n      sub\n        /* \"#utility.yul\":10180:10264   */\n      tag_281\n      jumpi\n        /* \"#utility.yul\":10236:10254   */\n      tag_282\n      tag_155\n      jump\t// in\n    tag_282:\n        /* \"#utility.yul\":10180:10264   */\n    tag_281:\n        /* \"#utility.yul\":10001:10270   */\n      pop\n        /* \"#utility.yul\":9950:10270   */\n      swap2\n      swap1\n      pop\n      jump\t// out\n        /* \"#utility.yul\":10276:10417   */\n    tag_156:\n        /* \"#utility.yul\":10325:10329   */\n      0x00\n        /* \"#utility.yul\":10348:10351   */\n      dup2\n        /* \"#utility.yul\":10340:10351   */\n      swap1\n      pop\n        /* \"#utility.yul\":10371:10374   */\n      dup2\n        /* \"#utility.yul\":10368:10369   */\n      0x00\n        /* \"#utility.yul\":10361:10375   */\n      mstore\n        /* \"#utility.yul\":10405:10409   */\n      0x20\n        /* \"#utility.yul\":10402:10403   */\n      0x00\n        /* \"#utility.yul\":10392:10410   */\n      keccak256\n        /* \"#utility.yul\":10384:10410   */\n      swap1\n      pop\n        /* \"#utility.yul\":10276:10417   */\n      swap2\n      swap1\n      pop\n      jump\t// out\n        /* \"#utility.yul\":10423:10516   */\n    tag_157:\n        /* \"#utility.yul\":10460:10466   */\n      0x00\n        /* \"#utility.yul\":10507:10509   */\n      0x20\n        /* \"#utility.yul\":10502:10504   */\n      0x1f\n        /* \"#utility.yul\":10495:10500   */\n      dup4\n        /* \"#utility.yul\":10491:10505   */\n      add\n        /* \"#utility.yul\":10487:10510   */\n      div\n        /* \"#utility.yul\":10477:10510   */\n      swap1\n      pop\n        /* \"#utility.yul\":10423:10516   */\n      swap2\n      swap1\n      pop\n      jump\t// out\n        /* \"#utility.yul\":10522:10629   */\n    tag_158:\n        /* \"#utility.yul\":10566:10574   */\n      0x00\n        /* \"#utility.yul\":10616:10621   */\n      dup3\n        /* \"#utility.yul\":10610:10614   */\n      dup3\n        /* \"#utility.yul\":10606:10622   */\n      shl\n        /* \"#utility.yul\":10585:10622   */\n      swap1\n      pop\n        /* \"#utility.yul\":10522:10629   */\n      swap3\n      swap2\n      pop\n      pop\n      jump\t// out\n        /* \"#utility.yul\":10635:11028   */\n    tag_159:\n        /* \"#utility.yul\":10704:10710   */\n      0x00\n        /* \"#utility.yul\":10754:10755   */\n      0x08\n        /* \"#utility.yul\":10742:10752   */\n      dup4\n        /* \"#utility.yul\":10738:10756   */\n      mul\n        /* \"#utility.yul\":10777:10874   */\n      tag_287\n        /* \"#utility.yul\":10807:10873   */\n      0xffffffffffffffffffffffffffffffffffffffffffffffffffffffffffffffff\n        /* \"#utility.yul\":10796:10805   */\n      dup3\n        /* \"#utility.yul\":10777:10874   */\n      tag_158\n      jump\t// in\n    tag_287:\n        /* \"#utility.yul\":10895:10934   */\n      tag_288\n        /* \"#utility.yul\":10925:10933   */\n      dup7\n        /* \"#utility.yul\":10914:10923   */\n      dup4\n        /* \"#utility.yul\":10895:10934   */\n      tag_158\n      jump\t// in\n    tag_288:\n        /* \"#utility.yul\":10883:10934   */\n      swap6\n      pop\n        /* \"#utility.yul\":10967:10971   */\n      dup1\n        /* \"#utility.yul\":10963:10972   */\n      not\n        /* \"#utility.yul\":10956:10961   */\n      dup5\n        /* \"#utility.yul\":10952:10973   */\n      and\n        /* \"#utility.yul\":10943:10973   */\n      swap4\n      pop\n        /* \"#utility.yul\":11016:11020   */\n      dup1\n        /* \"#utility.yul\":11006:11014   */\n      dup7\n        /* \"#utility.yul\":11002:11021   */\n      and\n        /* \"#utility.yul\":10995:11000   */\n      dup5\n        /* \"#utility.yul\":10992:11022   */\n      or\n        /* \"#utility.yul\":10982:11022   */\n      swap3\n      pop\n        /* \"#utility.yul\":10711:11028   */\n      pop\n      pop\n        /* \"#utility.yul\":10635:11028   */\n      swap4\n      swap3\n      pop\n      pop\n      pop\n      jump\t// out\n        /* \"#utility.yul\":11034:11094   */\n    tag_160:\n        /* \"#utility.yul\":11062:11065   */\n      0x00\n        /* \"#utility.yul\":11083:11088   */\n      dup2\n        /* \"#utility.yul\":11076:11088   */\n      swap1\n      pop\n        /* \"#utility.yul\":11034:11094   */\n      swap2\n      swap1\n      pop\n      jump\t// out\n        /* \"#utility.yul\":11100:11242   */\n    tag_161:\n        /* \"#utility.yul\":11150:11159   */\n      0x00\n        /* \"#utility.yul\":11183:11236   */\n      tag_291\n        /* \"#utility.yul\":11201:11235   */\n      tag_292\n        /* \"#utility.yul\":11210:11234   */\n      tag_293\n        /* \"#utility.yul\":11228:11233   */\n      dup5\n        /* \"#utility.yul\":11210:11234   */\n      tag_135\n      jump\t// in\n    tag_293:\n        /* \"#utility.yul\":11201:11235   */\n      tag_160\n      jump\t// in\n    tag_292:\n        /* \"#utility.yul\":11183:11236   */\n      tag_135\n      jump\t// in\n    tag_291:\n        /* \"#utility.yul\":11170:11236   */\n      swap1\n      pop\n        /* \"#utility.yul\":11100:11242   */\n      swap2\n      swap1\n      pop\n      jump\t// out\n        /* \"#utility.yul\":11248:11323   */\n    tag_162:\n        /* \"#utility.yul\":11291:11294   */\n      0x00\n        /* \"#utility.yul\":11312:11317   */\n      dup2\n        /* \"#utility.yul\":11305:11317   */\n      swap1\n      pop\n        /* \"#utility.yul\":11248:11323   */\n      swap2\n      swap1\n      pop\n      jump\t// out\n        /* \"#utility.yul\":11329:11598   */\n    tag_163:\n        /* \"#utility.yul\":11439:11478   */\n      tag_296\n        /* \"#utility.yul\":11470:11477   */\n      dup4\n        /* \"#utility.yul\":11439:11478   */\n      tag_161\n      jump\t// in\n    tag_296:\n        /* \"#utility.yul\":11500:11591   */\n      tag_297\n        /* \"#utility.yul\":11549:11590   */\n      tag_298\n        /* \"#utility.yul\":11573:11589   */\n      dup3\n        /* \"#utility.yul\":11549:11590   */\n      tag_162\n      jump\t// in\n    tag_298:\n        /* \"#utility.yul\":11541:11547   */\n      dup5\n        /* \"#utility.yul\":11534:11538   */\n      dup5\n        /* \"#utility.yul\":11528:11539   */\n      sload\n        /* \"#utility.yul\":11500:11591   */\n      tag_159\n      jump\t// in\n    tag_297:\n        /* \"#utility.yul\":11494:11498   */\n      dup3\n        /* \"#utility.yul\":11487:11592   */\n      sstore\n        /* \"#utility.yul\":11405:11598   */\n      pop\n        /* \"#utility.yul\":11329:11598   */\n      pop\n      pop\n      pop\n      jump\t// out\n        /* \"#utility.yul\":11604:11677   */\n    tag_164:\n        /* \"#utility.yul\":11649:11652   */\n      0x00\n        /* \"#utility.yul\":11604:11677   */\n      swap1\n      jump\t// out\n        /* \"#utility.yul\":11683:11872   */\n    tag_165:\n        /* \"#utility.yul\":11760:11792   */\n      tag_301\n      tag_164\n      jump\t// in\n    tag_301:\n        /* \"#utility.yul\":11801:11866   */\n      tag_302\n        /* \"#utility.yul\":11859:11865   */\n      dup2\n        /* \"#utility.yul\":11851:11857   */\n      dup5\n        /* \"#utility.yul\":11845:11849   */\n      dup5\n        /* \"#utility.yul\":11801:11866   */\n      tag_163\n      jump\t// in\n    tag_302:\n        /* \"#utility.yul\":11736:11872   */\n      pop\n        /* \"#utility.yul\":11683:11872   */\n      pop\n      pop\n      jump\t// out\n        /* \"#utility.yul\":11878:12064   */\n    tag_166:\n        /* \"#utility.yul\":11938:12058   */\n    tag_304:\n        /* \"#utility.yul\":11955:11958   */\n      dup2\n        /* \"#utility.yul\":11948:11953   */\n      dup2\n        /* \"#utility.yul\":11945:11959   */\n      lt\n        /* \"#utility.yul\":11938:12058   */\n      iszero\n      tag_306\n      jumpi\n        /* \"#utility.yul\":12009:12048   */\n      tag_307\n        /* \"#utility.yul\":12046:12047   */\n      0x00\n        /* \"#utility.yul\":12039:12044   */\n      dup3\n        /* \"#utility.yul\":12009:12048   */\n      tag_165\n      jump\t// in\n    tag_307:\n        /* \"#utility.yul\":11982:11983   */\n      0x01\n        /* \"#utility.yul\":11975:11980   */\n      dup2\n        /* \"#utility.yul\":11971:11984   */\n      add\n        /* \"#utility.yul\":11962:11984   */\n      swap1\n      pop\n        /* \"#utility.yul\":11938:12058   */\n      jump(tag_304)\n    tag_306:\n        /* \"#utility.yul\":11878:12064   */\n      pop\n      pop\n      jump\t// out\n        /* \"#utility.yul\":12070:12613   */\n    tag_167:\n        /* \"#utility.yul\":12171:12173   */\n      0x1f\n        /* \"#utility.yul\":12166:12169   */\n      dup3\n        /* \"#utility.yul\":12163:12174   */\n      gt\n        /* \"#utility.yul\":12160:12606   */\n      iszero\n      tag_309\n      jumpi\n        /* \"#utility.yul\":12205:12243   */\n      tag_310\n        /* \"#utility.yul\":12237:12242   */\n      dup2\n        /* \"#utility.yul\":12205:12243   */\n      tag_156\n      jump\t// in\n    tag_310:\n        /* \"#utility.yul\":12289:12318   */\n      tag_311\n        /* \"#utility.yul\":12307:12317   */\n      dup5\n        /* \"#utility.yul\":12289:12318   */\n      tag_157\n      jump\t// in\n    tag_311:\n        /* \"#utility.yul\":12279:12287   */\n      dup2\n        /* \"#utility.yul\":12275:12319   */\n      add\n        /* \"#utility.yul\":12472:12474   */\n      0x20\n        /* \"#utility.yul\":12460:12470   */\n      dup6\n        /* \"#utility.yul\":12457:12475   */\n      lt\n        /* \"#utility.yul\":12454:12503   */\n      iszero\n      tag_312\n      jumpi\n        /* \"#utility.yul\":12493:12501   */\n      dup2\n        /* \"#utility.yul\":12478:12501   */\n      swap1\n      pop\n        /* \"#utility.yul\":12454:12503   */\n    tag_312:\n        /* \"#utility.yul\":12516:12596   */\n      tag_313\n        /* \"#utility.yul\":12572:12594   */\n      tag_314\n        /* \"#utility.yul\":12590:12593   */\n      dup6\n        /* \"#utility.yul\":12572:12594   */\n      tag_157\n      jump\t// in\n    tag_314:\n        /* \"#utility.yul\":12562:12570   */\n      dup4\n        /* \"#utility.yul\":12558:12595   */\n      add\n        /* \"#utility.yul\":12545:12556   */\n      dup3\n        /* \"#utility.yul\":12516:12596   */\n      tag_166\n      jump\t// in\n    tag_313:\n        /* \"#utility.yul\":12175:12606   */\n      pop\n      pop\n        /* \"#utility.yul\":12160:12606   */\n    tag_309:\n        /* \"#utility.yul\":12070:12613   */\n      pop\n      pop\n      pop\n      jump\t// out\n        /* \"#utility.yul\":12619:12736   */\n    tag_168:\n        /* \"#utility.yul\":12673:12681   */\n      0x00\n        /* \"#utility.yul\":12723:12728   */\n      dup3\n        /* \"#utility.yul\":12717:12721   */\n      dup3\n        /* \"#utility.yul\":12713:12729   */\n      shr\n        /* \"#utility.yul\":12692:12729   */\n      swap1\n      pop\n        /* \"#utility.yul\":12619:12736   */\n      swap3\n      swap2\n      pop\n      pop\n      jump\t// out\n        /* \"#utility.yul\":12742:12911   */\n    tag_169:\n        /* \"#utility.yul\":12786:12792   */\n      0x00\n        /* \"#utility.yul\":12819:12870   */\n      tag_317\n        /* \"#utility.yul\":12867:12868   */\n      0x00\n        /* \"#utility.yul\":12863:12869   */\n      not\n        /* \"#utility.yul\":12855:12860   */\n      dup5\n        /* \"#utility.yul\":12852:12853   */\n      0x08\n        /* \"#utility.yul\":12848:12861   */\n      mul\n        /* \"#utility.yul\":12819:12870   */\n      tag_168\n      jump\t// in\n    tag_317:\n        /* \"#utility.yul\":12815:12871   */\n      not\n        /* \"#utility.yul\":12900:12904   */\n      dup1\n        /* \"#utility.yul\":12894:12898   */\n      dup4\n        /* \"#utility.yul\":12890:12905   */\n      and\n        /* \"#utility.yul\":12880:12905   */\n      swap2\n      pop\n        /* \"#utility.yul\":12793:12911   */\n      pop\n        /* \"#utility.yul\":12742:12911   */\n      swap3\n      swap2\n      pop\n      pop\n      jump\t// out\n        /* \"#utility.yul\":12916:13211   */\n    tag_170:\n        /* \"#utility.yul\":12992:12996   */\n      0x00\n        /* \"#utility.yul\":13138:13167   */\n      tag_319\n        /* \"#utility.yul\":13163:13166   */\n      dup4\n        /* \"#utility.yul\":13157:13161   */\n      dup4\n        /* \"#utility.yul\":13138:13167   */\n      tag_169\n      jump\t// in\n    tag_319:\n        /* \"#utility.yul\":13130:13167   */\n      swap2\n      pop\n        /* \"#utility.yul\":13200:13203   */\n      dup3\n        /* \"#utility.yul\":13197:13198   */\n      0x02\n        /* \"#utility.yul\":13193:13204   */\n      mul\n        /* \"#utility.yul\":13187:13191   */\n      dup3\n        /* \"#utility.yul\":13184:13205   */\n      or\n        /* \"#utility.yul\":13176:13205   */\n      swap1\n      pop\n        /* \"#utility.yul\":12916:13211   */\n      swap3\n      swap2\n      pop\n      pop\n      jump\t// out\n        /* \"#utility.yul\":13216:14611   */\n    tag_44:\n        /* \"#utility.yul\":13333:13370   */\n      tag_321\n        /* \"#utility.yul\":13366:13369   */\n      dup3\n        /* \"#utility.yul\":13333:13370   */\n      tag_138\n      jump\t// in\n    tag_321:\n        /* \"#utility.yul\":13435:13453   */\n      0xffffffffffffffff\n        /* \"#utility.yul\":13427:13433   */\n      dup2\n        /* \"#utility.yul\":13424:13454   */\n      gt\n        /* \"#utility.yul\":13421:13477   */\n      iszero\n      tag_322\n      jumpi\n        /* \"#utility.yul\":13457:13475   */\n      tag_323\n      tag_154\n      jump\t// in\n    tag_323:\n        /* \"#utility.yul\":13421:13477   */\n    tag_322:\n        /* \"#utility.yul\":13501:13539   */\n      tag_324\n        /* \"#utility.yul\":13533:13537   */\n      dup3\n        /* \"#utility.yul\":13527:13538   */\n      sload\n        /* \"#utility.yul\":13501:13539   */\n      tag_50\n      jump\t// in\n    tag_324:\n        /* \"#utility.yul\":13586:13653   */\n      tag_325\n        /* \"#utility.yul\":13646:13652   */\n      dup3\n        /* \"#utility.yul\":13638:13644   */\n      dup3\n        /* \"#utility.yul\":13632:13636   */\n      dup6\n        /* \"#utility.yul\":13586:13653   */\n      tag_167\n      jump\t// in\n    tag_325:\n        /* \"#utility.yul\":13680:13681   */\n      0x00\n        /* \"#utility.yul\":13704:13708   */\n      0x20\n        /* \"#utility.yul\":13691:13708   */\n      swap1\n      pop\n        /* \"#utility.yul\":13736:13738   */\n      0x1f\n        /* \"#utility.yul\":13728:13734   */\n      dup4\n        /* \"#utility.yul\":13725:13739   */\n      gt\n        /* \"#utility.yul\":13753:13754   */\n      0x01\n        /* \"#utility.yul\":13748:14366   */\n      dup2\n      eq\n      tag_327\n      jumpi\n        /* \"#utility.yul\":14410:14411   */\n      0x00\n        /* \"#utility.yul\":14427:14433   */\n      dup5\n        /* \"#utility.yul\":14424:14501   */\n      iszero\n      tag_328\n      jumpi\n        /* \"#utility.yul\":14476:14485   */\n      dup3\n        /* \"#utility.yul\":14471:14474   */\n      dup8\n        /* \"#utility.yul\":14467:14486   */\n      add\n        /* \"#utility.yul\":14461:14487   */\n      mload\n        /* \"#utility.yul\":14452:14487   */\n      swap1\n      pop\n        /* \"#utility.yul\":14424:14501   */\n    tag_328:\n        /* \"#utility.yul\":14527:14594   */\n      tag_329\n        /* \"#utility.yul\":14587:14593   */\n      dup6\n        /* \"#utility.yul\":14580:14585   */\n      dup3\n        /* \"#utility.yul\":14527:14594   */\n      tag_170\n      jump\t// in\n    tag_329:\n        /* \"#utility.yul\":14521:14525   */\n      dup7\n        /* \"#utility.yul\":14514:14595   */\n      sstore\n        /* \"#utility.yul\":14383:14605   */\n      pop\n        /* \"#utility.yul\":13718:14605   */\n      jump(tag_326)\n        /* \"#utility.yul\":13748:14366   */\n    tag_327:\n        /* \"#utility.yul\":13800:13804   */\n      0x1f\n        /* \"#utility.yul\":13796:13805   */\n      not\n        /* \"#utility.yul\":13788:13794   */\n      dup5\n        /* \"#utility.yul\":13784:13806   */\n      and\n        /* \"#utility.yul\":13834:13871   */\n      tag_330\n        /* \"#utility.yul\":13866:13870   */\n      dup7\n        /* \"#utility.yul\":13834:13871   */\n      tag_156\n      jump\t// in\n    tag_330:\n        /* \"#utility.yul\":13893:13894   */\n      0x00\n        /* \"#utility.yul\":13907:14115   */\n    tag_331:\n        /* \"#utility.yul\":13921:13928   */\n      dup3\n        /* \"#utility.yul\":13918:13919   */\n      dup2\n        /* \"#utility.yul\":13915:13929   */\n      lt\n        /* \"#utility.yul\":13907:14115   */\n      iszero\n      tag_333\n      jumpi\n        /* \"#utility.yul\":14000:14009   */\n      dup5\n        /* \"#utility.yul\":13995:13998   */\n      dup10\n        /* \"#utility.yul\":13991:14010   */\n      add\n        /* \"#utility.yul\":13985:14011   */\n      mload\n        /* \"#utility.yul\":13977:13983   */\n      dup3\n        /* \"#utility.yul\":13970:14012   */\n      sstore\n        /* \"#utility.yul\":14051:14052   */\n      0x01\n        /* \"#utility.yul\":14043:14049   */\n      dup3\n        /* \"#utility.yul\":14039:14053   */\n      add\n        /* \"#utility.yul\":14029:14053   */\n      swap2\n      pop\n        /* \"#utility.yul\":14098:14100   */\n      0x20\n        /* \"#utility.yul\":14087:14096   */\n      dup6\n        /* \"#utility.yul\":14083:14101   */\n      add\n        /* \"#utility.yul\":14070:14101   */\n      swap5\n      pop\n        /* \"#utility.yul\":13944:13948   */\n      0x20\n        /* \"#utility.yul\":13941:13942   */\n      dup2\n        /* \"#utility.yul\":13937:13949   */\n      add\n        /* \"#utility.yul\":13932:13949   */\n      swap1\n      pop\n        /* \"#utility.yul\":13907:14115   */\n      jump(tag_331)\n    tag_333:\n        /* \"#utility.yul\":14143:14149   */\n      dup7\n        /* \"#utility.yul\":14134:14141   */\n      dup4\n        /* \"#utility.yul\":14131:14150   */\n      lt\n        /* \"#utility.yul\":14128:14307   */\n      iszero\n      tag_334\n      jumpi\n        /* \"#utility.yul\":14201:14210   */\n      dup5\n        /* \"#utility.yul\":14196:14199   */\n      dup10\n        /* \"#utility.yul\":14192:14211   */\n      add\n        /* \"#utility.yul\":14186:14212   */\n      mload\n        /* \"#utility.yul\":14244:14292   */\n      tag_335\n        /* \"#utility.yul\":14286:14290   */\n      0x1f\n        /* \"#utility.yul\":14278:14284   */\n      dup10\n        /* \"#utility.yul\":14274:14291   */\n      and\n        /* \"#utility.yul\":14263:14272   */\n      dup3\n        /* \"#utility.yul\":14244:14292   */\n      tag_169\n      jump\t// in\n    tag_335:\n        /* \"#utility.yul\":14236:14242   */\n      dup4\n        /* \"#utility.yul\":14229:14293   */\n      sstore\n        /* \"#utility.yul\":14151:14307   */\n      pop\n        /* \"#utility.yul\":14128:14307   */\n    tag_334:\n        /* \"#utility.yul\":14353:14354   */\n      0x01\n        /* \"#utility.yul\":14349:14350   */\n      0x02\n        /* \"#utility.yul\":14341:14347   */\n      dup9\n        /* \"#utility.yul\":14337:14351   */\n      mul\n        /* \"#utility.yul\":14333:14355   */\n      add\n        /* \"#utility.yul\":14327:14331   */\n      dup9\n        /* \"#utility.yul\":14320:14356   */\n      sstore\n        /* \"#utility.yul\":13755:14366   */\n      pop\n      pop\n      pop\n        /* \"#utility.yul\":13718:14605   */\n    tag_326:\n      pop\n        /* \"#utility.yul\":13308:14611   */\n      pop\n      pop\n      pop\n        /* \"#utility.yul\":13216:14611   */\n      pop\n      pop\n      jump\t// out\n        /* \"#utility.yul\":14617:14793   */\n    tag_171:\n        /* \"#utility.yul\":14757:14785   */\n      0x5468652070726f706f73616c206973206e6f7420616374697665000000000000\n        /* \"#utility.yul\":14753:14754   */\n      0x00\n        /* \"#utility.yul\":14745:14751   */\n      dup3\n        /* \"#utility.yul\":14741:14755   */\n      add\n        /* \"#utility.yul\":14734:14786   */\n      mstore\n        /* \"#utility.yul\":14617:14793   */\n      pop\n      jump\t// out\n        /* \"#utility.yul\":14799:15165   */\n    tag_172:\n        /* \"#utility.yul\":14941:14944   */\n      0x00\n        /* \"#utility.yul\":14962:15029   */\n      tag_338\n        /* \"#utility.yul\":15026:15028   */\n      0x1a\n        /* \"#utility.yul\":15021:15024   */\n      dup4\n        /* \"#utility.yul\":14962:15029   */\n      tag_150\n      jump\t// in\n    tag_338:\n        /* \"#utility.yul\":14955:15029   */\n      swap2\n      pop\n        /* \"#utility.yul\":15038:15131   */\n      tag_339\n        /* \"#utility.yul\":15127:15130   */\n      dup3\n        /* \"#utility.yul\":15038:15131   */\n      tag_171\n      jump\t// in\n    tag_339:\n        /* \"#utility.yul\":15156:15158   */\n      0x20\n        /* \"#utility.yul\":15151:15154   */\n      dup3\n        /* \"#utility.yul\":15147:15159   */\n      add\n        /* \"#utility.yul\":15140:15159   */\n      swap1\n      pop\n        /* \"#utility.yul\":14799:15165   */\n      swap2\n      swap1\n      pop\n      jump\t// out\n        /* \"#utility.yul\":15171:15590   */\n    tag_65:\n        /* \"#utility.yul\":15337:15341   */\n      0x00\n        /* \"#utility.yul\":15375:15377   */\n      0x20\n        /* \"#utility.yul\":15364:15373   */\n      dup3\n        /* \"#utility.yul\":15360:15378   */\n      add\n        /* \"#utility.yul\":15352:15378   */\n      swap1\n      pop\n        /* \"#utility.yul\":15424:15433   */\n      dup2\n        /* \"#utility.yul\":15418:15422   */\n      dup2\n        /* \"#utility.yul\":15414:15434   */\n      sub\n        /* \"#utility.yul\":15410:15411   */\n      0x00\n        /* \"#utility.yul\":15399:15408   */\n      dup4\n        /* \"#utility.yul\":15395:15412   */\n      add\n        /* \"#utility.yul\":15388:15435   */\n      mstore\n        /* \"#utility.yul\":15452:15583   */\n      tag_341\n        /* \"#utility.yul\":15578:15582   */\n      dup2\n        /* \"#utility.yul\":15452:15583   */\n      tag_172\n      jump\t// in\n    tag_341:\n        /* \"#utility.yul\":15444:15583   */\n      swap1\n      pop\n        /* \"#utility.yul\":15171:15590   */\n      swap2\n      swap1\n      pop\n      jump\t// out\n        /* \"#utility.yul\":15596:15771   */\n    tag_173:\n        /* \"#utility.yul\":15736:15763   */\n      0x416464726573732068617320616c726561647920766f74656400000000000000\n        /* \"#utility.yul\":15732:15733   */\n      0x00\n        /* \"#utility.yul\":15724:15730   */\n      dup3\n        /* \"#utility.yul\":15720:15734   */\n      add\n        /* \"#utility.yul\":15713:15764   */\n      mstore\n        /* \"#utility.yul\":15596:15771   */\n      pop\n      jump\t// out\n        /* \"#utility.yul\":15777:16143   */\n    tag_174:\n        /* \"#utility.yul\":15919:15922   */\n      0x00\n        /* \"#utility.yul\":15940:16007   */\n      tag_344\n        /* \"#utility.yul\":16004:16006   */\n      0x19\n        /* \"#utility.yul\":15999:16002   */\n      dup4\n        /* \"#utility.yul\":15940:16007   */\n      tag_150\n      jump\t// in\n    tag_344:\n        /* \"#utility.yul\":15933:16007   */\n      swap2\n      pop\n        /* \"#utility.yul\":16016:16109   */\n      tag_345\n        /* \"#utility.yul\":16105:16108   */\n      dup3\n        /* \"#utility.yul\":16016:16109   */\n      tag_173\n      jump\t// in\n    tag_345:\n        /* \"#utility.yul\":16134:16136   */\n      0x20\n        /* \"#utility.yul\":16129:16132   */\n      dup3\n        /* \"#utility.yul\":16125:16137   */\n      add\n        /* \"#utility.yul\":16118:16137   */\n      swap1\n      pop\n        /* \"#utility.yul\":15777:16143   */\n      swap2\n      swap1\n      pop\n      jump\t// out\n        /* \"#utility.yul\":16149:16568   */\n    tag_73:\n        /* \"#utility.yul\":16315:16319   */\n      0x00\n        /* \"#utility.yul\":16353:16355   */\n      0x20\n        /* \"#utility.yul\":16342:16351   */\n      dup3\n        /* \"#utility.yul\":16338:16356   */\n      add\n        /* \"#utility.yul\":16330:16356   */\n      swap1\n      pop\n        /* \"#utility.yul\":16402:16411   */\n      dup2\n        /* \"#utility.yul\":16396:16400   */\n      dup2\n        /* \"#utility.yul\":16392:16412   */\n      sub\n        /* \"#utility.yul\":16388:16389   */\n      0x00\n        /* \"#utility.yul\":16377:16386   */\n      dup4\n        /* \"#utility.yul\":16373:16390   */\n      add\n        /* \"#utility.yul\":16366:16413   */\n      mstore\n        /* \"#utility.yul\":16430:16561   */\n      tag_347\n        /* \"#utility.yul\":16556:16560   */\n      dup2\n        /* \"#utility.yul\":16430:16561   */\n      tag_174\n      jump\t// in\n    tag_347:\n        /* \"#utility.yul\":16422:16561   */\n      swap1\n      pop\n        /* \"#utility.yul\":16149:16568   */\n      swap2\n      swap1\n      pop\n      jump\t// out\n        /* \"#utility.yul\":16574:16794   */\n    tag_175:\n        /* \"#utility.yul\":16714:16748   */\n      0x43686f6963652073686f756c642062652065697468657220302c203120307220\n        /* \"#utility.yul\":16710:16711   */\n      0x00\n        /* \"#utility.yul\":16702:16708   */\n      dup3\n        /* \"#utility.yul\":16698:16712   */\n      add\n        /* \"#utility.yul\":16691:16749   */\n      mstore\n        /* \"#utility.yul\":16783:16786   */\n      0x3200000000000000000000000000000000000000000000000000000000000000\n        /* \"#utility.yul\":16778:16780   */\n      0x20\n        /* \"#utility.yul\":16770:16776   */\n      dup3\n        /* \"#utility.yul\":16766:16781   */\n      add\n        /* \"#utility.yul\":16759:16787   */\n      mstore\n        /* \"#utility.yul\":16574:16794   */\n      pop\n      jump\t// out\n        /* \"#utility.yul\":16800:17166   */\n    tag_176:\n        /* \"#utility.yul\":16942:16945   */\n      0x00\n        /* \"#utility.yul\":16963:17030   */\n      tag_350\n        /* \"#utility.yul\":17027:17029   */\n      0x21\n        /* \"#utility.yul\":17022:17025   */\n      dup4\n        /* \"#utility.yul\":16963:17030   */\n      tag_150\n      jump\t// in\n    tag_350:\n        /* \"#utility.yul\":16956:17030   */\n      swap2\n      pop\n        /* \"#utility.yul\":17039:17132   */\n      tag_351\n        /* \"#utility.yul\":17128:17131   */\n      dup3\n        /* \"#utility.yul\":17039:17132   */\n      tag_175\n      jump\t// in\n    tag_351:\n        /* \"#utility.yul\":17157:17159   */\n      0x40\n        /* \"#utility.yul\":17152:17155   */\n      dup3\n        /* \"#utility.yul\":17148:17160   */\n      add\n        /* \"#utility.yul\":17141:17160   */\n      swap1\n      pop\n        /* \"#utility.yul\":16800:17166   */\n      swap2\n      swap1\n      pop\n      jump\t// out\n        /* \"#utility.yul\":17172:17591   */\n    tag_79:\n        /* \"#utility.yul\":17338:17342   */\n      0x00\n        /* \"#utility.yul\":17376:17378   */\n      0x20\n        /* \"#utility.yul\":17365:17374   */\n      dup3\n        /* \"#utility.yul\":17361:17379   */\n      add\n        /* \"#utility.yul\":17353:17379   */\n      swap1\n      pop\n        /* \"#utility.yul\":17425:17434   */\n      dup2\n        /* \"#utility.yul\":17419:17423   */\n      dup2\n        /* \"#utility.yul\":17415:17435   */\n      sub\n        /* \"#utility.yul\":17411:17412   */\n      0x00\n        /* \"#utility.yul\":17400:17409   */\n      dup4\n        /* \"#utility.yul\":17396:17413   */\n      add\n        /* \"#utility.yul\":17389:17436   */\n      mstore\n        /* \"#utility.yul\":17453:17584   */\n      tag_353\n        /* \"#utility.yul\":17579:17583   */\n      dup2\n        /* \"#utility.yul\":17453:17584   */\n      tag_176\n      jump\t// in\n    tag_353:\n        /* \"#utility.yul\":17445:17584   */\n      swap1\n      pop\n        /* \"#utility.yul\":17172:17591   */\n      swap2\n      swap1\n      pop\n      jump\t// out\n        /* \"#utility.yul\":17597:17791   */\n    tag_93:\n        /* \"#utility.yul\":17637:17641   */\n      0x00\n        /* \"#utility.yul\":17657:17677   */\n      tag_355\n        /* \"#utility.yul\":17675:17676   */\n      dup3\n        /* \"#utility.yul\":17657:17677   */\n      tag_135\n      jump\t// in\n    tag_355:\n        /* \"#utility.yul\":17652:17677   */\n      swap2\n      pop\n        /* \"#utility.yul\":17691:17711   */\n      tag_356\n        /* \"#utility.yul\":17709:17710   */\n      dup4\n        /* \"#utility.yul\":17691:17711   */\n      tag_135\n      jump\t// in\n    tag_356:\n        /* \"#utility.yul\":17686:17711   */\n      swap3\n      pop\n        /* \"#utility.yul\":17735:17736   */\n      dup3\n        /* \"#utility.yul\":17732:17733   */\n      dup3\n        /* \"#utility.yul\":17728:17737   */\n      sub\n        /* \"#utility.yul\":17720:17737   */\n      swap1\n      pop\n        /* \"#utility.yul\":17759:17760   */\n      dup2\n        /* \"#utility.yul\":17753:17757   */\n      dup2\n        /* \"#utility.yul\":17750:17761   */\n      gt\n        /* \"#utility.yul\":17747:17784   */\n      iszero\n      tag_357\n      jumpi\n        /* \"#utility.yul\":17764:17782   */\n      tag_358\n      tag_153\n      jump\t// in\n    tag_358:\n        /* \"#utility.yul\":17747:17784   */\n    tag_357:\n        /* \"#utility.yul\":17597:17791   */\n      swap3\n      swap2\n      pop\n      pop\n      jump\t// out\n        /* \"#utility.yul\":17797:17979   */\n    tag_177:\n        /* \"#utility.yul\":17937:17971   */\n      0x506c6561736520656e74657220612076616c69642070726f706f73616c206964\n        /* \"#utility.yul\":17933:17934   */\n      0x00\n        /* \"#utility.yul\":17925:17931   */\n      dup3\n        /* \"#utility.yul\":17921:17935   */\n      add\n        /* \"#utility.yul\":17914:17972   */\n      mstore\n        /* \"#utility.yul\":17797:17979   */\n      pop\n      jump\t// out\n        /* \"#utility.yul\":17985:18351   */\n    tag_178:\n        /* \"#utility.yul\":18127:18130   */\n      0x00\n        /* \"#utility.yul\":18148:18215   */\n      tag_361\n        /* \"#utility.yul\":18212:18214   */\n      0x20\n        /* \"#utility.yul\":18207:18210   */\n      dup4\n        /* \"#utility.yul\":18148:18215   */\n      tag_150\n      jump\t// in\n    tag_361:\n        /* \"#utility.yul\":18141:18215   */\n      swap2\n      pop\n        /* \"#utility.yul\":18224:18317   */\n      tag_362\n        /* \"#utility.yul\":18313:18316   */\n      dup3\n        /* \"#utility.yul\":18224:18317   */\n      tag_177\n      jump\t// in\n    tag_362:\n        /* \"#utility.yul\":18342:18344   */\n      0x20\n        /* \"#utility.yul\":18337:18340   */\n      dup3\n        /* \"#utility.yul\":18333:18345   */\n      add\n        /* \"#utility.yul\":18326:18345   */\n      swap1\n      pop\n        /* \"#utility.yul\":17985:18351   */\n      swap2\n      swap1\n      pop\n      jump\t// out\n        /* \"#utility.yul\":18357:18776   */\n    tag_100:\n        /* \"#utility.yul\":18523:18527   */\n      0x00\n        /* \"#utility.yul\":18561:18563   */\n      0x20\n        /* \"#utility.yul\":18550:18559   */\n      dup3\n        /* \"#utility.yul\":18546:18564   */\n      add\n        /* \"#utility.yul\":18538:18564   */\n      swap1\n      pop\n        /* \"#utility.yul\":18610:18619   */\n      dup2\n        /* \"#utility.yul\":18604:18608   */\n      dup2\n        /* \"#utility.yul\":18600:18620   */\n      sub\n        /* \"#utility.yul\":18596:18597   */\n      0x00\n        /* \"#utility.yul\":18585:18594   */\n      dup4\n        /* \"#utility.yul\":18581:18598   */\n      add\n        /* \"#utility.yul\":18574:18621   */\n      mstore\n        /* \"#utility.yul\":18638:18769   */\n      tag_364\n        /* \"#utility.yul\":18764:18768   */\n      dup2\n        /* \"#utility.yul\":18638:18769   */\n      tag_178\n      jump\t// in\n    tag_364:\n        /* \"#utility.yul\":18630:18769   */\n      swap1\n      pop\n        /* \"#utility.yul\":18357:18776   */\n      swap2\n      swap1\n      pop\n      jump\t// out\n        /* \"#utility.yul\":18782:18962   */\n    tag_179:\n        /* \"#utility.yul\":18830:18907   */\n      0x4e487b7100000000000000000000000000000000000000000000000000000000\n        /* \"#utility.yul\":18827:18828   */\n      0x00\n        /* \"#utility.yul\":18820:18908   */\n      mstore\n        /* \"#utility.yul\":18927:18931   */\n      0x12\n        /* \"#utility.yul\":18924:18925   */\n      0x04\n        /* \"#utility.yul\":18917:18932   */\n      mstore\n        /* \"#utility.yul\":18951:18955   */\n      0x24\n        /* \"#utility.yul\":18948:18949   */\n      0x00\n        /* \"#utility.yul\":18941:18956   */\n      revert\n        /* \"#utility.yul\":18968:19144   */\n    tag_113:\n        /* \"#utility.yul\":19000:19001   */\n      0x00\n        /* \"#utility.yul\":19017:19037   */\n      tag_367\n        /* \"#utility.yul\":19035:19036   */\n      dup3\n        /* \"#utility.yul\":19017:19037   */\n      tag_135\n      jump\t// in\n    tag_367:\n        /* \"#utility.yul\":19012:19037   */\n      swap2\n      pop\n        /* \"#utility.yul\":19051:19071   */\n      tag_368\n        /* \"#utility.yul\":19069:19070   */\n      dup4\n        /* \"#utility.yul\":19051:19071   */\n      tag_135\n      jump\t// in\n    tag_368:\n        /* \"#utility.yul\":19046:19071   */\n      swap3\n      pop\n        /* \"#utility.yul\":19090:19091   */\n      dup3\n        /* \"#utility.yul\":19080:19115   */\n      tag_369\n      jumpi\n        /* \"#utility.yul\":19095:19113   */\n      tag_370\n      tag_179\n      jump\t// in\n    tag_370:\n        /* \"#utility.yul\":19080:19115   */\n    tag_369:\n        /* \"#utility.yul\":19136:19137   */\n      dup3\n        /* \"#utility.yul\":19133:19134   */\n      dup3\n        /* \"#utility.yul\":19129:19138   */\n      mod\n        /* \"#utility.yul\":19124:19138   */\n      swap1\n      pop\n        /* \"#utility.yul\":18968:19144   */\n      swap3\n      swap2\n      pop\n      pop\n      jump\t// out\n        /* \"#utility.yul\":19150:19335   */\n    tag_117:\n        /* \"#utility.yul\":19190:19191   */\n      0x00\n        /* \"#utility.yul\":19207:19227   */\n      tag_372\n        /* \"#utility.yul\":19225:19226   */\n      dup3\n        /* \"#utility.yul\":19207:19227   */\n      tag_135\n      jump\t// in\n    tag_372:\n        /* \"#utility.yul\":19202:19227   */\n      swap2\n      pop\n        /* \"#utility.yul\":19241:19261   */\n      tag_373\n        /* \"#utility.yul\":19259:19260   */\n      dup4\n        /* \"#utility.yul\":19241:19261   */\n      tag_135\n      jump\t// in\n    tag_373:\n        /* \"#utility.yul\":19236:19261   */\n      swap3\n      pop\n        /* \"#utility.yul\":19280:19281   */\n      dup3\n        /* \"#utility.yul\":19270:19305   */\n      tag_374\n      jumpi\n        /* \"#utility.yul\":19285:19303   */\n      tag_375\n      tag_179\n      jump\t// in\n    tag_375:\n        /* \"#utility.yul\":19270:19305   */\n    tag_374:\n        /* \"#utility.yul\":19327:19328   */\n      dup3\n        /* \"#utility.yul\":19324:19325   */\n      dup3\n        /* \"#utility.yul\":19320:19329   */\n      div\n        /* \"#utility.yul\":19315:19329   */\n      swap1\n      pop\n        /* \"#utility.yul\":19150:19335   */\n      swap3\n      swap2\n      pop\n      pop\n      jump\t// out\n\n    auxdata: 0xa2646970667358221220709bd3568ee72d5d3b51288262975c91b046a02254b1772f4c9b7e970fed4a4964736f6c63430008180033\n}\n",
				"bytecode": {
					"linkReferences": {},
					"object": "608060405234801561000f575f80fd5b50335f806101000a81548173ffffffffffffffffffffffffffffffffffffffff021916908373ffffffffffffffffffffffffffffffffffffffff1602179055506116898061005c5f395ff3fe608060405234801561000f575f80fd5b5060043610610060575f3560e01c806313af4035146100645780633ca6d1001461008057806341ec68701461009c57806389190393146100ba578063b3f98adc146100c4578063c7f758a8146100e0575b5f80fd5b61007e60048036038101906100799190610c9c565b610110565b005b61009a60048036038101906100959190610d5b565b6101a8565b005b6100a46103ed565b6040516100b19190610f53565b60405180910390f35b6100c2610595565b005b6100de60048036038101906100d99190610fa9565b610685565b005b6100fa60048036038101906100f59190610fd4565b610958565b6040516101079190610f53565b60405180910390f35b5f8054906101000a900473ffffffffffffffffffffffffffffffffffffffff1673ffffffffffffffffffffffffffffffffffffffff163373ffffffffffffffffffffffffffffffffffffffff1614610166575f80fd5b805f806101000a81548173ffffffffffffffffffffffffffffffffffffffff021916908373ffffffffffffffffffffffffffffffffffffffff16021790555050565b5f8054906101000a900473ffffffffffffffffffffffffffffffffffffffff1673ffffffffffffffffffffffffffffffffffffffff163373ffffffffffffffffffffffffffffffffffffffff16146101fe575f80fd5b60025f60015481526020019081526020015f2060060160019054906101000a900460ff1615610262576040517f08c379a000000000000000000000000000000000000000000000000000000000815260040161025990611059565b60405180910390fd5b6001805f82825461027391906110a4565b9250508190555060405180610100016040528086868080601f0160208091040260200160405190810160405280939291908181526020018383808284375f81840152601f19601f82011690508083019250505050505050815260200184848080601f0160208091040260200160405190810160405280939291908181526020018383808284375f81840152601f19601f8201169050808301925050505050505081526020015f81526020015f81526020015f81526020018281526020015f151581526020016001151581525060025f60015481526020019081526020015f205f820151815f01908161036591906112fe565b50602082015181600101908161037b91906112fe565b5060408201518160020155606082015181600301556080820151816004015560a0820151816005015560c0820151816006015f6101000a81548160ff02191690831515021790555060e08201518160060160016101000a81548160ff0219169083151502179055509050505050505050565b6103f5610bf7565b60025f60015481526020019081526020015f20604051806101000160405290815f8201805461042390611131565b80601f016020809104026020016040519081016040528092919081815260200182805461044f90611131565b801561049a5780601f106104715761010080835404028352916020019161049a565b820191905f5260205f20905b81548152906001019060200180831161047d57829003601f168201915b505050505081526020016001820180546104b390611131565b80601f01602080910402602001604051908101604052809291908181526020018280546104df90611131565b801561052a5780601f106105015761010080835404028352916020019161052a565b820191905f5260205f20905b81548152906001019060200180831161050d57829003601f168201915b5050505050815260200160028201548152602001600382015481526020016004820154815260200160058201548152602001600682015f9054906101000a900460ff161515151581526020016006820160019054906101000a900460ff161515151581525050905090565b5f8054906101000a900473ffffffffffffffffffffffffffffffffffffffff1673ffffffffffffffffffffffffffffffffffffffff163373ffffffffffffffffffffffffffffffffffffffff16146105eb575f80fd5b6001151560025f60015481526020019081526020015f2060060160019054906101000a900460ff16151514610655576040517f08c379a000000000000000000000000000000000000000000000000000000000815260040161064c90611417565b60405180910390fd5b5f60025f60015481526020019081526020015f2060060160016101000a81548160ff021916908315150217905550565b6001151560025f60015481526020019081526020015f2060060160019054906101000a900460ff161515146106ef576040517f08c379a00000000000000000000000000000000000000000000000000000000081526004016106e690611417565b60405180910390fd5b3360035f8273ffffffffffffffffffffffffffffffffffffffff1673ffffffffffffffffffffffffffffffffffffffff1681526020019081526020015f205f9054906101000a900460ff161561077a576040517f08c379a00000000000000000000000000000000000000000000000000000000081526004016107719061147f565b60405180910390fd5b5f8260ff16148061078e575060018260ff16145b8061079c575060028260ff16145b6107db576040517f08c379a00000000000000000000000000000000000000000000000000000000081526004016107d29061150d565b60405180910390fd5b5f60025f60015481526020019081526020015f2090505f81600401548260030154836002015461080b91906110a4565b61081591906110a4565b9050600160035f3373ffffffffffffffffffffffffffffffffffffffff1673ffffffffffffffffffffffffffffffffffffffff1681526020019081526020015f205f6101000a81548160ff02191690831515021790555060018460ff1603610897576001826002015f82825461088b91906110a4565b925050819055506108ea565b60028460ff16036108c2576001826003015f8282546108b691906110a4565b925050819055506108e9565b5f8460ff16036108e8576001826004015f8282546108e091906110a4565b925050819055505b5b5b6108f2610b52565b60025f60015481526020019081526020015f206006015f6101000a81548160ff0219169083151502179055506001818360050154610930919061152b565b03610952575f8260060160016101000a81548160ff0219169083151502179055505b50505050565b610960610bf7565b6001821015801561097357506001548211155b6109b2576040517f08c379a00000000000000000000000000000000000000000000000000000000081526004016109a9906115a8565b60405180910390fd5b60025f8381526020019081526020015f20604051806101000160405290815f820180546109de90611131565b80601f0160208091040260200160405190810160405280929190818152602001828054610a0a90611131565b8015610a555780601f10610a2c57610100808354040283529160200191610a55565b820191905f5260205f20905b815481529060010190602001808311610a3857829003601f168201915b50505050508152602001600182018054610a6e90611131565b80601f0160208091040260200160405190810160405280929190818152602001828054610a9a90611131565b8015610ae55780601f10610abc57610100808354040283529160200191610ae5565b820191905f5260205f20905b815481529060010190602001808311610ac857829003601f168201915b5050505050815260200160028201548152602001600382015481526020016004820154815260200160058201548152602001600682015f9054906101000a900460ff161515151581526020016006820160019054906101000a900460ff1615151515815250509050919050565b5f8060025f60015481526020019081526020015f2090505f816002015490505f826003015490505f836004015490505f600282610b8f91906115f3565b14610bb2576002600182610ba391906110a4565b610bad9190611623565b610bc0565b600281610bbf9190611623565b5b905081831180610bda5750818184610bd891906110a4565b115b15610bec576001945050505050610bf4565b5f9450505050505b90565b60405180610100016040528060608152602001606081526020015f81526020015f81526020015f81526020015f81526020015f151581526020015f151581525090565b5f80fd5b5f80fd5b5f73ffffffffffffffffffffffffffffffffffffffff82169050919050565b5f610c6b82610c42565b9050919050565b610c7b81610c61565b8114610c85575f80fd5b50565b5f81359050610c9681610c72565b92915050565b5f60208284031215610cb157610cb0610c3a565b5b5f610cbe84828501610c88565b91505092915050565b5f80fd5b5f80fd5b5f80fd5b5f8083601f840112610ce857610ce7610cc7565b5b8235905067ffffffffffffffff811115610d0557610d04610ccb565b5b602083019150836001820283011115610d2157610d20610ccf565b5b9250929050565b5f819050919050565b610d3a81610d28565b8114610d44575f80fd5b50565b5f81359050610d5581610d31565b92915050565b5f805f805f60608688031215610d7457610d73610c3a565b5b5f86013567ffffffffffffffff811115610d9157610d90610c3e565b5b610d9d88828901610cd3565b9550955050602086013567ffffffffffffffff811115610dc057610dbf610c3e565b5b610dcc88828901610cd3565b93509350506040610ddf88828901610d47565b9150509295509295909350565b5f81519050919050565b5f82825260208201905092915050565b5f5b83811015610e23578082015181840152602081019050610e08565b5f8484015250505050565b5f601f19601f8301169050919050565b5f610e4882610dec565b610e528185610df6565b9350610e62818560208601610e06565b610e6b81610e2e565b840191505092915050565b610e7f81610d28565b82525050565b5f8115159050919050565b610e9981610e85565b82525050565b5f61010083015f8301518482035f860152610eba8282610e3e565b91505060208301518482036020860152610ed48282610e3e565b9150506040830151610ee96040860182610e76565b506060830151610efc6060860182610e76565b506080830151610f0f6080860182610e76565b5060a0830151610f2260a0860182610e76565b5060c0830151610f3560c0860182610e90565b5060e0830151610f4860e0860182610e90565b508091505092915050565b5f6020820190508181035f830152610f6b8184610e9f565b905092915050565b5f60ff82169050919050565b610f8881610f73565b8114610f92575f80fd5b50565b5f81359050610fa381610f7f565b92915050565b5f60208284031215610fbe57610fbd610c3a565b5b5f610fcb84828501610f95565b91505092915050565b5f60208284031215610fe957610fe8610c3a565b5b5f610ff684828501610d47565b91505092915050565b5f82825260208201905092915050565b7f4578697374696e672070726f706f73616c207374696c6c206163746976652e005f82015250565b5f611043601f83610fff565b915061104e8261100f565b602082019050919050565b5f6020820190508181035f83015261107081611037565b9050919050565b7f4e487b71000000000000000000000000000000000000000000000000000000005f52601160045260245ffd5b5f6110ae82610d28565b91506110b983610d28565b92508282019050808211156110d1576110d0611077565b5b92915050565b7f4e487b71000000000000000000000000000000000000000000000000000000005f52604160045260245ffd5b7f4e487b71000000000000000000000000000000000000000000000000000000005f52602260045260245ffd5b5f600282049050600182168061114857607f821691505b60208210810361115b5761115a611104565b5b50919050565b5f819050815f5260205f209050919050565b5f6020601f8301049050919050565b5f82821b905092915050565b5f600883026111bd7fffffffffffffffffffffffffffffffffffffffffffffffffffffffffffffffff82611182565b6111c78683611182565b95508019841693508086168417925050509392505050565b5f819050919050565b5f6112026111fd6111f884610d28565b6111df565b610d28565b9050919050565b5f819050919050565b61121b836111e8565b61122f61122782611209565b84845461118e565b825550505050565b5f90565b611243611237565b61124e818484611212565b505050565b5b81811015611271576112665f8261123b565b600181019050611254565b5050565b601f8211156112b65761128781611161565b61129084611173565b8101602085101561129f578190505b6112b36112ab85611173565b830182611253565b50505b505050565b5f82821c905092915050565b5f6112d65f19846008026112bb565b1980831691505092915050565b5f6112ee83836112c7565b9150826002028217905092915050565b61130782610dec565b67ffffffffffffffff8111156113205761131f6110d7565b5b61132a8254611131565b611335828285611275565b5f60209050601f831160018114611366575f8415611354578287015190505b61135e85826112e3565b8655506113c5565b601f19841661137486611161565b5f5b8281101561139b57848901518255600182019150602085019450602081019050611376565b868310156113b857848901516113b4601f8916826112c7565b8355505b6001600288020188555050505b505050505050565b7f5468652070726f706f73616c206973206e6f74206163746976650000000000005f82015250565b5f611401601a83610fff565b915061140c826113cd565b602082019050919050565b5f6020820190508181035f83015261142e816113f5565b9050919050565b7f416464726573732068617320616c726561647920766f746564000000000000005f82015250565b5f611469601983610fff565b915061147482611435565b602082019050919050565b5f6020820190508181035f8301526114968161145d565b9050919050565b7f43686f6963652073686f756c642062652065697468657220302c2031203072205f8201527f3200000000000000000000000000000000000000000000000000000000000000602082015250565b5f6114f7602183610fff565b91506115028261149d565b604082019050919050565b5f6020820190508181035f830152611524816114eb565b9050919050565b5f61153582610d28565b915061154083610d28565b925082820390508181111561155857611557611077565b5b92915050565b7f506c6561736520656e74657220612076616c69642070726f706f73616c2069645f82015250565b5f611592602083610fff565b915061159d8261155e565b602082019050919050565b5f6020820190508181035f8301526115bf81611586565b9050919050565b7f4e487b71000000000000000000000000000000000000000000000000000000005f52601260045260245ffd5b5f6115fd82610d28565b915061160883610d28565b925082611618576116176115c6565b5b828206905092915050565b5f61162d82610d28565b915061163883610d28565b925082611648576116476115c6565b5b82820490509291505056fea2646970667358221220709bd3568ee72d5d3b51288262975c91b046a02254b1772f4c9b7e970fed4a4964736f6c63430008180033",
					"opcodes": "PUSH1 0x80 PUSH1 0x40 MSTORE CALLVALUE DUP1 ISZERO PUSH2 0xF JUMPI PUSH0 DUP1 REVERT JUMPDEST POP CALLER PUSH0 DUP1 PUSH2 0x100 EXP DUP2 SLOAD DUP2 PUSH20 0xFFFFFFFFFFFFFFFFFFFFFFFFFFFFFFFFFFFFFFFF MUL NOT AND SWAP1 DUP4 PUSH20 0xFFFFFFFFFFFFFFFFFFFFFFFFFFFFFFFFFFFFFFFF AND MUL OR SWAP1 SSTORE POP PUSH2 0x1689 DUP1 PUSH2 0x5C PUSH0 CODECOPY PUSH0 RETURN INVALID PUSH1 0x80 PUSH1 0x40 MSTORE CALLVALUE DUP1 ISZERO PUSH2 0xF JUMPI PUSH0 DUP1 REVERT JUMPDEST POP PUSH1 0x4 CALLDATASIZE LT PUSH2 0x60 JUMPI PUSH0 CALLDATALOAD PUSH1 0xE0 SHR DUP1 PUSH4 0x13AF4035 EQ PUSH2 0x64 JUMPI DUP1 PUSH4 0x3CA6D100 EQ PUSH2 0x80 JUMPI DUP1 PUSH4 0x41EC6870 EQ PUSH2 0x9C JUMPI DUP1 PUSH4 0x89190393 EQ PUSH2 0xBA JUMPI DUP1 PUSH4 0xB3F98ADC EQ PUSH2 0xC4 JUMPI DUP1 PUSH4 0xC7F758A8 EQ PUSH2 0xE0 JUMPI JUMPDEST PUSH0 DUP1 REVERT JUMPDEST PUSH2 0x7E PUSH1 0x4 DUP1 CALLDATASIZE SUB DUP2 ADD SWAP1 PUSH2 0x79 SWAP2 SWAP1 PUSH2 0xC9C JUMP JUMPDEST PUSH2 0x110 JUMP JUMPDEST STOP JUMPDEST PUSH2 0x9A PUSH1 0x4 DUP1 CALLDATASIZE SUB DUP2 ADD SWAP1 PUSH2 0x95 SWAP2 SWAP1 PUSH2 0xD5B JUMP JUMPDEST PUSH2 0x1A8 JUMP JUMPDEST STOP JUMPDEST PUSH2 0xA4 PUSH2 0x3ED JUMP JUMPDEST PUSH1 0x40 MLOAD PUSH2 0xB1 SWAP2 SWAP1 PUSH2 0xF53 JUMP JUMPDEST PUSH1 0x40 MLOAD DUP1 SWAP2 SUB SWAP1 RETURN JUMPDEST PUSH2 0xC2 PUSH2 0x595 JUMP JUMPDEST STOP JUMPDEST PUSH2 0xDE PUSH1 0x4 DUP1 CALLDATASIZE SUB DUP2 ADD SWAP1 PUSH2 0xD9 SWAP2 SWAP1 PUSH2 0xFA9 JUMP JUMPDEST PUSH2 0x685 JUMP JUMPDEST STOP JUMPDEST PUSH2 0xFA PUSH1 0x4 DUP1 CALLDATASIZE SUB DUP2 ADD SWAP1 PUSH2 0xF5 SWAP2 SWAP1 PUSH2 0xFD4 JUMP JUMPDEST PUSH2 0x958 JUMP JUMPDEST PUSH1 0x40 MLOAD PUSH2 0x107 SWAP2 SWAP1 PUSH2 0xF53 JUMP JUMPDEST PUSH1 0x40 MLOAD DUP1 SWAP2 SUB SWAP1 RETURN JUMPDEST PUSH0 DUP1 SLOAD SWAP1 PUSH2 0x100 EXP SWAP1 DIV PUSH20 0xFFFFFFFFFFFFFFFFFFFFFFFFFFFFFFFFFFFFFFFF AND PUSH20 0xFFFFFFFFFFFFFFFFFFFFFFFFFFFFFFFFFFFFFFFF AND CALLER PUSH20 0xFFFFFFFFFFFFFFFFFFFFFFFFFFFFFFFFFFFFFFFF AND EQ PUSH2 0x166 JUMPI PUSH0 DUP1 REVERT JUMPDEST DUP1 PUSH0 DUP1 PUSH2 0x100 EXP DUP2 SLOAD DUP2 PUSH20 0xFFFFFFFFFFFFFFFFFFFFFFFFFFFFFFFFFFFFFFFF MUL NOT AND SWAP1 DUP4 PUSH20 0xFFFFFFFFFFFFFFFFFFFFFFFFFFFFFFFFFFFFFFFF AND MUL OR SWAP1 SSTORE POP POP JUMP JUMPDEST PUSH0 DUP1 SLOAD SWAP1 PUSH2 0x100 EXP SWAP1 DIV PUSH20 0xFFFFFFFFFFFFFFFFFFFFFFFFFFFFFFFFFFFFFFFF AND PUSH20 0xFFFFFFFFFFFFFFFFFFFFFFFFFFFFFFFFFFFFFFFF AND CALLER PUSH20 0xFFFFFFFFFFFFFFFFFFFFFFFFFFFFFFFFFFFFFFFF AND EQ PUSH2 0x1FE JUMPI PUSH0 DUP1 REVERT JUMPDEST PUSH1 0x2 PUSH0 PUSH1 0x1 SLOAD DUP2 MSTORE PUSH1 0x20 ADD SWAP1 DUP2 MSTORE PUSH1 0x20 ADD PUSH0 KECCAK256 PUSH1 0x6 ADD PUSH1 0x1 SWAP1 SLOAD SWAP1 PUSH2 0x100 EXP SWAP1 DIV PUSH1 0xFF AND ISZERO PUSH2 0x262 JUMPI PUSH1 0x40 MLOAD PUSH32 0x8C379A000000000000000000000000000000000000000000000000000000000 DUP2 MSTORE PUSH1 0x4 ADD PUSH2 0x259 SWAP1 PUSH2 0x1059 JUMP JUMPDEST PUSH1 0x40 MLOAD DUP1 SWAP2 SUB SWAP1 REVERT JUMPDEST PUSH1 0x1 DUP1 PUSH0 DUP3 DUP3 SLOAD PUSH2 0x273 SWAP2 SWAP1 PUSH2 0x10A4 JUMP JUMPDEST SWAP3 POP POP DUP2 SWAP1 SSTORE POP PUSH1 0x40 MLOAD DUP1 PUSH2 0x100 ADD PUSH1 0x40 MSTORE DUP1 DUP7 DUP7 DUP1 DUP1 PUSH1 0x1F ADD PUSH1 0x20 DUP1 SWAP2 DIV MUL PUSH1 0x20 ADD PUSH1 0x40 MLOAD SWAP1 DUP2 ADD PUSH1 0x40 MSTORE DUP1 SWAP4 SWAP3 SWAP2 SWAP1 DUP2 DUP2 MSTORE PUSH1 0x20 ADD DUP4 DUP4 DUP1 DUP3 DUP5 CALLDATACOPY PUSH0 DUP2 DUP5 ADD MSTORE PUSH1 0x1F NOT PUSH1 0x1F DUP3 ADD AND SWAP1 POP DUP1 DUP4 ADD SWAP3 POP POP POP POP POP POP POP DUP2 MSTORE PUSH1 0x20 ADD DUP5 DUP5 DUP1 DUP1 PUSH1 0x1F ADD PUSH1 0x20 DUP1 SWAP2 DIV MUL PUSH1 0x20 ADD PUSH1 0x40 MLOAD SWAP1 DUP2 ADD PUSH1 0x40 MSTORE DUP1 SWAP4 SWAP3 SWAP2 SWAP1 DUP2 DUP2 MSTORE PUSH1 0x20 ADD DUP4 DUP4 DUP1 DUP3 DUP5 CALLDATACOPY PUSH0 DUP2 DUP5 ADD MSTORE PUSH1 0x1F NOT PUSH1 0x1F DUP3 ADD AND SWAP1 POP DUP1 DUP4 ADD SWAP3 POP POP POP POP POP POP POP DUP2 MSTORE PUSH1 0x20 ADD PUSH0 DUP2 MSTORE PUSH1 0x20 ADD PUSH0 DUP2 MSTORE PUSH1 0x20 ADD PUSH0 DUP2 MSTORE PUSH1 0x20 ADD DUP3 DUP2 MSTORE PUSH1 0x20 ADD PUSH0 ISZERO ISZERO DUP2 MSTORE PUSH1 0x20 ADD PUSH1 0x1 ISZERO ISZERO DUP2 MSTORE POP PUSH1 0x2 PUSH0 PUSH1 0x1 SLOAD DUP2 MSTORE PUSH1 0x20 ADD SWAP1 DUP2 MSTORE PUSH1 0x20 ADD PUSH0 KECCAK256 PUSH0 DUP3 ADD MLOAD DUP2 PUSH0 ADD SWAP1 DUP2 PUSH2 0x365 SWAP2 SWAP1 PUSH2 0x12FE JUMP JUMPDEST POP PUSH1 0x20 DUP3 ADD MLOAD DUP2 PUSH1 0x1 ADD SWAP1 DUP2 PUSH2 0x37B SWAP2 SWAP1 PUSH2 0x12FE JUMP JUMPDEST POP PUSH1 0x40 DUP3 ADD MLOAD DUP2 PUSH1 0x2 ADD SSTORE PUSH1 0x60 DUP3 ADD MLOAD DUP2 PUSH1 0x3 ADD SSTORE PUSH1 0x80 DUP3 ADD MLOAD DUP2 PUSH1 0x4 ADD SSTORE PUSH1 0xA0 DUP3 ADD MLOAD DUP2 PUSH1 0x5 ADD SSTORE PUSH1 0xC0 DUP3 ADD MLOAD DUP2 PUSH1 0x6 ADD PUSH0 PUSH2 0x100 EXP DUP2 SLOAD DUP2 PUSH1 0xFF MUL NOT AND SWAP1 DUP4 ISZERO ISZERO MUL OR SWAP1 SSTORE POP PUSH1 0xE0 DUP3 ADD MLOAD DUP2 PUSH1 0x6 ADD PUSH1 0x1 PUSH2 0x100 EXP DUP2 SLOAD DUP2 PUSH1 0xFF MUL NOT AND SWAP1 DUP4 ISZERO ISZERO MUL OR SWAP1 SSTORE POP SWAP1 POP POP POP POP POP POP POP JUMP JUMPDEST PUSH2 0x3F5 PUSH2 0xBF7 JUMP JUMPDEST PUSH1 0x2 PUSH0 PUSH1 0x1 SLOAD DUP2 MSTORE PUSH1 0x20 ADD SWAP1 DUP2 MSTORE PUSH1 0x20 ADD PUSH0 KECCAK256 PUSH1 0x40 MLOAD DUP1 PUSH2 0x100 ADD PUSH1 0x40 MSTORE SWAP1 DUP2 PUSH0 DUP3 ADD DUP1 SLOAD PUSH2 0x423 SWAP1 PUSH2 0x1131 JUMP JUMPDEST DUP1 PUSH1 0x1F ADD PUSH1 0x20 DUP1 SWAP2 DIV MUL PUSH1 0x20 ADD PUSH1 0x40 MLOAD SWAP1 DUP2 ADD PUSH1 0x40 MSTORE DUP1 SWAP3 SWAP2 SWAP1 DUP2 DUP2 MSTORE PUSH1 0x20 ADD DUP3 DUP1 SLOAD PUSH2 0x44F SWAP1 PUSH2 0x1131 JUMP JUMPDEST DUP1 ISZERO PUSH2 0x49A JUMPI DUP1 PUSH1 0x1F LT PUSH2 0x471 JUMPI PUSH2 0x100 DUP1 DUP4 SLOAD DIV MUL DUP4 MSTORE SWAP2 PUSH1 0x20 ADD SWAP2 PUSH2 0x49A JUMP JUMPDEST DUP3 ADD SWAP2 SWAP1 PUSH0 MSTORE PUSH1 0x20 PUSH0 KECCAK256 SWAP1 JUMPDEST DUP2 SLOAD DUP2 MSTORE SWAP1 PUSH1 0x1 ADD SWAP1 PUSH1 0x20 ADD DUP1 DUP4 GT PUSH2 0x47D JUMPI DUP3 SWAP1 SUB PUSH1 0x1F AND DUP3 ADD SWAP2 JUMPDEST POP POP POP POP POP DUP2 MSTORE PUSH1 0x20 ADD PUSH1 0x1 DUP3 ADD DUP1 SLOAD PUSH2 0x4B3 SWAP1 PUSH2 0x1131 JUMP JUMPDEST DUP1 PUSH1 0x1F ADD PUSH1 0x20 DUP1 SWAP2 DIV MUL PUSH1 0x20 ADD PUSH1 0x40 MLOAD SWAP1 DUP2 ADD PUSH1 0x40 MSTORE DUP1 SWAP3 SWAP2 SWAP1 DUP2 DUP2 MSTORE PUSH1 0x20 ADD DUP3 DUP1 SLOAD PUSH2 0x4DF SWAP1 PUSH2 0x1131 JUMP JUMPDEST DUP1 ISZERO PUSH2 0x52A JUMPI DUP1 PUSH1 0x1F LT PUSH2 0x501 JUMPI PUSH2 0x100 DUP1 DUP4 SLOAD DIV MUL DUP4 MSTORE SWAP2 PUSH1 0x20 ADD SWAP2 PUSH2 0x52A JUMP JUMPDEST DUP3 ADD SWAP2 SWAP1 PUSH0 MSTORE PUSH1 0x20 PUSH0 KECCAK256 SWAP1 JUMPDEST DUP2 SLOAD DUP2 MSTORE SWAP1 PUSH1 0x1 ADD SWAP1 PUSH1 0x20 ADD DUP1 DUP4 GT PUSH2 0x50D JUMPI DUP3 SWAP1 SUB PUSH1 0x1F AND DUP3 ADD SWAP2 JUMPDEST POP POP POP POP POP DUP2 MSTORE PUSH1 0x20 ADD PUSH1 0x2 DUP3 ADD SLOAD DUP2 MSTORE PUSH1 0x20 ADD PUSH1 0x3 DUP3 ADD SLOAD DUP2 MSTORE PUSH1 0x20 ADD PUSH1 0x4 DUP3 ADD SLOAD DUP2 MSTORE PUSH1 0x20 ADD PUSH1 0x5 DUP3 ADD SLOAD DUP2 MSTORE PUSH1 0x20 ADD PUSH1 0x6 DUP3 ADD PUSH0 SWAP1 SLOAD SWAP1 PUSH2 0x100 EXP SWAP1 DIV PUSH1 0xFF AND ISZERO ISZERO ISZERO ISZERO DUP2 MSTORE PUSH1 0x20 ADD PUSH1 0x6 DUP3 ADD PUSH1 0x1 SWAP1 SLOAD SWAP1 PUSH2 0x100 EXP SWAP1 DIV PUSH1 0xFF AND ISZERO ISZERO ISZERO ISZERO DUP2 MSTORE POP POP SWAP1 POP SWAP1 JUMP JUMPDEST PUSH0 DUP1 SLOAD SWAP1 PUSH2 0x100 EXP SWAP1 DIV PUSH20 0xFFFFFFFFFFFFFFFFFFFFFFFFFFFFFFFFFFFFFFFF AND PUSH20 0xFFFFFFFFFFFFFFFFFFFFFFFFFFFFFFFFFFFFFFFF AND CALLER PUSH20 0xFFFFFFFFFFFFFFFFFFFFFFFFFFFFFFFFFFFFFFFF AND EQ PUSH2 0x5EB JUMPI PUSH0 DUP1 REVERT JUMPDEST PUSH1 0x1 ISZERO ISZERO PUSH1 0x2 PUSH0 PUSH1 0x1 SLOAD DUP2 MSTORE PUSH1 0x20 ADD SWAP1 DUP2 MSTORE PUSH1 0x20 ADD PUSH0 KECCAK256 PUSH1 0x6 ADD PUSH1 0x1 SWAP1 SLOAD SWAP1 PUSH2 0x100 EXP SWAP1 DIV PUSH1 0xFF AND ISZERO ISZERO EQ PUSH2 0x655 JUMPI PUSH1 0x40 MLOAD PUSH32 0x8C379A000000000000000000000000000000000000000000000000000000000 DUP2 MSTORE PUSH1 0x4 ADD PUSH2 0x64C SWAP1 PUSH2 0x1417 JUMP JUMPDEST PUSH1 0x40 MLOAD DUP1 SWAP2 SUB SWAP1 REVERT JUMPDEST PUSH0 PUSH1 0x2 PUSH0 PUSH1 0x1 SLOAD DUP2 MSTORE PUSH1 0x20 ADD SWAP1 DUP2 MSTORE PUSH1 0x20 ADD PUSH0 KECCAK256 PUSH1 0x6 ADD PUSH1 0x1 PUSH2 0x100 EXP DUP2 SLOAD DUP2 PUSH1 0xFF MUL NOT AND SWAP1 DUP4 ISZERO ISZERO MUL OR SWAP1 SSTORE POP JUMP JUMPDEST PUSH1 0x1 ISZERO ISZERO PUSH1 0x2 PUSH0 PUSH1 0x1 SLOAD DUP2 MSTORE PUSH1 0x20 ADD SWAP1 DUP2 MSTORE PUSH1 0x20 ADD PUSH0 KECCAK256 PUSH1 0x6 ADD PUSH1 0x1 SWAP1 SLOAD SWAP1 PUSH2 0x100 EXP SWAP1 DIV PUSH1 0xFF AND ISZERO ISZERO EQ PUSH2 0x6EF JUMPI PUSH1 0x40 MLOAD PUSH32 0x8C379A000000000000000000000000000000000000000000000000000000000 DUP2 MSTORE PUSH1 0x4 ADD PUSH2 0x6E6 SWAP1 PUSH2 0x1417 JUMP JUMPDEST PUSH1 0x40 MLOAD DUP1 SWAP2 SUB SWAP1 REVERT JUMPDEST CALLER PUSH1 0x3 PUSH0 DUP3 PUSH20 0xFFFFFFFFFFFFFFFFFFFFFFFFFFFFFFFFFFFFFFFF AND PUSH20 0xFFFFFFFFFFFFFFFFFFFFFFFFFFFFFFFFFFFFFFFF AND DUP2 MSTORE PUSH1 0x20 ADD SWAP1 DUP2 MSTORE PUSH1 0x20 ADD PUSH0 KECCAK256 PUSH0 SWAP1 SLOAD SWAP1 PUSH2 0x100 EXP SWAP1 DIV PUSH1 0xFF AND ISZERO PUSH2 0x77A JUMPI PUSH1 0x40 MLOAD PUSH32 0x8C379A000000000000000000000000000000000000000000000000000000000 DUP2 MSTORE PUSH1 0x4 ADD PUSH2 0x771 SWAP1 PUSH2 0x147F JUMP JUMPDEST PUSH1 0x40 MLOAD DUP1 SWAP2 SUB SWAP1 REVERT JUMPDEST PUSH0 DUP3 PUSH1 0xFF AND EQ DUP1 PUSH2 0x78E JUMPI POP PUSH1 0x1 DUP3 PUSH1 0xFF AND EQ JUMPDEST DUP1 PUSH2 0x79C JUMPI POP PUSH1 0x2 DUP3 PUSH1 0xFF AND EQ JUMPDEST PUSH2 0x7DB JUMPI PUSH1 0x40 MLOAD PUSH32 0x8C379A000000000000000000000000000000000000000000000000000000000 DUP2 MSTORE PUSH1 0x4 ADD PUSH2 0x7D2 SWAP1 PUSH2 0x150D JUMP JUMPDEST PUSH1 0x40 MLOAD DUP1 SWAP2 SUB SWAP1 REVERT JUMPDEST PUSH0 PUSH1 0x2 PUSH0 PUSH1 0x1 SLOAD DUP2 MSTORE PUSH1 0x20 ADD SWAP1 DUP2 MSTORE PUSH1 0x20 ADD PUSH0 KECCAK256 SWAP1 POP PUSH0 DUP2 PUSH1 0x4 ADD SLOAD DUP3 PUSH1 0x3 ADD SLOAD DUP4 PUSH1 0x2 ADD SLOAD PUSH2 0x80B SWAP2 SWAP1 PUSH2 0x10A4 JUMP JUMPDEST PUSH2 0x815 SWAP2 SWAP1 PUSH2 0x10A4 JUMP JUMPDEST SWAP1 POP PUSH1 0x1 PUSH1 0x3 PUSH0 CALLER PUSH20 0xFFFFFFFFFFFFFFFFFFFFFFFFFFFFFFFFFFFFFFFF AND PUSH20 0xFFFFFFFFFFFFFFFFFFFFFFFFFFFFFFFFFFFFFFFF AND DUP2 MSTORE PUSH1 0x20 ADD SWAP1 DUP2 MSTORE PUSH1 0x20 ADD PUSH0 KECCAK256 PUSH0 PUSH2 0x100 EXP DUP2 SLOAD DUP2 PUSH1 0xFF MUL NOT AND SWAP1 DUP4 ISZERO ISZERO MUL OR SWAP1 SSTORE POP PUSH1 0x1 DUP5 PUSH1 0xFF AND SUB PUSH2 0x897 JUMPI PUSH1 0x1 DUP3 PUSH1 0x2 ADD PUSH0 DUP3 DUP3 SLOAD PUSH2 0x88B SWAP2 SWAP1 PUSH2 0x10A4 JUMP JUMPDEST SWAP3 POP POP DUP2 SWAP1 SSTORE POP PUSH2 0x8EA JUMP JUMPDEST PUSH1 0x2 DUP5 PUSH1 0xFF AND SUB PUSH2 0x8C2 JUMPI PUSH1 0x1 DUP3 PUSH1 0x3 ADD PUSH0 DUP3 DUP3 SLOAD PUSH2 0x8B6 SWAP2 SWAP1 PUSH2 0x10A4 JUMP JUMPDEST SWAP3 POP POP DUP2 SWAP1 SSTORE POP PUSH2 0x8E9 JUMP JUMPDEST PUSH0 DUP5 PUSH1 0xFF AND SUB PUSH2 0x8E8 JUMPI PUSH1 0x1 DUP3 PUSH1 0x4 ADD PUSH0 DUP3 DUP3 SLOAD PUSH2 0x8E0 SWAP2 SWAP1 PUSH2 0x10A4 JUMP JUMPDEST SWAP3 POP POP DUP2 SWAP1 SSTORE POP JUMPDEST JUMPDEST JUMPDEST PUSH2 0x8F2 PUSH2 0xB52 JUMP JUMPDEST PUSH1 0x2 PUSH0 PUSH1 0x1 SLOAD DUP2 MSTORE PUSH1 0x20 ADD SWAP1 DUP2 MSTORE PUSH1 0x20 ADD PUSH0 KECCAK256 PUSH1 0x6 ADD PUSH0 PUSH2 0x100 EXP DUP2 SLOAD DUP2 PUSH1 0xFF MUL NOT AND SWAP1 DUP4 ISZERO ISZERO MUL OR SWAP1 SSTORE POP PUSH1 0x1 DUP2 DUP4 PUSH1 0x5 ADD SLOAD PUSH2 0x930 SWAP2 SWAP1 PUSH2 0x152B JUMP JUMPDEST SUB PUSH2 0x952 JUMPI PUSH0 DUP3 PUSH1 0x6 ADD PUSH1 0x1 PUSH2 0x100 EXP DUP2 SLOAD DUP2 PUSH1 0xFF MUL NOT AND SWAP1 DUP4 ISZERO ISZERO MUL OR SWAP1 SSTORE POP JUMPDEST POP POP POP POP JUMP JUMPDEST PUSH2 0x960 PUSH2 0xBF7 JUMP JUMPDEST PUSH1 0x1 DUP3 LT ISZERO DUP1 ISZERO PUSH2 0x973 JUMPI POP PUSH1 0x1 SLOAD DUP3 GT ISZERO JUMPDEST PUSH2 0x9B2 JUMPI PUSH1 0x40 MLOAD PUSH32 0x8C379A000000000000000000000000000000000000000000000000000000000 DUP2 MSTORE PUSH1 0x4 ADD PUSH2 0x9A9 SWAP1 PUSH2 0x15A8 JUMP JUMPDEST PUSH1 0x40 MLOAD DUP1 SWAP2 SUB SWAP1 REVERT JUMPDEST PUSH1 0x2 PUSH0 DUP4 DUP2 MSTORE PUSH1 0x20 ADD SWAP1 DUP2 MSTORE PUSH1 0x20 ADD PUSH0 KECCAK256 PUSH1 0x40 MLOAD DUP1 PUSH2 0x100 ADD PUSH1 0x40 MSTORE SWAP1 DUP2 PUSH0 DUP3 ADD DUP1 SLOAD PUSH2 0x9DE SWAP1 PUSH2 0x1131 JUMP JUMPDEST DUP1 PUSH1 0x1F ADD PUSH1 0x20 DUP1 SWAP2 DIV MUL PUSH1 0x20 ADD PUSH1 0x40 MLOAD SWAP1 DUP2 ADD PUSH1 0x40 MSTORE DUP1 SWAP3 SWAP2 SWAP1 DUP2 DUP2 MSTORE PUSH1 0x20 ADD DUP3 DUP1 SLOAD PUSH2 0xA0A SWAP1 PUSH2 0x1131 JUMP JUMPDEST DUP1 ISZERO PUSH2 0xA55 JUMPI DUP1 PUSH1 0x1F LT PUSH2 0xA2C JUMPI PUSH2 0x100 DUP1 DUP4 SLOAD DIV MUL DUP4 MSTORE SWAP2 PUSH1 0x20 ADD SWAP2 PUSH2 0xA55 JUMP JUMPDEST DUP3 ADD SWAP2 SWAP1 PUSH0 MSTORE PUSH1 0x20 PUSH0 KECCAK256 SWAP1 JUMPDEST DUP2 SLOAD DUP2 MSTORE SWAP1 PUSH1 0x1 ADD SWAP1 PUSH1 0x20 ADD DUP1 DUP4 GT PUSH2 0xA38 JUMPI DUP3 SWAP1 SUB PUSH1 0x1F AND DUP3 ADD SWAP2 JUMPDEST POP POP POP POP POP DUP2 MSTORE PUSH1 0x20 ADD PUSH1 0x1 DUP3 ADD DUP1 SLOAD PUSH2 0xA6E SWAP1 PUSH2 0x1131 JUMP JUMPDEST DUP1 PUSH1 0x1F ADD PUSH1 0x20 DUP1 SWAP2 DIV MUL PUSH1 0x20 ADD PUSH1 0x40 MLOAD SWAP1 DUP2 ADD PUSH1 0x40 MSTORE DUP1 SWAP3 SWAP2 SWAP1 DUP2 DUP2 MSTORE PUSH1 0x20 ADD DUP3 DUP1 SLOAD PUSH2 0xA9A SWAP1 PUSH2 0x1131 JUMP JUMPDEST DUP1 ISZERO PUSH2 0xAE5 JUMPI DUP1 PUSH1 0x1F LT PUSH2 0xABC JUMPI PUSH2 0x100 DUP1 DUP4 SLOAD DIV MUL DUP4 MSTORE SWAP2 PUSH1 0x20 ADD SWAP2 PUSH2 0xAE5 JUMP JUMPDEST DUP3 ADD SWAP2 SWAP1 PUSH0 MSTORE PUSH1 0x20 PUSH0 KECCAK256 SWAP1 JUMPDEST DUP2 SLOAD DUP2 MSTORE SWAP1 PUSH1 0x1 ADD SWAP1 PUSH1 0x20 ADD DUP1 DUP4 GT PUSH2 0xAC8 JUMPI DUP3 SWAP1 SUB PUSH1 0x1F AND DUP3 ADD SWAP2 JUMPDEST POP POP POP POP POP DUP2 MSTORE PUSH1 0x20 ADD PUSH1 0x2 DUP3 ADD SLOAD DUP2 MSTORE PUSH1 0x20 ADD PUSH1 0x3 DUP3 ADD SLOAD DUP2 MSTORE PUSH1 0x20 ADD PUSH1 0x4 DUP3 ADD SLOAD DUP2 MSTORE PUSH1 0x20 ADD PUSH1 0x5 DUP3 ADD SLOAD DUP2 MSTORE PUSH1 0x20 ADD PUSH1 0x6 DUP3 ADD PUSH0 SWAP1 SLOAD SWAP1 PUSH2 0x100 EXP SWAP1 DIV PUSH1 0xFF AND ISZERO ISZERO ISZERO ISZERO DUP2 MSTORE PUSH1 0x20 ADD PUSH1 0x6 DUP3 ADD PUSH1 0x1 SWAP1 SLOAD SWAP1 PUSH2 0x100 EXP SWAP1 DIV PUSH1 0xFF AND ISZERO ISZERO ISZERO ISZERO DUP2 MSTORE POP POP SWAP1 POP SWAP2 SWAP1 POP JUMP JUMPDEST PUSH0 DUP1 PUSH1 0x2 PUSH0 PUSH1 0x1 SLOAD DUP2 MSTORE PUSH1 0x20 ADD SWAP1 DUP2 MSTORE PUSH1 0x20 ADD PUSH0 KECCAK256 SWAP1 POP PUSH0 DUP2 PUSH1 0x2 ADD SLOAD SWAP1 POP PUSH0 DUP3 PUSH1 0x3 ADD SLOAD SWAP1 POP PUSH0 DUP4 PUSH1 0x4 ADD SLOAD SWAP1 POP PUSH0 PUSH1 0x2 DUP3 PUSH2 0xB8F SWAP2 SWAP1 PUSH2 0x15F3 JUMP JUMPDEST EQ PUSH2 0xBB2 JUMPI PUSH1 0x2 PUSH1 0x1 DUP3 PUSH2 0xBA3 SWAP2 SWAP1 PUSH2 0x10A4 JUMP JUMPDEST PUSH2 0xBAD SWAP2 SWAP1 PUSH2 0x1623 JUMP JUMPDEST PUSH2 0xBC0 JUMP JUMPDEST PUSH1 0x2 DUP2 PUSH2 0xBBF SWAP2 SWAP1 PUSH2 0x1623 JUMP JUMPDEST JUMPDEST SWAP1 POP DUP2 DUP4 GT DUP1 PUSH2 0xBDA JUMPI POP DUP2 DUP2 DUP5 PUSH2 0xBD8 SWAP2 SWAP1 PUSH2 0x10A4 JUMP JUMPDEST GT JUMPDEST ISZERO PUSH2 0xBEC JUMPI PUSH1 0x1 SWAP5 POP POP POP POP POP PUSH2 0xBF4 JUMP JUMPDEST PUSH0 SWAP5 POP POP POP POP POP JUMPDEST SWAP1 JUMP JUMPDEST PUSH1 0x40 MLOAD DUP1 PUSH2 0x100 ADD PUSH1 0x40 MSTORE DUP1 PUSH1 0x60 DUP2 MSTORE PUSH1 0x20 ADD PUSH1 0x60 DUP2 MSTORE PUSH1 0x20 ADD PUSH0 DUP2 MSTORE PUSH1 0x20 ADD PUSH0 DUP2 MSTORE PUSH1 0x20 ADD PUSH0 DUP2 MSTORE PUSH1 0x20 ADD PUSH0 DUP2 MSTORE PUSH1 0x20 ADD PUSH0 ISZERO ISZERO DUP2 MSTORE PUSH1 0x20 ADD PUSH0 ISZERO ISZERO DUP2 MSTORE POP SWAP1 JUMP JUMPDEST PUSH0 DUP1 REVERT JUMPDEST PUSH0 DUP1 REVERT JUMPDEST PUSH0 PUSH20 0xFFFFFFFFFFFFFFFFFFFFFFFFFFFFFFFFFFFFFFFF DUP3 AND SWAP1 POP SWAP2 SWAP1 POP JUMP JUMPDEST PUSH0 PUSH2 0xC6B DUP3 PUSH2 0xC42 JUMP JUMPDEST SWAP1 POP SWAP2 SWAP1 POP JUMP JUMPDEST PUSH2 0xC7B DUP2 PUSH2 0xC61 JUMP JUMPDEST DUP2 EQ PUSH2 0xC85 JUMPI PUSH0 DUP1 REVERT JUMPDEST POP JUMP JUMPDEST PUSH0 DUP2 CALLDATALOAD SWAP1 POP PUSH2 0xC96 DUP2 PUSH2 0xC72 JUMP JUMPDEST SWAP3 SWAP2 POP POP JUMP JUMPDEST PUSH0 PUSH1 0x20 DUP3 DUP5 SUB SLT ISZERO PUSH2 0xCB1 JUMPI PUSH2 0xCB0 PUSH2 0xC3A JUMP JUMPDEST JUMPDEST PUSH0 PUSH2 0xCBE DUP5 DUP3 DUP6 ADD PUSH2 0xC88 JUMP JUMPDEST SWAP2 POP POP SWAP3 SWAP2 POP POP JUMP JUMPDEST PUSH0 DUP1 REVERT JUMPDEST PUSH0 DUP1 REVERT JUMPDEST PUSH0 DUP1 REVERT JUMPDEST PUSH0 DUP1 DUP4 PUSH1 0x1F DUP5 ADD SLT PUSH2 0xCE8 JUMPI PUSH2 0xCE7 PUSH2 0xCC7 JUMP JUMPDEST JUMPDEST DUP3 CALLDATALOAD SWAP1 POP PUSH8 0xFFFFFFFFFFFFFFFF DUP2 GT ISZERO PUSH2 0xD05 JUMPI PUSH2 0xD04 PUSH2 0xCCB JUMP JUMPDEST JUMPDEST PUSH1 0x20 DUP4 ADD SWAP2 POP DUP4 PUSH1 0x1 DUP3 MUL DUP4 ADD GT ISZERO PUSH2 0xD21 JUMPI PUSH2 0xD20 PUSH2 0xCCF JUMP JUMPDEST JUMPDEST SWAP3 POP SWAP3 SWAP1 POP JUMP JUMPDEST PUSH0 DUP2 SWAP1 POP SWAP2 SWAP1 POP JUMP JUMPDEST PUSH2 0xD3A DUP2 PUSH2 0xD28 JUMP JUMPDEST DUP2 EQ PUSH2 0xD44 JUMPI PUSH0 DUP1 REVERT JUMPDEST POP JUMP JUMPDEST PUSH0 DUP2 CALLDATALOAD SWAP1 POP PUSH2 0xD55 DUP2 PUSH2 0xD31 JUMP JUMPDEST SWAP3 SWAP2 POP POP JUMP JUMPDEST PUSH0 DUP1 PUSH0 DUP1 PUSH0 PUSH1 0x60 DUP7 DUP9 SUB SLT ISZERO PUSH2 0xD74 JUMPI PUSH2 0xD73 PUSH2 0xC3A JUMP JUMPDEST JUMPDEST PUSH0 DUP7 ADD CALLDATALOAD PUSH8 0xFFFFFFFFFFFFFFFF DUP2 GT ISZERO PUSH2 0xD91 JUMPI PUSH2 0xD90 PUSH2 0xC3E JUMP JUMPDEST JUMPDEST PUSH2 0xD9D DUP9 DUP3 DUP10 ADD PUSH2 0xCD3 JUMP JUMPDEST SWAP6 POP SWAP6 POP POP PUSH1 0x20 DUP7 ADD CALLDATALOAD PUSH8 0xFFFFFFFFFFFFFFFF DUP2 GT ISZERO PUSH2 0xDC0 JUMPI PUSH2 0xDBF PUSH2 0xC3E JUMP JUMPDEST JUMPDEST PUSH2 0xDCC DUP9 DUP3 DUP10 ADD PUSH2 0xCD3 JUMP JUMPDEST SWAP4 POP SWAP4 POP POP PUSH1 0x40 PUSH2 0xDDF DUP9 DUP3 DUP10 ADD PUSH2 0xD47 JUMP JUMPDEST SWAP2 POP POP SWAP3 SWAP6 POP SWAP3 SWAP6 SWAP1 SWAP4 POP JUMP JUMPDEST PUSH0 DUP2 MLOAD SWAP1 POP SWAP2 SWAP1 POP JUMP JUMPDEST PUSH0 DUP3 DUP3 MSTORE PUSH1 0x20 DUP3 ADD SWAP1 POP SWAP3 SWAP2 POP POP JUMP JUMPDEST PUSH0 JUMPDEST DUP4 DUP2 LT ISZERO PUSH2 0xE23 JUMPI DUP1 DUP3 ADD MLOAD DUP2 DUP5 ADD MSTORE PUSH1 0x20 DUP2 ADD SWAP1 POP PUSH2 0xE08 JUMP JUMPDEST PUSH0 DUP5 DUP5 ADD MSTORE POP POP POP POP JUMP JUMPDEST PUSH0 PUSH1 0x1F NOT PUSH1 0x1F DUP4 ADD AND SWAP1 POP SWAP2 SWAP1 POP JUMP JUMPDEST PUSH0 PUSH2 0xE48 DUP3 PUSH2 0xDEC JUMP JUMPDEST PUSH2 0xE52 DUP2 DUP6 PUSH2 0xDF6 JUMP JUMPDEST SWAP4 POP PUSH2 0xE62 DUP2 DUP6 PUSH1 0x20 DUP7 ADD PUSH2 0xE06 JUMP JUMPDEST PUSH2 0xE6B DUP2 PUSH2 0xE2E JUMP JUMPDEST DUP5 ADD SWAP2 POP POP SWAP3 SWAP2 POP POP JUMP JUMPDEST PUSH2 0xE7F DUP2 PUSH2 0xD28 JUMP JUMPDEST DUP3 MSTORE POP POP JUMP JUMPDEST PUSH0 DUP2 ISZERO ISZERO SWAP1 POP SWAP2 SWAP1 POP JUMP JUMPDEST PUSH2 0xE99 DUP2 PUSH2 0xE85 JUMP JUMPDEST DUP3 MSTORE POP POP JUMP JUMPDEST PUSH0 PUSH2 0x100 DUP4 ADD PUSH0 DUP4 ADD MLOAD DUP5 DUP3 SUB PUSH0 DUP7 ADD MSTORE PUSH2 0xEBA DUP3 DUP3 PUSH2 0xE3E JUMP JUMPDEST SWAP2 POP POP PUSH1 0x20 DUP4 ADD MLOAD DUP5 DUP3 SUB PUSH1 0x20 DUP7 ADD MSTORE PUSH2 0xED4 DUP3 DUP3 PUSH2 0xE3E JUMP JUMPDEST SWAP2 POP POP PUSH1 0x40 DUP4 ADD MLOAD PUSH2 0xEE9 PUSH1 0x40 DUP7 ADD DUP3 PUSH2 0xE76 JUMP JUMPDEST POP PUSH1 0x60 DUP4 ADD MLOAD PUSH2 0xEFC PUSH1 0x60 DUP7 ADD DUP3 PUSH2 0xE76 JUMP JUMPDEST POP PUSH1 0x80 DUP4 ADD MLOAD PUSH2 0xF0F PUSH1 0x80 DUP7 ADD DUP3 PUSH2 0xE76 JUMP JUMPDEST POP PUSH1 0xA0 DUP4 ADD MLOAD PUSH2 0xF22 PUSH1 0xA0 DUP7 ADD DUP3 PUSH2 0xE76 JUMP JUMPDEST POP PUSH1 0xC0 DUP4 ADD MLOAD PUSH2 0xF35 PUSH1 0xC0 DUP7 ADD DUP3 PUSH2 0xE90 JUMP JUMPDEST POP PUSH1 0xE0 DUP4 ADD MLOAD PUSH2 0xF48 PUSH1 0xE0 DUP7 ADD DUP3 PUSH2 0xE90 JUMP JUMPDEST POP DUP1 SWAP2 POP POP SWAP3 SWAP2 POP POP JUMP JUMPDEST PUSH0 PUSH1 0x20 DUP3 ADD SWAP1 POP DUP2 DUP2 SUB PUSH0 DUP4 ADD MSTORE PUSH2 0xF6B DUP2 DUP5 PUSH2 0xE9F JUMP JUMPDEST SWAP1 POP SWAP3 SWAP2 POP POP JUMP JUMPDEST PUSH0 PUSH1 0xFF DUP3 AND SWAP1 POP SWAP2 SWAP1 POP JUMP JUMPDEST PUSH2 0xF88 DUP2 PUSH2 0xF73 JUMP JUMPDEST DUP2 EQ PUSH2 0xF92 JUMPI PUSH0 DUP1 REVERT JUMPDEST POP JUMP JUMPDEST PUSH0 DUP2 CALLDATALOAD SWAP1 POP PUSH2 0xFA3 DUP2 PUSH2 0xF7F JUMP JUMPDEST SWAP3 SWAP2 POP POP JUMP JUMPDEST PUSH0 PUSH1 0x20 DUP3 DUP5 SUB SLT ISZERO PUSH2 0xFBE JUMPI PUSH2 0xFBD PUSH2 0xC3A JUMP JUMPDEST JUMPDEST PUSH0 PUSH2 0xFCB DUP5 DUP3 DUP6 ADD PUSH2 0xF95 JUMP JUMPDEST SWAP2 POP POP SWAP3 SWAP2 POP POP JUMP JUMPDEST PUSH0 PUSH1 0x20 DUP3 DUP5 SUB SLT ISZERO PUSH2 0xFE9 JUMPI PUSH2 0xFE8 PUSH2 0xC3A JUMP JUMPDEST JUMPDEST PUSH0 PUSH2 0xFF6 DUP5 DUP3 DUP6 ADD PUSH2 0xD47 JUMP JUMPDEST SWAP2 POP POP SWAP3 SWAP2 POP POP JUMP JUMPDEST PUSH0 DUP3 DUP3 MSTORE PUSH1 0x20 DUP3 ADD SWAP1 POP SWAP3 SWAP2 POP POP JUMP JUMPDEST PUSH32 0x4578697374696E672070726F706F73616C207374696C6C206163746976652E00 PUSH0 DUP3 ADD MSTORE POP JUMP JUMPDEST PUSH0 PUSH2 0x1043 PUSH1 0x1F DUP4 PUSH2 0xFFF JUMP JUMPDEST SWAP2 POP PUSH2 0x104E DUP3 PUSH2 0x100F JUMP JUMPDEST PUSH1 0x20 DUP3 ADD SWAP1 POP SWAP2 SWAP1 POP JUMP JUMPDEST PUSH0 PUSH1 0x20 DUP3 ADD SWAP1 POP DUP2 DUP2 SUB PUSH0 DUP4 ADD MSTORE PUSH2 0x1070 DUP2 PUSH2 0x1037 JUMP JUMPDEST SWAP1 POP SWAP2 SWAP1 POP JUMP JUMPDEST PUSH32 0x4E487B7100000000000000000000000000000000000000000000000000000000 PUSH0 MSTORE PUSH1 0x11 PUSH1 0x4 MSTORE PUSH1 0x24 PUSH0 REVERT JUMPDEST PUSH0 PUSH2 0x10AE DUP3 PUSH2 0xD28 JUMP JUMPDEST SWAP2 POP PUSH2 0x10B9 DUP4 PUSH2 0xD28 JUMP JUMPDEST SWAP3 POP DUP3 DUP3 ADD SWAP1 POP DUP1 DUP3 GT ISZERO PUSH2 0x10D1 JUMPI PUSH2 0x10D0 PUSH2 0x1077 JUMP JUMPDEST JUMPDEST SWAP3 SWAP2 POP POP JUMP JUMPDEST PUSH32 0x4E487B7100000000000000000000000000000000000000000000000000000000 PUSH0 MSTORE PUSH1 0x41 PUSH1 0x4 MSTORE PUSH1 0x24 PUSH0 REVERT JUMPDEST PUSH32 0x4E487B7100000000000000000000000000000000000000000000000000000000 PUSH0 MSTORE PUSH1 0x22 PUSH1 0x4 MSTORE PUSH1 0x24 PUSH0 REVERT JUMPDEST PUSH0 PUSH1 0x2 DUP3 DIV SWAP1 POP PUSH1 0x1 DUP3 AND DUP1 PUSH2 0x1148 JUMPI PUSH1 0x7F DUP3 AND SWAP2 POP JUMPDEST PUSH1 0x20 DUP3 LT DUP2 SUB PUSH2 0x115B JUMPI PUSH2 0x115A PUSH2 0x1104 JUMP JUMPDEST JUMPDEST POP SWAP2 SWAP1 POP JUMP JUMPDEST PUSH0 DUP2 SWAP1 POP DUP2 PUSH0 MSTORE PUSH1 0x20 PUSH0 KECCAK256 SWAP1 POP SWAP2 SWAP1 POP JUMP JUMPDEST PUSH0 PUSH1 0x20 PUSH1 0x1F DUP4 ADD DIV SWAP1 POP SWAP2 SWAP1 POP JUMP JUMPDEST PUSH0 DUP3 DUP3 SHL SWAP1 POP SWAP3 SWAP2 POP POP JUMP JUMPDEST PUSH0 PUSH1 0x8 DUP4 MUL PUSH2 0x11BD PUSH32 0xFFFFFFFFFFFFFFFFFFFFFFFFFFFFFFFFFFFFFFFFFFFFFFFFFFFFFFFFFFFFFFFF DUP3 PUSH2 0x1182 JUMP JUMPDEST PUSH2 0x11C7 DUP7 DUP4 PUSH2 0x1182 JUMP JUMPDEST SWAP6 POP DUP1 NOT DUP5 AND SWAP4 POP DUP1 DUP7 AND DUP5 OR SWAP3 POP POP POP SWAP4 SWAP3 POP POP POP JUMP JUMPDEST PUSH0 DUP2 SWAP1 POP SWAP2 SWAP1 POP JUMP JUMPDEST PUSH0 PUSH2 0x1202 PUSH2 0x11FD PUSH2 0x11F8 DUP5 PUSH2 0xD28 JUMP JUMPDEST PUSH2 0x11DF JUMP JUMPDEST PUSH2 0xD28 JUMP JUMPDEST SWAP1 POP SWAP2 SWAP1 POP JUMP JUMPDEST PUSH0 DUP2 SWAP1 POP SWAP2 SWAP1 POP JUMP JUMPDEST PUSH2 0x121B DUP4 PUSH2 0x11E8 JUMP JUMPDEST PUSH2 0x122F PUSH2 0x1227 DUP3 PUSH2 0x1209 JUMP JUMPDEST DUP5 DUP5 SLOAD PUSH2 0x118E JUMP JUMPDEST DUP3 SSTORE POP POP POP POP JUMP JUMPDEST PUSH0 SWAP1 JUMP JUMPDEST PUSH2 0x1243 PUSH2 0x1237 JUMP JUMPDEST PUSH2 0x124E DUP2 DUP5 DUP5 PUSH2 0x1212 JUMP JUMPDEST POP POP POP JUMP JUMPDEST JUMPDEST DUP2 DUP2 LT ISZERO PUSH2 0x1271 JUMPI PUSH2 0x1266 PUSH0 DUP3 PUSH2 0x123B JUMP JUMPDEST PUSH1 0x1 DUP2 ADD SWAP1 POP PUSH2 0x1254 JUMP JUMPDEST POP POP JUMP JUMPDEST PUSH1 0x1F DUP3 GT ISZERO PUSH2 0x12B6 JUMPI PUSH2 0x1287 DUP2 PUSH2 0x1161 JUMP JUMPDEST PUSH2 0x1290 DUP5 PUSH2 0x1173 JUMP JUMPDEST DUP2 ADD PUSH1 0x20 DUP6 LT ISZERO PUSH2 0x129F JUMPI DUP2 SWAP1 POP JUMPDEST PUSH2 0x12B3 PUSH2 0x12AB DUP6 PUSH2 0x1173 JUMP JUMPDEST DUP4 ADD DUP3 PUSH2 0x1253 JUMP JUMPDEST POP POP JUMPDEST POP POP POP JUMP JUMPDEST PUSH0 DUP3 DUP3 SHR SWAP1 POP SWAP3 SWAP2 POP POP JUMP JUMPDEST PUSH0 PUSH2 0x12D6 PUSH0 NOT DUP5 PUSH1 0x8 MUL PUSH2 0x12BB JUMP JUMPDEST NOT DUP1 DUP4 AND SWAP2 POP POP SWAP3 SWAP2 POP POP JUMP JUMPDEST PUSH0 PUSH2 0x12EE DUP4 DUP4 PUSH2 0x12C7 JUMP JUMPDEST SWAP2 POP DUP3 PUSH1 0x2 MUL DUP3 OR SWAP1 POP SWAP3 SWAP2 POP POP JUMP JUMPDEST PUSH2 0x1307 DUP3 PUSH2 0xDEC JUMP JUMPDEST PUSH8 0xFFFFFFFFFFFFFFFF DUP2 GT ISZERO PUSH2 0x1320 JUMPI PUSH2 0x131F PUSH2 0x10D7 JUMP JUMPDEST JUMPDEST PUSH2 0x132A DUP3 SLOAD PUSH2 0x1131 JUMP JUMPDEST PUSH2 0x1335 DUP3 DUP3 DUP6 PUSH2 0x1275 JUMP JUMPDEST PUSH0 PUSH1 0x20 SWAP1 POP PUSH1 0x1F DUP4 GT PUSH1 0x1 DUP2 EQ PUSH2 0x1366 JUMPI PUSH0 DUP5 ISZERO PUSH2 0x1354 JUMPI DUP3 DUP8 ADD MLOAD SWAP1 POP JUMPDEST PUSH2 0x135E DUP6 DUP3 PUSH2 0x12E3 JUMP JUMPDEST DUP7 SSTORE POP PUSH2 0x13C5 JUMP JUMPDEST PUSH1 0x1F NOT DUP5 AND PUSH2 0x1374 DUP7 PUSH2 0x1161 JUMP JUMPDEST PUSH0 JUMPDEST DUP3 DUP2 LT ISZERO PUSH2 0x139B JUMPI DUP5 DUP10 ADD MLOAD DUP3 SSTORE PUSH1 0x1 DUP3 ADD SWAP2 POP PUSH1 0x20 DUP6 ADD SWAP5 POP PUSH1 0x20 DUP2 ADD SWAP1 POP PUSH2 0x1376 JUMP JUMPDEST DUP7 DUP4 LT ISZERO PUSH2 0x13B8 JUMPI DUP5 DUP10 ADD MLOAD PUSH2 0x13B4 PUSH1 0x1F DUP10 AND DUP3 PUSH2 0x12C7 JUMP JUMPDEST DUP4 SSTORE POP JUMPDEST PUSH1 0x1 PUSH1 0x2 DUP9 MUL ADD DUP9 SSTORE POP POP POP JUMPDEST POP POP POP POP POP POP JUMP JUMPDEST PUSH32 0x5468652070726F706F73616C206973206E6F7420616374697665000000000000 PUSH0 DUP3 ADD MSTORE POP JUMP JUMPDEST PUSH0 PUSH2 0x1401 PUSH1 0x1A DUP4 PUSH2 0xFFF JUMP JUMPDEST SWAP2 POP PUSH2 0x140C DUP3 PUSH2 0x13CD JUMP JUMPDEST PUSH1 0x20 DUP3 ADD SWAP1 POP SWAP2 SWAP1 POP JUMP JUMPDEST PUSH0 PUSH1 0x20 DUP3 ADD SWAP1 POP DUP2 DUP2 SUB PUSH0 DUP4 ADD MSTORE PUSH2 0x142E DUP2 PUSH2 0x13F5 JUMP JUMPDEST SWAP1 POP SWAP2 SWAP1 POP JUMP JUMPDEST PUSH32 0x416464726573732068617320616C726561647920766F74656400000000000000 PUSH0 DUP3 ADD MSTORE POP JUMP JUMPDEST PUSH0 PUSH2 0x1469 PUSH1 0x19 DUP4 PUSH2 0xFFF JUMP JUMPDEST SWAP2 POP PUSH2 0x1474 DUP3 PUSH2 0x1435 JUMP JUMPDEST PUSH1 0x20 DUP3 ADD SWAP1 POP SWAP2 SWAP1 POP JUMP JUMPDEST PUSH0 PUSH1 0x20 DUP3 ADD SWAP1 POP DUP2 DUP2 SUB PUSH0 DUP4 ADD MSTORE PUSH2 0x1496 DUP2 PUSH2 0x145D JUMP JUMPDEST SWAP1 POP SWAP2 SWAP1 POP JUMP JUMPDEST PUSH32 0x43686F6963652073686F756C642062652065697468657220302C203120307220 PUSH0 DUP3 ADD MSTORE PUSH32 0x3200000000000000000000000000000000000000000000000000000000000000 PUSH1 0x20 DUP3 ADD MSTORE POP JUMP JUMPDEST PUSH0 PUSH2 0x14F7 PUSH1 0x21 DUP4 PUSH2 0xFFF JUMP JUMPDEST SWAP2 POP PUSH2 0x1502 DUP3 PUSH2 0x149D JUMP JUMPDEST PUSH1 0x40 DUP3 ADD SWAP1 POP SWAP2 SWAP1 POP JUMP JUMPDEST PUSH0 PUSH1 0x20 DUP3 ADD SWAP1 POP DUP2 DUP2 SUB PUSH0 DUP4 ADD MSTORE PUSH2 0x1524 DUP2 PUSH2 0x14EB JUMP JUMPDEST SWAP1 POP SWAP2 SWAP1 POP JUMP JUMPDEST PUSH0 PUSH2 0x1535 DUP3 PUSH2 0xD28 JUMP JUMPDEST SWAP2 POP PUSH2 0x1540 DUP4 PUSH2 0xD28 JUMP JUMPDEST SWAP3 POP DUP3 DUP3 SUB SWAP1 POP DUP2 DUP2 GT ISZERO PUSH2 0x1558 JUMPI PUSH2 0x1557 PUSH2 0x1077 JUMP JUMPDEST JUMPDEST SWAP3 SWAP2 POP POP JUMP JUMPDEST PUSH32 0x506C6561736520656E74657220612076616C69642070726F706F73616C206964 PUSH0 DUP3 ADD MSTORE POP JUMP JUMPDEST PUSH0 PUSH2 0x1592 PUSH1 0x20 DUP4 PUSH2 0xFFF JUMP JUMPDEST SWAP2 POP PUSH2 0x159D DUP3 PUSH2 0x155E JUMP JUMPDEST PUSH1 0x20 DUP3 ADD SWAP1 POP SWAP2 SWAP1 POP JUMP JUMPDEST PUSH0 PUSH1 0x20 DUP3 ADD SWAP1 POP DUP2 DUP2 SUB PUSH0 DUP4 ADD MSTORE PUSH2 0x15BF DUP2 PUSH2 0x1586 JUMP JUMPDEST SWAP1 POP SWAP2 SWAP1 POP JUMP JUMPDEST PUSH32 0x4E487B7100000000000000000000000000000000000000000000000000000000 PUSH0 MSTORE PUSH1 0x12 PUSH1 0x4 MSTORE PUSH1 0x24 PUSH0 REVERT JUMPDEST PUSH0 PUSH2 0x15FD DUP3 PUSH2 0xD28 JUMP JUMPDEST SWAP2 POP PUSH2 0x1608 DUP4 PUSH2 0xD28 JUMP JUMPDEST SWAP3 POP DUP3 PUSH2 0x1618 JUMPI PUSH2 0x1617 PUSH2 0x15C6 JUMP JUMPDEST JUMPDEST DUP3 DUP3 MOD SWAP1 POP SWAP3 SWAP2 POP POP JUMP JUMPDEST PUSH0 PUSH2 0x162D DUP3 PUSH2 0xD28 JUMP JUMPDEST SWAP2 POP PUSH2 0x1638 DUP4 PUSH2 0xD28 JUMP JUMPDEST SWAP3 POP DUP3 PUSH2 0x1648 JUMPI PUSH2 0x1647 PUSH2 0x15C6 JUMP JUMPDEST JUMPDEST DUP3 DUP3 DIV SWAP1 POP SWAP3 SWAP2 POP POP JUMP INVALID LOG2 PUSH5 0x6970667358 0x22 SLT KECCAK256 PUSH17 0x9BD3568EE72D5D3B51288262975C91B046 LOG0 0x22 SLOAD 0xB1 PUSH24 0x2F4C9B7E970FED4A4964736F6C6343000818003300000000 "
				},
				"gasEstimates": {
					"creation": {
						"codeDepositCost": "1153800",
						"executionCost": "25463",
						"totalCost": "1179263"
					},
					"external": {
						"create(string,string,uint256)": "infinite",
						"getCurrentProposal()": "infinite",
						"getProposal(uint256)": "infinite",
						"setOwner(address)": "26859",
						"teminateProposal()": "33254",
						"vote(uint8)": "infinite"
					},
					"internal": {
						"calculateCurrentState()": "infinite"
					}
				},
				"methodIdentifiers": {
					"create(string,string,uint256)": "3ca6d100",
					"getCurrentProposal()": "41ec6870",
					"getProposal(uint256)": "c7f758a8",
					"setOwner(address)": "13af4035",
					"teminateProposal()": "89190393",
					"vote(uint8)": "b3f98adc"
				}
			},
			"storageLayout": {
				"storage": [
					{
						"astId": 3,
						"contract": "contracts/proposal.sol:ProposalContract",
						"label": "owner",
						"offset": 0,
						"slot": "0",
						"type": "t_address"
					},
					{
						"astId": 5,
						"contract": "contracts/proposal.sol:ProposalContract",
						"label": "counter",
						"offset": 0,
						"slot": "1",
						"type": "t_uint256"
					},
					{
						"astId": 10,
						"contract": "contracts/proposal.sol:ProposalContract",
						"label": "proposal_history",
						"offset": 0,
						"slot": "2",
						"type": "t_mapping(t_uint256,t_struct(Proposal)31_storage)"
					},
					{
						"astId": 14,
						"contract": "contracts/proposal.sol:ProposalContract",
						"label": "voted_addresses",
						"offset": 0,
						"slot": "3",
						"type": "t_mapping(t_address,t_bool)"
					}
				],
				"types": {
					"t_address": {
						"encoding": "inplace",
						"label": "address",
						"numberOfBytes": "20"
					},
					"t_bool": {
						"encoding": "inplace",
						"label": "bool",
						"numberOfBytes": "1"
					},
					"t_mapping(t_address,t_bool)": {
						"encoding": "mapping",
						"key": "t_address",
						"label": "mapping(address => bool)",
						"numberOfBytes": "32",
						"value": "t_bool"
					},
					"t_mapping(t_uint256,t_struct(Proposal)31_storage)": {
						"encoding": "mapping",
						"key": "t_uint256",
						"label": "mapping(uint256 => struct ProposalContract.Proposal)",
						"numberOfBytes": "32",
						"value": "t_struct(Proposal)31_storage"
					},
					"t_string_storage": {
						"encoding": "bytes",
						"label": "string",
						"numberOfBytes": "32"
					},
					"t_struct(Proposal)31_storage": {
						"encoding": "inplace",
						"label": "struct ProposalContract.Proposal",
						"members": [
							{
								"astId": 16,
								"contract": "contracts/proposal.sol:ProposalContract",
								"label": "title",
								"offset": 0,
								"slot": "0",
								"type": "t_string_storage"
							},
							{
								"astId": 18,
								"contract": "contracts/proposal.sol:ProposalContract",
								"label": "description",
								"offset": 0,
								"slot": "1",
								"type": "t_string_storage"
							},
							{
								"astId": 20,
								"contract": "contracts/proposal.sol:ProposalContract",
								"label": "approve",
								"offset": 0,
								"slot": "2",
								"type": "t_uint256"
							},
							{
								"astId": 22,
								"contract": "contracts/proposal.sol:ProposalContract",
								"label": "reject",
								"offset": 0,
								"slot": "3",
								"type": "t_uint256"
							},
							{
								"astId": 24,
								"contract": "contracts/proposal.sol:ProposalContract",
								"label": "pass",
								"offset": 0,
								"slot": "4",
								"type": "t_uint256"
							},
							{
								"astId": 26,
								"contract": "contracts/proposal.sol:ProposalContract",
								"label": "total_vote_to_end",
								"offset": 0,
								"slot": "5",
								"type": "t_uint256"
							},
							{
								"astId": 28,
								"contract": "contracts/proposal.sol:ProposalContract",
								"label": "current_state",
								"offset": 0,
								"slot": "6",
								"type": "t_bool"
							},
							{
								"astId": 30,
								"contract": "contracts/proposal.sol:ProposalContract",
								"label": "is_active",
								"offset": 1,
								"slot": "6",
								"type": "t_bool"
							}
						],
						"numberOfBytes": "224"
					},
					"t_uint256": {
						"encoding": "inplace",
						"label": "uint256",
						"numberOfBytes": "32"
					}
				}
			},
			"userdoc": {
				"kind": "user",
				"methods": {},
				"version": 1
			}
		}
	}
}