{
	"contracts/proposal.sol": {
		"ProposalContract": {
			"abi": [
				{
					"inputs": [],
					"stateMutability": "nonpayable",
					"type": "constructor"
				},
				{
					"inputs": [
						{
							"internalType": "string",
							"name": "_title",
							"type": "string"
						},
						{
							"internalType": "string",
							"name": "_description",
							"type": "string"
						},
						{
							"internalType": "uint256",
							"name": "_total_vote_to_end",
							"type": "uint256"
						}
					],
					"name": "create",
					"outputs": [],
					"stateMutability": "nonpayable",
					"type": "function"
				},
				{
					"inputs": [],
					"name": "getCurrentProposal",
					"outputs": [
						{
							"components": [
								{
									"internalType": "string",
									"name": "title",
									"type": "string"
								},
								{
									"internalType": "string",
									"name": "description",
									"type": "string"
								},
								{
									"internalType": "uint256",
									"name": "approve",
									"type": "uint256"
								},
								{
									"internalType": "uint256",
									"name": "reject",
									"type": "uint256"
								},
								{
									"internalType": "uint256",
									"name": "pass",
									"type": "uint256"
								},
								{
									"internalType": "uint256",
									"name": "total_vote_to_end",
									"type": "uint256"
								},
								{
									"internalType": "bool",
									"name": "current_state",
									"type": "bool"
								},
								{
									"internalType": "bool",
									"name": "is_active",
									"type": "bool"
								}
							],
							"internalType": "struct ProposalContract.Proposal",
							"name": "",
							"type": "tuple"
						}
					],
					"stateMutability": "view",
					"type": "function"
				},
				{
					"inputs": [
						{
							"internalType": "uint256",
							"name": "number",
							"type": "uint256"
						}
					],
					"name": "getProposal",
					"outputs": [
						{
							"components": [
								{
									"internalType": "string",
									"name": "title",
									"type": "string"
								},
								{
									"internalType": "string",
									"name": "description",
									"type": "string"
								},
								{
									"internalType": "uint256",
									"name": "approve",
									"type": "uint256"
								},
								{
									"internalType": "uint256",
									"name": "reject",
									"type": "uint256"
								},
								{
									"internalType": "uint256",
									"name": "pass",
									"type": "uint256"
								},
								{
									"internalType": "uint256",
									"name": "total_vote_to_end",
									"type": "uint256"
								},
								{
									"internalType": "bool",
									"name": "current_state",
									"type": "bool"
								},
								{
									"internalType": "bool",
									"name": "is_active",
									"type": "bool"
								}
							],
							"internalType": "struct ProposalContract.Proposal",
							"name": "",
							"type": "tuple"
						}
					],
					"stateMutability": "view",
					"type": "function"
				},
				{
					"inputs": [
						{
							"internalType": "address",
							"name": "new_owner",
							"type": "address"
						}
					],
					"name": "setOwner",
					"outputs": [],
					"stateMutability": "nonpayable",
					"type": "function"
				},
				{
					"inputs": [],
					"name": "teminateProposal",
					"outputs": [],
					"stateMutability": "nonpayable",
					"type": "function"
				},
				{
					"inputs": [
						{
							"internalType": "uint8",
							"name": "choice",
							"type": "uint8"
						}
					],
					"name": "vote",
					"outputs": [],
					"stateMutability": "nonpayable",
					"type": "function"
				}
			],
			"devdoc": {
				"kind": "dev",
				"methods": {},
				"version": 1
			},
			"evm": {
				"assembly": "    /* \"contracts/proposal.sol\":59:5214  contract ProposalContract { ... */\n  mstore(0x40, 0x80)\n    /* \"contracts/proposal.sol\":1079:1243  constructor() {... */\n  callvalue\n  dup1\n  iszero\n  tag_1\n  jumpi\n  0x00\n  dup1\n  revert\ntag_1:\n  pop\n    /* \"contracts/proposal.sol\":1121:1131  msg.sender */\n  caller\n    /* \"contracts/proposal.sol\":1113:1118  owner */\n  0x00\n  dup1\n    /* \"contracts/proposal.sol\":1113:1131  owner = msg.sender */\n  0x0100\n  exp\n  dup2\n  sload\n  dup2\n  0xffffffffffffffffffffffffffffffffffffffff\n  mul\n  not\n  and\n  swap1\n  dup4\n  0xffffffffffffffffffffffffffffffffffffffff\n  and\n  mul\n  or\n  swap1\n  sstore\n  pop\n    /* \"contracts/proposal.sol\":59:5214  contract ProposalContract { ... */\n  dataSize(sub_0)\n  dup1\n  dataOffset(sub_0)\n  0x00\n  codecopy\n  0x00\n  return\nstop\n\nsub_0: assembly {\n        /* \"contracts/proposal.sol\":59:5214  contract ProposalContract { ... */\n      mstore(0x40, 0x80)\n      callvalue\n      dup1\n      iszero\n      tag_1\n      jumpi\n      0x00\n      dup1\n      revert\n    tag_1:\n      pop\n      jumpi(tag_2, lt(calldatasize, 0x04))\n      shr(0xe0, calldataload(0x00))\n      dup1\n      0x13af4035\n      eq\n      tag_3\n      jumpi\n      dup1\n      0x3ca6d100\n      eq\n      tag_4\n      jumpi\n      dup1\n      0x41ec6870\n      eq\n      tag_5\n      jumpi\n      dup1\n      0x89190393\n      eq\n      tag_6\n      jumpi\n      dup1\n      0xb3f98adc\n      eq\n      tag_7\n      jumpi\n      dup1\n      0xc7f758a8\n      eq\n      tag_8\n      jumpi\n    tag_2:\n      0x00\n      dup1\n      revert\n        /* \"contracts/proposal.sol\":1796:1904  function setOwner(address new_owner) external onlyOwner {... */\n    tag_3:\n      tag_9\n      0x04\n      dup1\n      calldatasize\n      sub\n      dup2\n      add\n      swap1\n      tag_10\n      swap2\n      swap1\n      tag_11\n      jump\t// in\n    tag_10:\n      tag_12\n      jump\t// in\n    tag_9:\n      stop\n        /* \"contracts/proposal.sol\":1920:2201  function create(string calldata _title,string calldata _description, uint256 _total_vote_to_end) external onlyOwner {... */\n    tag_4:\n      tag_13\n      0x04\n      dup1\n      calldatasize\n      sub\n      dup2\n      add\n      swap1\n      tag_14\n      swap2\n      swap1\n      tag_15\n      jump\t// in\n    tag_14:\n      tag_16\n      jump\t// in\n    tag_13:\n      stop\n        /* \"contracts/proposal.sol\":4911:5047  function getCurrentProposal() external view returns(Proposal memory) {... */\n    tag_5:\n      tag_17\n      tag_18\n      jump\t// in\n    tag_17:\n      mload(0x40)\n      tag_19\n      swap2\n      swap1\n      tag_20\n      jump\t// in\n    tag_19:\n      mload(0x40)\n      dup1\n      swap2\n      sub\n      swap1\n      return\n        /* \"contracts/proposal.sol\":4406:4538  function teminateProposal() external onlyOwner active {... */\n    tag_6:\n      tag_21\n      tag_22\n      jump\t// in\n    tag_21:\n      stop\n        /* \"contracts/proposal.sol\":3085:4390  function vote(uint8 choice) external active newVoter(msg.sender) {... */\n    tag_7:\n      tag_23\n      0x04\n      dup1\n      calldatasize\n      sub\n      dup2\n      add\n      swap1\n      tag_24\n      swap2\n      swap1\n      tag_25\n      jump\t// in\n    tag_24:\n      tag_26\n      jump\t// in\n    tag_23:\n      stop\n        /* \"contracts/proposal.sol\":5063:5205  function getProposal(uint256 number) external view returns(Proposal memory) {... */\n    tag_8:\n      tag_27\n      0x04\n      dup1\n      calldatasize\n      sub\n      dup2\n      add\n      swap1\n      tag_28\n      swap2\n      swap1\n      tag_29\n      jump\t// in\n    tag_28:\n      tag_30\n      jump\t// in\n    tag_27:\n      mload(0x40)\n      tag_31\n      swap2\n      swap1\n      tag_20\n      jump\t// in\n    tag_31:\n      mload(0x40)\n      dup1\n      swap2\n      sub\n      swap1\n      return\n        /* \"contracts/proposal.sol\":1796:1904  function setOwner(address new_owner) external onlyOwner {... */\n    tag_12:\n        /* \"contracts/proposal.sol\":1357:1362  owner */\n      0x00\n      dup1\n      sload\n      swap1\n      0x0100\n      exp\n      swap1\n      div\n      0xffffffffffffffffffffffffffffffffffffffff\n      and\n        /* \"contracts/proposal.sol\":1343:1362  msg.sender == owner */\n      0xffffffffffffffffffffffffffffffffffffffff\n      and\n        /* \"contracts/proposal.sol\":1343:1353  msg.sender */\n      caller\n        /* \"contracts/proposal.sol\":1343:1362  msg.sender == owner */\n      0xffffffffffffffffffffffffffffffffffffffff\n      and\n      eq\n        /* \"contracts/proposal.sol\":1335:1363  require(msg.sender == owner) */\n      tag_33\n      jumpi\n      0x00\n      dup1\n      revert\n    tag_33:\n        /* \"contracts/proposal.sol\":1879:1888  new_owner */\n      dup1\n        /* \"contracts/proposal.sol\":1871:1876  owner */\n      0x00\n      dup1\n        /* \"contracts/proposal.sol\":1871:1888  owner = new_owner */\n      0x0100\n      exp\n      dup2\n      sload\n      dup2\n      0xffffffffffffffffffffffffffffffffffffffff\n      mul\n      not\n      and\n      swap1\n      dup4\n      0xffffffffffffffffffffffffffffffffffffffff\n      and\n      mul\n      or\n      swap1\n      sstore\n      pop\n        /* \"contracts/proposal.sol\":1796:1904  function setOwner(address new_owner) external onlyOwner {... */\n      pop\n      jump\t// out\n        /* \"contracts/proposal.sol\":1920:2201  function create(string calldata _title,string calldata _description, uint256 _total_vote_to_end) external onlyOwner {... */\n    tag_16:\n        /* \"contracts/proposal.sol\":1357:1362  owner */\n      0x00\n      dup1\n      sload\n      swap1\n      0x0100\n      exp\n      swap1\n      div\n      0xffffffffffffffffffffffffffffffffffffffff\n      and\n        /* \"contracts/proposal.sol\":1343:1362  msg.sender == owner */\n      0xffffffffffffffffffffffffffffffffffffffff\n      and\n        /* \"contracts/proposal.sol\":1343:1353  msg.sender */\n      caller\n        /* \"contracts/proposal.sol\":1343:1362  msg.sender == owner */\n      0xffffffffffffffffffffffffffffffffffffffff\n      and\n      eq\n        /* \"contracts/proposal.sol\":1335:1363  require(msg.sender == owner) */\n      tag_36\n      jumpi\n      0x00\n      dup1\n      revert\n    tag_36:\n        /* \"contracts/proposal.sol\":2066:2067  1 */\n      0x01\n        /* \"contracts/proposal.sol\":2055:2062  counter */\n      dup1\n      0x00\n        /* \"contracts/proposal.sol\":2055:2067  counter += 1 */\n      dup3\n      dup3\n      sload\n      tag_38\n      swap2\n      swap1\n      tag_39\n      jump\t// in\n    tag_38:\n      swap3\n      pop\n      pop\n      dup2\n      swap1\n      sstore\n      pop\n        /* \"contracts/proposal.sol\":2114:2185  Proposal(_title,_description, 0, 0, 0, _total_vote_to_end, false, true) */\n      mload(0x40)\n      dup1\n      0x0100\n      add\n      0x40\n      mstore\n      dup1\n        /* \"contracts/proposal.sol\":2123:2129  _title */\n      dup7\n      dup7\n        /* \"contracts/proposal.sol\":2114:2185  Proposal(_title,_description, 0, 0, 0, _total_vote_to_end, false, true) */\n      dup1\n      dup1\n      0x1f\n      add\n      0x20\n      dup1\n      swap2\n      div\n      mul\n      0x20\n      add\n      mload(0x40)\n      swap1\n      dup2\n      add\n      0x40\n      mstore\n      dup1\n      swap4\n      swap3\n      swap2\n      swap1\n      dup2\n      dup2\n      mstore\n      0x20\n      add\n      dup4\n      dup4\n      dup1\n      dup3\n      dup5\n      calldatacopy\n      0x00\n      dup2\n      dup5\n      add\n      mstore\n      not(0x1f)\n      0x1f\n      dup3\n      add\n      and\n      swap1\n      pop\n      dup1\n      dup4\n      add\n      swap3\n      pop\n      pop\n      pop\n      pop\n      pop\n      pop\n      pop\n      dup2\n      mstore\n      0x20\n      add\n        /* \"contracts/proposal.sol\":2130:2142  _description */\n      dup5\n      dup5\n        /* \"contracts/proposal.sol\":2114:2185  Proposal(_title,_description, 0, 0, 0, _total_vote_to_end, false, true) */\n      dup1\n      dup1\n      0x1f\n      add\n      0x20\n      dup1\n      swap2\n      div\n      mul\n      0x20\n      add\n      mload(0x40)\n      swap1\n      dup2\n      add\n      0x40\n      mstore\n      dup1\n      swap4\n      swap3\n      swap2\n      swap1\n      dup2\n      dup2\n      mstore\n      0x20\n      add\n      dup4\n      dup4\n      dup1\n      dup3\n      dup5\n      calldatacopy\n      0x00\n      dup2\n      dup5\n      add\n      mstore\n      not(0x1f)\n      0x1f\n      dup3\n      add\n      and\n      swap1\n      pop\n      dup1\n      dup4\n      add\n      swap3\n      pop\n      pop\n      pop\n      pop\n      pop\n      pop\n      pop\n      dup2\n      mstore\n      0x20\n      add\n        /* \"contracts/proposal.sol\":2144:2145  0 */\n      0x00\n        /* \"contracts/proposal.sol\":2114:2185  Proposal(_title,_description, 0, 0, 0, _total_vote_to_end, false, true) */\n      dup2\n      mstore\n      0x20\n      add\n        /* \"contracts/proposal.sol\":2147:2148  0 */\n      0x00\n        /* \"contracts/proposal.sol\":2114:2185  Proposal(_title,_description, 0, 0, 0, _total_vote_to_end, false, true) */\n      dup2\n      mstore\n      0x20\n      add\n        /* \"contracts/proposal.sol\":2150:2151  0 */\n      0x00\n        /* \"contracts/proposal.sol\":2114:2185  Proposal(_title,_description, 0, 0, 0, _total_vote_to_end, false, true) */\n      dup2\n      mstore\n      0x20\n      add\n        /* \"contracts/proposal.sol\":2153:2171  _total_vote_to_end */\n      dup3\n        /* \"contracts/proposal.sol\":2114:2185  Proposal(_title,_description, 0, 0, 0, _total_vote_to_end, false, true) */\n      dup2\n      mstore\n      0x20\n      add\n        /* \"contracts/proposal.sol\":2173:2178  false */\n      0x00\n        /* \"contracts/proposal.sol\":2114:2185  Proposal(_title,_description, 0, 0, 0, _total_vote_to_end, false, true) */\n      iszero\n      iszero\n      dup2\n      mstore\n      0x20\n      add\n        /* \"contracts/proposal.sol\":2180:2184  true */\n      0x01\n        /* \"contracts/proposal.sol\":2114:2185  Proposal(_title,_description, 0, 0, 0, _total_vote_to_end, false, true) */\n      iszero\n      iszero\n      dup2\n      mstore\n      pop\n        /* \"contracts/proposal.sol\":2086:2102  proposal_history */\n      0x02\n        /* \"contracts/proposal.sol\":2086:2111  proposal_history[counter] */\n      0x00\n        /* \"contracts/proposal.sol\":2103:2110  counter */\n      sload(0x01)\n        /* \"contracts/proposal.sol\":2086:2111  proposal_history[counter] */\n      dup2\n      mstore\n      0x20\n      add\n      swap1\n      dup2\n      mstore\n      0x20\n      add\n      0x00\n      keccak256\n        /* \"contracts/proposal.sol\":2086:2185  proposal_history[counter] = Proposal(_title,_description, 0, 0, 0, _total_vote_to_end, false, true) */\n      0x00\n      dup3\n      add\n      mload\n      dup2\n      0x00\n      add\n      swap1\n      dup2\n      tag_40\n      swap2\n      swap1\n      tag_41\n      jump\t// in\n    tag_40:\n      pop\n      0x20\n      dup3\n      add\n      mload\n      dup2\n      0x01\n      add\n      swap1\n      dup2\n      tag_42\n      swap2\n      swap1\n      tag_41\n      jump\t// in\n    tag_42:\n      pop\n      0x40\n      dup3\n      add\n      mload\n      dup2\n      0x02\n      add\n      sstore\n      0x60\n      dup3\n      add\n      mload\n      dup2\n      0x03\n      add\n      sstore\n      0x80\n      dup3\n      add\n      mload\n      dup2\n      0x04\n      add\n      sstore\n      0xa0\n      dup3\n      add\n      mload\n      dup2\n      0x05\n      add\n      sstore\n      0xc0\n      dup3\n      add\n      mload\n      dup2\n      0x06\n      add\n      exp(0x0100, 0x00)\n      dup2\n      sload\n      dup2\n      0xff\n      mul\n      not\n      and\n      swap1\n      dup4\n      iszero\n      iszero\n      mul\n      or\n      swap1\n      sstore\n      pop\n      0xe0\n      dup3\n      add\n      mload\n      dup2\n      0x06\n      add\n      exp(0x0100, 0x01)\n      dup2\n      sload\n      dup2\n      0xff\n      mul\n      not\n      and\n      swap1\n      dup4\n      iszero\n      iszero\n      mul\n      or\n      swap1\n      sstore\n      pop\n      swap1\n      pop\n      pop\n        /* \"contracts/proposal.sol\":1920:2201  function create(string calldata _title,string calldata _description, uint256 _total_vote_to_end) external onlyOwner {... */\n      pop\n      pop\n      pop\n      pop\n      pop\n      jump\t// out\n        /* \"contracts/proposal.sol\":4911:5047  function getCurrentProposal() external view returns(Proposal memory) {... */\n    tag_18:\n        /* \"contracts/proposal.sol\":4963:4978  Proposal memory */\n      tag_43\n      tag_44\n      jump\t// in\n    tag_43:\n        /* \"contracts/proposal.sol\":5006:5022  proposal_history */\n      0x02\n        /* \"contracts/proposal.sol\":5006:5031  proposal_history[counter] */\n      0x00\n        /* \"contracts/proposal.sol\":5023:5030  counter */\n      sload(0x01)\n        /* \"contracts/proposal.sol\":5006:5031  proposal_history[counter] */\n      dup2\n      mstore\n      0x20\n      add\n      swap1\n      dup2\n      mstore\n      0x20\n      add\n      0x00\n      keccak256\n        /* \"contracts/proposal.sol\":4999:5031  return proposal_history[counter] */\n      mload(0x40)\n      dup1\n      0x0100\n      add\n      0x40\n      mstore\n      swap1\n      dup2\n      0x00\n      dup3\n      add\n      dup1\n      sload\n      tag_46\n      swap1\n      tag_47\n      jump\t// in\n    tag_46:\n      dup1\n      0x1f\n      add\n      0x20\n      dup1\n      swap2\n      div\n      mul\n      0x20\n      add\n      mload(0x40)\n      swap1\n      dup2\n      add\n      0x40\n      mstore\n      dup1\n      swap3\n      swap2\n      swap1\n      dup2\n      dup2\n      mstore\n      0x20\n      add\n      dup3\n      dup1\n      sload\n      tag_48\n      swap1\n      tag_47\n      jump\t// in\n    tag_48:\n      dup1\n      iszero\n      tag_49\n      jumpi\n      dup1\n      0x1f\n      lt\n      tag_50\n      jumpi\n      0x0100\n      dup1\n      dup4\n      sload\n      div\n      mul\n      dup4\n      mstore\n      swap2\n      0x20\n      add\n      swap2\n      jump(tag_49)\n    tag_50:\n      dup3\n      add\n      swap2\n      swap1\n      0x00\n      mstore\n      keccak256(0x00, 0x20)\n      swap1\n    tag_51:\n      dup2\n      sload\n      dup2\n      mstore\n      swap1\n      0x01\n      add\n      swap1\n      0x20\n      add\n      dup1\n      dup4\n      gt\n      tag_51\n      jumpi\n      dup3\n      swap1\n      sub\n      0x1f\n      and\n      dup3\n      add\n      swap2\n    tag_49:\n      pop\n      pop\n      pop\n      pop\n      pop\n      dup2\n      mstore\n      0x20\n      add\n      0x01\n      dup3\n      add\n      dup1\n      sload\n      tag_52\n      swap1\n      tag_47\n      jump\t// in\n    tag_52:\n      dup1\n      0x1f\n      add\n      0x20\n      dup1\n      swap2\n      div\n      mul\n      0x20\n      add\n      mload(0x40)\n      swap1\n      dup2\n      add\n      0x40\n      mstore\n      dup1\n      swap3\n      swap2\n      swap1\n      dup2\n      dup2\n      mstore\n      0x20\n      add\n      dup3\n      dup1\n      sload\n      tag_53\n      swap1\n      tag_47\n      jump\t// in\n    tag_53:\n      dup1\n      iszero\n      tag_54\n      jumpi\n      dup1\n      0x1f\n      lt\n      tag_55\n      jumpi\n      0x0100\n      dup1\n      dup4\n      sload\n      div\n      mul\n      dup4\n      mstore\n      swap2\n      0x20\n      add\n      swap2\n      jump(tag_54)\n    tag_55:\n      dup3\n      add\n      swap2\n      swap1\n      0x00\n      mstore\n      keccak256(0x00, 0x20)\n      swap1\n    tag_56:\n      dup2\n      sload\n      dup2\n      mstore\n      swap1\n      0x01\n      add\n      swap1\n      0x20\n      add\n      dup1\n      dup4\n      gt\n      tag_56\n      jumpi\n      dup3\n      swap1\n      sub\n      0x1f\n      and\n      dup3\n      add\n      swap2\n    tag_54:\n      pop\n      pop\n      pop\n      pop\n      pop\n      dup2\n      mstore\n      0x20\n      add\n      0x02\n      dup3\n      add\n      sload\n      dup2\n      mstore\n      0x20\n      add\n      0x03\n      dup3\n      add\n      sload\n      dup2\n      mstore\n      0x20\n      add\n      0x04\n      dup3\n      add\n      sload\n      dup2\n      mstore\n      0x20\n      add\n      0x05\n      dup3\n      add\n      sload\n      dup2\n      mstore\n      0x20\n      add\n      0x06\n      dup3\n      add\n      0x00\n      swap1\n      sload\n      swap1\n      0x0100\n      exp\n      swap1\n      div\n      0xff\n      and\n      iszero\n      iszero\n      iszero\n      iszero\n      dup2\n      mstore\n      0x20\n      add\n      0x06\n      dup3\n      add\n      0x01\n      swap1\n      sload\n      swap1\n      0x0100\n      exp\n      swap1\n      div\n      0xff\n      and\n      iszero\n      iszero\n      iszero\n      iszero\n      dup2\n      mstore\n      pop\n      pop\n      swap1\n      pop\n        /* \"contracts/proposal.sol\":4911:5047  function getCurrentProposal() external view returns(Proposal memory) {... */\n      swap1\n      jump\t// out\n        /* \"contracts/proposal.sol\":4406:4538  function teminateProposal() external onlyOwner active {... */\n    tag_22:\n        /* \"contracts/proposal.sol\":1357:1362  owner */\n      0x00\n      dup1\n      sload\n      swap1\n      0x0100\n      exp\n      swap1\n      div\n      0xffffffffffffffffffffffffffffffffffffffff\n      and\n        /* \"contracts/proposal.sol\":1343:1362  msg.sender == owner */\n      0xffffffffffffffffffffffffffffffffffffffff\n      and\n        /* \"contracts/proposal.sol\":1343:1353  msg.sender */\n      caller\n        /* \"contracts/proposal.sol\":1343:1362  msg.sender == owner */\n      0xffffffffffffffffffffffffffffffffffffffff\n      and\n      eq\n        /* \"contracts/proposal.sol\":1335:1363  require(msg.sender == owner) */\n      tag_58\n      jumpi\n      0x00\n      dup1\n      revert\n    tag_58:\n        /* \"contracts/proposal.sol\":1501:1505  true */\n      0x01\n        /* \"contracts/proposal.sol\":1462:1505  proposal_history[counter].is_active == true */\n      iszero\n      iszero\n        /* \"contracts/proposal.sol\":1462:1478  proposal_history */\n      0x02\n        /* \"contracts/proposal.sol\":1462:1487  proposal_history[counter] */\n      0x00\n        /* \"contracts/proposal.sol\":1479:1486  counter */\n      sload(0x01)\n        /* \"contracts/proposal.sol\":1462:1487  proposal_history[counter] */\n      dup2\n      mstore\n      0x20\n      add\n      swap1\n      dup2\n      mstore\n      0x20\n      add\n      0x00\n      keccak256\n        /* \"contracts/proposal.sol\":1462:1497  proposal_history[counter].is_active */\n      0x06\n      add\n      0x01\n      swap1\n      sload\n      swap1\n      0x0100\n      exp\n      swap1\n      div\n      0xff\n      and\n        /* \"contracts/proposal.sol\":1462:1505  proposal_history[counter].is_active == true */\n      iszero\n      iszero\n      eq\n        /* \"contracts/proposal.sol\":1454:1536  require(proposal_history[counter].is_active == true, \"The proposal is not active\") */\n      tag_60\n      jumpi\n      mload(0x40)\n      0x08c379a000000000000000000000000000000000000000000000000000000000\n      dup2\n      mstore\n      0x04\n      add\n      tag_61\n      swap1\n      tag_62\n      jump\t// in\n    tag_61:\n      mload(0x40)\n      dup1\n      swap2\n      sub\n      swap1\n      revert\n    tag_60:\n        /* \"contracts/proposal.sol\":4517:4522  false */\n      0x00\n        /* \"contracts/proposal.sol\":4479:4495  proposal_history */\n      0x02\n        /* \"contracts/proposal.sol\":4479:4504  proposal_history[counter] */\n      0x00\n        /* \"contracts/proposal.sol\":4496:4503  counter */\n      sload(0x01)\n        /* \"contracts/proposal.sol\":4479:4504  proposal_history[counter] */\n      dup2\n      mstore\n      0x20\n      add\n      swap1\n      dup2\n      mstore\n      0x20\n      add\n      0x00\n      keccak256\n        /* \"contracts/proposal.sol\":4479:4514  proposal_history[counter].is_active */\n      0x06\n      add\n      0x01\n        /* \"contracts/proposal.sol\":4479:4522  proposal_history[counter].is_active = false */\n      0x0100\n      exp\n      dup2\n      sload\n      dup2\n      0xff\n      mul\n      not\n      and\n      swap1\n      dup4\n      iszero\n      iszero\n      mul\n      or\n      swap1\n      sstore\n      pop\n        /* \"contracts/proposal.sol\":4406:4538  function teminateProposal() external onlyOwner active {... */\n      jump\t// out\n        /* \"contracts/proposal.sol\":3085:4390  function vote(uint8 choice) external active newVoter(msg.sender) {... */\n    tag_26:\n        /* \"contracts/proposal.sol\":1501:1505  true */\n      0x01\n        /* \"contracts/proposal.sol\":1462:1505  proposal_history[counter].is_active == true */\n      iszero\n      iszero\n        /* \"contracts/proposal.sol\":1462:1478  proposal_history */\n      0x02\n        /* \"contracts/proposal.sol\":1462:1487  proposal_history[counter] */\n      0x00\n        /* \"contracts/proposal.sol\":1479:1486  counter */\n      sload(0x01)\n        /* \"contracts/proposal.sol\":1462:1487  proposal_history[counter] */\n      dup2\n      mstore\n      0x20\n      add\n      swap1\n      dup2\n      mstore\n      0x20\n      add\n      0x00\n      keccak256\n        /* \"contracts/proposal.sol\":1462:1497  proposal_history[counter].is_active */\n      0x06\n      add\n      0x01\n      swap1\n      sload\n      swap1\n      0x0100\n      exp\n      swap1\n      div\n      0xff\n      and\n        /* \"contracts/proposal.sol\":1462:1505  proposal_history[counter].is_active == true */\n      iszero\n      iszero\n      eq\n        /* \"contracts/proposal.sol\":1454:1536  require(proposal_history[counter].is_active == true, \"The proposal is not active\") */\n      tag_65\n      jumpi\n      mload(0x40)\n      0x08c379a000000000000000000000000000000000000000000000000000000000\n      dup2\n      mstore\n      0x04\n      add\n      tag_66\n      swap1\n      tag_62\n      jump\t// in\n    tag_66:\n      mload(0x40)\n      dup1\n      swap2\n      sub\n      swap1\n      revert\n    tag_65:\n        /* \"contracts/proposal.sol\":3138:3148  msg.sender */\n      caller\n        /* \"contracts/proposal.sol\":1652:1667  voted_addresses */\n      0x03\n        /* \"contracts/proposal.sol\":1652:1677  voted_addresses[_address] */\n      0x00\n        /* \"contracts/proposal.sol\":1668:1676  _address */\n      dup3\n        /* \"contracts/proposal.sol\":1652:1677  voted_addresses[_address] */\n      0xffffffffffffffffffffffffffffffffffffffff\n      and\n      0xffffffffffffffffffffffffffffffffffffffff\n      and\n      dup2\n      mstore\n      0x20\n      add\n      swap1\n      dup2\n      mstore\n      0x20\n      add\n      0x00\n      keccak256\n      0x00\n      swap1\n      sload\n      swap1\n      0x0100\n      exp\n      swap1\n      div\n      0xff\n      and\n        /* \"contracts/proposal.sol\":1651:1677  !voted_addresses[_address] */\n      iszero\n        /* \"contracts/proposal.sol\":1643:1707  require(!voted_addresses[_address], \"Address has already voted\") */\n      tag_68\n      jumpi\n      mload(0x40)\n      0x08c379a000000000000000000000000000000000000000000000000000000000\n      dup2\n      mstore\n      0x04\n      add\n      tag_69\n      swap1\n      tag_70\n      jump\t// in\n    tag_69:\n      mload(0x40)\n      dup1\n      swap2\n      sub\n      swap1\n      revert\n    tag_68:\n        /* \"contracts/proposal.sol\":3235:3260  Proposal storage proposal */\n      0x00\n        /* \"contracts/proposal.sol\":3263:3279  proposal_history */\n      0x02\n        /* \"contracts/proposal.sol\":3263:3288  proposal_history[counter] */\n      0x00\n        /* \"contracts/proposal.sol\":3280:3287  counter */\n      sload(0x01)\n        /* \"contracts/proposal.sol\":3263:3288  proposal_history[counter] */\n      dup2\n      mstore\n      0x20\n      add\n      swap1\n      dup2\n      mstore\n      0x20\n      add\n      0x00\n      keccak256\n        /* \"contracts/proposal.sol\":3235:3288  Proposal storage proposal = proposal_history[counter] */\n      swap1\n      pop\n        /* \"contracts/proposal.sol\":3307:3325  uint256 total_vote */\n      0x00\n        /* \"contracts/proposal.sol\":3365:3373  proposal */\n      dup2\n        /* \"contracts/proposal.sol\":3365:3378  proposal.pass */\n      0x04\n      add\n      sload\n        /* \"contracts/proposal.sol\":3347:3355  proposal */\n      dup3\n        /* \"contracts/proposal.sol\":3347:3362  proposal.reject */\n      0x03\n      add\n      sload\n        /* \"contracts/proposal.sol\":3328:3336  proposal */\n      dup4\n        /* \"contracts/proposal.sol\":3328:3344  proposal.approve */\n      0x02\n      add\n      sload\n        /* \"contracts/proposal.sol\":3328:3362  proposal.approve + proposal.reject */\n      tag_72\n      swap2\n      swap1\n      tag_39\n      jump\t// in\n    tag_72:\n        /* \"contracts/proposal.sol\":3328:3378  proposal.approve + proposal.reject + proposal.pass */\n      tag_73\n      swap2\n      swap1\n      tag_39\n      jump\t// in\n    tag_73:\n        /* \"contracts/proposal.sol\":3307:3378  uint256 total_vote = proposal.approve + proposal.reject + proposal.pass */\n      swap1\n      pop\n        /* \"contracts/proposal.sol\":3425:3429  true */\n      0x01\n        /* \"contracts/proposal.sol\":3397:3412  voted_addresses */\n      0x03\n        /* \"contracts/proposal.sol\":3397:3424  voted_addresses[msg.sender] */\n      0x00\n        /* \"contracts/proposal.sol\":3413:3423  msg.sender */\n      caller\n        /* \"contracts/proposal.sol\":3397:3424  voted_addresses[msg.sender] */\n      0xffffffffffffffffffffffffffffffffffffffff\n      and\n      0xffffffffffffffffffffffffffffffffffffffff\n      and\n      dup2\n      mstore\n      0x20\n      add\n      swap1\n      dup2\n      mstore\n      0x20\n      add\n      0x00\n      keccak256\n      0x00\n        /* \"contracts/proposal.sol\":3397:3429  voted_addresses[msg.sender]=true */\n      0x0100\n      exp\n      dup2\n      sload\n      dup2\n      0xff\n      mul\n      not\n      and\n      swap1\n      dup4\n      iszero\n      iszero\n      mul\n      or\n      swap1\n      sstore\n      pop\n        /* \"contracts/proposal.sol\":3494:3495  1 */\n      0x01\n        /* \"contracts/proposal.sol\":3484:3490  choice */\n      dup5\n        /* \"contracts/proposal.sol\":3484:3495  choice == 1 */\n      0xff\n      and\n      sub\n        /* \"contracts/proposal.sol\":3480:3944  if (choice == 1) {... */\n      tag_74\n      jumpi\n        /* \"contracts/proposal.sol\":3540:3541  1 */\n      0x01\n        /* \"contracts/proposal.sol\":3520:3528  proposal */\n      dup3\n        /* \"contracts/proposal.sol\":3520:3536  proposal.approve */\n      0x02\n      add\n      0x00\n        /* \"contracts/proposal.sol\":3520:3541  proposal.approve += 1 */\n      dup3\n      dup3\n      sload\n      tag_75\n      swap2\n      swap1\n      tag_39\n      jump\t// in\n    tag_75:\n      swap3\n      pop\n      pop\n      dup2\n      swap1\n      sstore\n      pop\n        /* \"contracts/proposal.sol\":3589:3612  calculateCurrentState() */\n      tag_76\n        /* \"contracts/proposal.sol\":3589:3610  calculateCurrentState */\n      tag_77\n        /* \"contracts/proposal.sol\":3589:3612  calculateCurrentState() */\n      jump\t// in\n    tag_76:\n        /* \"contracts/proposal.sol\":3564:3572  proposal */\n      dup3\n        /* \"contracts/proposal.sol\":3564:3586  proposal.current_state */\n      0x06\n      add\n      0x00\n        /* \"contracts/proposal.sol\":3564:3612  proposal.current_state = calculateCurrentState() */\n      0x0100\n      exp\n      dup2\n      sload\n      dup2\n      0xff\n      mul\n      not\n      and\n      swap1\n      dup4\n      iszero\n      iszero\n      mul\n      or\n      swap1\n      sstore\n      pop\n        /* \"contracts/proposal.sol\":3480:3944  if (choice == 1) {... */\n      jump(tag_78)\n    tag_74:\n        /* \"contracts/proposal.sol\":3652:3653  2 */\n      0x02\n        /* \"contracts/proposal.sol\":3642:3648  choice */\n      dup5\n        /* \"contracts/proposal.sol\":3642:3653  choice == 2 */\n      0xff\n      and\n      sub\n        /* \"contracts/proposal.sol\":3638:3944  if (choice == 2) {... */\n      tag_79\n      jumpi\n        /* \"contracts/proposal.sol\":3697:3698  1 */\n      0x01\n        /* \"contracts/proposal.sol\":3678:3686  proposal */\n      dup3\n        /* \"contracts/proposal.sol\":3678:3693  proposal.reject */\n      0x03\n      add\n      0x00\n        /* \"contracts/proposal.sol\":3678:3698  proposal.reject += 1 */\n      dup3\n      dup3\n      sload\n      tag_80\n      swap2\n      swap1\n      tag_39\n      jump\t// in\n    tag_80:\n      swap3\n      pop\n      pop\n      dup2\n      swap1\n      sstore\n      pop\n        /* \"contracts/proposal.sol\":3746:3769  calculateCurrentState() */\n      tag_81\n        /* \"contracts/proposal.sol\":3746:3767  calculateCurrentState */\n      tag_77\n        /* \"contracts/proposal.sol\":3746:3769  calculateCurrentState() */\n      jump\t// in\n    tag_81:\n        /* \"contracts/proposal.sol\":3721:3729  proposal */\n      dup3\n        /* \"contracts/proposal.sol\":3721:3743  proposal.current_state */\n      0x06\n      add\n      0x00\n        /* \"contracts/proposal.sol\":3721:3769  proposal.current_state = calculateCurrentState() */\n      0x0100\n      exp\n      dup2\n      sload\n      dup2\n      0xff\n      mul\n      not\n      and\n      swap1\n      dup4\n      iszero\n      iszero\n      mul\n      or\n      swap1\n      sstore\n      pop\n        /* \"contracts/proposal.sol\":3638:3944  if (choice == 2) {... */\n      jump(tag_82)\n    tag_79:\n        /* \"contracts/proposal.sol\":3809:3810  0 */\n      0x00\n        /* \"contracts/proposal.sol\":3799:3805  choice */\n      dup5\n        /* \"contracts/proposal.sol\":3799:3810  choice == 0 */\n      0xff\n      and\n      sub\n        /* \"contracts/proposal.sol\":3795:3944  if (choice == 0) {... */\n      tag_83\n      jumpi\n        /* \"contracts/proposal.sol\":3852:3853  1 */\n      0x01\n        /* \"contracts/proposal.sol\":3835:3843  proposal */\n      dup3\n        /* \"contracts/proposal.sol\":3835:3848  proposal.pass */\n      0x04\n      add\n      0x00\n        /* \"contracts/proposal.sol\":3835:3853  proposal.pass += 1 */\n      dup3\n      dup3\n      sload\n      tag_84\n      swap2\n      swap1\n      tag_39\n      jump\t// in\n    tag_84:\n      swap3\n      pop\n      pop\n      dup2\n      swap1\n      sstore\n      pop\n        /* \"contracts/proposal.sol\":3901:3924  calculateCurrentState() */\n      tag_85\n        /* \"contracts/proposal.sol\":3901:3922  calculateCurrentState */\n      tag_77\n        /* \"contracts/proposal.sol\":3901:3924  calculateCurrentState() */\n      jump\t// in\n    tag_85:\n        /* \"contracts/proposal.sol\":3876:3884  proposal */\n      dup3\n        /* \"contracts/proposal.sol\":3876:3898  proposal.current_state */\n      0x06\n      add\n      0x00\n        /* \"contracts/proposal.sol\":3876:3924  proposal.current_state = calculateCurrentState() */\n      0x0100\n      exp\n      dup2\n      sload\n      dup2\n      0xff\n      mul\n      not\n      and\n      swap1\n      dup4\n      iszero\n      iszero\n      mul\n      or\n      swap1\n      sstore\n      pop\n        /* \"contracts/proposal.sol\":3795:3944  if (choice == 0) {... */\n    tag_83:\n        /* \"contracts/proposal.sol\":3638:3944  if (choice == 2) {... */\n    tag_82:\n        /* \"contracts/proposal.sol\":3480:3944  if (choice == 1) {... */\n    tag_78:\n        /* \"contracts/proposal.sol\":4004:4012  proposal */\n      dup2\n        /* \"contracts/proposal.sol\":4004:4026  proposal.current_state */\n      0x06\n      add\n      0x00\n      swap1\n      sload\n      swap1\n      0x0100\n      exp\n      swap1\n      div\n      0xff\n      and\n        /* \"contracts/proposal.sol\":3962:3978  proposal_history */\n      0x02\n        /* \"contracts/proposal.sol\":3962:3987  proposal_history[counter] */\n      0x00\n        /* \"contracts/proposal.sol\":3979:3986  counter */\n      sload(0x01)\n        /* \"contracts/proposal.sol\":3962:3987  proposal_history[counter] */\n      dup2\n      mstore\n      0x20\n      add\n      swap1\n      dup2\n      mstore\n      0x20\n      add\n      0x00\n      keccak256\n        /* \"contracts/proposal.sol\":3962:4001  proposal_history[counter].current_state */\n      0x06\n      add\n      0x00\n        /* \"contracts/proposal.sol\":3962:4026  proposal_history[counter].current_state = proposal.current_state */\n      0x0100\n      exp\n      dup2\n      sload\n      dup2\n      0xff\n      mul\n      not\n      and\n      swap1\n      dup4\n      iszero\n      iszero\n      mul\n      or\n      swap1\n      sstore\n      pop\n        /* \"contracts/proposal.sol\":4124:4125  1 */\n      0x01\n        /* \"contracts/proposal.sol\":4110:4120  total_vote */\n      dup2\n        /* \"contracts/proposal.sol\":4081:4089  proposal */\n      dup4\n        /* \"contracts/proposal.sol\":4081:4107  proposal.total_vote_to_end */\n      0x05\n      add\n      sload\n        /* \"contracts/proposal.sol\":4081:4120  proposal.total_vote_to_end - total_vote */\n      tag_86\n      swap2\n      swap1\n      tag_87\n      jump\t// in\n    tag_86:\n        /* \"contracts/proposal.sol\":4081:4125  proposal.total_vote_to_end - total_vote == 1 */\n      eq\n        /* \"contracts/proposal.sol\":4080:4173  (proposal.total_vote_to_end - total_vote == 1) && (choice == 1 || choice == 2 || choice == 0) */\n      dup1\n      iszero\n      tag_88\n      jumpi\n      pop\n        /* \"contracts/proposal.sol\":4141:4142  1 */\n      0x01\n        /* \"contracts/proposal.sol\":4131:4137  choice */\n      dup5\n        /* \"contracts/proposal.sol\":4131:4142  choice == 1 */\n      0xff\n      and\n      eq\n        /* \"contracts/proposal.sol\":4131:4157  choice == 1 || choice == 2 */\n      dup1\n      tag_89\n      jumpi\n      pop\n        /* \"contracts/proposal.sol\":4156:4157  2 */\n      0x02\n        /* \"contracts/proposal.sol\":4146:4152  choice */\n      dup5\n        /* \"contracts/proposal.sol\":4146:4157  choice == 2 */\n      0xff\n      and\n      eq\n        /* \"contracts/proposal.sol\":4131:4157  choice == 1 || choice == 2 */\n    tag_89:\n        /* \"contracts/proposal.sol\":4131:4172  choice == 1 || choice == 2 || choice == 0 */\n      dup1\n      tag_90\n      jumpi\n      pop\n        /* \"contracts/proposal.sol\":4171:4172  0 */\n      0x00\n        /* \"contracts/proposal.sol\":4161:4167  choice */\n      dup5\n        /* \"contracts/proposal.sol\":4161:4172  choice == 0 */\n      0xff\n      and\n      eq\n        /* \"contracts/proposal.sol\":4131:4172  choice == 1 || choice == 2 || choice == 0 */\n    tag_90:\n        /* \"contracts/proposal.sol\":4080:4173  (proposal.total_vote_to_end - total_vote == 1) && (choice == 1 || choice == 2 || choice == 0) */\n    tag_88:\n        /* \"contracts/proposal.sol\":4076:4375  if ((proposal.total_vote_to_end - total_vote == 1) && (choice == 1 || choice == 2 || choice == 0)) {... */\n      iszero\n      tag_91\n      jumpi\n        /* \"contracts/proposal.sol\":4219:4224  false */\n      0x00\n        /* \"contracts/proposal.sol\":4198:4206  proposal */\n      dup3\n        /* \"contracts/proposal.sol\":4198:4216  proposal.is_active */\n      0x06\n      add\n      0x01\n        /* \"contracts/proposal.sol\":4198:4224  proposal.is_active = false */\n      0x0100\n      exp\n      dup2\n      sload\n      dup2\n      0xff\n      mul\n      not\n      and\n      swap1\n      dup4\n      iszero\n      iszero\n      mul\n      or\n      swap1\n      sstore\n      pop\n        /* \"contracts/proposal.sol\":4076:4375  if ((proposal.total_vote_to_end - total_vote == 1) && (choice == 1 || choice == 2 || choice == 0)) {... */\n    tag_91:\n        /* \"contracts/proposal.sol\":3150:4390  {... */\n      pop\n      pop\n        /* \"contracts/proposal.sol\":1555:1556  _ */\n      pop\n        /* \"contracts/proposal.sol\":3085:4390  function vote(uint8 choice) external active newVoter(msg.sender) {... */\n      pop\n      jump\t// out\n        /* \"contracts/proposal.sol\":5063:5205  function getProposal(uint256 number) external view returns(Proposal memory) {... */\n    tag_30:\n        /* \"contracts/proposal.sol\":5122:5137  Proposal memory */\n      tag_92\n      tag_44\n      jump\t// in\n    tag_92:\n        /* \"contracts/proposal.sol\":5165:5181  proposal_history */\n      0x02\n        /* \"contracts/proposal.sol\":5165:5189  proposal_history[number] */\n      0x00\n        /* \"contracts/proposal.sol\":5182:5188  number */\n      dup4\n        /* \"contracts/proposal.sol\":5165:5189  proposal_history[number] */\n      dup2\n      mstore\n      0x20\n      add\n      swap1\n      dup2\n      mstore\n      0x20\n      add\n      0x00\n      keccak256\n        /* \"contracts/proposal.sol\":5158:5189  return proposal_history[number] */\n      mload(0x40)\n      dup1\n      0x0100\n      add\n      0x40\n      mstore\n      swap1\n      dup2\n      0x00\n      dup3\n      add\n      dup1\n      sload\n      tag_94\n      swap1\n      tag_47\n      jump\t// in\n    tag_94:\n      dup1\n      0x1f\n      add\n      0x20\n      dup1\n      swap2\n      div\n      mul\n      0x20\n      add\n      mload(0x40)\n      swap1\n      dup2\n      add\n      0x40\n      mstore\n      dup1\n      swap3\n      swap2\n      swap1\n      dup2\n      dup2\n      mstore\n      0x20\n      add\n      dup3\n      dup1\n      sload\n      tag_95\n      swap1\n      tag_47\n      jump\t// in\n    tag_95:\n      dup1\n      iszero\n      tag_96\n      jumpi\n      dup1\n      0x1f\n      lt\n      tag_97\n      jumpi\n      0x0100\n      dup1\n      dup4\n      sload\n      div\n      mul\n      dup4\n      mstore\n      swap2\n      0x20\n      add\n      swap2\n      jump(tag_96)\n    tag_97:\n      dup3\n      add\n      swap2\n      swap1\n      0x00\n      mstore\n      keccak256(0x00, 0x20)\n      swap1\n    tag_98:\n      dup2\n      sload\n      dup2\n      mstore\n      swap1\n      0x01\n      add\n      swap1\n      0x20\n      add\n      dup1\n      dup4\n      gt\n      tag_98\n      jumpi\n      dup3\n      swap1\n      sub\n      0x1f\n      and\n      dup3\n      add\n      swap2\n    tag_96:\n      pop\n      pop\n      pop\n      pop\n      pop\n      dup2\n      mstore\n      0x20\n      add\n      0x01\n      dup3\n      add\n      dup1\n      sload\n      tag_99\n      swap1\n      tag_47\n      jump\t// in\n    tag_99:\n      dup1\n      0x1f\n      add\n      0x20\n      dup1\n      swap2\n      div\n      mul\n      0x20\n      add\n      mload(0x40)\n      swap1\n      dup2\n      add\n      0x40\n      mstore\n      dup1\n      swap3\n      swap2\n      swap1\n      dup2\n      dup2\n      mstore\n      0x20\n      add\n      dup3\n      dup1\n      sload\n      tag_100\n      swap1\n      tag_47\n      jump\t// in\n    tag_100:\n      dup1\n      iszero\n      tag_101\n      jumpi\n      dup1\n      0x1f\n      lt\n      tag_102\n      jumpi\n      0x0100\n      dup1\n      dup4\n      sload\n      div\n      mul\n      dup4\n      mstore\n      swap2\n      0x20\n      add\n      swap2\n      jump(tag_101)\n    tag_102:\n      dup3\n      add\n      swap2\n      swap1\n      0x00\n      mstore\n      keccak256(0x00, 0x20)\n      swap1\n    tag_103:\n      dup2\n      sload\n      dup2\n      mstore\n      swap1\n      0x01\n      add\n      swap1\n      0x20\n      add\n      dup1\n      dup4\n      gt\n      tag_103\n      jumpi\n      dup3\n      swap1\n      sub\n      0x1f\n      and\n      dup3\n      add\n      swap2\n    tag_101:\n      pop\n      pop\n      pop\n      pop\n      pop\n      dup2\n      mstore\n      0x20\n      add\n      0x02\n      dup3\n      add\n      sload\n      dup2\n      mstore\n      0x20\n      add\n      0x03\n      dup3\n      add\n      sload\n      dup2\n      mstore\n      0x20\n      add\n      0x04\n      dup3\n      add\n      sload\n      dup2\n      mstore\n      0x20\n      add\n      0x05\n      dup3\n      add\n      sload\n      dup2\n      mstore\n      0x20\n      add\n      0x06\n      dup3\n      add\n      0x00\n      swap1\n      sload\n      swap1\n      0x0100\n      exp\n      swap1\n      div\n      0xff\n      and\n      iszero\n      iszero\n      iszero\n      iszero\n      dup2\n      mstore\n      0x20\n      add\n      0x06\n      dup3\n      add\n      0x01\n      swap1\n      sload\n      swap1\n      0x0100\n      exp\n      swap1\n      div\n      0xff\n      and\n      iszero\n      iszero\n      iszero\n      iszero\n      dup2\n      mstore\n      pop\n      pop\n      swap1\n      pop\n        /* \"contracts/proposal.sol\":5063:5205  function getProposal(uint256 number) external view returns(Proposal memory) {... */\n      swap2\n      swap1\n      pop\n      jump\t// out\n        /* \"contracts/proposal.sol\":2217:3069  function calculateCurrentState() private view returns(bool) {... */\n    tag_77:\n        /* \"contracts/proposal.sol\":2271:2275  bool */\n      0x00\n        /* \"contracts/proposal.sol\":2300:2325  Proposal storage proposal */\n      dup1\n        /* \"contracts/proposal.sol\":2328:2344  proposal_history */\n      0x02\n        /* \"contracts/proposal.sol\":2328:2353  proposal_history[counter] */\n      0x00\n        /* \"contracts/proposal.sol\":2345:2352  counter */\n      sload(0x01)\n        /* \"contracts/proposal.sol\":2328:2353  proposal_history[counter] */\n      dup2\n      mstore\n      0x20\n      add\n      swap1\n      dup2\n      mstore\n      0x20\n      add\n      0x00\n      keccak256\n        /* \"contracts/proposal.sol\":2300:2353  Proposal storage proposal = proposal_history[counter] */\n      swap1\n      pop\n        /* \"contracts/proposal.sol\":2376:2391  uint256 approve */\n      0x00\n        /* \"contracts/proposal.sol\":2394:2402  proposal */\n      dup2\n        /* \"contracts/proposal.sol\":2394:2410  proposal.approve */\n      0x02\n      add\n      sload\n        /* \"contracts/proposal.sol\":2376:2410  uint256 approve = proposal.approve */\n      swap1\n      pop\n        /* \"contracts/proposal.sol\":2433:2447  uint256 reject */\n      0x00\n        /* \"contracts/proposal.sol\":2450:2458  proposal */\n      dup3\n        /* \"contracts/proposal.sol\":2450:2465  proposal.reject */\n      0x03\n      add\n      sload\n        /* \"contracts/proposal.sol\":2433:2465  uint256 reject = proposal.reject */\n      swap1\n      pop\n        /* \"contracts/proposal.sol\":2488:2500  uint256 pass */\n      0x00\n        /* \"contracts/proposal.sol\":2503:2511  proposal */\n      dup4\n        /* \"contracts/proposal.sol\":2503:2516  proposal.pass */\n      0x04\n      add\n      sload\n        /* \"contracts/proposal.sol\":2488:2516  uint256 pass = proposal.pass */\n      swap1\n      pop\n        /* \"contracts/proposal.sol\":2554:2555  0 */\n      0x00\n        /* \"contracts/proposal.sol\":2551:2552  2 */\n      0x02\n        /* \"contracts/proposal.sol\":2546:2550  pass */\n      dup3\n        /* \"contracts/proposal.sol\":2546:2552  pass%2 */\n      tag_105\n      swap2\n      swap1\n      tag_106\n      jump\t// in\n    tag_105:\n        /* \"contracts/proposal.sol\":2546:2555  pass%2==0 */\n      eq\n        /* \"contracts/proposal.sol\":2546:2567  pass%2==0?pass:pass+1 */\n      tag_107\n      jumpi\n        /* \"contracts/proposal.sol\":2566:2567  1 */\n      0x01\n        /* \"contracts/proposal.sol\":2561:2565  pass */\n      dup2\n        /* \"contracts/proposal.sol\":2561:2567  pass+1 */\n      tag_108\n      swap2\n      swap1\n      tag_39\n      jump\t// in\n    tag_108:\n        /* \"contracts/proposal.sol\":2546:2567  pass%2==0?pass:pass+1 */\n      jump(tag_109)\n    tag_107:\n        /* \"contracts/proposal.sol\":2556:2560  pass */\n      dup1\n        /* \"contracts/proposal.sol\":2546:2567  pass%2==0?pass:pass+1 */\n    tag_109:\n        /* \"contracts/proposal.sol\":2539:2567  pass = pass%2==0?pass:pass+1 */\n      swap1\n      pop\n        /* \"contracts/proposal.sol\":2640:2641  2 */\n      0x02\n        /* \"contracts/proposal.sol\":2635:2639  pass */\n      dup2\n        /* \"contracts/proposal.sol\":2635:2641  pass/2 */\n      tag_110\n      swap2\n      swap1\n      tag_111\n      jump\t// in\n    tag_110:\n        /* \"contracts/proposal.sol\":2630:2641  pass=pass/2 */\n      swap1\n      pop\n        /* \"contracts/proposal.sol\":2892:2898  reject */\n      dup2\n        /* \"contracts/proposal.sol\":2884:2891  approve */\n      dup4\n        /* \"contracts/proposal.sol\":2884:2898  approve>reject */\n      gt\n        /* \"contracts/proposal.sol\":2884:2921  approve>reject || approve+pass>reject */\n      dup1\n      tag_112\n      jumpi\n      pop\n        /* \"contracts/proposal.sol\":2915:2921  reject */\n      dup2\n        /* \"contracts/proposal.sol\":2910:2914  pass */\n      dup2\n        /* \"contracts/proposal.sol\":2902:2909  approve */\n      dup5\n        /* \"contracts/proposal.sol\":2902:2914  approve+pass */\n      tag_113\n      swap2\n      swap1\n      tag_39\n      jump\t// in\n    tag_113:\n        /* \"contracts/proposal.sol\":2902:2921  approve+pass>reject */\n      gt\n        /* \"contracts/proposal.sol\":2884:2921  approve>reject || approve+pass>reject */\n    tag_112:\n        /* \"contracts/proposal.sol\":2880:3054  if (approve>reject || approve+pass>reject) {... */\n      iszero\n      tag_114\n      jumpi\n        /* \"contracts/proposal.sol\":2957:2961  true */\n      0x01\n        /* \"contracts/proposal.sol\":2950:2961  return true */\n      swap5\n      pop\n      pop\n      pop\n      pop\n      pop\n      jump(tag_104)\n        /* \"contracts/proposal.sol\":2880:3054  if (approve>reject || approve+pass>reject) {... */\n    tag_114:\n        /* \"contracts/proposal.sol\":3025:3030  false */\n      0x00\n        /* \"contracts/proposal.sol\":3018:3030  return false */\n      swap5\n      pop\n      pop\n      pop\n      pop\n      pop\n        /* \"contracts/proposal.sol\":2217:3069  function calculateCurrentState() private view returns(bool) {... */\n    tag_104:\n      swap1\n      jump\t// out\n    tag_44:\n      mload(0x40)\n      dup1\n      0x0100\n      add\n      0x40\n      mstore\n      dup1\n      0x60\n      dup2\n      mstore\n      0x20\n      add\n      0x60\n      dup2\n      mstore\n      0x20\n      add\n      0x00\n      dup2\n      mstore\n      0x20\n      add\n      0x00\n      dup2\n      mstore\n      0x20\n      add\n      0x00\n      dup2\n      mstore\n      0x20\n      add\n      0x00\n      dup2\n      mstore\n      0x20\n      add\n      iszero(iszero(0x00))\n      dup2\n      mstore\n      0x20\n      add\n      iszero(iszero(0x00))\n      dup2\n      mstore\n      pop\n      swap1\n      jump\t// out\n        /* \"#utility.yul\":88:205   */\n    tag_117:\n        /* \"#utility.yul\":197:198   */\n      0x00\n        /* \"#utility.yul\":194:195   */\n      dup1\n        /* \"#utility.yul\":187:199   */\n      revert\n        /* \"#utility.yul\":211:328   */\n    tag_118:\n        /* \"#utility.yul\":320:321   */\n      0x00\n        /* \"#utility.yul\":317:318   */\n      dup1\n        /* \"#utility.yul\":310:322   */\n      revert\n        /* \"#utility.yul\":334:460   */\n    tag_119:\n        /* \"#utility.yul\":371:378   */\n      0x00\n        /* \"#utility.yul\":411:453   */\n      0xffffffffffffffffffffffffffffffffffffffff\n        /* \"#utility.yul\":404:409   */\n      dup3\n        /* \"#utility.yul\":400:454   */\n      and\n        /* \"#utility.yul\":389:454   */\n      swap1\n      pop\n        /* \"#utility.yul\":334:460   */\n      swap2\n      swap1\n      pop\n      jump\t// out\n        /* \"#utility.yul\":466:562   */\n    tag_120:\n        /* \"#utility.yul\":503:510   */\n      0x00\n        /* \"#utility.yul\":532:556   */\n      tag_172\n        /* \"#utility.yul\":550:555   */\n      dup3\n        /* \"#utility.yul\":532:556   */\n      tag_119\n      jump\t// in\n    tag_172:\n        /* \"#utility.yul\":521:556   */\n      swap1\n      pop\n        /* \"#utility.yul\":466:562   */\n      swap2\n      swap1\n      pop\n      jump\t// out\n        /* \"#utility.yul\":568:690   */\n    tag_121:\n        /* \"#utility.yul\":641:665   */\n      tag_174\n        /* \"#utility.yul\":659:664   */\n      dup2\n        /* \"#utility.yul\":641:665   */\n      tag_120\n      jump\t// in\n    tag_174:\n        /* \"#utility.yul\":634:639   */\n      dup2\n        /* \"#utility.yul\":631:666   */\n      eq\n        /* \"#utility.yul\":621:684   */\n      tag_175\n      jumpi\n        /* \"#utility.yul\":680:681   */\n      0x00\n        /* \"#utility.yul\":677:678   */\n      dup1\n        /* \"#utility.yul\":670:682   */\n      revert\n        /* \"#utility.yul\":621:684   */\n    tag_175:\n        /* \"#utility.yul\":568:690   */\n      pop\n      jump\t// out\n        /* \"#utility.yul\":696:835   */\n    tag_122:\n        /* \"#utility.yul\":742:747   */\n      0x00\n        /* \"#utility.yul\":780:786   */\n      dup2\n        /* \"#utility.yul\":767:787   */\n      calldataload\n        /* \"#utility.yul\":758:787   */\n      swap1\n      pop\n        /* \"#utility.yul\":796:829   */\n      tag_177\n        /* \"#utility.yul\":823:828   */\n      dup2\n        /* \"#utility.yul\":796:829   */\n      tag_121\n      jump\t// in\n    tag_177:\n        /* \"#utility.yul\":696:835   */\n      swap3\n      swap2\n      pop\n      pop\n      jump\t// out\n        /* \"#utility.yul\":841:1170   */\n    tag_11:\n        /* \"#utility.yul\":900:906   */\n      0x00\n        /* \"#utility.yul\":949:951   */\n      0x20\n        /* \"#utility.yul\":937:946   */\n      dup3\n        /* \"#utility.yul\":928:935   */\n      dup5\n        /* \"#utility.yul\":924:947   */\n      sub\n        /* \"#utility.yul\":920:952   */\n      slt\n        /* \"#utility.yul\":917:1036   */\n      iszero\n      tag_179\n      jumpi\n        /* \"#utility.yul\":955:1034   */\n      tag_180\n      tag_117\n      jump\t// in\n    tag_180:\n        /* \"#utility.yul\":917:1036   */\n    tag_179:\n        /* \"#utility.yul\":1075:1076   */\n      0x00\n        /* \"#utility.yul\":1100:1153   */\n      tag_181\n        /* \"#utility.yul\":1145:1152   */\n      dup5\n        /* \"#utility.yul\":1136:1142   */\n      dup3\n        /* \"#utility.yul\":1125:1134   */\n      dup6\n        /* \"#utility.yul\":1121:1143   */\n      add\n        /* \"#utility.yul\":1100:1153   */\n      tag_122\n      jump\t// in\n    tag_181:\n        /* \"#utility.yul\":1090:1153   */\n      swap2\n      pop\n        /* \"#utility.yul\":1046:1163   */\n      pop\n        /* \"#utility.yul\":841:1170   */\n      swap3\n      swap2\n      pop\n      pop\n      jump\t// out\n        /* \"#utility.yul\":1176:1293   */\n    tag_123:\n        /* \"#utility.yul\":1285:1286   */\n      0x00\n        /* \"#utility.yul\":1282:1283   */\n      dup1\n        /* \"#utility.yul\":1275:1287   */\n      revert\n        /* \"#utility.yul\":1299:1416   */\n    tag_124:\n        /* \"#utility.yul\":1408:1409   */\n      0x00\n        /* \"#utility.yul\":1405:1406   */\n      dup1\n        /* \"#utility.yul\":1398:1410   */\n      revert\n        /* \"#utility.yul\":1422:1539   */\n    tag_125:\n        /* \"#utility.yul\":1531:1532   */\n      0x00\n        /* \"#utility.yul\":1528:1529   */\n      dup1\n        /* \"#utility.yul\":1521:1533   */\n      revert\n        /* \"#utility.yul\":1559:2112   */\n    tag_126:\n        /* \"#utility.yul\":1617:1625   */\n      0x00\n        /* \"#utility.yul\":1627:1633   */\n      dup1\n        /* \"#utility.yul\":1677:1680   */\n      dup4\n        /* \"#utility.yul\":1670:1674   */\n      0x1f\n        /* \"#utility.yul\":1662:1668   */\n      dup5\n        /* \"#utility.yul\":1658:1675   */\n      add\n        /* \"#utility.yul\":1654:1681   */\n      slt\n        /* \"#utility.yul\":1644:1766   */\n      tag_186\n      jumpi\n        /* \"#utility.yul\":1685:1764   */\n      tag_187\n      tag_123\n      jump\t// in\n    tag_187:\n        /* \"#utility.yul\":1644:1766   */\n    tag_186:\n        /* \"#utility.yul\":1798:1804   */\n      dup3\n        /* \"#utility.yul\":1785:1805   */\n      calldataload\n        /* \"#utility.yul\":1775:1805   */\n      swap1\n      pop\n        /* \"#utility.yul\":1828:1846   */\n      0xffffffffffffffff\n        /* \"#utility.yul\":1820:1826   */\n      dup2\n        /* \"#utility.yul\":1817:1847   */\n      gt\n        /* \"#utility.yul\":1814:1931   */\n      iszero\n      tag_188\n      jumpi\n        /* \"#utility.yul\":1850:1929   */\n      tag_189\n      tag_124\n      jump\t// in\n    tag_189:\n        /* \"#utility.yul\":1814:1931   */\n    tag_188:\n        /* \"#utility.yul\":1964:1968   */\n      0x20\n        /* \"#utility.yul\":1956:1962   */\n      dup4\n        /* \"#utility.yul\":1952:1969   */\n      add\n        /* \"#utility.yul\":1940:1969   */\n      swap2\n      pop\n        /* \"#utility.yul\":2018:2021   */\n      dup4\n        /* \"#utility.yul\":2010:2014   */\n      0x01\n        /* \"#utility.yul\":2002:2008   */\n      dup3\n        /* \"#utility.yul\":1998:2015   */\n      mul\n        /* \"#utility.yul\":1988:1996   */\n      dup4\n        /* \"#utility.yul\":1984:2016   */\n      add\n        /* \"#utility.yul\":1981:2022   */\n      gt\n        /* \"#utility.yul\":1978:2106   */\n      iszero\n      tag_190\n      jumpi\n        /* \"#utility.yul\":2025:2104   */\n      tag_191\n      tag_125\n      jump\t// in\n    tag_191:\n        /* \"#utility.yul\":1978:2106   */\n    tag_190:\n        /* \"#utility.yul\":1559:2112   */\n      swap3\n      pop\n      swap3\n      swap1\n      pop\n      jump\t// out\n        /* \"#utility.yul\":2118:2195   */\n    tag_127:\n        /* \"#utility.yul\":2155:2162   */\n      0x00\n        /* \"#utility.yul\":2184:2189   */\n      dup2\n        /* \"#utility.yul\":2173:2189   */\n      swap1\n      pop\n        /* \"#utility.yul\":2118:2195   */\n      swap2\n      swap1\n      pop\n      jump\t// out\n        /* \"#utility.yul\":2201:2323   */\n    tag_128:\n        /* \"#utility.yul\":2274:2298   */\n      tag_194\n        /* \"#utility.yul\":2292:2297   */\n      dup2\n        /* \"#utility.yul\":2274:2298   */\n      tag_127\n      jump\t// in\n    tag_194:\n        /* \"#utility.yul\":2267:2272   */\n      dup2\n        /* \"#utility.yul\":2264:2299   */\n      eq\n        /* \"#utility.yul\":2254:2317   */\n      tag_195\n      jumpi\n        /* \"#utility.yul\":2313:2314   */\n      0x00\n        /* \"#utility.yul\":2310:2311   */\n      dup1\n        /* \"#utility.yul\":2303:2315   */\n      revert\n        /* \"#utility.yul\":2254:2317   */\n    tag_195:\n        /* \"#utility.yul\":2201:2323   */\n      pop\n      jump\t// out\n        /* \"#utility.yul\":2329:2468   */\n    tag_129:\n        /* \"#utility.yul\":2375:2380   */\n      0x00\n        /* \"#utility.yul\":2413:2419   */\n      dup2\n        /* \"#utility.yul\":2400:2420   */\n      calldataload\n        /* \"#utility.yul\":2391:2420   */\n      swap1\n      pop\n        /* \"#utility.yul\":2429:2462   */\n      tag_197\n        /* \"#utility.yul\":2456:2461   */\n      dup2\n        /* \"#utility.yul\":2429:2462   */\n      tag_128\n      jump\t// in\n    tag_197:\n        /* \"#utility.yul\":2329:2468   */\n      swap3\n      swap2\n      pop\n      pop\n      jump\t// out\n        /* \"#utility.yul\":2474:3493   */\n    tag_15:\n        /* \"#utility.yul\":2575:2581   */\n      0x00\n        /* \"#utility.yul\":2583:2589   */\n      dup1\n        /* \"#utility.yul\":2591:2597   */\n      0x00\n        /* \"#utility.yul\":2599:2605   */\n      dup1\n        /* \"#utility.yul\":2607:2613   */\n      0x00\n        /* \"#utility.yul\":2656:2658   */\n      0x60\n        /* \"#utility.yul\":2644:2653   */\n      dup7\n        /* \"#utility.yul\":2635:2642   */\n      dup9\n        /* \"#utility.yul\":2631:2654   */\n      sub\n        /* \"#utility.yul\":2627:2659   */\n      slt\n        /* \"#utility.yul\":2624:2743   */\n      iszero\n      tag_199\n      jumpi\n        /* \"#utility.yul\":2662:2741   */\n      tag_200\n      tag_117\n      jump\t// in\n    tag_200:\n        /* \"#utility.yul\":2624:2743   */\n    tag_199:\n        /* \"#utility.yul\":2810:2811   */\n      0x00\n        /* \"#utility.yul\":2799:2808   */\n      dup7\n        /* \"#utility.yul\":2795:2812   */\n      add\n        /* \"#utility.yul\":2782:2813   */\n      calldataload\n        /* \"#utility.yul\":2840:2858   */\n      0xffffffffffffffff\n        /* \"#utility.yul\":2832:2838   */\n      dup2\n        /* \"#utility.yul\":2829:2859   */\n      gt\n        /* \"#utility.yul\":2826:2943   */\n      iszero\n      tag_201\n      jumpi\n        /* \"#utility.yul\":2862:2941   */\n      tag_202\n      tag_118\n      jump\t// in\n    tag_202:\n        /* \"#utility.yul\":2826:2943   */\n    tag_201:\n        /* \"#utility.yul\":2975:3040   */\n      tag_203\n        /* \"#utility.yul\":3032:3039   */\n      dup9\n        /* \"#utility.yul\":3023:3029   */\n      dup3\n        /* \"#utility.yul\":3012:3021   */\n      dup10\n        /* \"#utility.yul\":3008:3030   */\n      add\n        /* \"#utility.yul\":2975:3040   */\n      tag_126\n      jump\t// in\n    tag_203:\n        /* \"#utility.yul\":2957:3040   */\n      swap6\n      pop\n      swap6\n      pop\n        /* \"#utility.yul\":2753:3050   */\n      pop\n        /* \"#utility.yul\":3117:3119   */\n      0x20\n        /* \"#utility.yul\":3106:3115   */\n      dup7\n        /* \"#utility.yul\":3102:3120   */\n      add\n        /* \"#utility.yul\":3089:3121   */\n      calldataload\n        /* \"#utility.yul\":3148:3166   */\n      0xffffffffffffffff\n        /* \"#utility.yul\":3140:3146   */\n      dup2\n        /* \"#utility.yul\":3137:3167   */\n      gt\n        /* \"#utility.yul\":3134:3251   */\n      iszero\n      tag_204\n      jumpi\n        /* \"#utility.yul\":3170:3249   */\n      tag_205\n      tag_118\n      jump\t// in\n    tag_205:\n        /* \"#utility.yul\":3134:3251   */\n    tag_204:\n        /* \"#utility.yul\":3283:3348   */\n      tag_206\n        /* \"#utility.yul\":3340:3347   */\n      dup9\n        /* \"#utility.yul\":3331:3337   */\n      dup3\n        /* \"#utility.yul\":3320:3329   */\n      dup10\n        /* \"#utility.yul\":3316:3338   */\n      add\n        /* \"#utility.yul\":3283:3348   */\n      tag_126\n      jump\t// in\n    tag_206:\n        /* \"#utility.yul\":3265:3348   */\n      swap4\n      pop\n      swap4\n      pop\n        /* \"#utility.yul\":3060:3358   */\n      pop\n        /* \"#utility.yul\":3397:3399   */\n      0x40\n        /* \"#utility.yul\":3423:3476   */\n      tag_207\n        /* \"#utility.yul\":3468:3475   */\n      dup9\n        /* \"#utility.yul\":3459:3465   */\n      dup3\n        /* \"#utility.yul\":3448:3457   */\n      dup10\n        /* \"#utility.yul\":3444:3466   */\n      add\n        /* \"#utility.yul\":3423:3476   */\n      tag_129\n      jump\t// in\n    tag_207:\n        /* \"#utility.yul\":3413:3476   */\n      swap2\n      pop\n        /* \"#utility.yul\":3368:3486   */\n      pop\n        /* \"#utility.yul\":2474:3493   */\n      swap3\n      swap6\n      pop\n      swap3\n      swap6\n      swap1\n      swap4\n      pop\n      jump\t// out\n        /* \"#utility.yul\":3499:3598   */\n    tag_130:\n        /* \"#utility.yul\":3551:3557   */\n      0x00\n        /* \"#utility.yul\":3585:3590   */\n      dup2\n        /* \"#utility.yul\":3579:3591   */\n      mload\n        /* \"#utility.yul\":3569:3591   */\n      swap1\n      pop\n        /* \"#utility.yul\":3499:3598   */\n      swap2\n      swap1\n      pop\n      jump\t// out\n        /* \"#utility.yul\":3604:3763   */\n    tag_131:\n        /* \"#utility.yul\":3678:3689   */\n      0x00\n        /* \"#utility.yul\":3712:3718   */\n      dup3\n        /* \"#utility.yul\":3707:3710   */\n      dup3\n        /* \"#utility.yul\":3700:3719   */\n      mstore\n        /* \"#utility.yul\":3752:3756   */\n      0x20\n        /* \"#utility.yul\":3747:3750   */\n      dup3\n        /* \"#utility.yul\":3743:3757   */\n      add\n        /* \"#utility.yul\":3728:3757   */\n      swap1\n      pop\n        /* \"#utility.yul\":3604:3763   */\n      swap3\n      swap2\n      pop\n      pop\n      jump\t// out\n        /* \"#utility.yul\":3769:4015   */\n    tag_132:\n        /* \"#utility.yul\":3850:3851   */\n      0x00\n        /* \"#utility.yul\":3860:3973   */\n    tag_211:\n        /* \"#utility.yul\":3874:3880   */\n      dup4\n        /* \"#utility.yul\":3871:3872   */\n      dup2\n        /* \"#utility.yul\":3868:3881   */\n      lt\n        /* \"#utility.yul\":3860:3973   */\n      iszero\n      tag_213\n      jumpi\n        /* \"#utility.yul\":3959:3960   */\n      dup1\n        /* \"#utility.yul\":3954:3957   */\n      dup3\n        /* \"#utility.yul\":3950:3961   */\n      add\n        /* \"#utility.yul\":3944:3962   */\n      mload\n        /* \"#utility.yul\":3940:3941   */\n      dup2\n        /* \"#utility.yul\":3935:3938   */\n      dup5\n        /* \"#utility.yul\":3931:3942   */\n      add\n        /* \"#utility.yul\":3924:3963   */\n      mstore\n        /* \"#utility.yul\":3896:3898   */\n      0x20\n        /* \"#utility.yul\":3893:3894   */\n      dup2\n        /* \"#utility.yul\":3889:3899   */\n      add\n        /* \"#utility.yul\":3884:3899   */\n      swap1\n      pop\n        /* \"#utility.yul\":3860:3973   */\n      jump(tag_211)\n    tag_213:\n        /* \"#utility.yul\":4007:4008   */\n      0x00\n        /* \"#utility.yul\":3998:4004   */\n      dup5\n        /* \"#utility.yul\":3993:3996   */\n      dup5\n        /* \"#utility.yul\":3989:4005   */\n      add\n        /* \"#utility.yul\":3982:4009   */\n      mstore\n        /* \"#utility.yul\":3831:4015   */\n      pop\n        /* \"#utility.yul\":3769:4015   */\n      pop\n      pop\n      pop\n      jump\t// out\n        /* \"#utility.yul\":4021:4123   */\n    tag_133:\n        /* \"#utility.yul\":4062:4068   */\n      0x00\n        /* \"#utility.yul\":4113:4115   */\n      0x1f\n        /* \"#utility.yul\":4109:4116   */\n      not\n        /* \"#utility.yul\":4104:4106   */\n      0x1f\n        /* \"#utility.yul\":4097:4102   */\n      dup4\n        /* \"#utility.yul\":4093:4107   */\n      add\n        /* \"#utility.yul\":4089:4117   */\n      and\n        /* \"#utility.yul\":4079:4117   */\n      swap1\n      pop\n        /* \"#utility.yul\":4021:4123   */\n      swap2\n      swap1\n      pop\n      jump\t// out\n        /* \"#utility.yul\":4129:4486   */\n    tag_134:\n        /* \"#utility.yul\":4207:4210   */\n      0x00\n        /* \"#utility.yul\":4235:4274   */\n      tag_216\n        /* \"#utility.yul\":4268:4273   */\n      dup3\n        /* \"#utility.yul\":4235:4274   */\n      tag_130\n      jump\t// in\n    tag_216:\n        /* \"#utility.yul\":4290:4351   */\n      tag_217\n        /* \"#utility.yul\":4344:4350   */\n      dup2\n        /* \"#utility.yul\":4339:4342   */\n      dup6\n        /* \"#utility.yul\":4290:4351   */\n      tag_131\n      jump\t// in\n    tag_217:\n        /* \"#utility.yul\":4283:4351   */\n      swap4\n      pop\n        /* \"#utility.yul\":4360:4425   */\n      tag_218\n        /* \"#utility.yul\":4418:4424   */\n      dup2\n        /* \"#utility.yul\":4413:4416   */\n      dup6\n        /* \"#utility.yul\":4406:4410   */\n      0x20\n        /* \"#utility.yul\":4399:4404   */\n      dup7\n        /* \"#utility.yul\":4395:4411   */\n      add\n        /* \"#utility.yul\":4360:4425   */\n      tag_132\n      jump\t// in\n    tag_218:\n        /* \"#utility.yul\":4450:4479   */\n      tag_219\n        /* \"#utility.yul\":4472:4478   */\n      dup2\n        /* \"#utility.yul\":4450:4479   */\n      tag_133\n      jump\t// in\n    tag_219:\n        /* \"#utility.yul\":4445:4448   */\n      dup5\n        /* \"#utility.yul\":4441:4480   */\n      add\n        /* \"#utility.yul\":4434:4480   */\n      swap2\n      pop\n        /* \"#utility.yul\":4211:4486   */\n      pop\n        /* \"#utility.yul\":4129:4486   */\n      swap3\n      swap2\n      pop\n      pop\n      jump\t// out\n        /* \"#utility.yul\":4492:4600   */\n    tag_135:\n        /* \"#utility.yul\":4569:4593   */\n      tag_221\n        /* \"#utility.yul\":4587:4592   */\n      dup2\n        /* \"#utility.yul\":4569:4593   */\n      tag_127\n      jump\t// in\n    tag_221:\n        /* \"#utility.yul\":4564:4567   */\n      dup3\n        /* \"#utility.yul\":4557:4594   */\n      mstore\n        /* \"#utility.yul\":4492:4600   */\n      pop\n      pop\n      jump\t// out\n        /* \"#utility.yul\":4606:4696   */\n    tag_136:\n        /* \"#utility.yul\":4640:4647   */\n      0x00\n        /* \"#utility.yul\":4683:4688   */\n      dup2\n        /* \"#utility.yul\":4676:4689   */\n      iszero\n        /* \"#utility.yul\":4669:4690   */\n      iszero\n        /* \"#utility.yul\":4658:4690   */\n      swap1\n      pop\n        /* \"#utility.yul\":4606:4696   */\n      swap2\n      swap1\n      pop\n      jump\t// out\n        /* \"#utility.yul\":4702:4801   */\n    tag_137:\n        /* \"#utility.yul\":4773:4794   */\n      tag_224\n        /* \"#utility.yul\":4788:4793   */\n      dup2\n        /* \"#utility.yul\":4773:4794   */\n      tag_136\n      jump\t// in\n    tag_224:\n        /* \"#utility.yul\":4768:4771   */\n      dup3\n        /* \"#utility.yul\":4761:4795   */\n      mstore\n        /* \"#utility.yul\":4702:4801   */\n      pop\n      pop\n      jump\t// out\n        /* \"#utility.yul\":4883:6632   */\n    tag_138:\n        /* \"#utility.yul\":5000:5003   */\n      0x00\n        /* \"#utility.yul\":5036:5042   */\n      0x0100\n        /* \"#utility.yul\":5031:5034   */\n      dup4\n        /* \"#utility.yul\":5027:5043   */\n      add\n        /* \"#utility.yul\":5126:5130   */\n      0x00\n        /* \"#utility.yul\":5119:5124   */\n      dup4\n        /* \"#utility.yul\":5115:5131   */\n      add\n        /* \"#utility.yul\":5109:5132   */\n      mload\n        /* \"#utility.yul\":5179:5182   */\n      dup5\n        /* \"#utility.yul\":5173:5177   */\n      dup3\n        /* \"#utility.yul\":5169:5183   */\n      sub\n        /* \"#utility.yul\":5162:5166   */\n      0x00\n        /* \"#utility.yul\":5157:5160   */\n      dup7\n        /* \"#utility.yul\":5153:5167   */\n      add\n        /* \"#utility.yul\":5146:5184   */\n      mstore\n        /* \"#utility.yul\":5205:5278   */\n      tag_226\n        /* \"#utility.yul\":5273:5277   */\n      dup3\n        /* \"#utility.yul\":5259:5271   */\n      dup3\n        /* \"#utility.yul\":5205:5278   */\n      tag_134\n      jump\t// in\n    tag_226:\n        /* \"#utility.yul\":5197:5278   */\n      swap2\n      pop\n        /* \"#utility.yul\":5053:5289   */\n      pop\n        /* \"#utility.yul\":5378:5382   */\n      0x20\n        /* \"#utility.yul\":5371:5376   */\n      dup4\n        /* \"#utility.yul\":5367:5383   */\n      add\n        /* \"#utility.yul\":5361:5384   */\n      mload\n        /* \"#utility.yul\":5431:5434   */\n      dup5\n        /* \"#utility.yul\":5425:5429   */\n      dup3\n        /* \"#utility.yul\":5421:5435   */\n      sub\n        /* \"#utility.yul\":5414:5418   */\n      0x20\n        /* \"#utility.yul\":5409:5412   */\n      dup7\n        /* \"#utility.yul\":5405:5419   */\n      add\n        /* \"#utility.yul\":5398:5436   */\n      mstore\n        /* \"#utility.yul\":5457:5530   */\n      tag_227\n        /* \"#utility.yul\":5525:5529   */\n      dup3\n        /* \"#utility.yul\":5511:5523   */\n      dup3\n        /* \"#utility.yul\":5457:5530   */\n      tag_134\n      jump\t// in\n    tag_227:\n        /* \"#utility.yul\":5449:5530   */\n      swap2\n      pop\n        /* \"#utility.yul\":5299:5541   */\n      pop\n        /* \"#utility.yul\":5626:5630   */\n      0x40\n        /* \"#utility.yul\":5619:5624   */\n      dup4\n        /* \"#utility.yul\":5615:5631   */\n      add\n        /* \"#utility.yul\":5609:5632   */\n      mload\n        /* \"#utility.yul\":5645:5708   */\n      tag_228\n        /* \"#utility.yul\":5702:5706   */\n      0x40\n        /* \"#utility.yul\":5697:5700   */\n      dup7\n        /* \"#utility.yul\":5693:5707   */\n      add\n        /* \"#utility.yul\":5679:5691   */\n      dup3\n        /* \"#utility.yul\":5645:5708   */\n      tag_135\n      jump\t// in\n    tag_228:\n        /* \"#utility.yul\":5551:5718   */\n      pop\n        /* \"#utility.yul\":5802:5806   */\n      0x60\n        /* \"#utility.yul\":5795:5800   */\n      dup4\n        /* \"#utility.yul\":5791:5807   */\n      add\n        /* \"#utility.yul\":5785:5808   */\n      mload\n        /* \"#utility.yul\":5821:5884   */\n      tag_229\n        /* \"#utility.yul\":5878:5882   */\n      0x60\n        /* \"#utility.yul\":5873:5876   */\n      dup7\n        /* \"#utility.yul\":5869:5883   */\n      add\n        /* \"#utility.yul\":5855:5867   */\n      dup3\n        /* \"#utility.yul\":5821:5884   */\n      tag_135\n      jump\t// in\n    tag_229:\n        /* \"#utility.yul\":5728:5894   */\n      pop\n        /* \"#utility.yul\":5976:5980   */\n      0x80\n        /* \"#utility.yul\":5969:5974   */\n      dup4\n        /* \"#utility.yul\":5965:5981   */\n      add\n        /* \"#utility.yul\":5959:5982   */\n      mload\n        /* \"#utility.yul\":5995:6058   */\n      tag_230\n        /* \"#utility.yul\":6052:6056   */\n      0x80\n        /* \"#utility.yul\":6047:6050   */\n      dup7\n        /* \"#utility.yul\":6043:6057   */\n      add\n        /* \"#utility.yul\":6029:6041   */\n      dup3\n        /* \"#utility.yul\":5995:6058   */\n      tag_135\n      jump\t// in\n    tag_230:\n        /* \"#utility.yul\":5904:6068   */\n      pop\n        /* \"#utility.yul\":6163:6167   */\n      0xa0\n        /* \"#utility.yul\":6156:6161   */\n      dup4\n        /* \"#utility.yul\":6152:6168   */\n      add\n        /* \"#utility.yul\":6146:6169   */\n      mload\n        /* \"#utility.yul\":6182:6245   */\n      tag_231\n        /* \"#utility.yul\":6239:6243   */\n      0xa0\n        /* \"#utility.yul\":6234:6237   */\n      dup7\n        /* \"#utility.yul\":6230:6244   */\n      add\n        /* \"#utility.yul\":6216:6228   */\n      dup3\n        /* \"#utility.yul\":6182:6245   */\n      tag_135\n      jump\t// in\n    tag_231:\n        /* \"#utility.yul\":6078:6255   */\n      pop\n        /* \"#utility.yul\":6346:6350   */\n      0xc0\n        /* \"#utility.yul\":6339:6344   */\n      dup4\n        /* \"#utility.yul\":6335:6351   */\n      add\n        /* \"#utility.yul\":6329:6352   */\n      mload\n        /* \"#utility.yul\":6365:6422   */\n      tag_232\n        /* \"#utility.yul\":6416:6420   */\n      0xc0\n        /* \"#utility.yul\":6411:6414   */\n      dup7\n        /* \"#utility.yul\":6407:6421   */\n      add\n        /* \"#utility.yul\":6393:6405   */\n      dup3\n        /* \"#utility.yul\":6365:6422   */\n      tag_137\n      jump\t// in\n    tag_232:\n        /* \"#utility.yul\":6265:6432   */\n      pop\n        /* \"#utility.yul\":6519:6523   */\n      0xe0\n        /* \"#utility.yul\":6512:6517   */\n      dup4\n        /* \"#utility.yul\":6508:6524   */\n      add\n        /* \"#utility.yul\":6502:6525   */\n      mload\n        /* \"#utility.yul\":6538:6595   */\n      tag_233\n        /* \"#utility.yul\":6589:6593   */\n      0xe0\n        /* \"#utility.yul\":6584:6587   */\n      dup7\n        /* \"#utility.yul\":6580:6594   */\n      add\n        /* \"#utility.yul\":6566:6578   */\n      dup3\n        /* \"#utility.yul\":6538:6595   */\n      tag_137\n      jump\t// in\n    tag_233:\n        /* \"#utility.yul\":6442:6605   */\n      pop\n        /* \"#utility.yul\":6622:6626   */\n      dup1\n        /* \"#utility.yul\":6615:6626   */\n      swap2\n      pop\n        /* \"#utility.yul\":5005:6632   */\n      pop\n        /* \"#utility.yul\":4883:6632   */\n      swap3\n      swap2\n      pop\n      pop\n      jump\t// out\n        /* \"#utility.yul\":6638:7007   */\n    tag_20:\n        /* \"#utility.yul\":6779:6783   */\n      0x00\n        /* \"#utility.yul\":6817:6819   */\n      0x20\n        /* \"#utility.yul\":6806:6815   */\n      dup3\n        /* \"#utility.yul\":6802:6820   */\n      add\n        /* \"#utility.yul\":6794:6820   */\n      swap1\n      pop\n        /* \"#utility.yul\":6866:6875   */\n      dup2\n        /* \"#utility.yul\":6860:6864   */\n      dup2\n        /* \"#utility.yul\":6856:6876   */\n      sub\n        /* \"#utility.yul\":6852:6853   */\n      0x00\n        /* \"#utility.yul\":6841:6850   */\n      dup4\n        /* \"#utility.yul\":6837:6854   */\n      add\n        /* \"#utility.yul\":6830:6877   */\n      mstore\n        /* \"#utility.yul\":6894:7000   */\n      tag_235\n        /* \"#utility.yul\":6995:6999   */\n      dup2\n        /* \"#utility.yul\":6986:6992   */\n      dup5\n        /* \"#utility.yul\":6894:7000   */\n      tag_138\n      jump\t// in\n    tag_235:\n        /* \"#utility.yul\":6886:7000   */\n      swap1\n      pop\n        /* \"#utility.yul\":6638:7007   */\n      swap3\n      swap2\n      pop\n      pop\n      jump\t// out\n        /* \"#utility.yul\":7013:7099   */\n    tag_139:\n        /* \"#utility.yul\":7048:7055   */\n      0x00\n        /* \"#utility.yul\":7088:7092   */\n      0xff\n        /* \"#utility.yul\":7081:7086   */\n      dup3\n        /* \"#utility.yul\":7077:7093   */\n      and\n        /* \"#utility.yul\":7066:7093   */\n      swap1\n      pop\n        /* \"#utility.yul\":7013:7099   */\n      swap2\n      swap1\n      pop\n      jump\t// out\n        /* \"#utility.yul\":7105:7223   */\n    tag_140:\n        /* \"#utility.yul\":7176:7198   */\n      tag_238\n        /* \"#utility.yul\":7192:7197   */\n      dup2\n        /* \"#utility.yul\":7176:7198   */\n      tag_139\n      jump\t// in\n    tag_238:\n        /* \"#utility.yul\":7169:7174   */\n      dup2\n        /* \"#utility.yul\":7166:7199   */\n      eq\n        /* \"#utility.yul\":7156:7217   */\n      tag_239\n      jumpi\n        /* \"#utility.yul\":7213:7214   */\n      0x00\n        /* \"#utility.yul\":7210:7211   */\n      dup1\n        /* \"#utility.yul\":7203:7215   */\n      revert\n        /* \"#utility.yul\":7156:7217   */\n    tag_239:\n        /* \"#utility.yul\":7105:7223   */\n      pop\n      jump\t// out\n        /* \"#utility.yul\":7229:7364   */\n    tag_141:\n        /* \"#utility.yul\":7273:7278   */\n      0x00\n        /* \"#utility.yul\":7311:7317   */\n      dup2\n        /* \"#utility.yul\":7298:7318   */\n      calldataload\n        /* \"#utility.yul\":7289:7318   */\n      swap1\n      pop\n        /* \"#utility.yul\":7327:7358   */\n      tag_241\n        /* \"#utility.yul\":7352:7357   */\n      dup2\n        /* \"#utility.yul\":7327:7358   */\n      tag_140\n      jump\t// in\n    tag_241:\n        /* \"#utility.yul\":7229:7364   */\n      swap3\n      swap2\n      pop\n      pop\n      jump\t// out\n        /* \"#utility.yul\":7370:7695   */\n    tag_25:\n        /* \"#utility.yul\":7427:7433   */\n      0x00\n        /* \"#utility.yul\":7476:7478   */\n      0x20\n        /* \"#utility.yul\":7464:7473   */\n      dup3\n        /* \"#utility.yul\":7455:7462   */\n      dup5\n        /* \"#utility.yul\":7451:7474   */\n      sub\n        /* \"#utility.yul\":7447:7479   */\n      slt\n        /* \"#utility.yul\":7444:7563   */\n      iszero\n      tag_243\n      jumpi\n        /* \"#utility.yul\":7482:7561   */\n      tag_244\n      tag_117\n      jump\t// in\n    tag_244:\n        /* \"#utility.yul\":7444:7563   */\n    tag_243:\n        /* \"#utility.yul\":7602:7603   */\n      0x00\n        /* \"#utility.yul\":7627:7678   */\n      tag_245\n        /* \"#utility.yul\":7670:7677   */\n      dup5\n        /* \"#utility.yul\":7661:7667   */\n      dup3\n        /* \"#utility.yul\":7650:7659   */\n      dup6\n        /* \"#utility.yul\":7646:7668   */\n      add\n        /* \"#utility.yul\":7627:7678   */\n      tag_141\n      jump\t// in\n    tag_245:\n        /* \"#utility.yul\":7617:7678   */\n      swap2\n      pop\n        /* \"#utility.yul\":7573:7688   */\n      pop\n        /* \"#utility.yul\":7370:7695   */\n      swap3\n      swap2\n      pop\n      pop\n      jump\t// out\n        /* \"#utility.yul\":7701:8030   */\n    tag_29:\n        /* \"#utility.yul\":7760:7766   */\n      0x00\n        /* \"#utility.yul\":7809:7811   */\n      0x20\n        /* \"#utility.yul\":7797:7806   */\n      dup3\n        /* \"#utility.yul\":7788:7795   */\n      dup5\n        /* \"#utility.yul\":7784:7807   */\n      sub\n        /* \"#utility.yul\":7780:7812   */\n      slt\n        /* \"#utility.yul\":7777:7896   */\n      iszero\n      tag_247\n      jumpi\n        /* \"#utility.yul\":7815:7894   */\n      tag_248\n      tag_117\n      jump\t// in\n    tag_248:\n        /* \"#utility.yul\":7777:7896   */\n    tag_247:\n        /* \"#utility.yul\":7935:7936   */\n      0x00\n        /* \"#utility.yul\":7960:8013   */\n      tag_249\n        /* \"#utility.yul\":8005:8012   */\n      dup5\n        /* \"#utility.yul\":7996:8002   */\n      dup3\n        /* \"#utility.yul\":7985:7994   */\n      dup6\n        /* \"#utility.yul\":7981:8003   */\n      add\n        /* \"#utility.yul\":7960:8013   */\n      tag_129\n      jump\t// in\n    tag_249:\n        /* \"#utility.yul\":7950:8013   */\n      swap2\n      pop\n        /* \"#utility.yul\":7906:8023   */\n      pop\n        /* \"#utility.yul\":7701:8030   */\n      swap3\n      swap2\n      pop\n      pop\n      jump\t// out\n        /* \"#utility.yul\":8036:8216   */\n    tag_142:\n        /* \"#utility.yul\":8084:8161   */\n      0x4e487b7100000000000000000000000000000000000000000000000000000000\n        /* \"#utility.yul\":8081:8082   */\n      0x00\n        /* \"#utility.yul\":8074:8162   */\n      mstore\n        /* \"#utility.yul\":8181:8185   */\n      0x11\n        /* \"#utility.yul\":8178:8179   */\n      0x04\n        /* \"#utility.yul\":8171:8186   */\n      mstore\n        /* \"#utility.yul\":8205:8209   */\n      0x24\n        /* \"#utility.yul\":8202:8203   */\n      0x00\n        /* \"#utility.yul\":8195:8210   */\n      revert\n        /* \"#utility.yul\":8222:8413   */\n    tag_39:\n        /* \"#utility.yul\":8262:8265   */\n      0x00\n        /* \"#utility.yul\":8281:8301   */\n      tag_252\n        /* \"#utility.yul\":8299:8300   */\n      dup3\n        /* \"#utility.yul\":8281:8301   */\n      tag_127\n      jump\t// in\n    tag_252:\n        /* \"#utility.yul\":8276:8301   */\n      swap2\n      pop\n        /* \"#utility.yul\":8315:8335   */\n      tag_253\n        /* \"#utility.yul\":8333:8334   */\n      dup4\n        /* \"#utility.yul\":8315:8335   */\n      tag_127\n      jump\t// in\n    tag_253:\n        /* \"#utility.yul\":8310:8335   */\n      swap3\n      pop\n        /* \"#utility.yul\":8358:8359   */\n      dup3\n        /* \"#utility.yul\":8355:8356   */\n      dup3\n        /* \"#utility.yul\":8351:8360   */\n      add\n        /* \"#utility.yul\":8344:8360   */\n      swap1\n      pop\n        /* \"#utility.yul\":8379:8382   */\n      dup1\n        /* \"#utility.yul\":8376:8377   */\n      dup3\n        /* \"#utility.yul\":8373:8383   */\n      gt\n        /* \"#utility.yul\":8370:8406   */\n      iszero\n      tag_254\n      jumpi\n        /* \"#utility.yul\":8386:8404   */\n      tag_255\n      tag_142\n      jump\t// in\n    tag_255:\n        /* \"#utility.yul\":8370:8406   */\n    tag_254:\n        /* \"#utility.yul\":8222:8413   */\n      swap3\n      swap2\n      pop\n      pop\n      jump\t// out\n        /* \"#utility.yul\":8419:8599   */\n    tag_143:\n        /* \"#utility.yul\":8467:8544   */\n      0x4e487b7100000000000000000000000000000000000000000000000000000000\n        /* \"#utility.yul\":8464:8465   */\n      0x00\n        /* \"#utility.yul\":8457:8545   */\n      mstore\n        /* \"#utility.yul\":8564:8568   */\n      0x41\n        /* \"#utility.yul\":8561:8562   */\n      0x04\n        /* \"#utility.yul\":8554:8569   */\n      mstore\n        /* \"#utility.yul\":8588:8592   */\n      0x24\n        /* \"#utility.yul\":8585:8586   */\n      0x00\n        /* \"#utility.yul\":8578:8593   */\n      revert\n        /* \"#utility.yul\":8605:8785   */\n    tag_144:\n        /* \"#utility.yul\":8653:8730   */\n      0x4e487b7100000000000000000000000000000000000000000000000000000000\n        /* \"#utility.yul\":8650:8651   */\n      0x00\n        /* \"#utility.yul\":8643:8731   */\n      mstore\n        /* \"#utility.yul\":8750:8754   */\n      0x22\n        /* \"#utility.yul\":8747:8748   */\n      0x04\n        /* \"#utility.yul\":8740:8755   */\n      mstore\n        /* \"#utility.yul\":8774:8778   */\n      0x24\n        /* \"#utility.yul\":8771:8772   */\n      0x00\n        /* \"#utility.yul\":8764:8779   */\n      revert\n        /* \"#utility.yul\":8791:9111   */\n    tag_47:\n        /* \"#utility.yul\":8835:8841   */\n      0x00\n        /* \"#utility.yul\":8872:8873   */\n      0x02\n        /* \"#utility.yul\":8866:8870   */\n      dup3\n        /* \"#utility.yul\":8862:8874   */\n      div\n        /* \"#utility.yul\":8852:8874   */\n      swap1\n      pop\n        /* \"#utility.yul\":8919:8920   */\n      0x01\n        /* \"#utility.yul\":8913:8917   */\n      dup3\n        /* \"#utility.yul\":8909:8921   */\n      and\n        /* \"#utility.yul\":8940:8958   */\n      dup1\n        /* \"#utility.yul\":8930:9011   */\n      tag_259\n      jumpi\n        /* \"#utility.yul\":8996:9000   */\n      0x7f\n        /* \"#utility.yul\":8988:8994   */\n      dup3\n        /* \"#utility.yul\":8984:9001   */\n      and\n        /* \"#utility.yul\":8974:9001   */\n      swap2\n      pop\n        /* \"#utility.yul\":8930:9011   */\n    tag_259:\n        /* \"#utility.yul\":9058:9060   */\n      0x20\n        /* \"#utility.yul\":9050:9056   */\n      dup3\n        /* \"#utility.yul\":9047:9061   */\n      lt\n        /* \"#utility.yul\":9027:9045   */\n      dup2\n        /* \"#utility.yul\":9024:9062   */\n      sub\n        /* \"#utility.yul\":9021:9105   */\n      tag_260\n      jumpi\n        /* \"#utility.yul\":9077:9095   */\n      tag_261\n      tag_144\n      jump\t// in\n    tag_261:\n        /* \"#utility.yul\":9021:9105   */\n    tag_260:\n        /* \"#utility.yul\":8842:9111   */\n      pop\n        /* \"#utility.yul\":8791:9111   */\n      swap2\n      swap1\n      pop\n      jump\t// out\n        /* \"#utility.yul\":9117:9258   */\n    tag_145:\n        /* \"#utility.yul\":9166:9170   */\n      0x00\n        /* \"#utility.yul\":9189:9192   */\n      dup2\n        /* \"#utility.yul\":9181:9192   */\n      swap1\n      pop\n        /* \"#utility.yul\":9212:9215   */\n      dup2\n        /* \"#utility.yul\":9209:9210   */\n      0x00\n        /* \"#utility.yul\":9202:9216   */\n      mstore\n        /* \"#utility.yul\":9246:9250   */\n      0x20\n        /* \"#utility.yul\":9243:9244   */\n      0x00\n        /* \"#utility.yul\":9233:9251   */\n      keccak256\n        /* \"#utility.yul\":9225:9251   */\n      swap1\n      pop\n        /* \"#utility.yul\":9117:9258   */\n      swap2\n      swap1\n      pop\n      jump\t// out\n        /* \"#utility.yul\":9264:9357   */\n    tag_146:\n        /* \"#utility.yul\":9301:9307   */\n      0x00\n        /* \"#utility.yul\":9348:9350   */\n      0x20\n        /* \"#utility.yul\":9343:9345   */\n      0x1f\n        /* \"#utility.yul\":9336:9341   */\n      dup4\n        /* \"#utility.yul\":9332:9346   */\n      add\n        /* \"#utility.yul\":9328:9351   */\n      div\n        /* \"#utility.yul\":9318:9351   */\n      swap1\n      pop\n        /* \"#utility.yul\":9264:9357   */\n      swap2\n      swap1\n      pop\n      jump\t// out\n        /* \"#utility.yul\":9363:9470   */\n    tag_147:\n        /* \"#utility.yul\":9407:9415   */\n      0x00\n        /* \"#utility.yul\":9457:9462   */\n      dup3\n        /* \"#utility.yul\":9451:9455   */\n      dup3\n        /* \"#utility.yul\":9447:9463   */\n      shl\n        /* \"#utility.yul\":9426:9463   */\n      swap1\n      pop\n        /* \"#utility.yul\":9363:9470   */\n      swap3\n      swap2\n      pop\n      pop\n      jump\t// out\n        /* \"#utility.yul\":9476:9869   */\n    tag_148:\n        /* \"#utility.yul\":9545:9551   */\n      0x00\n        /* \"#utility.yul\":9595:9596   */\n      0x08\n        /* \"#utility.yul\":9583:9593   */\n      dup4\n        /* \"#utility.yul\":9579:9597   */\n      mul\n        /* \"#utility.yul\":9618:9715   */\n      tag_266\n        /* \"#utility.yul\":9648:9714   */\n      0xffffffffffffffffffffffffffffffffffffffffffffffffffffffffffffffff\n        /* \"#utility.yul\":9637:9646   */\n      dup3\n        /* \"#utility.yul\":9618:9715   */\n      tag_147\n      jump\t// in\n    tag_266:\n        /* \"#utility.yul\":9736:9775   */\n      tag_267\n        /* \"#utility.yul\":9766:9774   */\n      dup7\n        /* \"#utility.yul\":9755:9764   */\n      dup4\n        /* \"#utility.yul\":9736:9775   */\n      tag_147\n      jump\t// in\n    tag_267:\n        /* \"#utility.yul\":9724:9775   */\n      swap6\n      pop\n        /* \"#utility.yul\":9808:9812   */\n      dup1\n        /* \"#utility.yul\":9804:9813   */\n      not\n        /* \"#utility.yul\":9797:9802   */\n      dup5\n        /* \"#utility.yul\":9793:9814   */\n      and\n        /* \"#utility.yul\":9784:9814   */\n      swap4\n      pop\n        /* \"#utility.yul\":9857:9861   */\n      dup1\n        /* \"#utility.yul\":9847:9855   */\n      dup7\n        /* \"#utility.yul\":9843:9862   */\n      and\n        /* \"#utility.yul\":9836:9841   */\n      dup5\n        /* \"#utility.yul\":9833:9863   */\n      or\n        /* \"#utility.yul\":9823:9863   */\n      swap3\n      pop\n        /* \"#utility.yul\":9552:9869   */\n      pop\n      pop\n        /* \"#utility.yul\":9476:9869   */\n      swap4\n      swap3\n      pop\n      pop\n      pop\n      jump\t// out\n        /* \"#utility.yul\":9875:9935   */\n    tag_149:\n        /* \"#utility.yul\":9903:9906   */\n      0x00\n        /* \"#utility.yul\":9924:9929   */\n      dup2\n        /* \"#utility.yul\":9917:9929   */\n      swap1\n      pop\n        /* \"#utility.yul\":9875:9935   */\n      swap2\n      swap1\n      pop\n      jump\t// out\n        /* \"#utility.yul\":9941:10083   */\n    tag_150:\n        /* \"#utility.yul\":9991:10000   */\n      0x00\n        /* \"#utility.yul\":10024:10077   */\n      tag_270\n        /* \"#utility.yul\":10042:10076   */\n      tag_271\n        /* \"#utility.yul\":10051:10075   */\n      tag_272\n        /* \"#utility.yul\":10069:10074   */\n      dup5\n        /* \"#utility.yul\":10051:10075   */\n      tag_127\n      jump\t// in\n    tag_272:\n        /* \"#utility.yul\":10042:10076   */\n      tag_149\n      jump\t// in\n    tag_271:\n        /* \"#utility.yul\":10024:10077   */\n      tag_127\n      jump\t// in\n    tag_270:\n        /* \"#utility.yul\":10011:10077   */\n      swap1\n      pop\n        /* \"#utility.yul\":9941:10083   */\n      swap2\n      swap1\n      pop\n      jump\t// out\n        /* \"#utility.yul\":10089:10164   */\n    tag_151:\n        /* \"#utility.yul\":10132:10135   */\n      0x00\n        /* \"#utility.yul\":10153:10158   */\n      dup2\n        /* \"#utility.yul\":10146:10158   */\n      swap1\n      pop\n        /* \"#utility.yul\":10089:10164   */\n      swap2\n      swap1\n      pop\n      jump\t// out\n        /* \"#utility.yul\":10170:10439   */\n    tag_152:\n        /* \"#utility.yul\":10280:10319   */\n      tag_275\n        /* \"#utility.yul\":10311:10318   */\n      dup4\n        /* \"#utility.yul\":10280:10319   */\n      tag_150\n      jump\t// in\n    tag_275:\n        /* \"#utility.yul\":10341:10432   */\n      tag_276\n        /* \"#utility.yul\":10390:10431   */\n      tag_277\n        /* \"#utility.yul\":10414:10430   */\n      dup3\n        /* \"#utility.yul\":10390:10431   */\n      tag_151\n      jump\t// in\n    tag_277:\n        /* \"#utility.yul\":10382:10388   */\n      dup5\n        /* \"#utility.yul\":10375:10379   */\n      dup5\n        /* \"#utility.yul\":10369:10380   */\n      sload\n        /* \"#utility.yul\":10341:10432   */\n      tag_148\n      jump\t// in\n    tag_276:\n        /* \"#utility.yul\":10335:10339   */\n      dup3\n        /* \"#utility.yul\":10328:10433   */\n      sstore\n        /* \"#utility.yul\":10246:10439   */\n      pop\n        /* \"#utility.yul\":10170:10439   */\n      pop\n      pop\n      pop\n      jump\t// out\n        /* \"#utility.yul\":10445:10518   */\n    tag_153:\n        /* \"#utility.yul\":10490:10493   */\n      0x00\n        /* \"#utility.yul\":10445:10518   */\n      swap1\n      jump\t// out\n        /* \"#utility.yul\":10524:10713   */\n    tag_154:\n        /* \"#utility.yul\":10601:10633   */\n      tag_280\n      tag_153\n      jump\t// in\n    tag_280:\n        /* \"#utility.yul\":10642:10707   */\n      tag_281\n        /* \"#utility.yul\":10700:10706   */\n      dup2\n        /* \"#utility.yul\":10692:10698   */\n      dup5\n        /* \"#utility.yul\":10686:10690   */\n      dup5\n        /* \"#utility.yul\":10642:10707   */\n      tag_152\n      jump\t// in\n    tag_281:\n        /* \"#utility.yul\":10577:10713   */\n      pop\n        /* \"#utility.yul\":10524:10713   */\n      pop\n      pop\n      jump\t// out\n        /* \"#utility.yul\":10719:10905   */\n    tag_155:\n        /* \"#utility.yul\":10779:10899   */\n    tag_283:\n        /* \"#utility.yul\":10796:10799   */\n      dup2\n        /* \"#utility.yul\":10789:10794   */\n      dup2\n        /* \"#utility.yul\":10786:10800   */\n      lt\n        /* \"#utility.yul\":10779:10899   */\n      iszero\n      tag_285\n      jumpi\n        /* \"#utility.yul\":10850:10889   */\n      tag_286\n        /* \"#utility.yul\":10887:10888   */\n      0x00\n        /* \"#utility.yul\":10880:10885   */\n      dup3\n        /* \"#utility.yul\":10850:10889   */\n      tag_154\n      jump\t// in\n    tag_286:\n        /* \"#utility.yul\":10823:10824   */\n      0x01\n        /* \"#utility.yul\":10816:10821   */\n      dup2\n        /* \"#utility.yul\":10812:10825   */\n      add\n        /* \"#utility.yul\":10803:10825   */\n      swap1\n      pop\n        /* \"#utility.yul\":10779:10899   */\n      jump(tag_283)\n    tag_285:\n        /* \"#utility.yul\":10719:10905   */\n      pop\n      pop\n      jump\t// out\n        /* \"#utility.yul\":10911:11454   */\n    tag_156:\n        /* \"#utility.yul\":11012:11014   */\n      0x1f\n        /* \"#utility.yul\":11007:11010   */\n      dup3\n        /* \"#utility.yul\":11004:11015   */\n      gt\n        /* \"#utility.yul\":11001:11447   */\n      iszero\n      tag_288\n      jumpi\n        /* \"#utility.yul\":11046:11084   */\n      tag_289\n        /* \"#utility.yul\":11078:11083   */\n      dup2\n        /* \"#utility.yul\":11046:11084   */\n      tag_145\n      jump\t// in\n    tag_289:\n        /* \"#utility.yul\":11130:11159   */\n      tag_290\n        /* \"#utility.yul\":11148:11158   */\n      dup5\n        /* \"#utility.yul\":11130:11159   */\n      tag_146\n      jump\t// in\n    tag_290:\n        /* \"#utility.yul\":11120:11128   */\n      dup2\n        /* \"#utility.yul\":11116:11160   */\n      add\n        /* \"#utility.yul\":11313:11315   */\n      0x20\n        /* \"#utility.yul\":11301:11311   */\n      dup6\n        /* \"#utility.yul\":11298:11316   */\n      lt\n        /* \"#utility.yul\":11295:11344   */\n      iszero\n      tag_291\n      jumpi\n        /* \"#utility.yul\":11334:11342   */\n      dup2\n        /* \"#utility.yul\":11319:11342   */\n      swap1\n      pop\n        /* \"#utility.yul\":11295:11344   */\n    tag_291:\n        /* \"#utility.yul\":11357:11437   */\n      tag_292\n        /* \"#utility.yul\":11413:11435   */\n      tag_293\n        /* \"#utility.yul\":11431:11434   */\n      dup6\n        /* \"#utility.yul\":11413:11435   */\n      tag_146\n      jump\t// in\n    tag_293:\n        /* \"#utility.yul\":11403:11411   */\n      dup4\n        /* \"#utility.yul\":11399:11436   */\n      add\n        /* \"#utility.yul\":11386:11397   */\n      dup3\n        /* \"#utility.yul\":11357:11437   */\n      tag_155\n      jump\t// in\n    tag_292:\n        /* \"#utility.yul\":11016:11447   */\n      pop\n      pop\n        /* \"#utility.yul\":11001:11447   */\n    tag_288:\n        /* \"#utility.yul\":10911:11454   */\n      pop\n      pop\n      pop\n      jump\t// out\n        /* \"#utility.yul\":11460:11577   */\n    tag_157:\n        /* \"#utility.yul\":11514:11522   */\n      0x00\n        /* \"#utility.yul\":11564:11569   */\n      dup3\n        /* \"#utility.yul\":11558:11562   */\n      dup3\n        /* \"#utility.yul\":11554:11570   */\n      shr\n        /* \"#utility.yul\":11533:11570   */\n      swap1\n      pop\n        /* \"#utility.yul\":11460:11577   */\n      swap3\n      swap2\n      pop\n      pop\n      jump\t// out\n        /* \"#utility.yul\":11583:11752   */\n    tag_158:\n        /* \"#utility.yul\":11627:11633   */\n      0x00\n        /* \"#utility.yul\":11660:11711   */\n      tag_296\n        /* \"#utility.yul\":11708:11709   */\n      0x00\n        /* \"#utility.yul\":11704:11710   */\n      not\n        /* \"#utility.yul\":11696:11701   */\n      dup5\n        /* \"#utility.yul\":11693:11694   */\n      0x08\n        /* \"#utility.yul\":11689:11702   */\n      mul\n        /* \"#utility.yul\":11660:11711   */\n      tag_157\n      jump\t// in\n    tag_296:\n        /* \"#utility.yul\":11656:11712   */\n      not\n        /* \"#utility.yul\":11741:11745   */\n      dup1\n        /* \"#utility.yul\":11735:11739   */\n      dup4\n        /* \"#utility.yul\":11731:11746   */\n      and\n        /* \"#utility.yul\":11721:11746   */\n      swap2\n      pop\n        /* \"#utility.yul\":11634:11752   */\n      pop\n        /* \"#utility.yul\":11583:11752   */\n      swap3\n      swap2\n      pop\n      pop\n      jump\t// out\n        /* \"#utility.yul\":11757:12052   */\n    tag_159:\n        /* \"#utility.yul\":11833:11837   */\n      0x00\n        /* \"#utility.yul\":11979:12008   */\n      tag_298\n        /* \"#utility.yul\":12004:12007   */\n      dup4\n        /* \"#utility.yul\":11998:12002   */\n      dup4\n        /* \"#utility.yul\":11979:12008   */\n      tag_158\n      jump\t// in\n    tag_298:\n        /* \"#utility.yul\":11971:12008   */\n      swap2\n      pop\n        /* \"#utility.yul\":12041:12044   */\n      dup3\n        /* \"#utility.yul\":12038:12039   */\n      0x02\n        /* \"#utility.yul\":12034:12045   */\n      mul\n        /* \"#utility.yul\":12028:12032   */\n      dup3\n        /* \"#utility.yul\":12025:12046   */\n      or\n        /* \"#utility.yul\":12017:12046   */\n      swap1\n      pop\n        /* \"#utility.yul\":11757:12052   */\n      swap3\n      swap2\n      pop\n      pop\n      jump\t// out\n        /* \"#utility.yul\":12057:13452   */\n    tag_41:\n        /* \"#utility.yul\":12174:12211   */\n      tag_300\n        /* \"#utility.yul\":12207:12210   */\n      dup3\n        /* \"#utility.yul\":12174:12211   */\n      tag_130\n      jump\t// in\n    tag_300:\n        /* \"#utility.yul\":12276:12294   */\n      0xffffffffffffffff\n        /* \"#utility.yul\":12268:12274   */\n      dup2\n        /* \"#utility.yul\":12265:12295   */\n      gt\n        /* \"#utility.yul\":12262:12318   */\n      iszero\n      tag_301\n      jumpi\n        /* \"#utility.yul\":12298:12316   */\n      tag_302\n      tag_143\n      jump\t// in\n    tag_302:\n        /* \"#utility.yul\":12262:12318   */\n    tag_301:\n        /* \"#utility.yul\":12342:12380   */\n      tag_303\n        /* \"#utility.yul\":12374:12378   */\n      dup3\n        /* \"#utility.yul\":12368:12379   */\n      sload\n        /* \"#utility.yul\":12342:12380   */\n      tag_47\n      jump\t// in\n    tag_303:\n        /* \"#utility.yul\":12427:12494   */\n      tag_304\n        /* \"#utility.yul\":12487:12493   */\n      dup3\n        /* \"#utility.yul\":12479:12485   */\n      dup3\n        /* \"#utility.yul\":12473:12477   */\n      dup6\n        /* \"#utility.yul\":12427:12494   */\n      tag_156\n      jump\t// in\n    tag_304:\n        /* \"#utility.yul\":12521:12522   */\n      0x00\n        /* \"#utility.yul\":12545:12549   */\n      0x20\n        /* \"#utility.yul\":12532:12549   */\n      swap1\n      pop\n        /* \"#utility.yul\":12577:12579   */\n      0x1f\n        /* \"#utility.yul\":12569:12575   */\n      dup4\n        /* \"#utility.yul\":12566:12580   */\n      gt\n        /* \"#utility.yul\":12594:12595   */\n      0x01\n        /* \"#utility.yul\":12589:13207   */\n      dup2\n      eq\n      tag_306\n      jumpi\n        /* \"#utility.yul\":13251:13252   */\n      0x00\n        /* \"#utility.yul\":13268:13274   */\n      dup5\n        /* \"#utility.yul\":13265:13342   */\n      iszero\n      tag_307\n      jumpi\n        /* \"#utility.yul\":13317:13326   */\n      dup3\n        /* \"#utility.yul\":13312:13315   */\n      dup8\n        /* \"#utility.yul\":13308:13327   */\n      add\n        /* \"#utility.yul\":13302:13328   */\n      mload\n        /* \"#utility.yul\":13293:13328   */\n      swap1\n      pop\n        /* \"#utility.yul\":13265:13342   */\n    tag_307:\n        /* \"#utility.yul\":13368:13435   */\n      tag_308\n        /* \"#utility.yul\":13428:13434   */\n      dup6\n        /* \"#utility.yul\":13421:13426   */\n      dup3\n        /* \"#utility.yul\":13368:13435   */\n      tag_159\n      jump\t// in\n    tag_308:\n        /* \"#utility.yul\":13362:13366   */\n      dup7\n        /* \"#utility.yul\":13355:13436   */\n      sstore\n        /* \"#utility.yul\":13224:13446   */\n      pop\n        /* \"#utility.yul\":12559:13446   */\n      jump(tag_305)\n        /* \"#utility.yul\":12589:13207   */\n    tag_306:\n        /* \"#utility.yul\":12641:12645   */\n      0x1f\n        /* \"#utility.yul\":12637:12646   */\n      not\n        /* \"#utility.yul\":12629:12635   */\n      dup5\n        /* \"#utility.yul\":12625:12647   */\n      and\n        /* \"#utility.yul\":12675:12712   */\n      tag_309\n        /* \"#utility.yul\":12707:12711   */\n      dup7\n        /* \"#utility.yul\":12675:12712   */\n      tag_145\n      jump\t// in\n    tag_309:\n        /* \"#utility.yul\":12734:12735   */\n      0x00\n        /* \"#utility.yul\":12748:12956   */\n    tag_310:\n        /* \"#utility.yul\":12762:12769   */\n      dup3\n        /* \"#utility.yul\":12759:12760   */\n      dup2\n        /* \"#utility.yul\":12756:12770   */\n      lt\n        /* \"#utility.yul\":12748:12956   */\n      iszero\n      tag_312\n      jumpi\n        /* \"#utility.yul\":12841:12850   */\n      dup5\n        /* \"#utility.yul\":12836:12839   */\n      dup10\n        /* \"#utility.yul\":12832:12851   */\n      add\n        /* \"#utility.yul\":12826:12852   */\n      mload\n        /* \"#utility.yul\":12818:12824   */\n      dup3\n        /* \"#utility.yul\":12811:12853   */\n      sstore\n        /* \"#utility.yul\":12892:12893   */\n      0x01\n        /* \"#utility.yul\":12884:12890   */\n      dup3\n        /* \"#utility.yul\":12880:12894   */\n      add\n        /* \"#utility.yul\":12870:12894   */\n      swap2\n      pop\n        /* \"#utility.yul\":12939:12941   */\n      0x20\n        /* \"#utility.yul\":12928:12937   */\n      dup6\n        /* \"#utility.yul\":12924:12942   */\n      add\n        /* \"#utility.yul\":12911:12942   */\n      swap5\n      pop\n        /* \"#utility.yul\":12785:12789   */\n      0x20\n        /* \"#utility.yul\":12782:12783   */\n      dup2\n        /* \"#utility.yul\":12778:12790   */\n      add\n        /* \"#utility.yul\":12773:12790   */\n      swap1\n      pop\n        /* \"#utility.yul\":12748:12956   */\n      jump(tag_310)\n    tag_312:\n        /* \"#utility.yul\":12984:12990   */\n      dup7\n        /* \"#utility.yul\":12975:12982   */\n      dup4\n        /* \"#utility.yul\":12972:12991   */\n      lt\n        /* \"#utility.yul\":12969:13148   */\n      iszero\n      tag_313\n      jumpi\n        /* \"#utility.yul\":13042:13051   */\n      dup5\n        /* \"#utility.yul\":13037:13040   */\n      dup10\n        /* \"#utility.yul\":13033:13052   */\n      add\n        /* \"#utility.yul\":13027:13053   */\n      mload\n        /* \"#utility.yul\":13085:13133   */\n      tag_314\n        /* \"#utility.yul\":13127:13131   */\n      0x1f\n        /* \"#utility.yul\":13119:13125   */\n      dup10\n        /* \"#utility.yul\":13115:13132   */\n      and\n        /* \"#utility.yul\":13104:13113   */\n      dup3\n        /* \"#utility.yul\":13085:13133   */\n      tag_158\n      jump\t// in\n    tag_314:\n        /* \"#utility.yul\":13077:13083   */\n      dup4\n        /* \"#utility.yul\":13070:13134   */\n      sstore\n        /* \"#utility.yul\":12992:13148   */\n      pop\n        /* \"#utility.yul\":12969:13148   */\n    tag_313:\n        /* \"#utility.yul\":13194:13195   */\n      0x01\n        /* \"#utility.yul\":13190:13191   */\n      0x02\n        /* \"#utility.yul\":13182:13188   */\n      dup9\n        /* \"#utility.yul\":13178:13192   */\n      mul\n        /* \"#utility.yul\":13174:13196   */\n      add\n        /* \"#utility.yul\":13168:13172   */\n      dup9\n        /* \"#utility.yul\":13161:13197   */\n      sstore\n        /* \"#utility.yul\":12596:13207   */\n      pop\n      pop\n      pop\n        /* \"#utility.yul\":12559:13446   */\n    tag_305:\n      pop\n        /* \"#utility.yul\":12149:13452   */\n      pop\n      pop\n      pop\n        /* \"#utility.yul\":12057:13452   */\n      pop\n      pop\n      jump\t// out\n        /* \"#utility.yul\":13458:13627   */\n    tag_160:\n        /* \"#utility.yul\":13542:13553   */\n      0x00\n        /* \"#utility.yul\":13576:13582   */\n      dup3\n        /* \"#utility.yul\":13571:13574   */\n      dup3\n        /* \"#utility.yul\":13564:13583   */\n      mstore\n        /* \"#utility.yul\":13616:13620   */\n      0x20\n        /* \"#utility.yul\":13611:13614   */\n      dup3\n        /* \"#utility.yul\":13607:13621   */\n      add\n        /* \"#utility.yul\":13592:13621   */\n      swap1\n      pop\n        /* \"#utility.yul\":13458:13627   */\n      swap3\n      swap2\n      pop\n      pop\n      jump\t// out\n        /* \"#utility.yul\":13633:13809   */\n    tag_161:\n        /* \"#utility.yul\":13773:13801   */\n      0x5468652070726f706f73616c206973206e6f7420616374697665000000000000\n        /* \"#utility.yul\":13769:13770   */\n      0x00\n        /* \"#utility.yul\":13761:13767   */\n      dup3\n        /* \"#utility.yul\":13757:13771   */\n      add\n        /* \"#utility.yul\":13750:13802   */\n      mstore\n        /* \"#utility.yul\":13633:13809   */\n      pop\n      jump\t// out\n        /* \"#utility.yul\":13815:14181   */\n    tag_162:\n        /* \"#utility.yul\":13957:13960   */\n      0x00\n        /* \"#utility.yul\":13978:14045   */\n      tag_318\n        /* \"#utility.yul\":14042:14044   */\n      0x1a\n        /* \"#utility.yul\":14037:14040   */\n      dup4\n        /* \"#utility.yul\":13978:14045   */\n      tag_160\n      jump\t// in\n    tag_318:\n        /* \"#utility.yul\":13971:14045   */\n      swap2\n      pop\n        /* \"#utility.yul\":14054:14147   */\n      tag_319\n        /* \"#utility.yul\":14143:14146   */\n      dup3\n        /* \"#utility.yul\":14054:14147   */\n      tag_161\n      jump\t// in\n    tag_319:\n        /* \"#utility.yul\":14172:14174   */\n      0x20\n        /* \"#utility.yul\":14167:14170   */\n      dup3\n        /* \"#utility.yul\":14163:14175   */\n      add\n        /* \"#utility.yul\":14156:14175   */\n      swap1\n      pop\n        /* \"#utility.yul\":13815:14181   */\n      swap2\n      swap1\n      pop\n      jump\t// out\n        /* \"#utility.yul\":14187:14606   */\n    tag_62:\n        /* \"#utility.yul\":14353:14357   */\n      0x00\n        /* \"#utility.yul\":14391:14393   */\n      0x20\n        /* \"#utility.yul\":14380:14389   */\n      dup3\n        /* \"#utility.yul\":14376:14394   */\n      add\n        /* \"#utility.yul\":14368:14394   */\n      swap1\n      pop\n        /* \"#utility.yul\":14440:14449   */\n      dup2\n        /* \"#utility.yul\":14434:14438   */\n      dup2\n        /* \"#utility.yul\":14430:14450   */\n      sub\n        /* \"#utility.yul\":14426:14427   */\n      0x00\n        /* \"#utility.yul\":14415:14424   */\n      dup4\n        /* \"#utility.yul\":14411:14428   */\n      add\n        /* \"#utility.yul\":14404:14451   */\n      mstore\n        /* \"#utility.yul\":14468:14599   */\n      tag_321\n        /* \"#utility.yul\":14594:14598   */\n      dup2\n        /* \"#utility.yul\":14468:14599   */\n      tag_162\n      jump\t// in\n    tag_321:\n        /* \"#utility.yul\":14460:14599   */\n      swap1\n      pop\n        /* \"#utility.yul\":14187:14606   */\n      swap2\n      swap1\n      pop\n      jump\t// out\n        /* \"#utility.yul\":14612:14787   */\n    tag_163:\n        /* \"#utility.yul\":14752:14779   */\n      0x416464726573732068617320616c726561647920766f74656400000000000000\n        /* \"#utility.yul\":14748:14749   */\n      0x00\n        /* \"#utility.yul\":14740:14746   */\n      dup3\n        /* \"#utility.yul\":14736:14750   */\n      add\n        /* \"#utility.yul\":14729:14780   */\n      mstore\n        /* \"#utility.yul\":14612:14787   */\n      pop\n      jump\t// out\n        /* \"#utility.yul\":14793:15159   */\n    tag_164:\n        /* \"#utility.yul\":14935:14938   */\n      0x00\n        /* \"#utility.yul\":14956:15023   */\n      tag_324\n        /* \"#utility.yul\":15020:15022   */\n      0x19\n        /* \"#utility.yul\":15015:15018   */\n      dup4\n        /* \"#utility.yul\":14956:15023   */\n      tag_160\n      jump\t// in\n    tag_324:\n        /* \"#utility.yul\":14949:15023   */\n      swap2\n      pop\n        /* \"#utility.yul\":15032:15125   */\n      tag_325\n        /* \"#utility.yul\":15121:15124   */\n      dup3\n        /* \"#utility.yul\":15032:15125   */\n      tag_163\n      jump\t// in\n    tag_325:\n        /* \"#utility.yul\":15150:15152   */\n      0x20\n        /* \"#utility.yul\":15145:15148   */\n      dup3\n        /* \"#utility.yul\":15141:15153   */\n      add\n        /* \"#utility.yul\":15134:15153   */\n      swap1\n      pop\n        /* \"#utility.yul\":14793:15159   */\n      swap2\n      swap1\n      pop\n      jump\t// out\n        /* \"#utility.yul\":15165:15584   */\n    tag_70:\n        /* \"#utility.yul\":15331:15335   */\n      0x00\n        /* \"#utility.yul\":15369:15371   */\n      0x20\n        /* \"#utility.yul\":15358:15367   */\n      dup3\n        /* \"#utility.yul\":15354:15372   */\n      add\n        /* \"#utility.yul\":15346:15372   */\n      swap1\n      pop\n        /* \"#utility.yul\":15418:15427   */\n      dup2\n        /* \"#utility.yul\":15412:15416   */\n      dup2\n        /* \"#utility.yul\":15408:15428   */\n      sub\n        /* \"#utility.yul\":15404:15405   */\n      0x00\n        /* \"#utility.yul\":15393:15402   */\n      dup4\n        /* \"#utility.yul\":15389:15406   */\n      add\n        /* \"#utility.yul\":15382:15429   */\n      mstore\n        /* \"#utility.yul\":15446:15577   */\n      tag_327\n        /* \"#utility.yul\":15572:15576   */\n      dup2\n        /* \"#utility.yul\":15446:15577   */\n      tag_164\n      jump\t// in\n    tag_327:\n        /* \"#utility.yul\":15438:15577   */\n      swap1\n      pop\n        /* \"#utility.yul\":15165:15584   */\n      swap2\n      swap1\n      pop\n      jump\t// out\n        /* \"#utility.yul\":15590:15784   */\n    tag_87:\n        /* \"#utility.yul\":15630:15634   */\n      0x00\n        /* \"#utility.yul\":15650:15670   */\n      tag_329\n        /* \"#utility.yul\":15668:15669   */\n      dup3\n        /* \"#utility.yul\":15650:15670   */\n      tag_127\n      jump\t// in\n    tag_329:\n        /* \"#utility.yul\":15645:15670   */\n      swap2\n      pop\n        /* \"#utility.yul\":15684:15704   */\n      tag_330\n        /* \"#utility.yul\":15702:15703   */\n      dup4\n        /* \"#utility.yul\":15684:15704   */\n      tag_127\n      jump\t// in\n    tag_330:\n        /* \"#utility.yul\":15679:15704   */\n      swap3\n      pop\n        /* \"#utility.yul\":15728:15729   */\n      dup3\n        /* \"#utility.yul\":15725:15726   */\n      dup3\n        /* \"#utility.yul\":15721:15730   */\n      sub\n        /* \"#utility.yul\":15713:15730   */\n      swap1\n      pop\n        /* \"#utility.yul\":15752:15753   */\n      dup2\n        /* \"#utility.yul\":15746:15750   */\n      dup2\n        /* \"#utility.yul\":15743:15754   */\n      gt\n        /* \"#utility.yul\":15740:15777   */\n      iszero\n      tag_331\n      jumpi\n        /* \"#utility.yul\":15757:15775   */\n      tag_332\n      tag_142\n      jump\t// in\n    tag_332:\n        /* \"#utility.yul\":15740:15777   */\n    tag_331:\n        /* \"#utility.yul\":15590:15784   */\n      swap3\n      swap2\n      pop\n      pop\n      jump\t// out\n        /* \"#utility.yul\":15790:15970   */\n    tag_165:\n        /* \"#utility.yul\":15838:15915   */\n      0x4e487b7100000000000000000000000000000000000000000000000000000000\n        /* \"#utility.yul\":15835:15836   */\n      0x00\n        /* \"#utility.yul\":15828:15916   */\n      mstore\n        /* \"#utility.yul\":15935:15939   */\n      0x12\n        /* \"#utility.yul\":15932:15933   */\n      0x04\n        /* \"#utility.yul\":15925:15940   */\n      mstore\n        /* \"#utility.yul\":15959:15963   */\n      0x24\n        /* \"#utility.yul\":15956:15957   */\n      0x00\n        /* \"#utility.yul\":15949:15964   */\n      revert\n        /* \"#utility.yul\":15976:16152   */\n    tag_106:\n        /* \"#utility.yul\":16008:16009   */\n      0x00\n        /* \"#utility.yul\":16025:16045   */\n      tag_335\n        /* \"#utility.yul\":16043:16044   */\n      dup3\n        /* \"#utility.yul\":16025:16045   */\n      tag_127\n      jump\t// in\n    tag_335:\n        /* \"#utility.yul\":16020:16045   */\n      swap2\n      pop\n        /* \"#utility.yul\":16059:16079   */\n      tag_336\n        /* \"#utility.yul\":16077:16078   */\n      dup4\n        /* \"#utility.yul\":16059:16079   */\n      tag_127\n      jump\t// in\n    tag_336:\n        /* \"#utility.yul\":16054:16079   */\n      swap3\n      pop\n        /* \"#utility.yul\":16098:16099   */\n      dup3\n        /* \"#utility.yul\":16088:16123   */\n      tag_337\n      jumpi\n        /* \"#utility.yul\":16103:16121   */\n      tag_338\n      tag_165\n      jump\t// in\n    tag_338:\n        /* \"#utility.yul\":16088:16123   */\n    tag_337:\n        /* \"#utility.yul\":16144:16145   */\n      dup3\n        /* \"#utility.yul\":16141:16142   */\n      dup3\n        /* \"#utility.yul\":16137:16146   */\n      mod\n        /* \"#utility.yul\":16132:16146   */\n      swap1\n      pop\n        /* \"#utility.yul\":15976:16152   */\n      swap3\n      swap2\n      pop\n      pop\n      jump\t// out\n        /* \"#utility.yul\":16158:16343   */\n    tag_111:\n        /* \"#utility.yul\":16198:16199   */\n      0x00\n        /* \"#utility.yul\":16215:16235   */\n      tag_340\n        /* \"#utility.yul\":16233:16234   */\n      dup3\n        /* \"#utility.yul\":16215:16235   */\n      tag_127\n      jump\t// in\n    tag_340:\n        /* \"#utility.yul\":16210:16235   */\n      swap2\n      pop\n        /* \"#utility.yul\":16249:16269   */\n      tag_341\n        /* \"#utility.yul\":16267:16268   */\n      dup4\n        /* \"#utility.yul\":16249:16269   */\n      tag_127\n      jump\t// in\n    tag_341:\n        /* \"#utility.yul\":16244:16269   */\n      swap3\n      pop\n        /* \"#utility.yul\":16288:16289   */\n      dup3\n        /* \"#utility.yul\":16278:16313   */\n      tag_342\n      jumpi\n        /* \"#utility.yul\":16293:16311   */\n      tag_343\n      tag_165\n      jump\t// in\n    tag_343:\n        /* \"#utility.yul\":16278:16313   */\n    tag_342:\n        /* \"#utility.yul\":16335:16336   */\n      dup3\n        /* \"#utility.yul\":16332:16333   */\n      dup3\n        /* \"#utility.yul\":16328:16337   */\n      div\n        /* \"#utility.yul\":16323:16337   */\n      swap1\n      pop\n        /* \"#utility.yul\":16158:16343   */\n      swap3\n      swap2\n      pop\n      pop\n      jump\t// out\n\n    auxdata: 0xa26469706673582212203bfb28dc036344a44395ea83c7a0b5b28ea79120e022d0244c05cf4d245944b164736f6c63430008180033\n}\n",
				"bytecode": {
					"linkReferences": {},
					"object": "608060405234801561000f575f80fd5b50335f806101000a81548173ffffffffffffffffffffffffffffffffffffffff021916908373ffffffffffffffffffffffffffffffffffffffff1602179055506114a58061005c5f395ff3fe608060405234801561000f575f80fd5b5060043610610060575f3560e01c806313af4035146100645780633ca6d1001461008057806341ec68701461009c57806389190393146100ba578063b3f98adc146100c4578063c7f758a8146100e0575b5f80fd5b61007e60048036038101906100799190610c16565b610110565b005b61009a60048036038101906100959190610cd5565b6101a8565b005b6100a4610389565b6040516100b19190610ecd565b60405180910390f35b6100c2610531565b005b6100de60048036038101906100d99190610f23565b610621565b005b6100fa60048036038101906100f59190610f4e565b61092d565b6040516101079190610ecd565b60405180910390f35b5f8054906101000a900473ffffffffffffffffffffffffffffffffffffffff1673ffffffffffffffffffffffffffffffffffffffff163373ffffffffffffffffffffffffffffffffffffffff1614610166575f80fd5b805f806101000a81548173ffffffffffffffffffffffffffffffffffffffff021916908373ffffffffffffffffffffffffffffffffffffffff16021790555050565b5f8054906101000a900473ffffffffffffffffffffffffffffffffffffffff1673ffffffffffffffffffffffffffffffffffffffff163373ffffffffffffffffffffffffffffffffffffffff16146101fe575f80fd5b6001805f82825461020f9190610fa6565b9250508190555060405180610100016040528086868080601f0160208091040260200160405190810160405280939291908181526020018383808284375f81840152601f19601f82011690508083019250505050505050815260200184848080601f0160208091040260200160405190810160405280939291908181526020018383808284375f81840152601f19601f8201169050808301925050505050505081526020015f81526020015f81526020015f81526020018281526020015f151581526020016001151581525060025f60015481526020019081526020015f205f820151815f0190816103019190611200565b5060208201518160010190816103179190611200565b5060408201518160020155606082015181600301556080820151816004015560a0820151816005015560c0820151816006015f6101000a81548160ff02191690831515021790555060e08201518160060160016101000a81548160ff0219169083151502179055509050505050505050565b610391610b71565b60025f60015481526020019081526020015f20604051806101000160405290815f820180546103bf90611033565b80601f01602080910402602001604051908101604052809291908181526020018280546103eb90611033565b80156104365780601f1061040d57610100808354040283529160200191610436565b820191905f5260205f20905b81548152906001019060200180831161041957829003601f168201915b5050505050815260200160018201805461044f90611033565b80601f016020809104026020016040519081016040528092919081815260200182805461047b90611033565b80156104c65780601f1061049d576101008083540402835291602001916104c6565b820191905f5260205f20905b8154815290600101906020018083116104a957829003601f168201915b5050505050815260200160028201548152602001600382015481526020016004820154815260200160058201548152602001600682015f9054906101000a900460ff161515151581526020016006820160019054906101000a900460ff161515151581525050905090565b5f8054906101000a900473ffffffffffffffffffffffffffffffffffffffff1673ffffffffffffffffffffffffffffffffffffffff163373ffffffffffffffffffffffffffffffffffffffff1614610587575f80fd5b6001151560025f60015481526020019081526020015f2060060160019054906101000a900460ff161515146105f1576040517f08c379a00000000000000000000000000000000000000000000000000000000081526004016105e890611329565b60405180910390fd5b5f60025f60015481526020019081526020015f2060060160016101000a81548160ff021916908315150217905550565b6001151560025f60015481526020019081526020015f2060060160019054906101000a900460ff1615151461068b576040517f08c379a000000000000000000000000000000000000000000000000000000000815260040161068290611329565b60405180910390fd5b3360035f8273ffffffffffffffffffffffffffffffffffffffff1673ffffffffffffffffffffffffffffffffffffffff1681526020019081526020015f205f9054906101000a900460ff1615610716576040517f08c379a000000000000000000000000000000000000000000000000000000000815260040161070d90611391565b60405180910390fd5b5f60025f60015481526020019081526020015f2090505f8160040154826003015483600201546107469190610fa6565b6107509190610fa6565b9050600160035f3373ffffffffffffffffffffffffffffffffffffffff1673ffffffffffffffffffffffffffffffffffffffff1681526020019081526020015f205f6101000a81548160ff02191690831515021790555060018460ff16036107f4576001826002015f8282546107c69190610fa6565b925050819055506107d5610ad5565b826006015f6101000a81548160ff02191690831515021790555061088b565b60028460ff1603610841576001826003015f8282546108139190610fa6565b92505081905550610822610ad5565b826006015f6101000a81548160ff02191690831515021790555061088a565b5f8460ff1603610889576001826004015f82825461085f9190610fa6565b9250508190555061086e610ad5565b826006015f6101000a81548160ff0219169083151502179055505b5b5b816006015f9054906101000a900460ff1660025f60015481526020019081526020015f206006015f6101000a81548160ff02191690831515021790555060018183600501546108da91906113af565b148015610905575060018460ff1614806108f7575060028460ff16145b8061090457505f8460ff16145b5b15610927575f8260060160016101000a81548160ff0219169083151502179055505b50505050565b610935610b71565b60025f8381526020019081526020015f20604051806101000160405290815f8201805461096190611033565b80601f016020809104026020016040519081016040528092919081815260200182805461098d90611033565b80156109d85780601f106109af576101008083540402835291602001916109d8565b820191905f5260205f20905b8154815290600101906020018083116109bb57829003601f168201915b505050505081526020016001820180546109f190611033565b80601f0160208091040260200160405190810160405280929190818152602001828054610a1d90611033565b8015610a685780601f10610a3f57610100808354040283529160200191610a68565b820191905f5260205f20905b815481529060010190602001808311610a4b57829003601f168201915b5050505050815260200160028201548152602001600382015481526020016004820154815260200160058201548152602001600682015f9054906101000a900460ff161515151581526020016006820160019054906101000a900460ff1615151515815250509050919050565b5f8060025f60015481526020019081526020015f2090505f816002015490505f826003015490505f836004015490505f600282610b12919061140f565b14610b2957600181610b249190610fa6565b610b2b565b805b9050600281610b3a919061143f565b905081831180610b545750818184610b529190610fa6565b115b15610b66576001945050505050610b6e565b5f9450505050505b90565b60405180610100016040528060608152602001606081526020015f81526020015f81526020015f81526020015f81526020015f151581526020015f151581525090565b5f80fd5b5f80fd5b5f73ffffffffffffffffffffffffffffffffffffffff82169050919050565b5f610be582610bbc565b9050919050565b610bf581610bdb565b8114610bff575f80fd5b50565b5f81359050610c1081610bec565b92915050565b5f60208284031215610c2b57610c2a610bb4565b5b5f610c3884828501610c02565b91505092915050565b5f80fd5b5f80fd5b5f80fd5b5f8083601f840112610c6257610c61610c41565b5b8235905067ffffffffffffffff811115610c7f57610c7e610c45565b5b602083019150836001820283011115610c9b57610c9a610c49565b5b9250929050565b5f819050919050565b610cb481610ca2565b8114610cbe575f80fd5b50565b5f81359050610ccf81610cab565b92915050565b5f805f805f60608688031215610cee57610ced610bb4565b5b5f86013567ffffffffffffffff811115610d0b57610d0a610bb8565b5b610d1788828901610c4d565b9550955050602086013567ffffffffffffffff811115610d3a57610d39610bb8565b5b610d4688828901610c4d565b93509350506040610d5988828901610cc1565b9150509295509295909350565b5f81519050919050565b5f82825260208201905092915050565b5f5b83811015610d9d578082015181840152602081019050610d82565b5f8484015250505050565b5f601f19601f8301169050919050565b5f610dc282610d66565b610dcc8185610d70565b9350610ddc818560208601610d80565b610de581610da8565b840191505092915050565b610df981610ca2565b82525050565b5f8115159050919050565b610e1381610dff565b82525050565b5f61010083015f8301518482035f860152610e348282610db8565b91505060208301518482036020860152610e4e8282610db8565b9150506040830151610e636040860182610df0565b506060830151610e766060860182610df0565b506080830151610e896080860182610df0565b5060a0830151610e9c60a0860182610df0565b5060c0830151610eaf60c0860182610e0a565b5060e0830151610ec260e0860182610e0a565b508091505092915050565b5f6020820190508181035f830152610ee58184610e19565b905092915050565b5f60ff82169050919050565b610f0281610eed565b8114610f0c575f80fd5b50565b5f81359050610f1d81610ef9565b92915050565b5f60208284031215610f3857610f37610bb4565b5b5f610f4584828501610f0f565b91505092915050565b5f60208284031215610f6357610f62610bb4565b5b5f610f7084828501610cc1565b91505092915050565b7f4e487b71000000000000000000000000000000000000000000000000000000005f52601160045260245ffd5b5f610fb082610ca2565b9150610fbb83610ca2565b9250828201905080821115610fd357610fd2610f79565b5b92915050565b7f4e487b71000000000000000000000000000000000000000000000000000000005f52604160045260245ffd5b7f4e487b71000000000000000000000000000000000000000000000000000000005f52602260045260245ffd5b5f600282049050600182168061104a57607f821691505b60208210810361105d5761105c611006565b5b50919050565b5f819050815f5260205f209050919050565b5f6020601f8301049050919050565b5f82821b905092915050565b5f600883026110bf7fffffffffffffffffffffffffffffffffffffffffffffffffffffffffffffffff82611084565b6110c98683611084565b95508019841693508086168417925050509392505050565b5f819050919050565b5f6111046110ff6110fa84610ca2565b6110e1565b610ca2565b9050919050565b5f819050919050565b61111d836110ea565b6111316111298261110b565b848454611090565b825550505050565b5f90565b611145611139565b611150818484611114565b505050565b5b81811015611173576111685f8261113d565b600181019050611156565b5050565b601f8211156111b85761118981611063565b61119284611075565b810160208510156111a1578190505b6111b56111ad85611075565b830182611155565b50505b505050565b5f82821c905092915050565b5f6111d85f19846008026111bd565b1980831691505092915050565b5f6111f083836111c9565b9150826002028217905092915050565b61120982610d66565b67ffffffffffffffff81111561122257611221610fd9565b5b61122c8254611033565b611237828285611177565b5f60209050601f831160018114611268575f8415611256578287015190505b61126085826111e5565b8655506112c7565b601f19841661127686611063565b5f5b8281101561129d57848901518255600182019150602085019450602081019050611278565b868310156112ba57848901516112b6601f8916826111c9565b8355505b6001600288020188555050505b505050505050565b5f82825260208201905092915050565b7f5468652070726f706f73616c206973206e6f74206163746976650000000000005f82015250565b5f611313601a836112cf565b915061131e826112df565b602082019050919050565b5f6020820190508181035f83015261134081611307565b9050919050565b7f416464726573732068617320616c726561647920766f746564000000000000005f82015250565b5f61137b6019836112cf565b915061138682611347565b602082019050919050565b5f6020820190508181035f8301526113a88161136f565b9050919050565b5f6113b982610ca2565b91506113c483610ca2565b92508282039050818111156113dc576113db610f79565b5b92915050565b7f4e487b71000000000000000000000000000000000000000000000000000000005f52601260045260245ffd5b5f61141982610ca2565b915061142483610ca2565b925082611434576114336113e2565b5b828206905092915050565b5f61144982610ca2565b915061145483610ca2565b925082611464576114636113e2565b5b82820490509291505056fea26469706673582212203bfb28dc036344a44395ea83c7a0b5b28ea79120e022d0244c05cf4d245944b164736f6c63430008180033",
					"opcodes": "PUSH1 0x80 PUSH1 0x40 MSTORE CALLVALUE DUP1 ISZERO PUSH2 0xF JUMPI PUSH0 DUP1 REVERT JUMPDEST POP CALLER PUSH0 DUP1 PUSH2 0x100 EXP DUP2 SLOAD DUP2 PUSH20 0xFFFFFFFFFFFFFFFFFFFFFFFFFFFFFFFFFFFFFFFF MUL NOT AND SWAP1 DUP4 PUSH20 0xFFFFFFFFFFFFFFFFFFFFFFFFFFFFFFFFFFFFFFFF AND MUL OR SWAP1 SSTORE POP PUSH2 0x14A5 DUP1 PUSH2 0x5C PUSH0 CODECOPY PUSH0 RETURN INVALID PUSH1 0x80 PUSH1 0x40 MSTORE CALLVALUE DUP1 ISZERO PUSH2 0xF JUMPI PUSH0 DUP1 REVERT JUMPDEST POP PUSH1 0x4 CALLDATASIZE LT PUSH2 0x60 JUMPI PUSH0 CALLDATALOAD PUSH1 0xE0 SHR DUP1 PUSH4 0x13AF4035 EQ PUSH2 0x64 JUMPI DUP1 PUSH4 0x3CA6D100 EQ PUSH2 0x80 JUMPI DUP1 PUSH4 0x41EC6870 EQ PUSH2 0x9C JUMPI DUP1 PUSH4 0x89190393 EQ PUSH2 0xBA JUMPI DUP1 PUSH4 0xB3F98ADC EQ PUSH2 0xC4 JUMPI DUP1 PUSH4 0xC7F758A8 EQ PUSH2 0xE0 JUMPI JUMPDEST PUSH0 DUP1 REVERT JUMPDEST PUSH2 0x7E PUSH1 0x4 DUP1 CALLDATASIZE SUB DUP2 ADD SWAP1 PUSH2 0x79 SWAP2 SWAP1 PUSH2 0xC16 JUMP JUMPDEST PUSH2 0x110 JUMP JUMPDEST STOP JUMPDEST PUSH2 0x9A PUSH1 0x4 DUP1 CALLDATASIZE SUB DUP2 ADD SWAP1 PUSH2 0x95 SWAP2 SWAP1 PUSH2 0xCD5 JUMP JUMPDEST PUSH2 0x1A8 JUMP JUMPDEST STOP JUMPDEST PUSH2 0xA4 PUSH2 0x389 JUMP JUMPDEST PUSH1 0x40 MLOAD PUSH2 0xB1 SWAP2 SWAP1 PUSH2 0xECD JUMP JUMPDEST PUSH1 0x40 MLOAD DUP1 SWAP2 SUB SWAP1 RETURN JUMPDEST PUSH2 0xC2 PUSH2 0x531 JUMP JUMPDEST STOP JUMPDEST PUSH2 0xDE PUSH1 0x4 DUP1 CALLDATASIZE SUB DUP2 ADD SWAP1 PUSH2 0xD9 SWAP2 SWAP1 PUSH2 0xF23 JUMP JUMPDEST PUSH2 0x621 JUMP JUMPDEST STOP JUMPDEST PUSH2 0xFA PUSH1 0x4 DUP1 CALLDATASIZE SUB DUP2 ADD SWAP1 PUSH2 0xF5 SWAP2 SWAP1 PUSH2 0xF4E JUMP JUMPDEST PUSH2 0x92D JUMP JUMPDEST PUSH1 0x40 MLOAD PUSH2 0x107 SWAP2 SWAP1 PUSH2 0xECD JUMP JUMPDEST PUSH1 0x40 MLOAD DUP1 SWAP2 SUB SWAP1 RETURN JUMPDEST PUSH0 DUP1 SLOAD SWAP1 PUSH2 0x100 EXP SWAP1 DIV PUSH20 0xFFFFFFFFFFFFFFFFFFFFFFFFFFFFFFFFFFFFFFFF AND PUSH20 0xFFFFFFFFFFFFFFFFFFFFFFFFFFFFFFFFFFFFFFFF AND CALLER PUSH20 0xFFFFFFFFFFFFFFFFFFFFFFFFFFFFFFFFFFFFFFFF AND EQ PUSH2 0x166 JUMPI PUSH0 DUP1 REVERT JUMPDEST DUP1 PUSH0 DUP1 PUSH2 0x100 EXP DUP2 SLOAD DUP2 PUSH20 0xFFFFFFFFFFFFFFFFFFFFFFFFFFFFFFFFFFFFFFFF MUL NOT AND SWAP1 DUP4 PUSH20 0xFFFFFFFFFFFFFFFFFFFFFFFFFFFFFFFFFFFFFFFF AND MUL OR SWAP1 SSTORE POP POP JUMP JUMPDEST PUSH0 DUP1 SLOAD SWAP1 PUSH2 0x100 EXP SWAP1 DIV PUSH20 0xFFFFFFFFFFFFFFFFFFFFFFFFFFFFFFFFFFFFFFFF AND PUSH20 0xFFFFFFFFFFFFFFFFFFFFFFFFFFFFFFFFFFFFFFFF AND CALLER PUSH20 0xFFFFFFFFFFFFFFFFFFFFFFFFFFFFFFFFFFFFFFFF AND EQ PUSH2 0x1FE JUMPI PUSH0 DUP1 REVERT JUMPDEST PUSH1 0x1 DUP1 PUSH0 DUP3 DUP3 SLOAD PUSH2 0x20F SWAP2 SWAP1 PUSH2 0xFA6 JUMP JUMPDEST SWAP3 POP POP DUP2 SWAP1 SSTORE POP PUSH1 0x40 MLOAD DUP1 PUSH2 0x100 ADD PUSH1 0x40 MSTORE DUP1 DUP7 DUP7 DUP1 DUP1 PUSH1 0x1F ADD PUSH1 0x20 DUP1 SWAP2 DIV MUL PUSH1 0x20 ADD PUSH1 0x40 MLOAD SWAP1 DUP2 ADD PUSH1 0x40 MSTORE DUP1 SWAP4 SWAP3 SWAP2 SWAP1 DUP2 DUP2 MSTORE PUSH1 0x20 ADD DUP4 DUP4 DUP1 DUP3 DUP5 CALLDATACOPY PUSH0 DUP2 DUP5 ADD MSTORE PUSH1 0x1F NOT PUSH1 0x1F DUP3 ADD AND SWAP1 POP DUP1 DUP4 ADD SWAP3 POP POP POP POP POP POP POP DUP2 MSTORE PUSH1 0x20 ADD DUP5 DUP5 DUP1 DUP1 PUSH1 0x1F ADD PUSH1 0x20 DUP1 SWAP2 DIV MUL PUSH1 0x20 ADD PUSH1 0x40 MLOAD SWAP1 DUP2 ADD PUSH1 0x40 MSTORE DUP1 SWAP4 SWAP3 SWAP2 SWAP1 DUP2 DUP2 MSTORE PUSH1 0x20 ADD DUP4 DUP4 DUP1 DUP3 DUP5 CALLDATACOPY PUSH0 DUP2 DUP5 ADD MSTORE PUSH1 0x1F NOT PUSH1 0x1F DUP3 ADD AND SWAP1 POP DUP1 DUP4 ADD SWAP3 POP POP POP POP POP POP POP DUP2 MSTORE PUSH1 0x20 ADD PUSH0 DUP2 MSTORE PUSH1 0x20 ADD PUSH0 DUP2 MSTORE PUSH1 0x20 ADD PUSH0 DUP2 MSTORE PUSH1 0x20 ADD DUP3 DUP2 MSTORE PUSH1 0x20 ADD PUSH0 ISZERO ISZERO DUP2 MSTORE PUSH1 0x20 ADD PUSH1 0x1 ISZERO ISZERO DUP2 MSTORE POP PUSH1 0x2 PUSH0 PUSH1 0x1 SLOAD DUP2 MSTORE PUSH1 0x20 ADD SWAP1 DUP2 MSTORE PUSH1 0x20 ADD PUSH0 KECCAK256 PUSH0 DUP3 ADD MLOAD DUP2 PUSH0 ADD SWAP1 DUP2 PUSH2 0x301 SWAP2 SWAP1 PUSH2 0x1200 JUMP JUMPDEST POP PUSH1 0x20 DUP3 ADD MLOAD DUP2 PUSH1 0x1 ADD SWAP1 DUP2 PUSH2 0x317 SWAP2 SWAP1 PUSH2 0x1200 JUMP JUMPDEST POP PUSH1 0x40 DUP3 ADD MLOAD DUP2 PUSH1 0x2 ADD SSTORE PUSH1 0x60 DUP3 ADD MLOAD DUP2 PUSH1 0x3 ADD SSTORE PUSH1 0x80 DUP3 ADD MLOAD DUP2 PUSH1 0x4 ADD SSTORE PUSH1 0xA0 DUP3 ADD MLOAD DUP2 PUSH1 0x5 ADD SSTORE PUSH1 0xC0 DUP3 ADD MLOAD DUP2 PUSH1 0x6 ADD PUSH0 PUSH2 0x100 EXP DUP2 SLOAD DUP2 PUSH1 0xFF MUL NOT AND SWAP1 DUP4 ISZERO ISZERO MUL OR SWAP1 SSTORE POP PUSH1 0xE0 DUP3 ADD MLOAD DUP2 PUSH1 0x6 ADD PUSH1 0x1 PUSH2 0x100 EXP DUP2 SLOAD DUP2 PUSH1 0xFF MUL NOT AND SWAP1 DUP4 ISZERO ISZERO MUL OR SWAP1 SSTORE POP SWAP1 POP POP POP POP POP POP POP JUMP JUMPDEST PUSH2 0x391 PUSH2 0xB71 JUMP JUMPDEST PUSH1 0x2 PUSH0 PUSH1 0x1 SLOAD DUP2 MSTORE PUSH1 0x20 ADD SWAP1 DUP2 MSTORE PUSH1 0x20 ADD PUSH0 KECCAK256 PUSH1 0x40 MLOAD DUP1 PUSH2 0x100 ADD PUSH1 0x40 MSTORE SWAP1 DUP2 PUSH0 DUP3 ADD DUP1 SLOAD PUSH2 0x3BF SWAP1 PUSH2 0x1033 JUMP JUMPDEST DUP1 PUSH1 0x1F ADD PUSH1 0x20 DUP1 SWAP2 DIV MUL PUSH1 0x20 ADD PUSH1 0x40 MLOAD SWAP1 DUP2 ADD PUSH1 0x40 MSTORE DUP1 SWAP3 SWAP2 SWAP1 DUP2 DUP2 MSTORE PUSH1 0x20 ADD DUP3 DUP1 SLOAD PUSH2 0x3EB SWAP1 PUSH2 0x1033 JUMP JUMPDEST DUP1 ISZERO PUSH2 0x436 JUMPI DUP1 PUSH1 0x1F LT PUSH2 0x40D JUMPI PUSH2 0x100 DUP1 DUP4 SLOAD DIV MUL DUP4 MSTORE SWAP2 PUSH1 0x20 ADD SWAP2 PUSH2 0x436 JUMP JUMPDEST DUP3 ADD SWAP2 SWAP1 PUSH0 MSTORE PUSH1 0x20 PUSH0 KECCAK256 SWAP1 JUMPDEST DUP2 SLOAD DUP2 MSTORE SWAP1 PUSH1 0x1 ADD SWAP1 PUSH1 0x20 ADD DUP1 DUP4 GT PUSH2 0x419 JUMPI DUP3 SWAP1 SUB PUSH1 0x1F AND DUP3 ADD SWAP2 JUMPDEST POP POP POP POP POP DUP2 MSTORE PUSH1 0x20 ADD PUSH1 0x1 DUP3 ADD DUP1 SLOAD PUSH2 0x44F SWAP1 PUSH2 0x1033 JUMP JUMPDEST DUP1 PUSH1 0x1F ADD PUSH1 0x20 DUP1 SWAP2 DIV MUL PUSH1 0x20 ADD PUSH1 0x40 MLOAD SWAP1 DUP2 ADD PUSH1 0x40 MSTORE DUP1 SWAP3 SWAP2 SWAP1 DUP2 DUP2 MSTORE PUSH1 0x20 ADD DUP3 DUP1 SLOAD PUSH2 0x47B SWAP1 PUSH2 0x1033 JUMP JUMPDEST DUP1 ISZERO PUSH2 0x4C6 JUMPI DUP1 PUSH1 0x1F LT PUSH2 0x49D JUMPI PUSH2 0x100 DUP1 DUP4 SLOAD DIV MUL DUP4 MSTORE SWAP2 PUSH1 0x20 ADD SWAP2 PUSH2 0x4C6 JUMP JUMPDEST DUP3 ADD SWAP2 SWAP1 PUSH0 MSTORE PUSH1 0x20 PUSH0 KECCAK256 SWAP1 JUMPDEST DUP2 SLOAD DUP2 MSTORE SWAP1 PUSH1 0x1 ADD SWAP1 PUSH1 0x20 ADD DUP1 DUP4 GT PUSH2 0x4A9 JUMPI DUP3 SWAP1 SUB PUSH1 0x1F AND DUP3 ADD SWAP2 JUMPDEST POP POP POP POP POP DUP2 MSTORE PUSH1 0x20 ADD PUSH1 0x2 DUP3 ADD SLOAD DUP2 MSTORE PUSH1 0x20 ADD PUSH1 0x3 DUP3 ADD SLOAD DUP2 MSTORE PUSH1 0x20 ADD PUSH1 0x4 DUP3 ADD SLOAD DUP2 MSTORE PUSH1 0x20 ADD PUSH1 0x5 DUP3 ADD SLOAD DUP2 MSTORE PUSH1 0x20 ADD PUSH1 0x6 DUP3 ADD PUSH0 SWAP1 SLOAD SWAP1 PUSH2 0x100 EXP SWAP1 DIV PUSH1 0xFF AND ISZERO ISZERO ISZERO ISZERO DUP2 MSTORE PUSH1 0x20 ADD PUSH1 0x6 DUP3 ADD PUSH1 0x1 SWAP1 SLOAD SWAP1 PUSH2 0x100 EXP SWAP1 DIV PUSH1 0xFF AND ISZERO ISZERO ISZERO ISZERO DUP2 MSTORE POP POP SWAP1 POP SWAP1 JUMP JUMPDEST PUSH0 DUP1 SLOAD SWAP1 PUSH2 0x100 EXP SWAP1 DIV PUSH20 0xFFFFFFFFFFFFFFFFFFFFFFFFFFFFFFFFFFFFFFFF AND PUSH20 0xFFFFFFFFFFFFFFFFFFFFFFFFFFFFFFFFFFFFFFFF AND CALLER PUSH20 0xFFFFFFFFFFFFFFFFFFFFFFFFFFFFFFFFFFFFFFFF AND EQ PUSH2 0x587 JUMPI PUSH0 DUP1 REVERT JUMPDEST PUSH1 0x1 ISZERO ISZERO PUSH1 0x2 PUSH0 PUSH1 0x1 SLOAD DUP2 MSTORE PUSH1 0x20 ADD SWAP1 DUP2 MSTORE PUSH1 0x20 ADD PUSH0 KECCAK256 PUSH1 0x6 ADD PUSH1 0x1 SWAP1 SLOAD SWAP1 PUSH2 0x100 EXP SWAP1 DIV PUSH1 0xFF AND ISZERO ISZERO EQ PUSH2 0x5F1 JUMPI PUSH1 0x40 MLOAD PUSH32 0x8C379A000000000000000000000000000000000000000000000000000000000 DUP2 MSTORE PUSH1 0x4 ADD PUSH2 0x5E8 SWAP1 PUSH2 0x1329 JUMP JUMPDEST PUSH1 0x40 MLOAD DUP1 SWAP2 SUB SWAP1 REVERT JUMPDEST PUSH0 PUSH1 0x2 PUSH0 PUSH1 0x1 SLOAD DUP2 MSTORE PUSH1 0x20 ADD SWAP1 DUP2 MSTORE PUSH1 0x20 ADD PUSH0 KECCAK256 PUSH1 0x6 ADD PUSH1 0x1 PUSH2 0x100 EXP DUP2 SLOAD DUP2 PUSH1 0xFF MUL NOT AND SWAP1 DUP4 ISZERO ISZERO MUL OR SWAP1 SSTORE POP JUMP JUMPDEST PUSH1 0x1 ISZERO ISZERO PUSH1 0x2 PUSH0 PUSH1 0x1 SLOAD DUP2 MSTORE PUSH1 0x20 ADD SWAP1 DUP2 MSTORE PUSH1 0x20 ADD PUSH0 KECCAK256 PUSH1 0x6 ADD PUSH1 0x1 SWAP1 SLOAD SWAP1 PUSH2 0x100 EXP SWAP1 DIV PUSH1 0xFF AND ISZERO ISZERO EQ PUSH2 0x68B JUMPI PUSH1 0x40 MLOAD PUSH32 0x8C379A000000000000000000000000000000000000000000000000000000000 DUP2 MSTORE PUSH1 0x4 ADD PUSH2 0x682 SWAP1 PUSH2 0x1329 JUMP JUMPDEST PUSH1 0x40 MLOAD DUP1 SWAP2 SUB SWAP1 REVERT JUMPDEST CALLER PUSH1 0x3 PUSH0 DUP3 PUSH20 0xFFFFFFFFFFFFFFFFFFFFFFFFFFFFFFFFFFFFFFFF AND PUSH20 0xFFFFFFFFFFFFFFFFFFFFFFFFFFFFFFFFFFFFFFFF AND DUP2 MSTORE PUSH1 0x20 ADD SWAP1 DUP2 MSTORE PUSH1 0x20 ADD PUSH0 KECCAK256 PUSH0 SWAP1 SLOAD SWAP1 PUSH2 0x100 EXP SWAP1 DIV PUSH1 0xFF AND ISZERO PUSH2 0x716 JUMPI PUSH1 0x40 MLOAD PUSH32 0x8C379A000000000000000000000000000000000000000000000000000000000 DUP2 MSTORE PUSH1 0x4 ADD PUSH2 0x70D SWAP1 PUSH2 0x1391 JUMP JUMPDEST PUSH1 0x40 MLOAD DUP1 SWAP2 SUB SWAP1 REVERT JUMPDEST PUSH0 PUSH1 0x2 PUSH0 PUSH1 0x1 SLOAD DUP2 MSTORE PUSH1 0x20 ADD SWAP1 DUP2 MSTORE PUSH1 0x20 ADD PUSH0 KECCAK256 SWAP1 POP PUSH0 DUP2 PUSH1 0x4 ADD SLOAD DUP3 PUSH1 0x3 ADD SLOAD DUP4 PUSH1 0x2 ADD SLOAD PUSH2 0x746 SWAP2 SWAP1 PUSH2 0xFA6 JUMP JUMPDEST PUSH2 0x750 SWAP2 SWAP1 PUSH2 0xFA6 JUMP JUMPDEST SWAP1 POP PUSH1 0x1 PUSH1 0x3 PUSH0 CALLER PUSH20 0xFFFFFFFFFFFFFFFFFFFFFFFFFFFFFFFFFFFFFFFF AND PUSH20 0xFFFFFFFFFFFFFFFFFFFFFFFFFFFFFFFFFFFFFFFF AND DUP2 MSTORE PUSH1 0x20 ADD SWAP1 DUP2 MSTORE PUSH1 0x20 ADD PUSH0 KECCAK256 PUSH0 PUSH2 0x100 EXP DUP2 SLOAD DUP2 PUSH1 0xFF MUL NOT AND SWAP1 DUP4 ISZERO ISZERO MUL OR SWAP1 SSTORE POP PUSH1 0x1 DUP5 PUSH1 0xFF AND SUB PUSH2 0x7F4 JUMPI PUSH1 0x1 DUP3 PUSH1 0x2 ADD PUSH0 DUP3 DUP3 SLOAD PUSH2 0x7C6 SWAP2 SWAP1 PUSH2 0xFA6 JUMP JUMPDEST SWAP3 POP POP DUP2 SWAP1 SSTORE POP PUSH2 0x7D5 PUSH2 0xAD5 JUMP JUMPDEST DUP3 PUSH1 0x6 ADD PUSH0 PUSH2 0x100 EXP DUP2 SLOAD DUP2 PUSH1 0xFF MUL NOT AND SWAP1 DUP4 ISZERO ISZERO MUL OR SWAP1 SSTORE POP PUSH2 0x88B JUMP JUMPDEST PUSH1 0x2 DUP5 PUSH1 0xFF AND SUB PUSH2 0x841 JUMPI PUSH1 0x1 DUP3 PUSH1 0x3 ADD PUSH0 DUP3 DUP3 SLOAD PUSH2 0x813 SWAP2 SWAP1 PUSH2 0xFA6 JUMP JUMPDEST SWAP3 POP POP DUP2 SWAP1 SSTORE POP PUSH2 0x822 PUSH2 0xAD5 JUMP JUMPDEST DUP3 PUSH1 0x6 ADD PUSH0 PUSH2 0x100 EXP DUP2 SLOAD DUP2 PUSH1 0xFF MUL NOT AND SWAP1 DUP4 ISZERO ISZERO MUL OR SWAP1 SSTORE POP PUSH2 0x88A JUMP JUMPDEST PUSH0 DUP5 PUSH1 0xFF AND SUB PUSH2 0x889 JUMPI PUSH1 0x1 DUP3 PUSH1 0x4 ADD PUSH0 DUP3 DUP3 SLOAD PUSH2 0x85F SWAP2 SWAP1 PUSH2 0xFA6 JUMP JUMPDEST SWAP3 POP POP DUP2 SWAP1 SSTORE POP PUSH2 0x86E PUSH2 0xAD5 JUMP JUMPDEST DUP3 PUSH1 0x6 ADD PUSH0 PUSH2 0x100 EXP DUP2 SLOAD DUP2 PUSH1 0xFF MUL NOT AND SWAP1 DUP4 ISZERO ISZERO MUL OR SWAP1 SSTORE POP JUMPDEST JUMPDEST JUMPDEST DUP2 PUSH1 0x6 ADD PUSH0 SWAP1 SLOAD SWAP1 PUSH2 0x100 EXP SWAP1 DIV PUSH1 0xFF AND PUSH1 0x2 PUSH0 PUSH1 0x1 SLOAD DUP2 MSTORE PUSH1 0x20 ADD SWAP1 DUP2 MSTORE PUSH1 0x20 ADD PUSH0 KECCAK256 PUSH1 0x6 ADD PUSH0 PUSH2 0x100 EXP DUP2 SLOAD DUP2 PUSH1 0xFF MUL NOT AND SWAP1 DUP4 ISZERO ISZERO MUL OR SWAP1 SSTORE POP PUSH1 0x1 DUP2 DUP4 PUSH1 0x5 ADD SLOAD PUSH2 0x8DA SWAP2 SWAP1 PUSH2 0x13AF JUMP JUMPDEST EQ DUP1 ISZERO PUSH2 0x905 JUMPI POP PUSH1 0x1 DUP5 PUSH1 0xFF AND EQ DUP1 PUSH2 0x8F7 JUMPI POP PUSH1 0x2 DUP5 PUSH1 0xFF AND EQ JUMPDEST DUP1 PUSH2 0x904 JUMPI POP PUSH0 DUP5 PUSH1 0xFF AND EQ JUMPDEST JUMPDEST ISZERO PUSH2 0x927 JUMPI PUSH0 DUP3 PUSH1 0x6 ADD PUSH1 0x1 PUSH2 0x100 EXP DUP2 SLOAD DUP2 PUSH1 0xFF MUL NOT AND SWAP1 DUP4 ISZERO ISZERO MUL OR SWAP1 SSTORE POP JUMPDEST POP POP POP POP JUMP JUMPDEST PUSH2 0x935 PUSH2 0xB71 JUMP JUMPDEST PUSH1 0x2 PUSH0 DUP4 DUP2 MSTORE PUSH1 0x20 ADD SWAP1 DUP2 MSTORE PUSH1 0x20 ADD PUSH0 KECCAK256 PUSH1 0x40 MLOAD DUP1 PUSH2 0x100 ADD PUSH1 0x40 MSTORE SWAP1 DUP2 PUSH0 DUP3 ADD DUP1 SLOAD PUSH2 0x961 SWAP1 PUSH2 0x1033 JUMP JUMPDEST DUP1 PUSH1 0x1F ADD PUSH1 0x20 DUP1 SWAP2 DIV MUL PUSH1 0x20 ADD PUSH1 0x40 MLOAD SWAP1 DUP2 ADD PUSH1 0x40 MSTORE DUP1 SWAP3 SWAP2 SWAP1 DUP2 DUP2 MSTORE PUSH1 0x20 ADD DUP3 DUP1 SLOAD PUSH2 0x98D SWAP1 PUSH2 0x1033 JUMP JUMPDEST DUP1 ISZERO PUSH2 0x9D8 JUMPI DUP1 PUSH1 0x1F LT PUSH2 0x9AF JUMPI PUSH2 0x100 DUP1 DUP4 SLOAD DIV MUL DUP4 MSTORE SWAP2 PUSH1 0x20 ADD SWAP2 PUSH2 0x9D8 JUMP JUMPDEST DUP3 ADD SWAP2 SWAP1 PUSH0 MSTORE PUSH1 0x20 PUSH0 KECCAK256 SWAP1 JUMPDEST DUP2 SLOAD DUP2 MSTORE SWAP1 PUSH1 0x1 ADD SWAP1 PUSH1 0x20 ADD DUP1 DUP4 GT PUSH2 0x9BB JUMPI DUP3 SWAP1 SUB PUSH1 0x1F AND DUP3 ADD SWAP2 JUMPDEST POP POP POP POP POP DUP2 MSTORE PUSH1 0x20 ADD PUSH1 0x1 DUP3 ADD DUP1 SLOAD PUSH2 0x9F1 SWAP1 PUSH2 0x1033 JUMP JUMPDEST DUP1 PUSH1 0x1F ADD PUSH1 0x20 DUP1 SWAP2 DIV MUL PUSH1 0x20 ADD PUSH1 0x40 MLOAD SWAP1 DUP2 ADD PUSH1 0x40 MSTORE DUP1 SWAP3 SWAP2 SWAP1 DUP2 DUP2 MSTORE PUSH1 0x20 ADD DUP3 DUP1 SLOAD PUSH2 0xA1D SWAP1 PUSH2 0x1033 JUMP JUMPDEST DUP1 ISZERO PUSH2 0xA68 JUMPI DUP1 PUSH1 0x1F LT PUSH2 0xA3F JUMPI PUSH2 0x100 DUP1 DUP4 SLOAD DIV MUL DUP4 MSTORE SWAP2 PUSH1 0x20 ADD SWAP2 PUSH2 0xA68 JUMP JUMPDEST DUP3 ADD SWAP2 SWAP1 PUSH0 MSTORE PUSH1 0x20 PUSH0 KECCAK256 SWAP1 JUMPDEST DUP2 SLOAD DUP2 MSTORE SWAP1 PUSH1 0x1 ADD SWAP1 PUSH1 0x20 ADD DUP1 DUP4 GT PUSH2 0xA4B JUMPI DUP3 SWAP1 SUB PUSH1 0x1F AND DUP3 ADD SWAP2 JUMPDEST POP POP POP POP POP DUP2 MSTORE PUSH1 0x20 ADD PUSH1 0x2 DUP3 ADD SLOAD DUP2 MSTORE PUSH1 0x20 ADD PUSH1 0x3 DUP3 ADD SLOAD DUP2 MSTORE PUSH1 0x20 ADD PUSH1 0x4 DUP3 ADD SLOAD DUP2 MSTORE PUSH1 0x20 ADD PUSH1 0x5 DUP3 ADD SLOAD DUP2 MSTORE PUSH1 0x20 ADD PUSH1 0x6 DUP3 ADD PUSH0 SWAP1 SLOAD SWAP1 PUSH2 0x100 EXP SWAP1 DIV PUSH1 0xFF AND ISZERO ISZERO ISZERO ISZERO DUP2 MSTORE PUSH1 0x20 ADD PUSH1 0x6 DUP3 ADD PUSH1 0x1 SWAP1 SLOAD SWAP1 PUSH2 0x100 EXP SWAP1 DIV PUSH1 0xFF AND ISZERO ISZERO ISZERO ISZERO DUP2 MSTORE POP POP SWAP1 POP SWAP2 SWAP1 POP JUMP JUMPDEST PUSH0 DUP1 PUSH1 0x2 PUSH0 PUSH1 0x1 SLOAD DUP2 MSTORE PUSH1 0x20 ADD SWAP1 DUP2 MSTORE PUSH1 0x20 ADD PUSH0 KECCAK256 SWAP1 POP PUSH0 DUP2 PUSH1 0x2 ADD SLOAD SWAP1 POP PUSH0 DUP3 PUSH1 0x3 ADD SLOAD SWAP1 POP PUSH0 DUP4 PUSH1 0x4 ADD SLOAD SWAP1 POP PUSH0 PUSH1 0x2 DUP3 PUSH2 0xB12 SWAP2 SWAP1 PUSH2 0x140F JUMP JUMPDEST EQ PUSH2 0xB29 JUMPI PUSH1 0x1 DUP2 PUSH2 0xB24 SWAP2 SWAP1 PUSH2 0xFA6 JUMP JUMPDEST PUSH2 0xB2B JUMP JUMPDEST DUP1 JUMPDEST SWAP1 POP PUSH1 0x2 DUP2 PUSH2 0xB3A SWAP2 SWAP1 PUSH2 0x143F JUMP JUMPDEST SWAP1 POP DUP2 DUP4 GT DUP1 PUSH2 0xB54 JUMPI POP DUP2 DUP2 DUP5 PUSH2 0xB52 SWAP2 SWAP1 PUSH2 0xFA6 JUMP JUMPDEST GT JUMPDEST ISZERO PUSH2 0xB66 JUMPI PUSH1 0x1 SWAP5 POP POP POP POP POP PUSH2 0xB6E JUMP JUMPDEST PUSH0 SWAP5 POP POP POP POP POP JUMPDEST SWAP1 JUMP JUMPDEST PUSH1 0x40 MLOAD DUP1 PUSH2 0x100 ADD PUSH1 0x40 MSTORE DUP1 PUSH1 0x60 DUP2 MSTORE PUSH1 0x20 ADD PUSH1 0x60 DUP2 MSTORE PUSH1 0x20 ADD PUSH0 DUP2 MSTORE PUSH1 0x20 ADD PUSH0 DUP2 MSTORE PUSH1 0x20 ADD PUSH0 DUP2 MSTORE PUSH1 0x20 ADD PUSH0 DUP2 MSTORE PUSH1 0x20 ADD PUSH0 ISZERO ISZERO DUP2 MSTORE PUSH1 0x20 ADD PUSH0 ISZERO ISZERO DUP2 MSTORE POP SWAP1 JUMP JUMPDEST PUSH0 DUP1 REVERT JUMPDEST PUSH0 DUP1 REVERT JUMPDEST PUSH0 PUSH20 0xFFFFFFFFFFFFFFFFFFFFFFFFFFFFFFFFFFFFFFFF DUP3 AND SWAP1 POP SWAP2 SWAP1 POP JUMP JUMPDEST PUSH0 PUSH2 0xBE5 DUP3 PUSH2 0xBBC JUMP JUMPDEST SWAP1 POP SWAP2 SWAP1 POP JUMP JUMPDEST PUSH2 0xBF5 DUP2 PUSH2 0xBDB JUMP JUMPDEST DUP2 EQ PUSH2 0xBFF JUMPI PUSH0 DUP1 REVERT JUMPDEST POP JUMP JUMPDEST PUSH0 DUP2 CALLDATALOAD SWAP1 POP PUSH2 0xC10 DUP2 PUSH2 0xBEC JUMP JUMPDEST SWAP3 SWAP2 POP POP JUMP JUMPDEST PUSH0 PUSH1 0x20 DUP3 DUP5 SUB SLT ISZERO PUSH2 0xC2B JUMPI PUSH2 0xC2A PUSH2 0xBB4 JUMP JUMPDEST JUMPDEST PUSH0 PUSH2 0xC38 DUP5 DUP3 DUP6 ADD PUSH2 0xC02 JUMP JUMPDEST SWAP2 POP POP SWAP3 SWAP2 POP POP JUMP JUMPDEST PUSH0 DUP1 REVERT JUMPDEST PUSH0 DUP1 REVERT JUMPDEST PUSH0 DUP1 REVERT JUMPDEST PUSH0 DUP1 DUP4 PUSH1 0x1F DUP5 ADD SLT PUSH2 0xC62 JUMPI PUSH2 0xC61 PUSH2 0xC41 JUMP JUMPDEST JUMPDEST DUP3 CALLDATALOAD SWAP1 POP PUSH8 0xFFFFFFFFFFFFFFFF DUP2 GT ISZERO PUSH2 0xC7F JUMPI PUSH2 0xC7E PUSH2 0xC45 JUMP JUMPDEST JUMPDEST PUSH1 0x20 DUP4 ADD SWAP2 POP DUP4 PUSH1 0x1 DUP3 MUL DUP4 ADD GT ISZERO PUSH2 0xC9B JUMPI PUSH2 0xC9A PUSH2 0xC49 JUMP JUMPDEST JUMPDEST SWAP3 POP SWAP3 SWAP1 POP JUMP JUMPDEST PUSH0 DUP2 SWAP1 POP SWAP2 SWAP1 POP JUMP JUMPDEST PUSH2 0xCB4 DUP2 PUSH2 0xCA2 JUMP JUMPDEST DUP2 EQ PUSH2 0xCBE JUMPI PUSH0 DUP1 REVERT JUMPDEST POP JUMP JUMPDEST PUSH0 DUP2 CALLDATALOAD SWAP1 POP PUSH2 0xCCF DUP2 PUSH2 0xCAB JUMP JUMPDEST SWAP3 SWAP2 POP POP JUMP JUMPDEST PUSH0 DUP1 PUSH0 DUP1 PUSH0 PUSH1 0x60 DUP7 DUP9 SUB SLT ISZERO PUSH2 0xCEE JUMPI PUSH2 0xCED PUSH2 0xBB4 JUMP JUMPDEST JUMPDEST PUSH0 DUP7 ADD CALLDATALOAD PUSH8 0xFFFFFFFFFFFFFFFF DUP2 GT ISZERO PUSH2 0xD0B JUMPI PUSH2 0xD0A PUSH2 0xBB8 JUMP JUMPDEST JUMPDEST PUSH2 0xD17 DUP9 DUP3 DUP10 ADD PUSH2 0xC4D JUMP JUMPDEST SWAP6 POP SWAP6 POP POP PUSH1 0x20 DUP7 ADD CALLDATALOAD PUSH8 0xFFFFFFFFFFFFFFFF DUP2 GT ISZERO PUSH2 0xD3A JUMPI PUSH2 0xD39 PUSH2 0xBB8 JUMP JUMPDEST JUMPDEST PUSH2 0xD46 DUP9 DUP3 DUP10 ADD PUSH2 0xC4D JUMP JUMPDEST SWAP4 POP SWAP4 POP POP PUSH1 0x40 PUSH2 0xD59 DUP9 DUP3 DUP10 ADD PUSH2 0xCC1 JUMP JUMPDEST SWAP2 POP POP SWAP3 SWAP6 POP SWAP3 SWAP6 SWAP1 SWAP4 POP JUMP JUMPDEST PUSH0 DUP2 MLOAD SWAP1 POP SWAP2 SWAP1 POP JUMP JUMPDEST PUSH0 DUP3 DUP3 MSTORE PUSH1 0x20 DUP3 ADD SWAP1 POP SWAP3 SWAP2 POP POP JUMP JUMPDEST PUSH0 JUMPDEST DUP4 DUP2 LT ISZERO PUSH2 0xD9D JUMPI DUP1 DUP3 ADD MLOAD DUP2 DUP5 ADD MSTORE PUSH1 0x20 DUP2 ADD SWAP1 POP PUSH2 0xD82 JUMP JUMPDEST PUSH0 DUP5 DUP5 ADD MSTORE POP POP POP POP JUMP JUMPDEST PUSH0 PUSH1 0x1F NOT PUSH1 0x1F DUP4 ADD AND SWAP1 POP SWAP2 SWAP1 POP JUMP JUMPDEST PUSH0 PUSH2 0xDC2 DUP3 PUSH2 0xD66 JUMP JUMPDEST PUSH2 0xDCC DUP2 DUP6 PUSH2 0xD70 JUMP JUMPDEST SWAP4 POP PUSH2 0xDDC DUP2 DUP6 PUSH1 0x20 DUP7 ADD PUSH2 0xD80 JUMP JUMPDEST PUSH2 0xDE5 DUP2 PUSH2 0xDA8 JUMP JUMPDEST DUP5 ADD SWAP2 POP POP SWAP3 SWAP2 POP POP JUMP JUMPDEST PUSH2 0xDF9 DUP2 PUSH2 0xCA2 JUMP JUMPDEST DUP3 MSTORE POP POP JUMP JUMPDEST PUSH0 DUP2 ISZERO ISZERO SWAP1 POP SWAP2 SWAP1 POP JUMP JUMPDEST PUSH2 0xE13 DUP2 PUSH2 0xDFF JUMP JUMPDEST DUP3 MSTORE POP POP JUMP JUMPDEST PUSH0 PUSH2 0x100 DUP4 ADD PUSH0 DUP4 ADD MLOAD DUP5 DUP3 SUB PUSH0 DUP7 ADD MSTORE PUSH2 0xE34 DUP3 DUP3 PUSH2 0xDB8 JUMP JUMPDEST SWAP2 POP POP PUSH1 0x20 DUP4 ADD MLOAD DUP5 DUP3 SUB PUSH1 0x20 DUP7 ADD MSTORE PUSH2 0xE4E DUP3 DUP3 PUSH2 0xDB8 JUMP JUMPDEST SWAP2 POP POP PUSH1 0x40 DUP4 ADD MLOAD PUSH2 0xE63 PUSH1 0x40 DUP7 ADD DUP3 PUSH2 0xDF0 JUMP JUMPDEST POP PUSH1 0x60 DUP4 ADD MLOAD PUSH2 0xE76 PUSH1 0x60 DUP7 ADD DUP3 PUSH2 0xDF0 JUMP JUMPDEST POP PUSH1 0x80 DUP4 ADD MLOAD PUSH2 0xE89 PUSH1 0x80 DUP7 ADD DUP3 PUSH2 0xDF0 JUMP JUMPDEST POP PUSH1 0xA0 DUP4 ADD MLOAD PUSH2 0xE9C PUSH1 0xA0 DUP7 ADD DUP3 PUSH2 0xDF0 JUMP JUMPDEST POP PUSH1 0xC0 DUP4 ADD MLOAD PUSH2 0xEAF PUSH1 0xC0 DUP7 ADD DUP3 PUSH2 0xE0A JUMP JUMPDEST POP PUSH1 0xE0 DUP4 ADD MLOAD PUSH2 0xEC2 PUSH1 0xE0 DUP7 ADD DUP3 PUSH2 0xE0A JUMP JUMPDEST POP DUP1 SWAP2 POP POP SWAP3 SWAP2 POP POP JUMP JUMPDEST PUSH0 PUSH1 0x20 DUP3 ADD SWAP1 POP DUP2 DUP2 SUB PUSH0 DUP4 ADD MSTORE PUSH2 0xEE5 DUP2 DUP5 PUSH2 0xE19 JUMP JUMPDEST SWAP1 POP SWAP3 SWAP2 POP POP JUMP JUMPDEST PUSH0 PUSH1 0xFF DUP3 AND SWAP1 POP SWAP2 SWAP1 POP JUMP JUMPDEST PUSH2 0xF02 DUP2 PUSH2 0xEED JUMP JUMPDEST DUP2 EQ PUSH2 0xF0C JUMPI PUSH0 DUP1 REVERT JUMPDEST POP JUMP JUMPDEST PUSH0 DUP2 CALLDATALOAD SWAP1 POP PUSH2 0xF1D DUP2 PUSH2 0xEF9 JUMP JUMPDEST SWAP3 SWAP2 POP POP JUMP JUMPDEST PUSH0 PUSH1 0x20 DUP3 DUP5 SUB SLT ISZERO PUSH2 0xF38 JUMPI PUSH2 0xF37 PUSH2 0xBB4 JUMP JUMPDEST JUMPDEST PUSH0 PUSH2 0xF45 DUP5 DUP3 DUP6 ADD PUSH2 0xF0F JUMP JUMPDEST SWAP2 POP POP SWAP3 SWAP2 POP POP JUMP JUMPDEST PUSH0 PUSH1 0x20 DUP3 DUP5 SUB SLT ISZERO PUSH2 0xF63 JUMPI PUSH2 0xF62 PUSH2 0xBB4 JUMP JUMPDEST JUMPDEST PUSH0 PUSH2 0xF70 DUP5 DUP3 DUP6 ADD PUSH2 0xCC1 JUMP JUMPDEST SWAP2 POP POP SWAP3 SWAP2 POP POP JUMP JUMPDEST PUSH32 0x4E487B7100000000000000000000000000000000000000000000000000000000 PUSH0 MSTORE PUSH1 0x11 PUSH1 0x4 MSTORE PUSH1 0x24 PUSH0 REVERT JUMPDEST PUSH0 PUSH2 0xFB0 DUP3 PUSH2 0xCA2 JUMP JUMPDEST SWAP2 POP PUSH2 0xFBB DUP4 PUSH2 0xCA2 JUMP JUMPDEST SWAP3 POP DUP3 DUP3 ADD SWAP1 POP DUP1 DUP3 GT ISZERO PUSH2 0xFD3 JUMPI PUSH2 0xFD2 PUSH2 0xF79 JUMP JUMPDEST JUMPDEST SWAP3 SWAP2 POP POP JUMP JUMPDEST PUSH32 0x4E487B7100000000000000000000000000000000000000000000000000000000 PUSH0 MSTORE PUSH1 0x41 PUSH1 0x4 MSTORE PUSH1 0x24 PUSH0 REVERT JUMPDEST PUSH32 0x4E487B7100000000000000000000000000000000000000000000000000000000 PUSH0 MSTORE PUSH1 0x22 PUSH1 0x4 MSTORE PUSH1 0x24 PUSH0 REVERT JUMPDEST PUSH0 PUSH1 0x2 DUP3 DIV SWAP1 POP PUSH1 0x1 DUP3 AND DUP1 PUSH2 0x104A JUMPI PUSH1 0x7F DUP3 AND SWAP2 POP JUMPDEST PUSH1 0x20 DUP3 LT DUP2 SUB PUSH2 0x105D JUMPI PUSH2 0x105C PUSH2 0x1006 JUMP JUMPDEST JUMPDEST POP SWAP2 SWAP1 POP JUMP JUMPDEST PUSH0 DUP2 SWAP1 POP DUP2 PUSH0 MSTORE PUSH1 0x20 PUSH0 KECCAK256 SWAP1 POP SWAP2 SWAP1 POP JUMP JUMPDEST PUSH0 PUSH1 0x20 PUSH1 0x1F DUP4 ADD DIV SWAP1 POP SWAP2 SWAP1 POP JUMP JUMPDEST PUSH0 DUP3 DUP3 SHL SWAP1 POP SWAP3 SWAP2 POP POP JUMP JUMPDEST PUSH0 PUSH1 0x8 DUP4 MUL PUSH2 0x10BF PUSH32 0xFFFFFFFFFFFFFFFFFFFFFFFFFFFFFFFFFFFFFFFFFFFFFFFFFFFFFFFFFFFFFFFF DUP3 PUSH2 0x1084 JUMP JUMPDEST PUSH2 0x10C9 DUP7 DUP4 PUSH2 0x1084 JUMP JUMPDEST SWAP6 POP DUP1 NOT DUP5 AND SWAP4 POP DUP1 DUP7 AND DUP5 OR SWAP3 POP POP POP SWAP4 SWAP3 POP POP POP JUMP JUMPDEST PUSH0 DUP2 SWAP1 POP SWAP2 SWAP1 POP JUMP JUMPDEST PUSH0 PUSH2 0x1104 PUSH2 0x10FF PUSH2 0x10FA DUP5 PUSH2 0xCA2 JUMP JUMPDEST PUSH2 0x10E1 JUMP JUMPDEST PUSH2 0xCA2 JUMP JUMPDEST SWAP1 POP SWAP2 SWAP1 POP JUMP JUMPDEST PUSH0 DUP2 SWAP1 POP SWAP2 SWAP1 POP JUMP JUMPDEST PUSH2 0x111D DUP4 PUSH2 0x10EA JUMP JUMPDEST PUSH2 0x1131 PUSH2 0x1129 DUP3 PUSH2 0x110B JUMP JUMPDEST DUP5 DUP5 SLOAD PUSH2 0x1090 JUMP JUMPDEST DUP3 SSTORE POP POP POP POP JUMP JUMPDEST PUSH0 SWAP1 JUMP JUMPDEST PUSH2 0x1145 PUSH2 0x1139 JUMP JUMPDEST PUSH2 0x1150 DUP2 DUP5 DUP5 PUSH2 0x1114 JUMP JUMPDEST POP POP POP JUMP JUMPDEST JUMPDEST DUP2 DUP2 LT ISZERO PUSH2 0x1173 JUMPI PUSH2 0x1168 PUSH0 DUP3 PUSH2 0x113D JUMP JUMPDEST PUSH1 0x1 DUP2 ADD SWAP1 POP PUSH2 0x1156 JUMP JUMPDEST POP POP JUMP JUMPDEST PUSH1 0x1F DUP3 GT ISZERO PUSH2 0x11B8 JUMPI PUSH2 0x1189 DUP2 PUSH2 0x1063 JUMP JUMPDEST PUSH2 0x1192 DUP5 PUSH2 0x1075 JUMP JUMPDEST DUP2 ADD PUSH1 0x20 DUP6 LT ISZERO PUSH2 0x11A1 JUMPI DUP2 SWAP1 POP JUMPDEST PUSH2 0x11B5 PUSH2 0x11AD DUP6 PUSH2 0x1075 JUMP JUMPDEST DUP4 ADD DUP3 PUSH2 0x1155 JUMP JUMPDEST POP POP JUMPDEST POP POP POP JUMP JUMPDEST PUSH0 DUP3 DUP3 SHR SWAP1 POP SWAP3 SWAP2 POP POP JUMP JUMPDEST PUSH0 PUSH2 0x11D8 PUSH0 NOT DUP5 PUSH1 0x8 MUL PUSH2 0x11BD JUMP JUMPDEST NOT DUP1 DUP4 AND SWAP2 POP POP SWAP3 SWAP2 POP POP JUMP JUMPDEST PUSH0 PUSH2 0x11F0 DUP4 DUP4 PUSH2 0x11C9 JUMP JUMPDEST SWAP2 POP DUP3 PUSH1 0x2 MUL DUP3 OR SWAP1 POP SWAP3 SWAP2 POP POP JUMP JUMPDEST PUSH2 0x1209 DUP3 PUSH2 0xD66 JUMP JUMPDEST PUSH8 0xFFFFFFFFFFFFFFFF DUP2 GT ISZERO PUSH2 0x1222 JUMPI PUSH2 0x1221 PUSH2 0xFD9 JUMP JUMPDEST JUMPDEST PUSH2 0x122C DUP3 SLOAD PUSH2 0x1033 JUMP JUMPDEST PUSH2 0x1237 DUP3 DUP3 DUP6 PUSH2 0x1177 JUMP JUMPDEST PUSH0 PUSH1 0x20 SWAP1 POP PUSH1 0x1F DUP4 GT PUSH1 0x1 DUP2 EQ PUSH2 0x1268 JUMPI PUSH0 DUP5 ISZERO PUSH2 0x1256 JUMPI DUP3 DUP8 ADD MLOAD SWAP1 POP JUMPDEST PUSH2 0x1260 DUP6 DUP3 PUSH2 0x11E5 JUMP JUMPDEST DUP7 SSTORE POP PUSH2 0x12C7 JUMP JUMPDEST PUSH1 0x1F NOT DUP5 AND PUSH2 0x1276 DUP7 PUSH2 0x1063 JUMP JUMPDEST PUSH0 JUMPDEST DUP3 DUP2 LT ISZERO PUSH2 0x129D JUMPI DUP5 DUP10 ADD MLOAD DUP3 SSTORE PUSH1 0x1 DUP3 ADD SWAP2 POP PUSH1 0x20 DUP6 ADD SWAP5 POP PUSH1 0x20 DUP2 ADD SWAP1 POP PUSH2 0x1278 JUMP JUMPDEST DUP7 DUP4 LT ISZERO PUSH2 0x12BA JUMPI DUP5 DUP10 ADD MLOAD PUSH2 0x12B6 PUSH1 0x1F DUP10 AND DUP3 PUSH2 0x11C9 JUMP JUMPDEST DUP4 SSTORE POP JUMPDEST PUSH1 0x1 PUSH1 0x2 DUP9 MUL ADD DUP9 SSTORE POP POP POP JUMPDEST POP POP POP POP POP POP JUMP JUMPDEST PUSH0 DUP3 DUP3 MSTORE PUSH1 0x20 DUP3 ADD SWAP1 POP SWAP3 SWAP2 POP POP JUMP JUMPDEST PUSH32 0x5468652070726F706F73616C206973206E6F7420616374697665000000000000 PUSH0 DUP3 ADD MSTORE POP JUMP JUMPDEST PUSH0 PUSH2 0x1313 PUSH1 0x1A DUP4 PUSH2 0x12CF JUMP JUMPDEST SWAP2 POP PUSH2 0x131E DUP3 PUSH2 0x12DF JUMP JUMPDEST PUSH1 0x20 DUP3 ADD SWAP1 POP SWAP2 SWAP1 POP JUMP JUMPDEST PUSH0 PUSH1 0x20 DUP3 ADD SWAP1 POP DUP2 DUP2 SUB PUSH0 DUP4 ADD MSTORE PUSH2 0x1340 DUP2 PUSH2 0x1307 JUMP JUMPDEST SWAP1 POP SWAP2 SWAP1 POP JUMP JUMPDEST PUSH32 0x416464726573732068617320616C726561647920766F74656400000000000000 PUSH0 DUP3 ADD MSTORE POP JUMP JUMPDEST PUSH0 PUSH2 0x137B PUSH1 0x19 DUP4 PUSH2 0x12CF JUMP JUMPDEST SWAP2 POP PUSH2 0x1386 DUP3 PUSH2 0x1347 JUMP JUMPDEST PUSH1 0x20 DUP3 ADD SWAP1 POP SWAP2 SWAP1 POP JUMP JUMPDEST PUSH0 PUSH1 0x20 DUP3 ADD SWAP1 POP DUP2 DUP2 SUB PUSH0 DUP4 ADD MSTORE PUSH2 0x13A8 DUP2 PUSH2 0x136F JUMP JUMPDEST SWAP1 POP SWAP2 SWAP1 POP JUMP JUMPDEST PUSH0 PUSH2 0x13B9 DUP3 PUSH2 0xCA2 JUMP JUMPDEST SWAP2 POP PUSH2 0x13C4 DUP4 PUSH2 0xCA2 JUMP JUMPDEST SWAP3 POP DUP3 DUP3 SUB SWAP1 POP DUP2 DUP2 GT ISZERO PUSH2 0x13DC JUMPI PUSH2 0x13DB PUSH2 0xF79 JUMP JUMPDEST JUMPDEST SWAP3 SWAP2 POP POP JUMP JUMPDEST PUSH32 0x4E487B7100000000000000000000000000000000000000000000000000000000 PUSH0 MSTORE PUSH1 0x12 PUSH1 0x4 MSTORE PUSH1 0x24 PUSH0 REVERT JUMPDEST PUSH0 PUSH2 0x1419 DUP3 PUSH2 0xCA2 JUMP JUMPDEST SWAP2 POP PUSH2 0x1424 DUP4 PUSH2 0xCA2 JUMP JUMPDEST SWAP3 POP DUP3 PUSH2 0x1434 JUMPI PUSH2 0x1433 PUSH2 0x13E2 JUMP JUMPDEST JUMPDEST DUP3 DUP3 MOD SWAP1 POP SWAP3 SWAP2 POP POP JUMP JUMPDEST PUSH0 PUSH2 0x1449 DUP3 PUSH2 0xCA2 JUMP JUMPDEST SWAP2 POP PUSH2 0x1454 DUP4 PUSH2 0xCA2 JUMP JUMPDEST SWAP3 POP DUP3 PUSH2 0x1464 JUMPI PUSH2 0x1463 PUSH2 0x13E2 JUMP JUMPDEST JUMPDEST DUP3 DUP3 DIV SWAP1 POP SWAP3 SWAP2 POP POP JUMP INVALID LOG2 PUSH5 0x6970667358 0x22 SLT KECCAK256 EXTCODESIZE 0xFB 0x28 0xDC SUB PUSH4 0x44A44395 0xEA DUP4 0xC7 LOG0 0xB5 0xB2 DUP15 0xA7 SWAP2 KECCAK256 0xE0 0x22 0xD0 0x24 0x4C SDIV 0xCF 0x4D 0x24 MSIZE PREVRANDAO 0xB1 PUSH5 0x736F6C6343 STOP ADDMOD XOR STOP CALLER "
				},
				"gasEstimates": {
					"creation": {
						"codeDepositCost": "1057000",
						"executionCost": "25363",
						"totalCost": "1082363"
					},
					"external": {
						"create(string,string,uint256)": "infinite",
						"getCurrentProposal()": "infinite",
						"getProposal(uint256)": "infinite",
						"setOwner(address)": "26859",
						"teminateProposal()": "33254",
						"vote(uint8)": "infinite"
					},
					"internal": {
						"calculateCurrentState()": "infinite"
					}
				},
				"methodIdentifiers": {
					"create(string,string,uint256)": "3ca6d100",
					"getCurrentProposal()": "41ec6870",
					"getProposal(uint256)": "c7f758a8",
					"setOwner(address)": "13af4035",
					"teminateProposal()": "89190393",
					"vote(uint8)": "b3f98adc"
				}
			},
			"storageLayout": {
				"storage": [
					{
						"astId": 3,
						"contract": "contracts/proposal.sol:ProposalContract",
						"label": "owner",
						"offset": 0,
						"slot": "0",
						"type": "t_address"
					},
					{
						"astId": 5,
						"contract": "contracts/proposal.sol:ProposalContract",
						"label": "counter",
						"offset": 0,
						"slot": "1",
						"type": "t_uint256"
					},
					{
						"astId": 27,
						"contract": "contracts/proposal.sol:ProposalContract",
						"label": "proposal_history",
						"offset": 0,
						"slot": "2",
						"type": "t_mapping(t_uint256,t_struct(Proposal)22_storage)"
					},
					{
						"astId": 31,
						"contract": "contracts/proposal.sol:ProposalContract",
						"label": "voted_addresses",
						"offset": 0,
						"slot": "3",
						"type": "t_mapping(t_address,t_bool)"
					}
				],
				"types": {
					"t_address": {
						"encoding": "inplace",
						"label": "address",
						"numberOfBytes": "20"
					},
					"t_bool": {
						"encoding": "inplace",
						"label": "bool",
						"numberOfBytes": "1"
					},
					"t_mapping(t_address,t_bool)": {
						"encoding": "mapping",
						"key": "t_address",
						"label": "mapping(address => bool)",
						"numberOfBytes": "32",
						"value": "t_bool"
					},
					"t_mapping(t_uint256,t_struct(Proposal)22_storage)": {
						"encoding": "mapping",
						"key": "t_uint256",
						"label": "mapping(uint256 => struct ProposalContract.Proposal)",
						"numberOfBytes": "32",
						"value": "t_struct(Proposal)22_storage"
					},
					"t_string_storage": {
						"encoding": "bytes",
						"label": "string",
						"numberOfBytes": "32"
					},
					"t_struct(Proposal)22_storage": {
						"encoding": "inplace",
						"label": "struct ProposalContract.Proposal",
						"members": [
							{
								"astId": 7,
								"contract": "contracts/proposal.sol:ProposalContract",
								"label": "title",
								"offset": 0,
								"slot": "0",
								"type": "t_string_storage"
							},
							{
								"astId": 9,
								"contract": "contracts/proposal.sol:ProposalContract",
								"label": "description",
								"offset": 0,
								"slot": "1",
								"type": "t_string_storage"
							},
							{
								"astId": 11,
								"contract": "contracts/proposal.sol:ProposalContract",
								"label": "approve",
								"offset": 0,
								"slot": "2",
								"type": "t_uint256"
							},
							{
								"astId": 13,
								"contract": "contracts/proposal.sol:ProposalContract",
								"label": "reject",
								"offset": 0,
								"slot": "3",
								"type": "t_uint256"
							},
							{
								"astId": 15,
								"contract": "contracts/proposal.sol:ProposalContract",
								"label": "pass",
								"offset": 0,
								"slot": "4",
								"type": "t_uint256"
							},
							{
								"astId": 17,
								"contract": "contracts/proposal.sol:ProposalContract",
								"label": "total_vote_to_end",
								"offset": 0,
								"slot": "5",
								"type": "t_uint256"
							},
							{
								"astId": 19,
								"contract": "contracts/proposal.sol:ProposalContract",
								"label": "current_state",
								"offset": 0,
								"slot": "6",
								"type": "t_bool"
							},
							{
								"astId": 21,
								"contract": "contracts/proposal.sol:ProposalContract",
								"label": "is_active",
								"offset": 1,
								"slot": "6",
								"type": "t_bool"
							}
						],
						"numberOfBytes": "224"
					},
					"t_uint256": {
						"encoding": "inplace",
						"label": "uint256",
						"numberOfBytes": "32"
					}
				}
			},
			"userdoc": {
				"kind": "user",
				"methods": {},
				"version": 1
			}
		}
	}
}